{
  "contractName": "IdentityManager",
  "abi": [
    {
      "anonymous": false,
      "inputs": [
        {
          "indexed": false,
          "internalType": "string",
          "name": "name",
          "type": "string"
        },
        {
          "indexed": false,
          "internalType": "string",
          "name": "data",
          "type": "string"
        },
        {
          "indexed": false,
          "internalType": "address",
          "name": "owner",
          "type": "address"
        },
        {
          "indexed": false,
          "internalType": "address",
          "name": "issuer",
          "type": "address"
        }
      ],
      "name": "DocumentIssued",
      "type": "event"
    },
    {
      "anonymous": false,
      "inputs": [
        {
          "indexed": false,
          "internalType": "address",
          "name": "verifier",
          "type": "address"
        },
        {
          "indexed": false,
          "internalType": "address",
          "name": "owner",
          "type": "address"
        },
        {
          "indexed": false,
          "internalType": "string",
          "name": "docName",
          "type": "string"
        },
        {
          "indexed": false,
          "internalType": "string",
          "name": "properties",
          "type": "string"
        },
        {
          "indexed": false,
          "internalType": "string",
          "name": "status",
          "type": "string"
        }
      ],
      "name": "RequestGenerated",
      "type": "event"
    },
    {
      "anonymous": false,
      "inputs": [
        {
          "indexed": false,
          "internalType": "address",
          "name": "verifier",
          "type": "address"
        },
        {
          "indexed": false,
          "internalType": "address",
          "name": "owner",
          "type": "address"
        },
        {
          "indexed": false,
          "internalType": "string",
          "name": "docName",
          "type": "string"
        },
        {
          "indexed": false,
          "internalType": "string",
          "name": "status",
          "type": "string"
        }
      ],
      "name": "RequestStatusUpdated",
      "type": "event"
    },
    {
      "anonymous": false,
      "inputs": [
        {
          "indexed": false,
          "internalType": "address",
          "name": "issuer",
          "type": "address"
        },
        {
          "indexed": false,
          "internalType": "string",
          "name": "name",
          "type": "string"
        },
        {
          "indexed": false,
          "internalType": "string",
          "name": "data",
          "type": "string"
        }
      ],
      "name": "TemplateCreated",
      "type": "event"
    },
    {
      "constant": false,
      "inputs": [
        {
          "internalType": "string",
          "name": "_name",
          "type": "string"
        },
        {
          "internalType": "string",
          "name": "_data",
          "type": "string"
        },
        {
          "internalType": "address",
          "name": "_owner",
          "type": "address"
        }
      ],
      "name": "issueDocument",
      "outputs": [],
      "payable": false,
      "stateMutability": "nonpayable",
      "type": "function"
    },
    {
      "constant": false,
      "inputs": [
        {
          "internalType": "string",
          "name": "_name",
          "type": "string"
        },
        {
          "internalType": "string",
          "name": "_data",
          "type": "string"
        }
      ],
      "name": "createTemplate",
      "outputs": [],
      "payable": false,
      "stateMutability": "nonpayable",
      "type": "function"
    },
    {
      "constant": true,
      "inputs": [],
      "name": "getTemplates",
      "outputs": [
        {
          "internalType": "address[]",
          "name": "",
          "type": "address[]"
        },
        {
          "internalType": "string[]",
          "name": "",
          "type": "string[]"
        },
        {
          "internalType": "string[]",
          "name": "",
          "type": "string[]"
        }
      ],
      "payable": false,
      "stateMutability": "view",
      "type": "function"
    },
    {
      "constant": true,
      "inputs": [],
      "name": "getDocuments",
      "outputs": [
        {
          "internalType": "address[]",
          "name": "",
          "type": "address[]"
        },
        {
          "internalType": "string[]",
          "name": "",
          "type": "string[]"
        },
        {
          "internalType": "string[]",
          "name": "",
          "type": "string[]"
        }
      ],
      "payable": false,
      "stateMutability": "view",
      "type": "function"
    },
    {
      "constant": true,
      "inputs": [
        {
          "internalType": "string",
          "name": "_name",
          "type": "string"
        }
      ],
      "name": "getDocument",
      "outputs": [
        {
          "internalType": "address",
          "name": "",
          "type": "address"
        },
        {
          "internalType": "string",
          "name": "",
          "type": "string"
        },
        {
          "internalType": "string",
          "name": "",
          "type": "string"
        }
      ],
      "payable": false,
      "stateMutability": "view",
      "type": "function"
    },
    {
      "constant": true,
      "inputs": [],
      "name": "getDocumentCount",
      "outputs": [
        {
          "internalType": "uint256",
          "name": "",
          "type": "uint256"
        }
      ],
      "payable": false,
      "stateMutability": "view",
      "type": "function"
    },
    {
      "constant": false,
      "inputs": [
        {
          "internalType": "address",
          "name": "_owner",
          "type": "address"
        },
        {
          "internalType": "string",
          "name": "_docName",
          "type": "string"
        },
        {
          "internalType": "string",
          "name": "_properties",
          "type": "string"
        }
      ],
      "name": "requestVerification",
      "outputs": [],
      "payable": false,
      "stateMutability": "nonpayable",
      "type": "function"
    },
    {
      "constant": false,
      "inputs": [
        {
          "internalType": "address",
          "name": "_verifier",
          "type": "address"
        },
        {
          "internalType": "string",
          "name": "_docName",
          "type": "string"
        },
        {
          "internalType": "string",
          "name": "_newStatus",
          "type": "string"
        },
        {
          "internalType": "string",
          "name": "_properties",
          "type": "string"
        }
      ],
      "name": "updateRequestStatus",
      "outputs": [],
      "payable": false,
      "stateMutability": "nonpayable",
      "type": "function"
    },
    {
      "constant": true,
      "inputs": [],
      "name": "getOwnerRequests",
      "outputs": [
        {
          "internalType": "address[]",
          "name": "",
          "type": "address[]"
        },
        {
          "internalType": "string[]",
          "name": "",
          "type": "string[]"
        },
        {
          "internalType": "string[]",
          "name": "",
          "type": "string[]"
        },
        {
          "internalType": "string[]",
          "name": "",
          "type": "string[]"
        }
      ],
      "payable": false,
      "stateMutability": "view",
      "type": "function"
    },
    {
      "constant": true,
      "inputs": [],
      "name": "getVerifierRequests",
      "outputs": [
        {
          "internalType": "address[]",
          "name": "",
          "type": "address[]"
        },
        {
          "internalType": "string[]",
          "name": "",
          "type": "string[]"
        },
        {
          "internalType": "string[]",
          "name": "",
          "type": "string[]"
        },
        {
          "internalType": "string[]",
          "name": "",
          "type": "string[]"
        }
      ],
      "payable": false,
      "stateMutability": "view",
      "type": "function"
    },
    {
      "constant": true,
      "inputs": [
        {
          "internalType": "string",
          "name": "s1",
          "type": "string"
        },
        {
          "internalType": "string",
          "name": "s2",
          "type": "string"
        }
      ],
      "name": "compareStringsbyBytes",
      "outputs": [
        {
          "internalType": "bool",
          "name": "",
          "type": "bool"
        }
      ],
      "payable": false,
      "stateMutability": "pure",
      "type": "function"
    }
  ],
  "bytecode": "0x608060405234801561001057600080fd5b506136c0806100206000396000f3fe608060405234801561001057600080fd5b50600436106100a95760003560e01c80637ccb6a64116100715780637ccb6a6414610141578063bcfce47114610173578063e64ae1191461018f578063e9a734ff146101af578063ef2d8700146101df578063f879a782146101ff576100a9565b80632d46b0ad146100ae5780633d1c2273146100cf5780633e092e45146100ed57806360160707146101095780636aeae83714610125575b600080fd5b6100b6610220565b6040516100c694939291906132dd565b60405180910390f35b6100d761071e565b6040516100e4919061346c565b60405180910390f35b61010760048036036101029190810190612a76565b610767565b005b610123600480360361011e9190810190612af5565b610e35565b005b61013f600480360361013a9190810190612be1565b611526565b005b61015b60048036036101569190810190612ba0565b611768565b60405161016a9392919061324c565b60405180910390f35b61018d60048036036101889190810190612c4d565b611a3a565b005b610197611c25565b6040516101a693929190613291565b60405180910390f35b6101c960048036036101c49190810190612be1565b611f56565b6040516101d6919061333e565b60405180910390f35b6101e7611faf565b6040516101f693929190613291565b60405180910390f35b610207612358565b60405161021794939291906132dd565b60405180910390f35b6060806060806000600160003373ffffffffffffffffffffffffffffffffffffffff1673ffffffffffffffffffffffffffffffffffffffff16815260200190815260200160002080549050905060608160405190808252806020026020018201604052801561029e5781602001602082028038833980820191505090505b5090506060826040519080825280602002602001820160405280156102d757816020015b60608152602001906001900390816102c25790505b50905060608360405190808252806020026020018201604052801561031057816020015b60608152602001906001900390816102fb5790505b50905060608460405190808252806020026020018201604052801561034957816020015b60608152602001906001900390816103345790505b50905060008090505b8581101561070657610362612856565b600160003373ffffffffffffffffffffffffffffffffffffffff1673ffffffffffffffffffffffffffffffffffffffff16815260200190815260200160002082815481106103ac57fe5b90600052602060002090600502016040518060a00160405290816000820160009054906101000a900473ffffffffffffffffffffffffffffffffffffffff1673ffffffffffffffffffffffffffffffffffffffff1673ffffffffffffffffffffffffffffffffffffffff1681526020016001820160009054906101000a900473ffffffffffffffffffffffffffffffffffffffff1673ffffffffffffffffffffffffffffffffffffffff1673ffffffffffffffffffffffffffffffffffffffff168152602001600282018054600181600116156101000203166002900480601f01602080910402602001604051908101604052809291908181526020018280546001816001161561010002031660029004801561050a5780601f106104df5761010080835404028352916020019161050a565b820191906000526020600020905b8154815290600101906020018083116104ed57829003601f168201915b50505050508152602001600382018054600181600116156101000203166002900480601f0160208091040260200160405190810160405280929190818152602001828054600181600116156101000203166002900480156105ac5780601f10610581576101008083540402835291602001916105ac565b820191906000526020600020905b81548152906001019060200180831161058f57829003601f168201915b50505050508152602001600482018054600181600116156101000203166002900480601f01602080910402602001604051908101604052809291908181526020018280546001816001161561010002031660029004801561064e5780601f106106235761010080835404028352916020019161064e565b820191906000526020600020905b81548152906001019060200180831161063157829003601f168201915b5050505050815250509050806000015186838151811061066a57fe5b602002602001019073ffffffffffffffffffffffffffffffffffffffff16908173ffffffffffffffffffffffffffffffffffffffff168152505080604001518583815181106106b557fe5b602002602001018190525080606001518483815181106106d157fe5b602002602001018190525080608001518383815181106106ed57fe5b6020026020010181905250508080600101915050610352565b50838383839850985098509850505050505090919293565b60008060003373ffffffffffffffffffffffffffffffffffffffff1673ffffffffffffffffffffffffffffffffffffffff16815260200190815260200160002080549050905090565b8273ffffffffffffffffffffffffffffffffffffffff163373ffffffffffffffffffffffffffffffffffffffff1614156107d6576040517f08c379a00000000000000000000000000000000000000000000000000000000081526004016107cd9061340c565b60405180910390fd5b60008251116107e457600080fd5b60008151116107f257600080fd5b60008090505b600260003373ffffffffffffffffffffffffffffffffffffffff1673ffffffffffffffffffffffffffffffffffffffff16815260200190815260200160002080549050811015610a3e5761093f600260003373ffffffffffffffffffffffffffffffffffffffff1673ffffffffffffffffffffffffffffffffffffffff168152602001908152602001600020828154811061088f57fe5b90600052602060002090600502016002018054600181600116156101000203166002900480601f0160208091040260200160405190810160405280929190818152602001828054600181600116156101000203166002900480156109345780601f1061090957610100808354040283529160200191610934565b820191906000526020600020905b81548152906001019060200180831161091757829003601f168201915b505050505084611f56565b80156109f157508373ffffffffffffffffffffffffffffffffffffffff16600260003373ffffffffffffffffffffffffffffffffffffffff1673ffffffffffffffffffffffffffffffffffffffff16815260200190815260200160002082815481106109a757fe5b906000526020600020906005020160010160009054906101000a900473ffffffffffffffffffffffffffffffffffffffff1673ffffffffffffffffffffffffffffffffffffffff16145b15610a31576040517f08c379a0000000000000000000000000000000000000000000000000000000008152600401610a289061344c565b60405180910390fd5b80806001019150506107f8565b50600160008473ffffffffffffffffffffffffffffffffffffffff1673ffffffffffffffffffffffffffffffffffffffff1681526020019081526020016000206040518060a001604052803373ffffffffffffffffffffffffffffffffffffffff1681526020018573ffffffffffffffffffffffffffffffffffffffff1681526020018481526020018381526020016040518060400160405280600981526020017f52657175657374656400000000000000000000000000000000000000000000008152508152509080600181540180825580915050906001820390600052602060002090600502016000909192909190915060008201518160000160006101000a81548173ffffffffffffffffffffffffffffffffffffffff021916908373ffffffffffffffffffffffffffffffffffffffff16021790555060208201518160010160006101000a81548173ffffffffffffffffffffffffffffffffffffffff021916908373ffffffffffffffffffffffffffffffffffffffff1602179055506040820151816002019080519060200190610bdb9291906128b1565b506060820151816003019080519060200190610bf89291906128b1565b506080820151816004019080519060200190610c159291906128b1565b50505050600260003373ffffffffffffffffffffffffffffffffffffffff1673ffffffffffffffffffffffffffffffffffffffff1681526020019081526020016000206040518060a001604052803373ffffffffffffffffffffffffffffffffffffffff1681526020018573ffffffffffffffffffffffffffffffffffffffff1681526020018481526020018381526020016040518060400160405280600981526020017f52657175657374656400000000000000000000000000000000000000000000008152508152509080600181540180825580915050906001820390600052602060002090600502016000909192909190915060008201518160000160006101000a81548173ffffffffffffffffffffffffffffffffffffffff021916908373ffffffffffffffffffffffffffffffffffffffff16021790555060208201518160010160006101000a81548173ffffffffffffffffffffffffffffffffffffffff021916908373ffffffffffffffffffffffffffffffffffffffff1602179055506040820151816002019080519060200190610db59291906128b1565b506060820151816003019080519060200190610dd29291906128b1565b506080820151816004019080519060200190610def9291906128b1565b505050507f61487ae7fac5961d9d437176b1ce54a4974bdfd833fb203ccece47b30808697133848484604051610e28949392919061314e565b60405180910390a1505050565b3373ffffffffffffffffffffffffffffffffffffffff168473ffffffffffffffffffffffffffffffffffffffff161415610ea4576040517f08c379a0000000000000000000000000000000000000000000000000000000008152600401610e9b906133cc565b60405180910390fd5b6000835111610eb257600080fd5b60008090505b600160003373ffffffffffffffffffffffffffffffffffffffff1673ffffffffffffffffffffffffffffffffffffffff1681526020019081526020016000208054905081101561113857610fff600160003373ffffffffffffffffffffffffffffffffffffffff1673ffffffffffffffffffffffffffffffffffffffff1681526020019081526020016000208281548110610f4f57fe5b90600052602060002090600502016002018054600181600116156101000203166002900480601f016020809104026020016040519081016040528092919081815260200182805460018160011615610100020316600290048015610ff45780601f10610fc957610100808354040283529160200191610ff4565b820191906000526020600020905b815481529060010190602001808311610fd757829003601f168201915b505050505085611f56565b80156110b157508473ffffffffffffffffffffffffffffffffffffffff16600160003373ffffffffffffffffffffffffffffffffffffffff1673ffffffffffffffffffffffffffffffffffffffff168152602001908152602001600020828154811061106757fe5b906000526020600020906005020160000160009054906101000a900473ffffffffffffffffffffffffffffffffffffffff1673ffffffffffffffffffffffffffffffffffffffff16145b1561112b5782600160003373ffffffffffffffffffffffffffffffffffffffff1673ffffffffffffffffffffffffffffffffffffffff168152602001908152602001600020828154811061110157fe5b90600052602060002090600502016004019080519060200190611125929190612931565b50611138565b8080600101915050610eb8565b5060008090505b600260008673ffffffffffffffffffffffffffffffffffffffff1673ffffffffffffffffffffffffffffffffffffffff168152602001908152602001600020805490508110156114e257611286600260008773ffffffffffffffffffffffffffffffffffffffff1673ffffffffffffffffffffffffffffffffffffffff16815260200190815260200160002082815481106111d657fe5b90600052602060002090600502016002018054600181600116156101000203166002900480601f01602080910402602001604051908101604052809291908181526020018280546001816001161561010002031660029004801561127b5780601f106112505761010080835404028352916020019161127b565b820191906000526020600020905b81548152906001019060200180831161125e57829003601f168201915b505050505085611f56565b801561133857503373ffffffffffffffffffffffffffffffffffffffff16600260008773ffffffffffffffffffffffffffffffffffffffff1673ffffffffffffffffffffffffffffffffffffffff16815260200190815260200160002082815481106112ee57fe5b906000526020600020906005020160010160009054906101000a900473ffffffffffffffffffffffffffffffffffffffff1673ffffffffffffffffffffffffffffffffffffffff16145b156114d5576040518060a001604052808673ffffffffffffffffffffffffffffffffffffffff1681526020013373ffffffffffffffffffffffffffffffffffffffff16815260200185815260200183815260200184815250600260008773ffffffffffffffffffffffffffffffffffffffff1673ffffffffffffffffffffffffffffffffffffffff16815260200190815260200160002082815481106113da57fe5b906000526020600020906005020160008201518160000160006101000a81548173ffffffffffffffffffffffffffffffffffffffff021916908373ffffffffffffffffffffffffffffffffffffffff16021790555060208201518160010160006101000a81548173ffffffffffffffffffffffffffffffffffffffff021916908373ffffffffffffffffffffffffffffffffffffffff16021790555060408201518160020190805190602001906114929291906128b1565b5060608201518160030190805190602001906114af9291906128b1565b5060808201518160040190805190602001906114cc9291906128b1565b509050506114e2565b808060010191505061113f565b507f0b4e4df4afc4a667d4bd2de7b8ca16553bf5be65540a76af50ec67db7fe40e898433858560405161151894939291906131f9565b60405180910390a150505050565b60008090505b600380549050811015611646576115f96003828154811061154957fe5b90600052602060002090600302016001018054600181600116156101000203166002900480601f0160208091040260200160405190810160405280929190818152602001828054600181600116156101000203166002900480156115ee5780601f106115c3576101008083540402835291602001916115ee565b820191906000526020600020905b8154815290600101906020018083116115d157829003601f168201915b505050505084611f56565b15611639576040517f08c379a00000000000000000000000000000000000000000000000000000000081526004016116309061342c565b60405180910390fd5b808060010191505061152c565b50600360405180606001604052803373ffffffffffffffffffffffffffffffffffffffff168152602001848152602001838152509080600181540180825580915050906001820390600052602060002090600302016000909192909190915060008201518160000160006101000a81548173ffffffffffffffffffffffffffffffffffffffff021916908373ffffffffffffffffffffffffffffffffffffffff16021790555060208201518160010190805190602001906117089291906128b1565b5060408201518160020190805190602001906117259291906128b1565b505050507f117e6f249d6362fc177ab883601ab259c396baf77890be9f74de8837d64f768533838360405161175c939291906131b4565b60405180910390a15050565b600060608060008090506000803373ffffffffffffffffffffffffffffffffffffffff1673ffffffffffffffffffffffffffffffffffffffff16815260200190815260200160002080549050811015611a31576117c36129b1565b6000803373ffffffffffffffffffffffffffffffffffffffff1673ffffffffffffffffffffffffffffffffffffffff168152602001908152602001600020828154811061180c57fe5b90600052602060002090600302016040518060600160405290816000820160009054906101000a900473ffffffffffffffffffffffffffffffffffffffff1673ffffffffffffffffffffffffffffffffffffffff1673ffffffffffffffffffffffffffffffffffffffff168152602001600182018054600181600116156101000203166002900480601f0160208091040260200160405190810160405280929190818152602001828054600181600116156101000203166002900480156119145780601f106118e957610100808354040283529160200191611914565b820191906000526020600020905b8154815290600101906020018083116118f757829003601f168201915b50505050508152602001600282018054600181600116156101000203166002900480601f0160208091040260200160405190810160405280929190818152602001828054600181600116156101000203166002900480156119b65780601f1061198b576101008083540402835291602001916119b6565b820191906000526020600020905b81548152906001019060200180831161199957829003601f168201915b50505050508152505090506119cf868260200151611f56565b156119f6578060000151816020015182604001518191508090509450945094505050611a33565b6040517f08c379a0000000000000000000000000000000000000000000000000000000008152600401611a28906133ac565b60405180910390fd5b505b9193909250565b6000835111611a4857600080fd5b6000825111611a5657600080fd5b3373ffffffffffffffffffffffffffffffffffffffff168173ffffffffffffffffffffffffffffffffffffffff161415611ac5576040517f08c379a0000000000000000000000000000000000000000000000000000000008152600401611abc906133ec565b60405180910390fd5b6000808273ffffffffffffffffffffffffffffffffffffffff1673ffffffffffffffffffffffffffffffffffffffff16815260200190815260200160002060405180606001604052803373ffffffffffffffffffffffffffffffffffffffff168152602001858152602001848152509080600181540180825580915050906001820390600052602060002090600302016000909192909190915060008201518160000160006101000a81548173ffffffffffffffffffffffffffffffffffffffff021916908373ffffffffffffffffffffffffffffffffffffffff1602179055506020820151816001019080519060200190611bc29291906128b1565b506040820151816002019080519060200190611bdf9291906128b1565b505050507f95991b659d1dfa1262d929693d81c4c5b6855d5628c8737e9404f460d1a3678d83838333604051611c189493929190613359565b60405180910390a1505050565b606080606060006003805490509050606081604051908082528060200260200182016040528015611c655781602001602082028038833980820191505090505b509050606082604051908082528060200260200182016040528015611c9e57816020015b6060815260200190600190039081611c895790505b509050606083604051908082528060200260200182016040528015611cd757816020015b6060815260200190600190039081611cc25790505b50905060008090505b84811015611f4357611cf06129b1565b60038281548110611cfd57fe5b90600052602060002090600302016040518060600160405290816000820160009054906101000a900473ffffffffffffffffffffffffffffffffffffffff1673ffffffffffffffffffffffffffffffffffffffff1673ffffffffffffffffffffffffffffffffffffffff168152602001600182018054600181600116156101000203166002900480601f016020809104026020016040519081016040528092919081815260200182805460018160011615610100020316600290048015611e055780601f10611dda57610100808354040283529160200191611e05565b820191906000526020600020905b815481529060010190602001808311611de857829003601f168201915b50505050508152602001600282018054600181600116156101000203166002900480601f016020809104026020016040519081016040528092919081815260200182805460018160011615610100020316600290048015611ea75780601f10611e7c57610100808354040283529160200191611ea7565b820191906000526020600020905b815481529060010190602001808311611e8a57829003601f168201915b50505050508152505090508060000151858381518110611ec357fe5b602002602001019073ffffffffffffffffffffffffffffffffffffffff16908173ffffffffffffffffffffffffffffffffffffffff16815250508060200151848381518110611f0e57fe5b60200260200101819052508060400151838381518110611f2a57fe5b6020026020010181905250508080600101915050611ce0565b5082828296509650965050505050909192565b600081604051602001611f699190613137565b6040516020818303038152906040528051906020012083604051602001611f909190613137565b6040516020818303038152906040528051906020012014905092915050565b606080606060008060003373ffffffffffffffffffffffffffffffffffffffff1673ffffffffffffffffffffffffffffffffffffffff16815260200190815260200160002080549050905060608160405190808252806020026020018201604052801561202b5781602001602082028038833980820191505090505b50905060608260405190808252806020026020018201604052801561206457816020015b606081526020019060019003908161204f5790505b50905060608360405190808252806020026020018201604052801561209d57816020015b60608152602001906001900390816120885790505b50905060008090505b84811015612345576120b66129b1565b6000803373ffffffffffffffffffffffffffffffffffffffff1673ffffffffffffffffffffffffffffffffffffffff16815260200190815260200160002082815481106120ff57fe5b90600052602060002090600302016040518060600160405290816000820160009054906101000a900473ffffffffffffffffffffffffffffffffffffffff1673ffffffffffffffffffffffffffffffffffffffff1673ffffffffffffffffffffffffffffffffffffffff168152602001600182018054600181600116156101000203166002900480601f0160208091040260200160405190810160405280929190818152602001828054600181600116156101000203166002900480156122075780601f106121dc57610100808354040283529160200191612207565b820191906000526020600020905b8154815290600101906020018083116121ea57829003601f168201915b50505050508152602001600282018054600181600116156101000203166002900480601f0160208091040260200160405190810160405280929190818152602001828054600181600116156101000203166002900480156122a95780601f1061227e576101008083540402835291602001916122a9565b820191906000526020600020905b81548152906001019060200180831161228c57829003601f168201915b505050505081525050905080600001518583815181106122c557fe5b602002602001019073ffffffffffffffffffffffffffffffffffffffff16908173ffffffffffffffffffffffffffffffffffffffff1681525050806020015184838151811061231057fe5b6020026020010181905250806040015183838151811061232c57fe5b60200260200101819052505080806001019150506120a6565b5082828296509650965050505050909192565b6060806060806000600260003373ffffffffffffffffffffffffffffffffffffffff1673ffffffffffffffffffffffffffffffffffffffff1681526020019081526020016000208054905090506060816040519080825280602002602001820160405280156123d65781602001602082028038833980820191505090505b50905060608260405190808252806020026020018201604052801561240f57816020015b60608152602001906001900390816123fa5790505b50905060608360405190808252806020026020018201604052801561244857816020015b60608152602001906001900390816124335790505b50905060608460405190808252806020026020018201604052801561248157816020015b606081526020019060019003908161246c5790505b50905060008090505b8581101561283e5761249a612856565b600260003373ffffffffffffffffffffffffffffffffffffffff1673ffffffffffffffffffffffffffffffffffffffff16815260200190815260200160002082815481106124e457fe5b90600052602060002090600502016040518060a00160405290816000820160009054906101000a900473ffffffffffffffffffffffffffffffffffffffff1673ffffffffffffffffffffffffffffffffffffffff1673ffffffffffffffffffffffffffffffffffffffff1681526020016001820160009054906101000a900473ffffffffffffffffffffffffffffffffffffffff1673ffffffffffffffffffffffffffffffffffffffff1673ffffffffffffffffffffffffffffffffffffffff168152602001600282018054600181600116156101000203166002900480601f0160208091040260200160405190810160405280929190818152602001828054600181600116156101000203166002900480156126425780601f1061261757610100808354040283529160200191612642565b820191906000526020600020905b81548152906001019060200180831161262557829003601f168201915b50505050508152602001600382018054600181600116156101000203166002900480601f0160208091040260200160405190810160405280929190818152602001828054600181600116156101000203166002900480156126e45780601f106126b9576101008083540402835291602001916126e4565b820191906000526020600020905b8154815290600101906020018083116126c757829003601f168201915b50505050508152602001600482018054600181600116156101000203166002900480601f0160208091040260200160405190810160405280929190818152602001828054600181600116156101000203166002900480156127865780601f1061275b57610100808354040283529160200191612786565b820191906000526020600020905b81548152906001019060200180831161276957829003601f168201915b505050505081525050905080602001518683815181106127a257fe5b602002602001019073ffffffffffffffffffffffffffffffffffffffff16908173ffffffffffffffffffffffffffffffffffffffff168152505080604001518583815181106127ed57fe5b6020026020010181905250806060015184838151811061280957fe5b6020026020010181905250806080015183838151811061282557fe5b602002602001018190525050808060010191505061248a565b50838383839850985098509850505050505090919293565b6040518060a00160405280600073ffffffffffffffffffffffffffffffffffffffff168152602001600073ffffffffffffffffffffffffffffffffffffffff1681526020016060815260200160608152602001606081525090565b828054600181600116156101000203166002900490600052602060002090601f016020900481019282601f106128f257805160ff1916838001178555612920565b82800160010185558215612920579182015b8281111561291f578251825591602001919060010190612904565b5b50905061292d91906129e8565b5090565b828054600181600116156101000203166002900490600052602060002090601f016020900481019282601f1061297257805160ff19168380011785556129a0565b828001600101855582156129a0579182015b8281111561299f578251825591602001919060010190612984565b5b5090506129ad91906129e8565b5090565b6040518060600160405280600073ffffffffffffffffffffffffffffffffffffffff16815260200160608152602001606081525090565b612a0a91905b80821115612a065760008160009055506001016129ee565b5090565b90565b600081359050612a1c81613666565b92915050565b600082601f830112612a3357600080fd5b8135612a46612a41826134b4565b613487565b91508082526020830160208301858383011115612a6257600080fd5b612a6d838284613613565b50505092915050565b600080600060608486031215612a8b57600080fd5b6000612a9986828701612a0d565b935050602084013567ffffffffffffffff811115612ab657600080fd5b612ac286828701612a22565b925050604084013567ffffffffffffffff811115612adf57600080fd5b612aeb86828701612a22565b9150509250925092565b60008060008060808587031215612b0b57600080fd5b6000612b1987828801612a0d565b945050602085013567ffffffffffffffff811115612b3657600080fd5b612b4287828801612a22565b935050604085013567ffffffffffffffff811115612b5f57600080fd5b612b6b87828801612a22565b925050606085013567ffffffffffffffff811115612b8857600080fd5b612b9487828801612a22565b91505092959194509250565b600060208284031215612bb257600080fd5b600082013567ffffffffffffffff811115612bcc57600080fd5b612bd884828501612a22565b91505092915050565b60008060408385031215612bf457600080fd5b600083013567ffffffffffffffff811115612c0e57600080fd5b612c1a85828601612a22565b925050602083013567ffffffffffffffff811115612c3757600080fd5b612c4385828601612a22565b9150509250929050565b600080600060608486031215612c6257600080fd5b600084013567ffffffffffffffff811115612c7c57600080fd5b612c8886828701612a22565b935050602084013567ffffffffffffffff811115612ca557600080fd5b612cb186828701612a22565b9250506040612cc286828701612a0d565b9150509250925092565b6000612cd88383612d07565b60208301905092915050565b6000612cf08383612e71565b905092915050565b612d01816135dd565b82525050565b612d1081613595565b82525050565b612d1f81613595565b82525050565b6000612d3082613500565b612d3a8185613546565b9350612d45836134e0565b8060005b83811015612d76578151612d5d8882612ccc565b9750612d688361352c565b925050600181019050612d49565b5085935050505092915050565b6000612d8e8261350b565b612d988185613557565b935083602082028501612daa856134f0565b8060005b85811015612de65784840389528151612dc78582612ce4565b9450612dd283613539565b925060208a01995050600181019050612dae565b50829750879550505050505092915050565b612e01816135a7565b82525050565b6000612e1282613521565b612e1c8185613579565b9350612e2c818560208601613622565b612e3581613655565b840191505092915050565b6000612e4b82613521565b612e55818561358a565b9350612e65818560208601613622565b80840191505092915050565b6000612e7c82613516565b612e868185613568565b9350612e96818560208601613622565b612e9f81613655565b840191505092915050565b6000612eb7600983613579565b91507f52657175657374656400000000000000000000000000000000000000000000006000830152602082019050919050565b6000612ef7602583613579565b91507f5573657220646f6573206e6f7420686176652073706563696669656420646f6360008301527f756d656e740000000000000000000000000000000000000000000000000000006020830152604082019050919050565b6000612f5d602583613579565b91507f56657269666965722063616e6e6f74207570646174652072657175657374207360008301527f74617475730000000000000000000000000000000000000000000000000000006020830152604082019050919050565b6000612fc3602683613579565b91507f596f752063616e6e6f7420697373756520646f63756d656e7420666f7220796f60008301527f757273656c6600000000000000000000000000000000000000000000000000006020830152604082019050919050565b6000613029602883613579565b91507f43616e6e6f74207265717565737420766572696669636174696f6e20666f722060008301527f796f757273656c660000000000000000000000000000000000000000000000006020830152604082019050919050565b600061308f601783613579565b91507f54656d706c61746520616c7265616479206578697374730000000000000000006000830152602082019050919050565b60006130cf602883613579565b91507f596f75206861766520616c72656164792072657175657374656420746869732060008301527f646f63756d656e740000000000000000000000000000000000000000000000006020830152604082019050919050565b613131816135d3565b82525050565b60006131438284612e40565b915081905092915050565b600060a0820190506131636000830187612cf8565b6131706020830186612d16565b81810360408301526131828185612e07565b905081810360608301526131968184612e07565b905081810360808301526131a981612eaa565b905095945050505050565b60006060820190506131c96000830186612cf8565b81810360208301526131db8185612e07565b905081810360408301526131ef8184612e07565b9050949350505050565b600060808201905061320e6000830187612d16565b61321b6020830186612cf8565b818103604083015261322d8185612e07565b905081810360608301526132418184612e07565b905095945050505050565b60006060820190506132616000830186612d16565b81810360208301526132738185612e07565b905081810360408301526132878184612e07565b9050949350505050565b600060608201905081810360008301526132ab8186612d25565b905081810360208301526132bf8185612d83565b905081810360408301526132d38184612d83565b9050949350505050565b600060808201905081810360008301526132f78187612d25565b9050818103602083015261330b8186612d83565b9050818103604083015261331f8185612d83565b905081810360608301526133338184612d83565b905095945050505050565b60006020820190506133536000830184612df8565b92915050565b600060808201905081810360008301526133738187612e07565b905081810360208301526133878186612e07565b90506133966040830185612d16565b6133a36060830184612cf8565b95945050505050565b600060208201905081810360008301526133c581612eea565b9050919050565b600060208201905081810360008301526133e581612f50565b9050919050565b6000602082019050818103600083015261340581612fb6565b9050919050565b600060208201905081810360008301526134258161301c565b9050919050565b6000602082019050818103600083015261344581613082565b9050919050565b60006020820190508181036000830152613465816130c2565b9050919050565b60006020820190506134816000830184613128565b92915050565b6000604051905081810181811067ffffffffffffffff821117156134aa57600080fd5b8060405250919050565b600067ffffffffffffffff8211156134cb57600080fd5b601f19601f8301169050602081019050919050565b6000819050602082019050919050565b6000819050602082019050919050565b600081519050919050565b600081519050919050565b600081519050919050565b600081519050919050565b6000602082019050919050565b6000602082019050919050565b600082825260208201905092915050565b600082825260208201905092915050565b600082825260208201905092915050565b600082825260208201905092915050565b600081905092915050565b60006135a0826135b3565b9050919050565b60008115159050919050565b600073ffffffffffffffffffffffffffffffffffffffff82169050919050565b6000819050919050565b60006135e8826135ef565b9050919050565b60006135fa82613601565b9050919050565b600061360c826135b3565b9050919050565b82818337600083830152505050565b60005b83811015613640578082015181840152602081019050613625565b8381111561364f576000848401525b50505050565b6000601f19601f8301169050919050565b61366f81613595565b811461367a57600080fd5b5056fea365627a7a72315820912f2b8e6866450f89062b13b4a54a134b4cb39e1124348c067bb7263ba75e3b6c6578706572696d656e74616cf564736f6c63430005100040",
  "source": "// SPDX-License-Identifier: MIT\r\npragma solidity >=0.4.21 <0.7.0;\r\npragma experimental ABIEncoderV2;\r\n\r\ncontract IdentityManager {\r\n\r\n  struct Document {\r\n    address issuer;\r\n    string name;\r\n    string data;\r\n  }\r\n\r\n  struct Request {\r\n    address requestor;\r\n    address owner;\r\n    string docName;\r\n    string properties;\r\n    string status;\r\n  }\r\n\r\n  mapping(address => Document[]) identities;\r\n  mapping(address => Request[]) ownerRequests;\r\n  mapping(address => Request[]) verifierRequests;\r\n  Document[] templates;\r\n\r\n  event DocumentIssued (\r\n    string name,\r\n    string data,\r\n    address owner,\r\n    address issuer\r\n  );\r\n\r\n  event TemplateCreated (\r\n    address issuer,\r\n    string name,\r\n    string data\r\n  );\r\n\r\n  event RequestGenerated (\r\n    address verifier,\r\n    address owner,\r\n    string docName,\r\n    string properties,\r\n    string status\r\n  );\r\n\r\n  event RequestStatusUpdated (\r\n    address verifier,\r\n    address owner,\r\n    string docName,\r\n    string status\r\n  );\r\n\r\n  function issueDocument(string memory _name, string memory _data, address _owner) public {\r\n    require(bytes(_name).length > 0);\r\n    require(bytes(_data).length > 0);\r\n    require(_owner != msg.sender, 'You cannot issue document for yourself');\r\n\r\n    identities[_owner].push(Document(msg.sender, _name, _data));\r\n    emit DocumentIssued(_name, _data, _owner, msg.sender);\r\n  }\r\n\r\n  function createTemplate(string memory _name, string memory _data) public {\r\n    for (uint256 index = 0; index < templates.length; index++) {\r\n      if (compareStringsbyBytes(templates[index].name, _name)) {\r\n        revert('Template already exists');\r\n      }\r\n    }\r\n    templates.push(Document(msg.sender, _name, _data));\r\n    emit TemplateCreated(msg.sender, _name, _data);\r\n  }\r\n\r\n  function getTemplates() view public returns(address[] memory, string[] memory, string[] memory) {\r\n    uint _templateCount = templates.length;\r\n    address[] memory _issuer = new address[](_templateCount);\r\n    string[] memory _name = new string[](_templateCount);\r\n    string[] memory _data = new string[](_templateCount);\r\n\r\n    for (uint256 index = 0; index < _templateCount; index++) {\r\n      Document memory _tempCopy = templates[index];\r\n      _issuer[index] = _tempCopy.issuer;\r\n      _name[index] = _tempCopy.name;\r\n      _data[index] = _tempCopy.data;\r\n    }\r\n\r\n    return (_issuer, _name, _data);\r\n  }\r\n\r\n  function getDocuments() view public returns(address[] memory, string[] memory, string[] memory) {\r\n    uint _documentCount = identities[msg.sender].length;\r\n    address[] memory _issuer = new address[](_documentCount);\r\n    string[] memory _name = new string[](_documentCount);\r\n    string[] memory _data = new string[](_documentCount);\r\n\r\n    for (uint256 index = 0; index < _documentCount; index++) {\r\n      Document memory _docCopy = identities[msg.sender][index];\r\n      _issuer[index] = _docCopy.issuer;\r\n      _name[index] = _docCopy.name;\r\n      _data[index] = _docCopy.data;\r\n    }\r\n\r\n    return (_issuer, _name, _data);\r\n  }\r\n\r\n  function getDocument(string memory _name) view public returns(address, string memory, string memory) {\r\n    for (uint256 index = 0; index < identities[msg.sender].length; index++) {\r\n      Document memory _docCopy = identities[msg.sender][index];\r\n      if (compareStringsbyBytes(_name, _docCopy.name)) {\r\n        return (_docCopy.issuer, _docCopy.name, _docCopy.data);\r\n      } else {\r\n        revert('User does not have specified document');\r\n      }\r\n    }\r\n  }\r\n\r\n  function getDocumentCount() view public returns(uint) {\r\n    return identities[msg.sender].length;\r\n  }\r\n\r\n  function requestVerification(address _owner, string memory _docName, string memory _properties) public {\r\n    require(msg.sender != _owner, 'Cannot request verification for yourself');\r\n    require(bytes(_docName).length > 0);\r\n    require(bytes(_properties).length > 0);\r\n\r\n    for (uint256 index = 0; index < verifierRequests[msg.sender].length; index++) {\r\n      if (compareStringsbyBytes(verifierRequests[msg.sender][index].docName, _docName) && verifierRequests[msg.sender][index].owner == _owner) {\r\n        revert('You have already requested this document');\r\n      }\r\n    }\r\n\r\n    ownerRequests[_owner].push(Request(msg.sender, _owner, _docName, _properties, 'Requested'));\r\n    verifierRequests[msg.sender].push(Request(msg.sender, _owner, _docName, _properties, 'Requested'));\r\n    emit RequestGenerated(msg.sender, _owner, _docName, _properties, 'Requested');\r\n  }\r\n\r\n  function updateRequestStatus(address _verifier, string memory _docName, string memory _newStatus, string memory _properties) public {\r\n    require(_verifier != msg.sender, 'Verifier cannot update request status');\r\n    require(bytes(_docName).length > 0);\r\n\r\n    for (uint256 index = 0; index < ownerRequests[msg.sender].length; index++) {\r\n      if (compareStringsbyBytes(ownerRequests[msg.sender][index].docName, _docName) && ownerRequests[msg.sender][index].requestor == _verifier) {\r\n        ownerRequests[msg.sender][index].status = _newStatus;\r\n        break;\r\n      }\r\n    }\r\n\r\n    for (uint256 index = 0; index < verifierRequests[_verifier].length; index++) {\r\n      if (compareStringsbyBytes(verifierRequests[_verifier][index].docName, _docName) && verifierRequests[_verifier][index].owner == msg.sender) {\r\n        verifierRequests[_verifier][index] = Request(_verifier, msg.sender, _docName, _properties, _newStatus);\r\n        break;\r\n      }\r\n    }\r\n\r\n    emit RequestStatusUpdated(_verifier, msg.sender, _docName, _newStatus);\r\n  }\r\n\r\n  function getOwnerRequests() view public returns(address[] memory, string[] memory, string[] memory, string[] memory) {\r\n    uint _reqCount = ownerRequests[msg.sender].length;\r\n    address[] memory _requestor = new address[](_reqCount);\r\n    string[] memory _docName = new string[](_reqCount);\r\n    string[] memory _properties = new string[](_reqCount);\r\n    string[] memory _status = new string[](_reqCount);\r\n\r\n    for (uint256 index = 0; index < _reqCount; index++) {\r\n      Request memory _reqCopy = ownerRequests[msg.sender][index];\r\n      _requestor[index] = _reqCopy.requestor;\r\n      _docName[index] = _reqCopy.docName;\r\n      _properties[index] = _reqCopy.properties;\r\n      _status[index] = _reqCopy.status;\r\n    }\r\n\r\n    return (_requestor, _docName, _properties, _status);\r\n  }\r\n\r\n  function getVerifierRequests() view public returns(address[] memory, string[] memory, string[] memory, string[] memory) {\r\n    uint _reqCount = verifierRequests[msg.sender].length;\r\n    address[] memory _owner = new address[](_reqCount);\r\n    string[] memory _docName = new string[](_reqCount);\r\n    string[] memory _properties = new string[](_reqCount);\r\n    string[] memory _status = new string[](_reqCount);\r\n\r\n    for (uint256 index = 0; index < _reqCount; index++) {\r\n      Request memory _reqCopy = verifierRequests[msg.sender][index];\r\n      _owner[index] = _reqCopy.owner;\r\n      _docName[index] = _reqCopy.docName;\r\n      _properties[index] = _reqCopy.properties;\r\n      _status[index] = _reqCopy.status;\r\n    }\r\n\r\n    return (_owner, _docName, _properties, _status);\r\n  }\r\n\r\n  function compareStringsbyBytes(string memory s1, string memory s2) public pure returns(bool) {\r\n    return keccak256(abi.encodePacked(s1)) == keccak256(abi.encodePacked(s2));\r\n  }\r\n}",
  "sourcePath": "C:/Users/Chaitanya/Documents/Academics/Projects/UniversalIMS/IMS_Owner/contracts/IdentityManager.sol",
  "compiler": {
    "name": "solc",
    "version": "0.5.16+commit.9c3226ce.Emscripten.clang"
  },
  "schemaVersion": "3.3.4",
  "updatedAt": "2021-03-13T05:56:00.862Z",
  "networkType": "ethereum",
  "devdoc": {
    "methods": {}
  },
  "userdoc": {
    "methods": {}
  }
}