{
  "contractName": "IdentityManager",
  "abi": [
    {
      "anonymous": false,
      "inputs": [
        {
          "indexed": false,
          "internalType": "address",
          "name": "owner",
          "type": "address"
        },
        {
          "indexed": false,
          "internalType": "address",
          "name": "issuer",
          "type": "address"
        }
      ],
      "name": "DocumentIssued",
      "type": "event"
    },
    {
      "anonymous": false,
      "inputs": [
        {
          "indexed": false,
          "internalType": "address",
          "name": "verifier",
          "type": "address"
        },
        {
          "indexed": false,
          "internalType": "address",
          "name": "owner",
          "type": "address"
        }
      ],
      "name": "RequestGenerated",
      "type": "event"
    },
    {
      "anonymous": false,
      "inputs": [
        {
          "indexed": false,
          "internalType": "address",
          "name": "verifier",
          "type": "address"
        },
        {
          "indexed": false,
          "internalType": "address",
          "name": "owner",
          "type": "address"
        }
      ],
      "name": "RequestStatusUpdated",
      "type": "event"
    },
    {
      "anonymous": false,
      "inputs": [
        {
          "indexed": false,
          "internalType": "address",
          "name": "issuer",
          "type": "address"
        },
        {
          "indexed": false,
          "internalType": "string",
          "name": "name",
          "type": "string"
        }
      ],
      "name": "TemplateCreated",
      "type": "event"
    },
    {
      "anonymous": false,
      "inputs": [
        {
          "indexed": false,
          "internalType": "string",
          "name": "status",
          "type": "string"
        },
        {
          "indexed": false,
          "internalType": "string",
          "name": "message",
          "type": "string"
        },
        {
          "indexed": false,
          "internalType": "address",
          "name": "user",
          "type": "address"
        }
      ],
      "name": "UserAuthenticated",
      "type": "event"
    },
    {
      "constant": false,
      "inputs": [
        {
          "internalType": "string",
          "name": "_entity",
          "type": "string"
        },
        {
          "internalType": "string",
          "name": "_username",
          "type": "string"
        }
      ],
      "name": "login",
      "outputs": [
        {
          "internalType": "bool",
          "name": "",
          "type": "bool"
        }
      ],
      "payable": false,
      "stateMutability": "nonpayable",
      "type": "function"
    },
    {
      "constant": false,
      "inputs": [
        {
          "internalType": "string",
          "name": "_encryptionPublicKey",
          "type": "string"
        },
        {
          "internalType": "string",
          "name": "_entity",
          "type": "string"
        },
        {
          "internalType": "string",
          "name": "_username",
          "type": "string"
        }
      ],
      "name": "register",
      "outputs": [],
      "payable": false,
      "stateMutability": "nonpayable",
      "type": "function"
    },
    {
      "constant": false,
      "inputs": [
        {
          "internalType": "string",
          "name": "_name",
          "type": "string"
        },
        {
          "internalType": "bytes",
          "name": "_data",
          "type": "bytes"
        },
        {
          "internalType": "address",
          "name": "_owner",
          "type": "address"
        }
      ],
      "name": "issueDocument",
      "outputs": [],
      "payable": false,
      "stateMutability": "nonpayable",
      "type": "function"
    },
    {
      "constant": false,
      "inputs": [
        {
          "internalType": "string",
          "name": "_name",
          "type": "string"
        },
        {
          "internalType": "string",
          "name": "_data",
          "type": "string"
        }
      ],
      "name": "createTemplate",
      "outputs": [],
      "payable": false,
      "stateMutability": "nonpayable",
      "type": "function"
    },
    {
      "constant": true,
      "inputs": [],
      "name": "getTemplates",
      "outputs": [
        {
          "internalType": "address[]",
          "name": "",
          "type": "address[]"
        },
        {
          "internalType": "string[]",
          "name": "",
          "type": "string[]"
        },
        {
          "internalType": "string[]",
          "name": "",
          "type": "string[]"
        }
      ],
      "payable": false,
      "stateMutability": "view",
      "type": "function"
    },
    {
      "constant": true,
      "inputs": [],
      "name": "getDocuments",
      "outputs": [
        {
          "internalType": "address[]",
          "name": "",
          "type": "address[]"
        },
        {
          "internalType": "string[]",
          "name": "",
          "type": "string[]"
        },
        {
          "internalType": "bytes[]",
          "name": "",
          "type": "bytes[]"
        }
      ],
      "payable": false,
      "stateMutability": "view",
      "type": "function"
    },
    {
      "constant": true,
      "inputs": [
        {
          "internalType": "string",
          "name": "_name",
          "type": "string"
        }
      ],
      "name": "getDocument",
      "outputs": [
        {
          "internalType": "address",
          "name": "",
          "type": "address"
        },
        {
          "internalType": "string",
          "name": "",
          "type": "string"
        },
        {
          "internalType": "bytes",
          "name": "",
          "type": "bytes"
        }
      ],
      "payable": false,
      "stateMutability": "view",
      "type": "function"
    },
    {
      "constant": true,
      "inputs": [],
      "name": "getDocumentCount",
      "outputs": [
        {
          "internalType": "uint256",
          "name": "",
          "type": "uint256"
        }
      ],
      "payable": false,
      "stateMutability": "view",
      "type": "function"
    },
    {
      "constant": false,
      "inputs": [
        {
          "internalType": "address",
          "name": "_owner",
          "type": "address"
        },
        {
          "internalType": "string",
          "name": "_docName",
          "type": "string"
        },
        {
          "internalType": "bytes",
          "name": "_properties",
          "type": "bytes"
        }
      ],
      "name": "requestVerification",
      "outputs": [],
      "payable": false,
      "stateMutability": "nonpayable",
      "type": "function"
    },
    {
      "constant": false,
      "inputs": [
        {
          "internalType": "address",
          "name": "_verifier",
          "type": "address"
        },
        {
          "internalType": "string",
          "name": "_docName",
          "type": "string"
        },
        {
          "internalType": "string",
          "name": "_newStatus",
          "type": "string"
        },
        {
          "internalType": "bytes",
          "name": "_properties",
          "type": "bytes"
        }
      ],
      "name": "updateRequestStatus",
      "outputs": [],
      "payable": false,
      "stateMutability": "nonpayable",
      "type": "function"
    },
    {
      "constant": true,
      "inputs": [],
      "name": "getOwnerRequests",
      "outputs": [
        {
          "internalType": "address[]",
          "name": "",
          "type": "address[]"
        },
        {
          "internalType": "string[]",
          "name": "",
          "type": "string[]"
        },
        {
          "internalType": "bytes[]",
          "name": "",
          "type": "bytes[]"
        },
        {
          "internalType": "string[]",
          "name": "",
          "type": "string[]"
        }
      ],
      "payable": false,
      "stateMutability": "view",
      "type": "function"
    },
    {
      "constant": true,
      "inputs": [],
      "name": "getVerifierRequests",
      "outputs": [
        {
          "internalType": "address[]",
          "name": "",
          "type": "address[]"
        },
        {
          "internalType": "string[]",
          "name": "",
          "type": "string[]"
        },
        {
          "internalType": "bytes[]",
          "name": "",
          "type": "bytes[]"
        },
        {
          "internalType": "string[]",
          "name": "",
          "type": "string[]"
        }
      ],
      "payable": false,
      "stateMutability": "view",
      "type": "function"
    },
    {
      "constant": true,
      "inputs": [
        {
          "internalType": "address",
          "name": "_owner",
          "type": "address"
        }
      ],
      "name": "getEncryptionPublicKey",
      "outputs": [
        {
          "internalType": "string",
          "name": "",
          "type": "string"
        }
      ],
      "payable": false,
      "stateMutability": "view",
      "type": "function"
    },
    {
      "constant": true,
      "inputs": [
        {
          "internalType": "string",
          "name": "s1",
          "type": "string"
        },
        {
          "internalType": "string",
          "name": "s2",
          "type": "string"
        }
      ],
      "name": "compareStringsbyBytes",
      "outputs": [
        {
          "internalType": "bool",
          "name": "",
          "type": "bool"
        }
      ],
      "payable": false,
      "stateMutability": "pure",
      "type": "function"
    }
  ],
  "bytecode": "0x608060405234801561001057600080fd5b50614f39806100206000396000f3fe608060405234801561001057600080fd5b50600436106100ea5760003560e01c80637ccb6a641161008c578063e64ae11911610066578063e64ae1191461024c578063e9a734ff1461026c578063ef2d87001461029c578063f879a782146102bc576100ea565b80637ccb6a64146101ce5780637d9f7b1914610200578063b42d1efe14610230576100ea565b80633d1c2273116100c85780633d1c2273146101485780634cd08d031461016657806358467dbc146101825780636aeae837146101b2576100ea565b8063283dd002146100ef5780632d46b0ad1461010b5780633a888f7a1461012c575b600080fd5b61010960048036036101049190810190613df3565b6102dd565b005b6101136109ca565b60405161012394939291906148d5565b60405180910390f35b61014660048036036101419190810190613d74565b610ec8565b005b610150611592565b60405161015d9190614c48565b60405180910390f35b610180600480360361017b9190810190613fca565b6115dc565b005b61019c60048036036101979190810190613f5e565b612018565b6040516101a99190614982565b60405180910390f35b6101cc60048036036101c79190810190613f5e565b6125a8565b005b6101e860048036036101e39190810190613e9e565b6127e8565b6040516101f793929190614844565b60405180910390f35b61021a60048036036102159190810190613d4b565b612abc565b604051610227919061499d565b60405180910390f35b61024a60048036036102459190810190613edf565b612bd9565b005b610254612dc1565b60405161026393929190614936565b60405180910390f35b61028660048036036102819190810190613f5e565b6130f2565b6040516102939190614982565b60405180910390f35b6102a461314b565b6040516102b393929190614889565b60405180910390f35b6102c46134f6565b6040516102d494939291906148d5565b60405180910390f35b3373ffffffffffffffffffffffffffffffffffffffff168473ffffffffffffffffffffffffffffffffffffffff16141561034c576040517f08c379a000000000000000000000000000000000000000000000000000000000815260040161034390614ba8565b60405180910390fd5b600083511161035a57600080fd5b60008090505b600360003373ffffffffffffffffffffffffffffffffffffffff1673ffffffffffffffffffffffffffffffffffffffff168152602001908152602001600020805490508110156105e0576104a7600360003373ffffffffffffffffffffffffffffffffffffffff1673ffffffffffffffffffffffffffffffffffffffff16815260200190815260200160002082815481106103f757fe5b90600052602060002090600502016002018054600181600116156101000203166002900480601f01602080910402602001604051908101604052809291908181526020018280546001816001161561010002031660029004801561049c5780601f106104715761010080835404028352916020019161049c565b820191906000526020600020905b81548152906001019060200180831161047f57829003601f168201915b5050505050856130f2565b801561055957508473ffffffffffffffffffffffffffffffffffffffff16600360003373ffffffffffffffffffffffffffffffffffffffff1673ffffffffffffffffffffffffffffffffffffffff168152602001908152602001600020828154811061050f57fe5b906000526020600020906005020160000160009054906101000a900473ffffffffffffffffffffffffffffffffffffffff1673ffffffffffffffffffffffffffffffffffffffff16145b156105d35782600360003373ffffffffffffffffffffffffffffffffffffffff1673ffffffffffffffffffffffffffffffffffffffff16815260200190815260200160002082815481106105a957fe5b906000526020600020906005020160040190805190602001906105cd929190613a20565b506105e0565b8080600101915050610360565b5060008090505b600460008673ffffffffffffffffffffffffffffffffffffffff1673ffffffffffffffffffffffffffffffffffffffff1681526020019081526020016000208054905081101561098a5761072e600460008773ffffffffffffffffffffffffffffffffffffffff1673ffffffffffffffffffffffffffffffffffffffff168152602001908152602001600020828154811061067e57fe5b90600052602060002090600502016002018054600181600116156101000203166002900480601f0160208091040260200160405190810160405280929190818152602001828054600181600116156101000203166002900480156107235780601f106106f857610100808354040283529160200191610723565b820191906000526020600020905b81548152906001019060200180831161070657829003601f168201915b5050505050856130f2565b80156107e057503373ffffffffffffffffffffffffffffffffffffffff16600460008773ffffffffffffffffffffffffffffffffffffffff1673ffffffffffffffffffffffffffffffffffffffff168152602001908152602001600020828154811061079657fe5b906000526020600020906005020160010160009054906101000a900473ffffffffffffffffffffffffffffffffffffffff1673ffffffffffffffffffffffffffffffffffffffff16145b1561097d576040518060a001604052808673ffffffffffffffffffffffffffffffffffffffff1681526020013373ffffffffffffffffffffffffffffffffffffffff16815260200185815260200183815260200184815250600460008773ffffffffffffffffffffffffffffffffffffffff1673ffffffffffffffffffffffffffffffffffffffff168152602001908152602001600020828154811061088257fe5b906000526020600020906005020160008201518160000160006101000a81548173ffffffffffffffffffffffffffffffffffffffff021916908373ffffffffffffffffffffffffffffffffffffffff16021790555060208201518160010160006101000a81548173ffffffffffffffffffffffffffffffffffffffff021916908373ffffffffffffffffffffffffffffffffffffffff160217905550604082015181600201908051906020019061093a929190613aa0565b506060820151816003019080519060200190610957929190613b20565b506080820151816004019080519060200190610974929190613aa0565b5090505061098a565b80806001019150506105e7565b507f0f87084e9e023e28afc41d54287d43630b1231e5725088828624ad2ba6667eb984336040516109bc92919061481b565b60405180910390a150505050565b6060806060806000600360003373ffffffffffffffffffffffffffffffffffffffff1673ffffffffffffffffffffffffffffffffffffffff168152602001908152602001600020805490509050606081604051908082528060200260200182016040528015610a485781602001602082028038833980820191505090505b509050606082604051908082528060200260200182016040528015610a8157816020015b6060815260200190600190039081610a6c5790505b509050606083604051908082528060200260200182016040528015610aba57816020015b6060815260200190600190039081610aa55790505b509050606084604051908082528060200260200182016040528015610af357816020015b6060815260200190600190039081610ade5790505b50905060008090505b85811015610eb057610b0c613ba0565b600360003373ffffffffffffffffffffffffffffffffffffffff1673ffffffffffffffffffffffffffffffffffffffff1681526020019081526020016000208281548110610b5657fe5b90600052602060002090600502016040518060a00160405290816000820160009054906101000a900473ffffffffffffffffffffffffffffffffffffffff1673ffffffffffffffffffffffffffffffffffffffff1673ffffffffffffffffffffffffffffffffffffffff1681526020016001820160009054906101000a900473ffffffffffffffffffffffffffffffffffffffff1673ffffffffffffffffffffffffffffffffffffffff1673ffffffffffffffffffffffffffffffffffffffff168152602001600282018054600181600116156101000203166002900480601f016020809104026020016040519081016040528092919081815260200182805460018160011615610100020316600290048015610cb45780601f10610c8957610100808354040283529160200191610cb4565b820191906000526020600020905b815481529060010190602001808311610c9757829003601f168201915b50505050508152602001600382018054600181600116156101000203166002900480601f016020809104026020016040519081016040528092919081815260200182805460018160011615610100020316600290048015610d565780601f10610d2b57610100808354040283529160200191610d56565b820191906000526020600020905b815481529060010190602001808311610d3957829003601f168201915b50505050508152602001600482018054600181600116156101000203166002900480601f016020809104026020016040519081016040528092919081815260200182805460018160011615610100020316600290048015610df85780601f10610dcd57610100808354040283529160200191610df8565b820191906000526020600020905b815481529060010190602001808311610ddb57829003601f168201915b50505050508152505090508060000151868381518110610e1457fe5b602002602001019073ffffffffffffffffffffffffffffffffffffffff16908173ffffffffffffffffffffffffffffffffffffffff16815250508060400151858381518110610e5f57fe5b60200260200101819052508060600151848381518110610e7b57fe5b60200260200101819052508060800151838381518110610e9757fe5b6020026020010181905250508080600101915050610afc565b50838383839850985098509850505050505090919293565b8273ffffffffffffffffffffffffffffffffffffffff163373ffffffffffffffffffffffffffffffffffffffff161415610f37576040517f08c379a0000000000000000000000000000000000000000000000000000000008152600401610f2e90614be8565b60405180910390fd5b6000825111610f4557600080fd5b6000815111610f5357600080fd5b60008090505b600460003373ffffffffffffffffffffffffffffffffffffffff1673ffffffffffffffffffffffffffffffffffffffff1681526020019081526020016000208054905081101561119f576110a0600460003373ffffffffffffffffffffffffffffffffffffffff1673ffffffffffffffffffffffffffffffffffffffff1681526020019081526020016000208281548110610ff057fe5b90600052602060002090600502016002018054600181600116156101000203166002900480601f0160208091040260200160405190810160405280929190818152602001828054600181600116156101000203166002900480156110955780601f1061106a57610100808354040283529160200191611095565b820191906000526020600020905b81548152906001019060200180831161107857829003601f168201915b5050505050846130f2565b801561115257508373ffffffffffffffffffffffffffffffffffffffff16600460003373ffffffffffffffffffffffffffffffffffffffff1673ffffffffffffffffffffffffffffffffffffffff168152602001908152602001600020828154811061110857fe5b906000526020600020906005020160010160009054906101000a900473ffffffffffffffffffffffffffffffffffffffff1673ffffffffffffffffffffffffffffffffffffffff16145b15611192576040517f08c379a000000000000000000000000000000000000000000000000000000000815260040161118990614c28565b60405180910390fd5b8080600101915050610f59565b50600360008473ffffffffffffffffffffffffffffffffffffffff1673ffffffffffffffffffffffffffffffffffffffff1681526020019081526020016000206040518060a001604052803373ffffffffffffffffffffffffffffffffffffffff1681526020018573ffffffffffffffffffffffffffffffffffffffff1681526020018481526020018381526020016040518060400160405280600981526020017f52657175657374656400000000000000000000000000000000000000000000008152508152509080600181540180825580915050906001820390600052602060002090600502016000909192909190915060008201518160000160006101000a81548173ffffffffffffffffffffffffffffffffffffffff021916908373ffffffffffffffffffffffffffffffffffffffff16021790555060208201518160010160006101000a81548173ffffffffffffffffffffffffffffffffffffffff021916908373ffffffffffffffffffffffffffffffffffffffff160217905550604082015181600201908051906020019061133c929190613aa0565b506060820151816003019080519060200190611359929190613b20565b506080820151816004019080519060200190611376929190613aa0565b50505050600460003373ffffffffffffffffffffffffffffffffffffffff1673ffffffffffffffffffffffffffffffffffffffff1681526020019081526020016000206040518060a001604052803373ffffffffffffffffffffffffffffffffffffffff1681526020018573ffffffffffffffffffffffffffffffffffffffff1681526020018481526020018381526020016040518060400160405280600981526020017f52657175657374656400000000000000000000000000000000000000000000008152508152509080600181540180825580915050906001820390600052602060002090600502016000909192909190915060008201518160000160006101000a81548173ffffffffffffffffffffffffffffffffffffffff021916908373ffffffffffffffffffffffffffffffffffffffff16021790555060208201518160010160006101000a81548173ffffffffffffffffffffffffffffffffffffffff021916908373ffffffffffffffffffffffffffffffffffffffff1602179055506040820151816002019080519060200190611516929190613aa0565b506060820151816003019080519060200190611533929190613b20565b506080820151816004019080519060200190611550929190613aa0565b505050507f2286e284ed277a7f4da5a88f0e47927f93a4c2407975b4fbd236f444c46e130a33846040516115859291906147c2565b60405180910390a1505050565b6000600260003373ffffffffffffffffffffffffffffffffffffffff1673ffffffffffffffffffffffffffffffffffffffff16815260200190815260200160002080549050905090565b60008351116115ea57600080fd5b60008251116115f857600080fd5b600081511161160657600080fd5b6116f86000803373ffffffffffffffffffffffffffffffffffffffff1673ffffffffffffffffffffffffffffffffffffffff1681526020019081526020016000206000018054600181600116156101000203166002900480601f0160208091040260200160405190810160405280929190818152602001828054600181600116156101000203166002900480156116de5780601f106116b3576101008083540402835291602001916116de565b820191906000526020600020905b8154815290600101906020018083116116c157829003601f168201915b5050505050604051806020016040528060008152506130f2565b80156117f257506117f16000803373ffffffffffffffffffffffffffffffffffffffff1673ffffffffffffffffffffffffffffffffffffffff1681526020019081526020016000206001018054600181600116156101000203166002900480601f0160208091040260200160405190810160405280929190818152602001828054600181600116156101000203166002900480156117d75780601f106117ac576101008083540402835291602001916117d7565b820191906000526020600020905b8154815290600101906020018083116117ba57829003601f168201915b5050505050604051806020016040528060008152506130f2565b5b80156118685750600073ffffffffffffffffffffffffffffffffffffffff166001826040516118219190614787565b908152602001604051809103902060009054906101000a900473ffffffffffffffffffffffffffffffffffffffff1673ffffffffffffffffffffffffffffffffffffffff16145b15611996576040518060400160405280848152602001838152506000803373ffffffffffffffffffffffffffffffffffffffff1673ffffffffffffffffffffffffffffffffffffffff16815260200190815260200160002060008201518160000190805190602001906118dc929190613aa0565b5060208201518160010190805190602001906118f9929190613aa0565b509050503360018260405161190e9190614787565b908152602001604051809103902060006101000a81548173ffffffffffffffffffffffffffffffffffffffff021916908373ffffffffffffffffffffffffffffffffffffffff1602179055507feaf2470f48be1347a62e987fb10a00cbe8bd129122f18277b7064c2012cf10e2336040516119899190614b47565b60405180910390a1612013565b611a886000803373ffffffffffffffffffffffffffffffffffffffff1673ffffffffffffffffffffffffffffffffffffffff1681526020019081526020016000206000018054600181600116156101000203166002900480601f016020809104026020016040519081016040528092919081815260200182805460018160011615610100020316600290048015611a6e5780601f10611a4357610100808354040283529160200191611a6e565b820191906000526020600020905b815481529060010190602001808311611a5157829003601f168201915b5050505050604051806020016040528060008152506130f2565b8015611b825750611b816000803373ffffffffffffffffffffffffffffffffffffffff1673ffffffffffffffffffffffffffffffffffffffff1681526020019081526020016000206001018054600181600116156101000203166002900480601f016020809104026020016040519081016040528092919081815260200182805460018160011615610100020316600290048015611b675780601f10611b3c57610100808354040283529160200191611b67565b820191906000526020600020905b815481529060010190602001808311611b4a57829003601f168201915b5050505050604051806020016040528060008152506130f2565b5b8015611bf95750600073ffffffffffffffffffffffffffffffffffffffff16600182604051611bb19190614787565b908152602001604051809103902060009054906101000a900473ffffffffffffffffffffffffffffffffffffffff1673ffffffffffffffffffffffffffffffffffffffff1614155b15611c3a577feaf2470f48be1347a62e987fb10a00cbe8bd129122f18277b7064c2012cf10e233604051611c2d9190614a02565b60405180910390a1600080fd5b611d1d6000803373ffffffffffffffffffffffffffffffffffffffff1673ffffffffffffffffffffffffffffffffffffffff1681526020019081526020016000206000018054600181600116156101000203166002900480601f016020809104026020016040519081016040528092919081815260200182805460018160011615610100020316600290048015611d125780601f10611ce757610100808354040283529160200191611d12565b820191906000526020600020905b815481529060010190602001808311611cf557829003601f168201915b5050505050846130f2565b8015611e085750611e076000803373ffffffffffffffffffffffffffffffffffffffff1673ffffffffffffffffffffffffffffffffffffffff1681526020019081526020016000206001018054600181600116156101000203166002900480601f016020809104026020016040519081016040528092919081815260200182805460018160011615610100020316600290048015611dfc5780601f10611dd157610100808354040283529160200191611dfc565b820191906000526020600020905b815481529060010190602001808311611ddf57829003601f168201915b5050505050836130f2565b5b8015611e7d57503373ffffffffffffffffffffffffffffffffffffffff16600182604051611e369190614787565b908152602001604051809103902060009054906101000a900473ffffffffffffffffffffffffffffffffffffffff1673ffffffffffffffffffffffffffffffffffffffff16145b15611ebe577feaf2470f48be1347a62e987fb10a00cbe8bd129122f18277b7064c2012cf10e233604051611eb19190614a43565b60405180910390a1600080fd5b7feaf2470f48be1347a62e987fb10a00cbe8bd129122f18277b7064c2012cf10e2611ff76040518060400160405280601b81526020017f5573657220616c726561647920726567697374657265642061732000000000008152506000803373ffffffffffffffffffffffffffffffffffffffff1673ffffffffffffffffffffffffffffffffffffffff1681526020019081526020016000206001018054600181600116156101000203166002900480601f016020809104026020016040519081016040528092919081815260200182805460018160011615610100020316600290048015611fed5780601f10611fc257610100808354040283529160200191611fed565b820191906000526020600020905b815481529060010190602001808311611fd057829003601f168201915b50505050506139f4565b336040516120069291906149bf565b60405180910390a1600080fd5b505050565b60008083511161202757600080fd5b600082511161203557600080fd5b6121276000803373ffffffffffffffffffffffffffffffffffffffff1673ffffffffffffffffffffffffffffffffffffffff1681526020019081526020016000206000018054600181600116156101000203166002900480601f01602080910402602001604051908101604052809291908181526020018280546001816001161561010002031660029004801561210d5780601f106120e25761010080835404028352916020019161210d565b820191906000526020600020905b8154815290600101906020018083116120f057829003601f168201915b5050505050604051806020016040528060008152506130f2565b15801561221357506122126000803373ffffffffffffffffffffffffffffffffffffffff1673ffffffffffffffffffffffffffffffffffffffff1681526020019081526020016000206001018054600181600116156101000203166002900480601f0160208091040260200160405190810160405280929190818152602001828054600181600116156101000203166002900480156122075780601f106121dc57610100808354040283529160200191612207565b820191906000526020600020905b8154815290600101906020018083116121ea57829003601f168201915b5050505050846130f2565b5b801561228857503373ffffffffffffffffffffffffffffffffffffffff166001836040516122419190614787565b908152602001604051809103902060009054906101000a900473ffffffffffffffffffffffffffffffffffffffff1673ffffffffffffffffffffffffffffffffffffffff16145b156122cd577feaf2470f48be1347a62e987fb10a00cbe8bd129122f18277b7064c2012cf10e2336040516122bc9190614b06565b60405180910390a1600190506125a2565b6123bf6000803373ffffffffffffffffffffffffffffffffffffffff1673ffffffffffffffffffffffffffffffffffffffff1681526020019081526020016000206000018054600181600116156101000203166002900480601f0160208091040260200160405190810160405280929190818152602001828054600181600116156101000203166002900480156123a55780601f1061237a576101008083540402835291602001916123a5565b820191906000526020600020905b81548152906001019060200180831161238857829003601f168201915b5050505050604051806020016040528060008152506130f2565b1580156124ab57506124aa6000803373ffffffffffffffffffffffffffffffffffffffff1673ffffffffffffffffffffffffffffffffffffffff1681526020019081526020016000206001018054600181600116156101000203166002900480601f01602080910402602001604051908101604052809291908181526020018280546001816001161561010002031660029004801561249f5780601f106124745761010080835404028352916020019161249f565b820191906000526020600020905b81548152906001019060200180831161248257829003601f168201915b5050505050846130f2565b5b801561252157503373ffffffffffffffffffffffffffffffffffffffff166001836040516124d99190614787565b908152602001604051809103902060009054906101000a900473ffffffffffffffffffffffffffffffffffffffff1673ffffffffffffffffffffffffffffffffffffffff1614155b15612566577feaf2470f48be1347a62e987fb10a00cbe8bd129122f18277b7064c2012cf10e2336040516125559190614a84565b60405180910390a1600090506125a2565b7feaf2470f48be1347a62e987fb10a00cbe8bd129122f18277b7064c2012cf10e2336040516125959190614ac5565b60405180910390a1600090505b92915050565b60008090505b6005805490508110156126c85761267b600582815481106125cb57fe5b90600052602060002090600302016001018054600181600116156101000203166002900480601f0160208091040260200160405190810160405280929190818152602001828054600181600116156101000203166002900480156126705780601f1061264557610100808354040283529160200191612670565b820191906000526020600020905b81548152906001019060200180831161265357829003601f168201915b5050505050846130f2565b156126bb576040517f08c379a00000000000000000000000000000000000000000000000000000000081526004016126b290614c08565b60405180910390fd5b80806001019150506125ae565b50600560405180606001604052803373ffffffffffffffffffffffffffffffffffffffff168152602001848152602001838152509080600181540180825580915050906001820390600052602060002090600302016000909192909190915060008201518160000160006101000a81548173ffffffffffffffffffffffffffffffffffffffff021916908373ffffffffffffffffffffffffffffffffffffffff160217905550602082015181600101908051906020019061278a929190613aa0565b5060408201518160020190805190602001906127a7929190613aa0565b505050507f20542dec84858b9f4322835bfcc83c7f5ee03c8471237b7f43ab5e0d848c512f33836040516127dc9291906147eb565b60405180910390a15050565b60006060806000809050600260003373ffffffffffffffffffffffffffffffffffffffff1673ffffffffffffffffffffffffffffffffffffffff16815260200190815260200160002080549050811015612ab357612844613bfb565b600260003373ffffffffffffffffffffffffffffffffffffffff1673ffffffffffffffffffffffffffffffffffffffff168152602001908152602001600020828154811061288e57fe5b90600052602060002090600302016040518060600160405290816000820160009054906101000a900473ffffffffffffffffffffffffffffffffffffffff1673ffffffffffffffffffffffffffffffffffffffff1673ffffffffffffffffffffffffffffffffffffffff168152602001600182018054600181600116156101000203166002900480601f0160208091040260200160405190810160405280929190818152602001828054600181600116156101000203166002900480156129965780601f1061296b57610100808354040283529160200191612996565b820191906000526020600020905b81548152906001019060200180831161297957829003601f168201915b50505050508152602001600282018054600181600116156101000203166002900480601f016020809104026020016040519081016040528092919081815260200182805460018160011615610100020316600290048015612a385780601f10612a0d57610100808354040283529160200191612a38565b820191906000526020600020905b815481529060010190602001808311612a1b57829003601f168201915b5050505050815250509050612a518682602001516130f2565b15612a78578060000151816020015182604001518191508090509450945094505050612ab5565b6040517f08c379a0000000000000000000000000000000000000000000000000000000008152600401612aaa90614b88565b60405180910390fd5b505b9193909250565b6060600073ffffffffffffffffffffffffffffffffffffffff168273ffffffffffffffffffffffffffffffffffffffff161415612af857600080fd5b6000808373ffffffffffffffffffffffffffffffffffffffff1673ffffffffffffffffffffffffffffffffffffffff1681526020019081526020016000206000018054600181600116156101000203166002900480601f016020809104026020016040519081016040528092919081815260200182805460018160011615610100020316600290048015612bcd5780601f10612ba257610100808354040283529160200191612bcd565b820191906000526020600020905b815481529060010190602001808311612bb057829003601f168201915b50505050509050919050565b6000835111612be757600080fd5b6000825111612bf557600080fd5b3373ffffffffffffffffffffffffffffffffffffffff168173ffffffffffffffffffffffffffffffffffffffff161415612c64576040517f08c379a0000000000000000000000000000000000000000000000000000000008152600401612c5b90614bc8565b60405180910390fd5b600260008273ffffffffffffffffffffffffffffffffffffffff1673ffffffffffffffffffffffffffffffffffffffff16815260200190815260200160002060405180606001604052803373ffffffffffffffffffffffffffffffffffffffff168152602001858152602001848152509080600181540180825580915050906001820390600052602060002090600302016000909192909190915060008201518160000160006101000a81548173ffffffffffffffffffffffffffffffffffffffff021916908373ffffffffffffffffffffffffffffffffffffffff1602179055506020820151816001019080519060200190612d62929190613aa0565b506040820151816002019080519060200190612d7f929190613b20565b505050507f303012c12f720b747dff3c4a0cec152ee2e833f7ae5dddfda967235543b0cf0e8133604051612db492919061481b565b60405180910390a1505050565b606080606060006005805490509050606081604051908082528060200260200182016040528015612e015781602001602082028038833980820191505090505b509050606082604051908082528060200260200182016040528015612e3a57816020015b6060815260200190600190039081612e255790505b509050606083604051908082528060200260200182016040528015612e7357816020015b6060815260200190600190039081612e5e5790505b50905060008090505b848110156130df57612e8c613c32565b60058281548110612e9957fe5b90600052602060002090600302016040518060600160405290816000820160009054906101000a900473ffffffffffffffffffffffffffffffffffffffff1673ffffffffffffffffffffffffffffffffffffffff1673ffffffffffffffffffffffffffffffffffffffff168152602001600182018054600181600116156101000203166002900480601f016020809104026020016040519081016040528092919081815260200182805460018160011615610100020316600290048015612fa15780601f10612f7657610100808354040283529160200191612fa1565b820191906000526020600020905b815481529060010190602001808311612f8457829003601f168201915b50505050508152602001600282018054600181600116156101000203166002900480601f0160208091040260200160405190810160405280929190818152602001828054600181600116156101000203166002900480156130435780601f1061301857610100808354040283529160200191613043565b820191906000526020600020905b81548152906001019060200180831161302657829003601f168201915b5050505050815250509050806000015185838151811061305f57fe5b602002602001019073ffffffffffffffffffffffffffffffffffffffff16908173ffffffffffffffffffffffffffffffffffffffff168152505080602001518483815181106130aa57fe5b602002602001018190525080604001518383815181106130c657fe5b6020026020010181905250508080600101915050612e7c565b5082828296509650965050505050909192565b6000816040516020016131059190614787565b604051602081830303815290604052805190602001208360405160200161312c9190614787565b6040516020818303038152906040528051906020012014905092915050565b60608060606000600260003373ffffffffffffffffffffffffffffffffffffffff1673ffffffffffffffffffffffffffffffffffffffff1681526020019081526020016000208054905090506060816040519080825280602002602001820160405280156131c85781602001602082028038833980820191505090505b50905060608260405190808252806020026020018201604052801561320157816020015b60608152602001906001900390816131ec5790505b50905060608360405190808252806020026020018201604052801561323a57816020015b60608152602001906001900390816132255790505b50905060008090505b848110156134e357613253613bfb565b600260003373ffffffffffffffffffffffffffffffffffffffff1673ffffffffffffffffffffffffffffffffffffffff168152602001908152602001600020828154811061329d57fe5b90600052602060002090600302016040518060600160405290816000820160009054906101000a900473ffffffffffffffffffffffffffffffffffffffff1673ffffffffffffffffffffffffffffffffffffffff1673ffffffffffffffffffffffffffffffffffffffff168152602001600182018054600181600116156101000203166002900480601f0160208091040260200160405190810160405280929190818152602001828054600181600116156101000203166002900480156133a55780601f1061337a576101008083540402835291602001916133a5565b820191906000526020600020905b81548152906001019060200180831161338857829003601f168201915b50505050508152602001600282018054600181600116156101000203166002900480601f0160208091040260200160405190810160405280929190818152602001828054600181600116156101000203166002900480156134475780601f1061341c57610100808354040283529160200191613447565b820191906000526020600020905b81548152906001019060200180831161342a57829003601f168201915b5050505050815250509050806000015185838151811061346357fe5b602002602001019073ffffffffffffffffffffffffffffffffffffffff16908173ffffffffffffffffffffffffffffffffffffffff168152505080602001518483815181106134ae57fe5b602002602001018190525080604001518383815181106134ca57fe5b6020026020010181905250508080600101915050613243565b5082828296509650965050505050909192565b6060806060806000600460003373ffffffffffffffffffffffffffffffffffffffff1673ffffffffffffffffffffffffffffffffffffffff1681526020019081526020016000208054905090506060816040519080825280602002602001820160405280156135745781602001602082028038833980820191505090505b5090506060826040519080825280602002602001820160405280156135ad57816020015b60608152602001906001900390816135985790505b5090506060836040519080825280602002602001820160405280156135e657816020015b60608152602001906001900390816135d15790505b50905060608460405190808252806020026020018201604052801561361f57816020015b606081526020019060019003908161360a5790505b50905060008090505b858110156139dc57613638613ba0565b600460003373ffffffffffffffffffffffffffffffffffffffff1673ffffffffffffffffffffffffffffffffffffffff168152602001908152602001600020828154811061368257fe5b90600052602060002090600502016040518060a00160405290816000820160009054906101000a900473ffffffffffffffffffffffffffffffffffffffff1673ffffffffffffffffffffffffffffffffffffffff1673ffffffffffffffffffffffffffffffffffffffff1681526020016001820160009054906101000a900473ffffffffffffffffffffffffffffffffffffffff1673ffffffffffffffffffffffffffffffffffffffff1673ffffffffffffffffffffffffffffffffffffffff168152602001600282018054600181600116156101000203166002900480601f0160208091040260200160405190810160405280929190818152602001828054600181600116156101000203166002900480156137e05780601f106137b5576101008083540402835291602001916137e0565b820191906000526020600020905b8154815290600101906020018083116137c357829003601f168201915b50505050508152602001600382018054600181600116156101000203166002900480601f0160208091040260200160405190810160405280929190818152602001828054600181600116156101000203166002900480156138825780601f1061385757610100808354040283529160200191613882565b820191906000526020600020905b81548152906001019060200180831161386557829003601f168201915b50505050508152602001600482018054600181600116156101000203166002900480601f0160208091040260200160405190810160405280929190818152602001828054600181600116156101000203166002900480156139245780601f106138f957610100808354040283529160200191613924565b820191906000526020600020905b81548152906001019060200180831161390757829003601f168201915b5050505050815250509050806020015186838151811061394057fe5b602002602001019073ffffffffffffffffffffffffffffffffffffffff16908173ffffffffffffffffffffffffffffffffffffffff1681525050806040015185838151811061398b57fe5b602002602001018190525080606001518483815181106139a757fe5b602002602001018190525080608001518383815181106139c357fe5b6020026020010181905250508080600101915050613628565b50838383839850985098509850505050505090919293565b60608282604051602001613a0992919061479e565b604051602081830303815290604052905092915050565b828054600181600116156101000203166002900490600052602060002090601f016020900481019282601f10613a6157805160ff1916838001178555613a8f565b82800160010185558215613a8f579182015b82811115613a8e578251825591602001919060010190613a73565b5b509050613a9c9190613c69565b5090565b828054600181600116156101000203166002900490600052602060002090601f016020900481019282601f10613ae157805160ff1916838001178555613b0f565b82800160010185558215613b0f579182015b82811115613b0e578251825591602001919060010190613af3565b5b509050613b1c9190613c69565b5090565b828054600181600116156101000203166002900490600052602060002090601f016020900481019282601f10613b6157805160ff1916838001178555613b8f565b82800160010185558215613b8f579182015b82811115613b8e578251825591602001919060010190613b73565b5b509050613b9c9190613c69565b5090565b6040518060a00160405280600073ffffffffffffffffffffffffffffffffffffffff168152602001600073ffffffffffffffffffffffffffffffffffffffff1681526020016060815260200160608152602001606081525090565b6040518060600160405280600073ffffffffffffffffffffffffffffffffffffffff16815260200160608152602001606081525090565b6040518060600160405280600073ffffffffffffffffffffffffffffffffffffffff16815260200160608152602001606081525090565b613c8b91905b80821115613c87576000816000905550600101613c6f565b5090565b90565b600081359050613c9d81614edf565b92915050565b600082601f830112613cb457600080fd5b8135613cc7613cc282614c90565b614c63565b91508082526020830160208301858383011115613ce357600080fd5b613cee838284614e8c565b50505092915050565b600082601f830112613d0857600080fd5b8135613d1b613d1682614cbc565b614c63565b91508082526020830160208301858383011115613d3757600080fd5b613d42838284614e8c565b50505092915050565b600060208284031215613d5d57600080fd5b6000613d6b84828501613c8e565b91505092915050565b600080600060608486031215613d8957600080fd5b6000613d9786828701613c8e565b935050602084013567ffffffffffffffff811115613db457600080fd5b613dc086828701613cf7565b925050604084013567ffffffffffffffff811115613ddd57600080fd5b613de986828701613ca3565b9150509250925092565b60008060008060808587031215613e0957600080fd5b6000613e1787828801613c8e565b945050602085013567ffffffffffffffff811115613e3457600080fd5b613e4087828801613cf7565b935050604085013567ffffffffffffffff811115613e5d57600080fd5b613e6987828801613cf7565b925050606085013567ffffffffffffffff811115613e8657600080fd5b613e9287828801613ca3565b91505092959194509250565b600060208284031215613eb057600080fd5b600082013567ffffffffffffffff811115613eca57600080fd5b613ed684828501613cf7565b91505092915050565b600080600060608486031215613ef457600080fd5b600084013567ffffffffffffffff811115613f0e57600080fd5b613f1a86828701613cf7565b935050602084013567ffffffffffffffff811115613f3757600080fd5b613f4386828701613ca3565b9250506040613f5486828701613c8e565b9150509250925092565b60008060408385031215613f7157600080fd5b600083013567ffffffffffffffff811115613f8b57600080fd5b613f9785828601613cf7565b925050602083013567ffffffffffffffff811115613fb457600080fd5b613fc085828601613cf7565b9150509250929050565b600080600060608486031215613fdf57600080fd5b600084013567ffffffffffffffff811115613ff957600080fd5b61400586828701613cf7565b935050602084013567ffffffffffffffff81111561402257600080fd5b61402e86828701613cf7565b925050604084013567ffffffffffffffff81111561404b57600080fd5b61405786828701613cf7565b9150509250925092565b600061406d83836140b0565b60208301905092915050565b6000614085838361425e565b905092915050565b60006140998383614301565b905092915050565b6140aa81614e56565b82525050565b6140b981614e0e565b82525050565b6140c881614e0e565b82525050565b60006140d982614d18565b6140e38185614d8c565b93506140ee83614ce8565b8060005b8381101561411f5781516141068882614061565b975061411183614d65565b9250506001810190506140f2565b5085935050505092915050565b600061413782614d23565b6141418185614d9d565b93508360208202850161415385614cf8565b8060005b8581101561418f57848403895281516141708582614079565b945061417b83614d72565b925060208a01995050600181019050614157565b50829750879550505050505092915050565b60006141ac82614d2e565b6141b68185614dae565b9350836020820285016141c885614d08565b8060005b8581101561420457848403895281516141e5858261408d565b94506141f083614d7f565b925060208a019950506001810190506141cc565b50829750879550505050505092915050565b61421f81614e20565b82525050565b600061423082614d44565b61423a8185614dd0565b935061424a818560208601614e9b565b61425381614ece565b840191505092915050565b600061426982614d39565b6142738185614dbf565b9350614283818560208601614e9b565b61428c81614ece565b840191505092915050565b60006142a282614d5a565b6142ac8185614df2565b93506142bc818560208601614e9b565b6142c581614ece565b840191505092915050565b60006142db82614d5a565b6142e58185614e03565b93506142f5818560208601614e9b565b80840191505092915050565b600061430c82614d4f565b6143168185614de1565b9350614326818560208601614e9b565b61432f81614ece565b840191505092915050565b6000614347600783614df2565b91507f4661696c757265000000000000000000000000000000000000000000000000006000830152602082019050919050565b6000614387600783614df2565b91507f53756363657373000000000000000000000000000000000000000000000000006000830152602082019050919050565b60006143c7602583614df2565b91507f5573657220646f6573206e6f7420686176652073706563696669656420646f6360008301527f756d656e740000000000000000000000000000000000000000000000000000006020830152604082019050919050565b600061442d601083614df2565b91507f4c6f67696e207375636365737366756c000000000000000000000000000000006000830152602082019050919050565b600061446d601b83614df2565b91507f506c656173652075736520616e6f7468657220757365726e616d6500000000006000830152602082019050919050565b60006144ad602583614df2565b91507f56657269666965722063616e6e6f74207570646174652072657175657374207360008301527f74617475730000000000000000000000000000000000000000000000000000006020830152604082019050919050565b6000614513601783614df2565b91507f5573657220616c726561647920726567697374657265640000000000000000006000830152602082019050919050565b6000614553602683614df2565b91507f596f752063616e6e6f7420697373756520646f63756d656e7420666f7220796f60008301527f757273656c6600000000000000000000000000000000000000000000000000006020830152604082019050919050565b60006145b9602883614df2565b91507f43616e6e6f74207265717565737420766572696669636174696f6e20666f722060008301527f796f757273656c660000000000000000000000000000000000000000000000006020830152604082019050919050565b600061461f601283614df2565b91507f496e636f727265637420757365726e616d6500000000000000000000000000006000830152602082019050919050565b600061465f601383614df2565b91507f5573657220646f6573206e6f74206578697374000000000000000000000000006000830152602082019050919050565b600061469f601783614df2565b91507f526567697374726174696f6e207375636365737366756c0000000000000000006000830152602082019050919050565b60006146df601783614df2565b91507f54656d706c61746520616c7265616479206578697374730000000000000000006000830152602082019050919050565b600061471f602883614df2565b91507f596f75206861766520616c72656164792072657175657374656420746869732060008301527f646f63756d656e740000000000000000000000000000000000000000000000006020830152604082019050919050565b61478181614e4c565b82525050565b600061479382846142d0565b915081905092915050565b60006147aa82856142d0565b91506147b682846142d0565b91508190509392505050565b60006040820190506147d760008301856140a1565b6147e460208301846140bf565b9392505050565b600060408201905061480060008301856140a1565b81810360208301526148128184614297565b90509392505050565b600060408201905061483060008301856140bf565b61483d60208301846140a1565b9392505050565b600060608201905061485960008301866140bf565b818103602083015261486b8185614297565b9050818103604083015261487f8184614225565b9050949350505050565b600060608201905081810360008301526148a381866140ce565b905081810360208301526148b781856141a1565b905081810360408301526148cb818461412c565b9050949350505050565b600060808201905081810360008301526148ef81876140ce565b9050818103602083015261490381866141a1565b90508181036040830152614917818561412c565b9050818103606083015261492b81846141a1565b905095945050505050565b6000606082019050818103600083015261495081866140ce565b9050818103602083015261496481856141a1565b9050818103604083015261497881846141a1565b9050949350505050565b60006020820190506149976000830184614216565b92915050565b600060208201905081810360008301526149b78184614297565b905092915050565b600060608201905081810360008301526149d88161433a565b905081810360208301526149ec8185614297565b90506149fb60408301846140a1565b9392505050565b60006060820190508181036000830152614a1b8161433a565b90508181036020830152614a2e81614460565b9050614a3d60408301846140a1565b92915050565b60006060820190508181036000830152614a5c8161433a565b90508181036020830152614a6f81614506565b9050614a7e60408301846140a1565b92915050565b60006060820190508181036000830152614a9d8161433a565b90508181036020830152614ab081614612565b9050614abf60408301846140a1565b92915050565b60006060820190508181036000830152614ade8161433a565b90508181036020830152614af181614652565b9050614b0060408301846140a1565b92915050565b60006060820190508181036000830152614b1f8161437a565b90508181036020830152614b3281614420565b9050614b4160408301846140a1565b92915050565b60006060820190508181036000830152614b608161437a565b90508181036020830152614b7381614692565b9050614b8260408301846140a1565b92915050565b60006020820190508181036000830152614ba1816143ba565b9050919050565b60006020820190508181036000830152614bc1816144a0565b9050919050565b60006020820190508181036000830152614be181614546565b9050919050565b60006020820190508181036000830152614c01816145ac565b9050919050565b60006020820190508181036000830152614c21816146d2565b9050919050565b60006020820190508181036000830152614c4181614712565b9050919050565b6000602082019050614c5d6000830184614778565b92915050565b6000604051905081810181811067ffffffffffffffff82111715614c8657600080fd5b8060405250919050565b600067ffffffffffffffff821115614ca757600080fd5b601f19601f8301169050602081019050919050565b600067ffffffffffffffff821115614cd357600080fd5b601f19601f8301169050602081019050919050565b6000819050602082019050919050565b6000819050602082019050919050565b6000819050602082019050919050565b600081519050919050565b600081519050919050565b600081519050919050565b600081519050919050565b600081519050919050565b600081519050919050565b600081519050919050565b6000602082019050919050565b6000602082019050919050565b6000602082019050919050565b600082825260208201905092915050565b600082825260208201905092915050565b600082825260208201905092915050565b600082825260208201905092915050565b600082825260208201905092915050565b600082825260208201905092915050565b600082825260208201905092915050565b600081905092915050565b6000614e1982614e2c565b9050919050565b60008115159050919050565b600073ffffffffffffffffffffffffffffffffffffffff82169050919050565b6000819050919050565b6000614e6182614e68565b9050919050565b6000614e7382614e7a565b9050919050565b6000614e8582614e2c565b9050919050565b82818337600083830152505050565b60005b83811015614eb9578082015181840152602081019050614e9e565b83811115614ec8576000848401525b50505050565b6000601f19601f8301169050919050565b614ee881614e0e565b8114614ef357600080fd5b5056fea365627a7a723158204c1f8aa0d45443c4cbfa0bef5a4e25c2d6f42f7879dbdaeaa9c070bf7a9d4e2d6c6578706572696d656e74616cf564736f6c63430005100040",
  "source": "// SPDX-License-Identifier: MIT\r\npragma solidity >=0.4.21 <0.7.0;\r\npragma experimental ABIEncoderV2;\r\n\r\ncontract IdentityManager {\r\n\r\n  struct User {\r\n    string encryptionPublicKey;\r\n    string entity;\r\n  }\r\n\r\n  struct Document {\r\n    address issuer;\r\n    string name;\r\n    bytes data;\r\n  }\r\n\r\n  struct Template {\r\n    address issuer;\r\n    string name;\r\n    string data;\r\n  }\r\n\r\n  struct Request {\r\n    address requestor;\r\n    address owner;\r\n    string docName;\r\n    bytes properties;\r\n    string status;\r\n  }\r\n\r\n  mapping(address => User) userDb;\r\n  mapping(string => address) usernameDb;\r\n  mapping(address => Document[]) identities;\r\n  mapping(address => Request[]) ownerRequests;\r\n  mapping(address => Request[]) verifierRequests;\r\n  Template[] templates;\r\n\r\n  event UserAuthenticated (\r\n    string status,\r\n    string message,\r\n    address user\r\n  );\r\n\r\n  event DocumentIssued (\r\n    address owner,\r\n    address issuer\r\n  );\r\n\r\n  event TemplateCreated (\r\n    address issuer,\r\n    string name\r\n  );\r\n\r\n  event RequestGenerated (\r\n    address verifier,\r\n    address owner\r\n  );\r\n\r\n  event RequestStatusUpdated (\r\n    address verifier,\r\n    address owner\r\n  );\r\n\r\n  function login(string memory _entity, string memory _username) public returns(bool) {\r\n    require(bytes(_entity).length > 0);\r\n    require(bytes(_username).length > 0);\r\n\r\n    if (!compareStringsbyBytes(userDb[msg.sender].encryptionPublicKey, '') && compareStringsbyBytes(userDb[msg.sender].entity, _entity) && usernameDb[_username] == msg.sender) {\r\n      // Success\r\n      emit UserAuthenticated('Success', 'Login successful', msg.sender);\r\n      return true;\r\n    } else if (!compareStringsbyBytes(userDb[msg.sender].encryptionPublicKey, '') && compareStringsbyBytes(userDb[msg.sender].entity, _entity) && usernameDb[_username] != msg.sender) {\r\n      // Incorrect username\r\n      emit UserAuthenticated('Failure', 'Incorrect username', msg.sender);\r\n      return false;\r\n    } else {\r\n      // Failure\r\n      emit UserAuthenticated('Failure', 'User does not exist', msg.sender);\r\n      return false;\r\n    }\r\n  }\r\n\r\n  function register(string memory _encryptionPublicKey, string memory _entity, string memory _username) public {\r\n    require(bytes(_encryptionPublicKey).length > 0);\r\n    require(bytes(_entity).length > 0);\r\n    require(bytes(_username).length > 0);\r\n\r\n    if (compareStringsbyBytes(userDb[msg.sender].encryptionPublicKey, '') && compareStringsbyBytes(userDb[msg.sender].entity, '') && usernameDb[_username] == address(0)) {\r\n      // Success\r\n      userDb[msg.sender] = User(_encryptionPublicKey, _entity);\r\n      usernameDb[_username] = msg.sender;\r\n      emit UserAuthenticated('Success', 'Registration successful', msg.sender);\r\n    } else if (compareStringsbyBytes(userDb[msg.sender].encryptionPublicKey, '') && compareStringsbyBytes(userDb[msg.sender].entity, '') && usernameDb[_username] != address(0)) {\r\n      // Incorrect username\r\n      emit UserAuthenticated('Failure', 'Please use another username', msg.sender);\r\n      revert();\r\n    } else if (compareStringsbyBytes(userDb[msg.sender].encryptionPublicKey, _encryptionPublicKey) && compareStringsbyBytes(userDb[msg.sender].entity, _entity) && usernameDb[_username] == msg.sender) {\r\n      // Failure\r\n      emit UserAuthenticated('Failure', 'User already registered', msg.sender);\r\n      revert();\r\n    } else {\r\n      // Failure\r\n      emit UserAuthenticated('Failure', append('User already registered as ', userDb[msg.sender].entity), msg.sender);\r\n      revert();\r\n    }\r\n  }\r\n\r\n  function issueDocument(string memory _name, bytes memory _data, address _owner) public {\r\n    require(bytes(_name).length > 0);\r\n    require(bytes(_data).length > 0);\r\n    require(_owner != msg.sender, 'You cannot issue document for yourself');\r\n\r\n    identities[_owner].push(Document(msg.sender, _name, _data));\r\n    emit DocumentIssued(_owner, msg.sender);\r\n  }\r\n\r\n  function createTemplate(string memory _name, string memory _data) public {\r\n    for (uint256 index = 0; index < templates.length; index++) {\r\n      if (compareStringsbyBytes(templates[index].name, _name)) {\r\n        revert('Template already exists');\r\n      }\r\n    }\r\n    templates.push(Template(msg.sender, _name, _data));\r\n    emit TemplateCreated(msg.sender, _name);\r\n  }\r\n\r\n  function getTemplates() view public returns(address[] memory, string[] memory, string[] memory) {\r\n    uint _templateCount = templates.length;\r\n    address[] memory _issuer = new address[](_templateCount);\r\n    string[] memory _name = new string[](_templateCount);\r\n    string[] memory _data = new string[](_templateCount);\r\n\r\n    for (uint256 index = 0; index < _templateCount; index++) {\r\n      Template memory _tempCopy = templates[index];\r\n      _issuer[index] = _tempCopy.issuer;\r\n      _name[index] = _tempCopy.name;\r\n      _data[index] = _tempCopy.data;\r\n    }\r\n\r\n    return (_issuer, _name, _data);\r\n  }\r\n\r\n  function getDocuments() view public returns(address[] memory, string[] memory, bytes[] memory) {\r\n    uint _documentCount = identities[msg.sender].length;\r\n    address[] memory _issuer = new address[](_documentCount);\r\n    string[] memory _name = new string[](_documentCount);\r\n    bytes[] memory _data = new bytes[](_documentCount);\r\n\r\n    for (uint256 index = 0; index < _documentCount; index++) {\r\n      Document memory _docCopy = identities[msg.sender][index];\r\n      _issuer[index] = _docCopy.issuer;\r\n      _name[index] = _docCopy.name;\r\n      _data[index] = _docCopy.data;\r\n    }\r\n\r\n    return (_issuer, _name, _data);\r\n  }\r\n\r\n  function getDocument(string memory _name) view public returns(address, string memory, bytes memory) {\r\n    for (uint256 index = 0; index < identities[msg.sender].length; index++) {\r\n      Document memory _docCopy = identities[msg.sender][index];\r\n      if (compareStringsbyBytes(_name, _docCopy.name)) {\r\n        return (_docCopy.issuer, _docCopy.name, _docCopy.data);\r\n      } else {\r\n        revert('User does not have specified document');\r\n      }\r\n    }\r\n  }\r\n\r\n  function getDocumentCount() view public returns(uint) {\r\n    return identities[msg.sender].length;\r\n  }\r\n\r\n  function requestVerification(address _owner, string memory _docName, bytes memory _properties) public {\r\n    require(msg.sender != _owner, 'Cannot request verification for yourself');\r\n    require(bytes(_docName).length > 0);\r\n    require(bytes(_properties).length > 0);\r\n\r\n    for (uint256 index = 0; index < verifierRequests[msg.sender].length; index++) {\r\n      if (compareStringsbyBytes(verifierRequests[msg.sender][index].docName, _docName) && verifierRequests[msg.sender][index].owner == _owner) {\r\n        revert('You have already requested this document');\r\n      }\r\n    }\r\n\r\n    ownerRequests[_owner].push(Request(msg.sender, _owner, _docName, _properties, 'Requested'));\r\n    verifierRequests[msg.sender].push(Request(msg.sender, _owner, _docName, _properties, 'Requested'));\r\n    emit RequestGenerated(msg.sender, _owner);\r\n  }\r\n\r\n  function updateRequestStatus(address _verifier, string memory _docName, string memory _newStatus, bytes memory _properties) public {\r\n    require(_verifier != msg.sender, 'Verifier cannot update request status');\r\n    require(bytes(_docName).length > 0);\r\n\r\n    for (uint256 index = 0; index < ownerRequests[msg.sender].length; index++) {\r\n      if (compareStringsbyBytes(ownerRequests[msg.sender][index].docName, _docName) && ownerRequests[msg.sender][index].requestor == _verifier) {\r\n        ownerRequests[msg.sender][index].status = _newStatus;\r\n        break;\r\n      }\r\n    }\r\n\r\n    for (uint256 index = 0; index < verifierRequests[_verifier].length; index++) {\r\n      if (compareStringsbyBytes(verifierRequests[_verifier][index].docName, _docName) && verifierRequests[_verifier][index].owner == msg.sender) {\r\n        verifierRequests[_verifier][index] = Request(_verifier, msg.sender, _docName, _properties, _newStatus);\r\n        break;\r\n      }\r\n    }\r\n\r\n    emit RequestStatusUpdated(_verifier, msg.sender);\r\n  }\r\n\r\n  function getOwnerRequests() view public returns(address[] memory, string[] memory, bytes[] memory, string[] memory) {\r\n    uint _reqCount = ownerRequests[msg.sender].length;\r\n    address[] memory _requestor = new address[](_reqCount);\r\n    string[] memory _docName = new string[](_reqCount);\r\n    bytes[] memory _properties = new bytes[](_reqCount);\r\n    string[] memory _status = new string[](_reqCount);\r\n\r\n    for (uint256 index = 0; index < _reqCount; index++) {\r\n      Request memory _reqCopy = ownerRequests[msg.sender][index];\r\n      _requestor[index] = _reqCopy.requestor;\r\n      _docName[index] = _reqCopy.docName;\r\n      _properties[index] = _reqCopy.properties;\r\n      _status[index] = _reqCopy.status;\r\n    }\r\n\r\n    return (_requestor, _docName, _properties, _status);\r\n  }\r\n\r\n  function getVerifierRequests() view public returns(address[] memory, string[] memory, bytes[] memory, string[] memory) {\r\n    uint _reqCount = verifierRequests[msg.sender].length;\r\n    address[] memory _owner = new address[](_reqCount);\r\n    string[] memory _docName = new string[](_reqCount);\r\n    bytes[] memory _properties = new bytes[](_reqCount);\r\n    string[] memory _status = new string[](_reqCount);\r\n\r\n    for (uint256 index = 0; index < _reqCount; index++) {\r\n      Request memory _reqCopy = verifierRequests[msg.sender][index];\r\n      _owner[index] = _reqCopy.owner;\r\n      _docName[index] = _reqCopy.docName;\r\n      _properties[index] = _reqCopy.properties;\r\n      _status[index] = _reqCopy.status;\r\n    }\r\n\r\n    return (_owner, _docName, _properties, _status);\r\n  }\r\n\r\n  function getEncryptionPublicKey(address _owner) view public returns(string memory) {\r\n    require(_owner != address(0));\r\n\r\n    return userDb[_owner].encryptionPublicKey;\r\n  }\r\n\r\n  function compareStringsbyBytes(string memory s1, string memory s2) public pure returns(bool) {\r\n    return keccak256(abi.encodePacked(s1)) == keccak256(abi.encodePacked(s2));\r\n  }\r\n\r\n  function append(string memory a, string memory b) internal pure returns (string memory) {\r\n    return string(abi.encodePacked(a, b));\r\n  }\r\n}",
  "sourcePath": "C:/Users/Chaitanya/Documents/Academics/Projects/UniversalIMS/IMS_Owner/contracts/IdentityManager.sol",
  "compiler": {
    "name": "solc",
    "version": "0.5.16+commit.9c3226ce.Emscripten.clang"
  },
  "schemaVersion": "3.3.4",
  "updatedAt": "2021-03-16T03:18:32.858Z",
  "networkType": "ethereum",
  "devdoc": {
    "methods": {}
  },
  "userdoc": {
    "methods": {}
  }
}