{
  "contractName": "IdentityManager",
  "abi": [
    {
      "anonymous": false,
      "inputs": [
        {
          "indexed": true,
          "internalType": "address",
          "name": "owner",
          "type": "address"
        },
        {
          "indexed": true,
          "internalType": "address",
          "name": "issuer",
          "type": "address"
        }
      ],
      "name": "DocumentIssued",
      "type": "event"
    },
    {
      "anonymous": false,
      "inputs": [
        {
          "indexed": true,
          "internalType": "address",
          "name": "verifier",
          "type": "address"
        },
        {
          "indexed": true,
          "internalType": "address",
          "name": "owner",
          "type": "address"
        }
      ],
      "name": "RequestGenerated",
      "type": "event"
    },
    {
      "anonymous": false,
      "inputs": [
        {
          "indexed": true,
          "internalType": "address",
          "name": "verifier",
          "type": "address"
        },
        {
          "indexed": true,
          "internalType": "address",
          "name": "owner",
          "type": "address"
        },
        {
          "indexed": false,
          "internalType": "string",
          "name": "status",
          "type": "string"
        }
      ],
      "name": "RequestStatusUpdated",
      "type": "event"
    },
    {
      "anonymous": false,
      "inputs": [
        {
          "indexed": false,
          "internalType": "address",
          "name": "issuer",
          "type": "address"
        },
        {
          "indexed": false,
          "internalType": "string",
          "name": "name",
          "type": "string"
        }
      ],
      "name": "TemplateCreated",
      "type": "event"
    },
    {
      "anonymous": false,
      "inputs": [
        {
          "indexed": true,
          "internalType": "address",
          "name": "user",
          "type": "address"
        }
      ],
      "name": "UserRegistered",
      "type": "event"
    },
    {
      "constant": true,
      "inputs": [
        {
          "internalType": "string",
          "name": "_entity",
          "type": "string"
        },
        {
          "internalType": "string",
          "name": "_username",
          "type": "string"
        }
      ],
      "name": "login",
      "outputs": [
        {
          "internalType": "string",
          "name": "",
          "type": "string"
        },
        {
          "internalType": "string",
          "name": "",
          "type": "string"
        },
        {
          "internalType": "string",
          "name": "",
          "type": "string"
        }
      ],
      "payable": false,
      "stateMutability": "view",
      "type": "function"
    },
    {
      "constant": false,
      "inputs": [
        {
          "internalType": "string",
          "name": "_encryptionPublicKey",
          "type": "string"
        },
        {
          "internalType": "string",
          "name": "_entity",
          "type": "string"
        },
        {
          "internalType": "string",
          "name": "_username",
          "type": "string"
        }
      ],
      "name": "register",
      "outputs": [],
      "payable": false,
      "stateMutability": "nonpayable",
      "type": "function"
    },
    {
      "constant": false,
      "inputs": [
        {
          "internalType": "string",
          "name": "_name",
          "type": "string"
        },
        {
          "internalType": "bytes",
          "name": "_data",
          "type": "bytes"
        },
        {
          "internalType": "string",
          "name": "_templateData",
          "type": "string"
        },
        {
          "internalType": "address",
          "name": "_owner",
          "type": "address"
        }
      ],
      "name": "issueDocument",
      "outputs": [],
      "payable": false,
      "stateMutability": "nonpayable",
      "type": "function"
    },
    {
      "constant": true,
      "inputs": [],
      "name": "getTemplates",
      "outputs": [
        {
          "internalType": "address[]",
          "name": "",
          "type": "address[]"
        },
        {
          "internalType": "string[]",
          "name": "",
          "type": "string[]"
        },
        {
          "internalType": "string[]",
          "name": "",
          "type": "string[]"
        }
      ],
      "payable": false,
      "stateMutability": "view",
      "type": "function"
    },
    {
      "constant": true,
      "inputs": [],
      "name": "getDocuments",
      "outputs": [
        {
          "internalType": "address[]",
          "name": "",
          "type": "address[]"
        },
        {
          "internalType": "string[]",
          "name": "",
          "type": "string[]"
        },
        {
          "internalType": "bytes[]",
          "name": "",
          "type": "bytes[]"
        }
      ],
      "payable": false,
      "stateMutability": "view",
      "type": "function"
    },
    {
      "constant": true,
      "inputs": [
        {
          "internalType": "string",
          "name": "_name",
          "type": "string"
        }
      ],
      "name": "getDocument",
      "outputs": [
        {
          "internalType": "address",
          "name": "",
          "type": "address"
        },
        {
          "internalType": "string",
          "name": "",
          "type": "string"
        },
        {
          "internalType": "bytes",
          "name": "",
          "type": "bytes"
        }
      ],
      "payable": false,
      "stateMutability": "view",
      "type": "function"
    },
    {
      "constant": true,
      "inputs": [],
      "name": "getDocumentCount",
      "outputs": [
        {
          "internalType": "uint256",
          "name": "",
          "type": "uint256"
        }
      ],
      "payable": false,
      "stateMutability": "view",
      "type": "function"
    },
    {
      "constant": false,
      "inputs": [
        {
          "internalType": "address",
          "name": "_owner",
          "type": "address"
        },
        {
          "internalType": "string",
          "name": "_docName",
          "type": "string"
        },
        {
          "internalType": "bytes",
          "name": "_propertiesOwner",
          "type": "bytes"
        },
        {
          "internalType": "bytes",
          "name": "_propertiesVerifier",
          "type": "bytes"
        }
      ],
      "name": "requestVerification",
      "outputs": [],
      "payable": false,
      "stateMutability": "nonpayable",
      "type": "function"
    },
    {
      "constant": false,
      "inputs": [
        {
          "internalType": "address",
          "name": "_verifier",
          "type": "address"
        },
        {
          "internalType": "string",
          "name": "_docName",
          "type": "string"
        },
        {
          "internalType": "string",
          "name": "_newStatus",
          "type": "string"
        },
        {
          "internalType": "bytes",
          "name": "_properties",
          "type": "bytes"
        }
      ],
      "name": "updateRequestStatus",
      "outputs": [],
      "payable": false,
      "stateMutability": "nonpayable",
      "type": "function"
    },
    {
      "constant": true,
      "inputs": [],
      "name": "getOwnerRequests",
      "outputs": [
        {
          "internalType": "address[]",
          "name": "",
          "type": "address[]"
        },
        {
          "internalType": "string[]",
          "name": "",
          "type": "string[]"
        },
        {
          "internalType": "bytes[]",
          "name": "",
          "type": "bytes[]"
        },
        {
          "internalType": "string[]",
          "name": "",
          "type": "string[]"
        }
      ],
      "payable": false,
      "stateMutability": "view",
      "type": "function"
    },
    {
      "constant": true,
      "inputs": [],
      "name": "getVerifierRequests",
      "outputs": [
        {
          "internalType": "address[]",
          "name": "",
          "type": "address[]"
        },
        {
          "internalType": "string[]",
          "name": "",
          "type": "string[]"
        },
        {
          "internalType": "bytes[]",
          "name": "",
          "type": "bytes[]"
        },
        {
          "internalType": "string[]",
          "name": "",
          "type": "string[]"
        }
      ],
      "payable": false,
      "stateMutability": "view",
      "type": "function"
    },
    {
      "constant": true,
      "inputs": [
        {
          "internalType": "address",
          "name": "_owner",
          "type": "address"
        }
      ],
      "name": "getEncryptionPublicKey",
      "outputs": [
        {
          "internalType": "string",
          "name": "",
          "type": "string"
        }
      ],
      "payable": false,
      "stateMutability": "view",
      "type": "function"
    },
    {
      "constant": true,
      "inputs": [
        {
          "internalType": "string",
          "name": "s1",
          "type": "string"
        },
        {
          "internalType": "string",
          "name": "s2",
          "type": "string"
        }
      ],
      "name": "compareStringsbyBytes",
      "outputs": [
        {
          "internalType": "bool",
          "name": "",
          "type": "bool"
        }
      ],
      "payable": false,
      "stateMutability": "pure",
      "type": "function"
    }
  ],
  "bytecode": "0x608060405234801561001057600080fd5b50614ce2806100206000396000f3fe608060405234801561001057600080fd5b50600436106100cf5760003560e01c80637ccb6a641161008c578063e64ae11911610066578063e64ae11914610217578063e9a734ff14610237578063ef2d870014610267578063f879a78214610287576100cf565b80637ccb6a64146101995780637d9f7b19146101cb5780639251c551146101fb576100cf565b8063283dd002146100d45780632d46b0ad146100f05780633d1c2273146101115780634cd08d031461012f57806358467dbc1461014b5780636d750cfd1461017d575b600080fd5b6100ee60048036036100e99190810190613f24565b6102a8565b005b6100f86109c1565b6040516101089493929190614811565b60405180910390f35b610119610ebf565b6040516101269190614a27565b60405180910390f35b61014960048036036101449190810190614127565b610f09565b005b610165600480360361016091908101906140bb565b61194e565b604051610174939291906148fb565b60405180910390f35b61019760048036036101929190810190613e79565b611fab565b005b6101b360048036036101ae9190810190613fcf565b6126a5565b6040516101c293929190614780565b60405180910390f35b6101e560048036036101e09190810190613e50565b612987565b6040516101f291906148d9565b60405180910390f35b61021560048036036102109190810190614010565b612aa4565b005b61021f612cb9565b60405161022e93929190614872565b60405180910390f35b610251600480360361024c91908101906140bb565b612fea565b60405161025e91906148be565b60405180910390f35b61026f613043565b60405161027e939291906147c5565b60405180910390f35b61028f6133ee565b60405161029f9493929190614811565b60405180910390f35b3373ffffffffffffffffffffffffffffffffffffffff168473ffffffffffffffffffffffffffffffffffffffff161415610317576040517f08c379a000000000000000000000000000000000000000000000000000000000815260040161030e90614987565b60405180910390fd5b600083511161032557600080fd5b60008090505b600360003373ffffffffffffffffffffffffffffffffffffffff1673ffffffffffffffffffffffffffffffffffffffff168152602001908152602001600020805490508110156105ab57610472600360003373ffffffffffffffffffffffffffffffffffffffff1673ffffffffffffffffffffffffffffffffffffffff16815260200190815260200160002082815481106103c257fe5b90600052602060002090600502016002018054600181600116156101000203166002900480601f0160208091040260200160405190810160405280929190818152602001828054600181600116156101000203166002900480156104675780601f1061043c57610100808354040283529160200191610467565b820191906000526020600020905b81548152906001019060200180831161044a57829003601f168201915b505050505085612fea565b801561052457508473ffffffffffffffffffffffffffffffffffffffff16600360003373ffffffffffffffffffffffffffffffffffffffff1673ffffffffffffffffffffffffffffffffffffffff16815260200190815260200160002082815481106104da57fe5b906000526020600020906005020160000160009054906101000a900473ffffffffffffffffffffffffffffffffffffffff1673ffffffffffffffffffffffffffffffffffffffff16145b1561059e5782600360003373ffffffffffffffffffffffffffffffffffffffff1673ffffffffffffffffffffffffffffffffffffffff168152602001908152602001600020828154811061057457fe5b90600052602060002090600502016004019080519060200190610598929190613b25565b506105ab565b808060010191505061032b565b5060008090505b600460008673ffffffffffffffffffffffffffffffffffffffff1673ffffffffffffffffffffffffffffffffffffffff16815260200190815260200160002080549050811015610955576106f9600460008773ffffffffffffffffffffffffffffffffffffffff1673ffffffffffffffffffffffffffffffffffffffff168152602001908152602001600020828154811061064957fe5b90600052602060002090600502016002018054600181600116156101000203166002900480601f0160208091040260200160405190810160405280929190818152602001828054600181600116156101000203166002900480156106ee5780601f106106c3576101008083540402835291602001916106ee565b820191906000526020600020905b8154815290600101906020018083116106d157829003601f168201915b505050505085612fea565b80156107ab57503373ffffffffffffffffffffffffffffffffffffffff16600460008773ffffffffffffffffffffffffffffffffffffffff1673ffffffffffffffffffffffffffffffffffffffff168152602001908152602001600020828154811061076157fe5b906000526020600020906005020160010160009054906101000a900473ffffffffffffffffffffffffffffffffffffffff1673ffffffffffffffffffffffffffffffffffffffff16145b15610948576040518060a001604052808673ffffffffffffffffffffffffffffffffffffffff1681526020013373ffffffffffffffffffffffffffffffffffffffff16815260200185815260200183815260200184815250600460008773ffffffffffffffffffffffffffffffffffffffff1673ffffffffffffffffffffffffffffffffffffffff168152602001908152602001600020828154811061084d57fe5b906000526020600020906005020160008201518160000160006101000a81548173ffffffffffffffffffffffffffffffffffffffff021916908373ffffffffffffffffffffffffffffffffffffffff16021790555060208201518160010160006101000a81548173ffffffffffffffffffffffffffffffffffffffff021916908373ffffffffffffffffffffffffffffffffffffffff1602179055506040820151816002019080519060200190610905929190613ba5565b506060820151816003019080519060200190610922929190613c25565b50608082015181600401908051906020019061093f929190613ba5565b50905050610955565b80806001019150506105b2565b503373ffffffffffffffffffffffffffffffffffffffff168473ffffffffffffffffffffffffffffffffffffffff167f6c3162a93b6f25c30d8a8a04aa2b14f0c53bdc3a3d647e2ca02a701e95dbd78e846040516109b391906148d9565b60405180910390a350505050565b6060806060806000600360003373ffffffffffffffffffffffffffffffffffffffff1673ffffffffffffffffffffffffffffffffffffffff168152602001908152602001600020805490509050606081604051908082528060200260200182016040528015610a3f5781602001602082028038833980820191505090505b509050606082604051908082528060200260200182016040528015610a7857816020015b6060815260200190600190039081610a635790505b509050606083604051908082528060200260200182016040528015610ab157816020015b6060815260200190600190039081610a9c5790505b509050606084604051908082528060200260200182016040528015610aea57816020015b6060815260200190600190039081610ad55790505b50905060008090505b85811015610ea757610b03613ca5565b600360003373ffffffffffffffffffffffffffffffffffffffff1673ffffffffffffffffffffffffffffffffffffffff1681526020019081526020016000208281548110610b4d57fe5b90600052602060002090600502016040518060a00160405290816000820160009054906101000a900473ffffffffffffffffffffffffffffffffffffffff1673ffffffffffffffffffffffffffffffffffffffff1673ffffffffffffffffffffffffffffffffffffffff1681526020016001820160009054906101000a900473ffffffffffffffffffffffffffffffffffffffff1673ffffffffffffffffffffffffffffffffffffffff1673ffffffffffffffffffffffffffffffffffffffff168152602001600282018054600181600116156101000203166002900480601f016020809104026020016040519081016040528092919081815260200182805460018160011615610100020316600290048015610cab5780601f10610c8057610100808354040283529160200191610cab565b820191906000526020600020905b815481529060010190602001808311610c8e57829003601f168201915b50505050508152602001600382018054600181600116156101000203166002900480601f016020809104026020016040519081016040528092919081815260200182805460018160011615610100020316600290048015610d4d5780601f10610d2257610100808354040283529160200191610d4d565b820191906000526020600020905b815481529060010190602001808311610d3057829003601f168201915b50505050508152602001600482018054600181600116156101000203166002900480601f016020809104026020016040519081016040528092919081815260200182805460018160011615610100020316600290048015610def5780601f10610dc457610100808354040283529160200191610def565b820191906000526020600020905b815481529060010190602001808311610dd257829003601f168201915b50505050508152505090508060000151868381518110610e0b57fe5b602002602001019073ffffffffffffffffffffffffffffffffffffffff16908173ffffffffffffffffffffffffffffffffffffffff16815250508060400151858381518110610e5657fe5b60200260200101819052508060600151848381518110610e7257fe5b60200260200101819052508060800151838381518110610e8e57fe5b6020026020010181905250508080600101915050610af3565b50838383839850985098509850505050505090919293565b6000600260003373ffffffffffffffffffffffffffffffffffffffff1673ffffffffffffffffffffffffffffffffffffffff16815260200190815260200160002080549050905090565b6000835111610f1757600080fd5b6000825111610f2557600080fd5b6000815111610f3357600080fd5b6110256000803373ffffffffffffffffffffffffffffffffffffffff1673ffffffffffffffffffffffffffffffffffffffff1681526020019081526020016000206000018054600181600116156101000203166002900480601f01602080910402602001604051908101604052809291908181526020018280546001816001161561010002031660029004801561100b5780601f10610fe05761010080835404028352916020019161100b565b820191906000526020600020905b815481529060010190602001808311610fee57829003601f168201915b505050505060405180602001604052806000815250612fea565b801561111f575061111e6000803373ffffffffffffffffffffffffffffffffffffffff1673ffffffffffffffffffffffffffffffffffffffff1681526020019081526020016000206001018054600181600116156101000203166002900480601f0160208091040260200160405190810160405280929190818152602001828054600181600116156101000203166002900480156111045780601f106110d957610100808354040283529160200191611104565b820191906000526020600020905b8154815290600101906020018083116110e757829003601f168201915b505050505060405180602001604052806000815250612fea565b5b80156111955750600073ffffffffffffffffffffffffffffffffffffffff1660018260405161114e9190614715565b908152602001604051809103902060009054906101000a900473ffffffffffffffffffffffffffffffffffffffff1673ffffffffffffffffffffffffffffffffffffffff16145b156112cf576040518060400160405280848152602001838152506000803373ffffffffffffffffffffffffffffffffffffffff1673ffffffffffffffffffffffffffffffffffffffff1681526020019081526020016000206000820151816000019080519060200190611209929190613ba5565b506020820151816001019080519060200190611226929190613ba5565b509050503360018260405161123b9190614715565b908152602001604051809103902060006101000a81548173ffffffffffffffffffffffffffffffffffffffff021916908373ffffffffffffffffffffffffffffffffffffffff1602179055503373ffffffffffffffffffffffffffffffffffffffff167f54db7a5cb4735e1aac1f53db512d3390390bb6637bd30ad4bf9fc98667d9b9b960405160405180910390a2611949565b6113c16000803373ffffffffffffffffffffffffffffffffffffffff1673ffffffffffffffffffffffffffffffffffffffff1681526020019081526020016000206000018054600181600116156101000203166002900480601f0160208091040260200160405190810160405280929190818152602001828054600181600116156101000203166002900480156113a75780601f1061137c576101008083540402835291602001916113a7565b820191906000526020600020905b81548152906001019060200180831161138a57829003601f168201915b505050505060405180602001604052806000815250612fea565b80156114bb57506114ba6000803373ffffffffffffffffffffffffffffffffffffffff1673ffffffffffffffffffffffffffffffffffffffff1681526020019081526020016000206001018054600181600116156101000203166002900480601f0160208091040260200160405190810160405280929190818152602001828054600181600116156101000203166002900480156114a05780601f10611475576101008083540402835291602001916114a0565b820191906000526020600020905b81548152906001019060200180831161148357829003601f168201915b505050505060405180602001604052806000815250612fea565b5b80156115325750600073ffffffffffffffffffffffffffffffffffffffff166001826040516114ea9190614715565b908152602001604051809103902060009054906101000a900473ffffffffffffffffffffffffffffffffffffffff1673ffffffffffffffffffffffffffffffffffffffff1614155b15611572576040517f08c379a000000000000000000000000000000000000000000000000000000000815260040161156990614967565b60405180910390fd5b6116556000803373ffffffffffffffffffffffffffffffffffffffff1673ffffffffffffffffffffffffffffffffffffffff1681526020019081526020016000206000018054600181600116156101000203166002900480601f01602080910402602001604051908101604052809291908181526020018280546001816001161561010002031660029004801561164a5780601f1061161f5761010080835404028352916020019161164a565b820191906000526020600020905b81548152906001019060200180831161162d57829003601f168201915b505050505084612fea565b8015611740575061173f6000803373ffffffffffffffffffffffffffffffffffffffff1673ffffffffffffffffffffffffffffffffffffffff1681526020019081526020016000206001018054600181600116156101000203166002900480601f0160208091040260200160405190810160405280929190818152602001828054600181600116156101000203166002900480156117345780601f1061170957610100808354040283529160200191611734565b820191906000526020600020905b81548152906001019060200180831161171757829003601f168201915b505050505083612fea565b5b80156117b557503373ffffffffffffffffffffffffffffffffffffffff1660018260405161176e9190614715565b908152602001604051809103902060009054906101000a900473ffffffffffffffffffffffffffffffffffffffff1673ffffffffffffffffffffffffffffffffffffffff16145b156117f5576040517f08c379a00000000000000000000000000000000000000000000000000000000081526004016117ec906149e7565b60405180910390fd5b61190d6040518060400160405280601b81526020017f5573657220616c726561647920726567697374657265642061732000000000008152506000803373ffffffffffffffffffffffffffffffffffffffff1673ffffffffffffffffffffffffffffffffffffffff1681526020019081526020016000206001018054600181600116156101000203166002900480601f0160208091040260200160405190810160405280929190818152602001828054600181600116156101000203166002900480156119035780601f106118d857610100808354040283529160200191611903565b820191906000526020600020905b8154815290600101906020018083116118e657829003601f168201915b50505050506138ec565b6040517f08c379a000000000000000000000000000000000000000000000000000000000815260040161194091906148d9565b60405180910390fd5b505050565b6060806060600085511161196157600080fd5b600084511161196f57600080fd5b611a616000803373ffffffffffffffffffffffffffffffffffffffff1673ffffffffffffffffffffffffffffffffffffffff1681526020019081526020016000206000018054600181600116156101000203166002900480601f016020809104026020016040519081016040528092919081815260200182805460018160011615610100020316600290048015611a475780601f10611a1c57610100808354040283529160200191611a47565b820191906000526020600020905b815481529060010190602001808311611a2a57829003601f168201915b505050505060405180602001604052806000815250612fea565b158015611b4d5750611b4c6000803373ffffffffffffffffffffffffffffffffffffffff1673ffffffffffffffffffffffffffffffffffffffff1681526020019081526020016000206001018054600181600116156101000203166002900480601f016020809104026020016040519081016040528092919081815260200182805460018160011615610100020316600290048015611b415780601f10611b1657610100808354040283529160200191611b41565b820191906000526020600020905b815481529060010190602001808311611b2457829003601f168201915b505050505086612fea565b5b8015611bc257503373ffffffffffffffffffffffffffffffffffffffff16600185604051611b7b9190614715565b908152602001604051809103902060009054906101000a900473ffffffffffffffffffffffffffffffffffffffff1673ffffffffffffffffffffffffffffffffffffffff16145b15611c4157836040518060400160405280600781526020017f7375636365737300000000000000000000000000000000000000000000000000815250906040518060400160405280601681526020017f4c6f676765642d696e207375636365737366756c6c790000000000000000000081525090925092509250611fa4565b611d336000803373ffffffffffffffffffffffffffffffffffffffff1673ffffffffffffffffffffffffffffffffffffffff1681526020019081526020016000206000018054600181600116156101000203166002900480601f016020809104026020016040519081016040528092919081815260200182805460018160011615610100020316600290048015611d195780601f10611cee57610100808354040283529160200191611d19565b820191906000526020600020905b815481529060010190602001808311611cfc57829003601f168201915b505050505060405180602001604052806000815250612fea565b158015611e1f5750611e1e6000803373ffffffffffffffffffffffffffffffffffffffff1673ffffffffffffffffffffffffffffffffffffffff1681526020019081526020016000206001018054600181600116156101000203166002900480601f016020809104026020016040519081016040528092919081815260200182805460018160011615610100020316600290048015611e135780601f10611de857610100808354040283529160200191611e13565b820191906000526020600020905b815481529060010190602001808311611df657829003601f168201915b505050505086612fea565b5b8015611e9557503373ffffffffffffffffffffffffffffffffffffffff16600185604051611e4d9190614715565b908152602001604051809103902060009054906101000a900473ffffffffffffffffffffffffffffffffffffffff1673ffffffffffffffffffffffffffffffffffffffff1614155b15611f21576040518060400160405280600781526020017f7761726e696e67000000000000000000000000000000000000000000000000008152506040518060400160405280601281526020017f496e636f727265637420757365726e616d65000000000000000000000000000081525060405180602001604052806000815250925092509250611fa4565b6040518060400160405280600781526020017f7761726e696e67000000000000000000000000000000000000000000000000008152506040518060400160405280601381526020017f5573657220646f6573206e6f7420657869737400000000000000000000000000815250604051806020016040528060008152509250925092505b9250925092565b8373ffffffffffffffffffffffffffffffffffffffff163373ffffffffffffffffffffffffffffffffffffffff16141561201a576040517f08c379a0000000000000000000000000000000000000000000000000000000008152600401612011906149c7565b60405180910390fd5b600083511161202857600080fd5b600082511161203657600080fd5b600081511161204457600080fd5b60008090505b600460003373ffffffffffffffffffffffffffffffffffffffff1673ffffffffffffffffffffffffffffffffffffffff1681526020019081526020016000208054905081101561229057612191600460003373ffffffffffffffffffffffffffffffffffffffff1673ffffffffffffffffffffffffffffffffffffffff16815260200190815260200160002082815481106120e157fe5b90600052602060002090600502016002018054600181600116156101000203166002900480601f0160208091040260200160405190810160405280929190818152602001828054600181600116156101000203166002900480156121865780601f1061215b57610100808354040283529160200191612186565b820191906000526020600020905b81548152906001019060200180831161216957829003601f168201915b505050505085612fea565b801561224357508473ffffffffffffffffffffffffffffffffffffffff16600460003373ffffffffffffffffffffffffffffffffffffffff1673ffffffffffffffffffffffffffffffffffffffff16815260200190815260200160002082815481106121f957fe5b906000526020600020906005020160010160009054906101000a900473ffffffffffffffffffffffffffffffffffffffff1673ffffffffffffffffffffffffffffffffffffffff16145b15612283576040517f08c379a000000000000000000000000000000000000000000000000000000000815260040161227a90614a07565b60405180910390fd5b808060010191505061204a565b50600360008573ffffffffffffffffffffffffffffffffffffffff1673ffffffffffffffffffffffffffffffffffffffff1681526020019081526020016000206040518060a001604052803373ffffffffffffffffffffffffffffffffffffffff1681526020018673ffffffffffffffffffffffffffffffffffffffff1681526020018581526020018481526020016040518060400160405280600981526020017f52657175657374656400000000000000000000000000000000000000000000008152508152509080600181540180825580915050906001820390600052602060002090600502016000909192909190915060008201518160000160006101000a81548173ffffffffffffffffffffffffffffffffffffffff021916908373ffffffffffffffffffffffffffffffffffffffff16021790555060208201518160010160006101000a81548173ffffffffffffffffffffffffffffffffffffffff021916908373ffffffffffffffffffffffffffffffffffffffff160217905550604082015181600201908051906020019061242d929190613ba5565b50606082015181600301908051906020019061244a929190613c25565b506080820151816004019080519060200190612467929190613ba5565b50505050600460003373ffffffffffffffffffffffffffffffffffffffff1673ffffffffffffffffffffffffffffffffffffffff1681526020019081526020016000206040518060a001604052803373ffffffffffffffffffffffffffffffffffffffff1681526020018673ffffffffffffffffffffffffffffffffffffffff1681526020018581526020018381526020016040518060400160405280600981526020017f52657175657374656400000000000000000000000000000000000000000000008152508152509080600181540180825580915050906001820390600052602060002090600502016000909192909190915060008201518160000160006101000a81548173ffffffffffffffffffffffffffffffffffffffff021916908373ffffffffffffffffffffffffffffffffffffffff16021790555060208201518160010160006101000a81548173ffffffffffffffffffffffffffffffffffffffff021916908373ffffffffffffffffffffffffffffffffffffffff1602179055506040820151816002019080519060200190612607929190613ba5565b506060820151816003019080519060200190612624929190613c25565b506080820151816004019080519060200190612641929190613ba5565b505050508373ffffffffffffffffffffffffffffffffffffffff163373ffffffffffffffffffffffffffffffffffffffff167f2286e284ed277a7f4da5a88f0e47927f93a4c2407975b4fbd236f444c46e130a60405160405180910390a350505050565b600060608060008090505b600260003373ffffffffffffffffffffffffffffffffffffffff1673ffffffffffffffffffffffffffffffffffffffff1681526020019081526020016000208054905081101561294457612702613d00565b600260003373ffffffffffffffffffffffffffffffffffffffff1673ffffffffffffffffffffffffffffffffffffffff168152602001908152602001600020828154811061274c57fe5b90600052602060002090600302016040518060600160405290816000820160009054906101000a900473ffffffffffffffffffffffffffffffffffffffff1673ffffffffffffffffffffffffffffffffffffffff1673ffffffffffffffffffffffffffffffffffffffff168152602001600182018054600181600116156101000203166002900480601f0160208091040260200160405190810160405280929190818152602001828054600181600116156101000203166002900480156128545780601f1061282957610100808354040283529160200191612854565b820191906000526020600020905b81548152906001019060200180831161283757829003601f168201915b50505050508152602001600282018054600181600116156101000203166002900480601f0160208091040260200160405190810160405280929190818152602001828054600181600116156101000203166002900480156128f65780601f106128cb576101008083540402835291602001916128f6565b820191906000526020600020905b8154815290600101906020018083116128d957829003601f168201915b505050505081525050905061290f868260200151612fea565b15612936578060000151816020015182604001518191508090509450945094505050612980565b5080806001019150506126b0565b506040517f08c379a000000000000000000000000000000000000000000000000000000000815260040161297790614947565b60405180910390fd5b9193909250565b6060600073ffffffffffffffffffffffffffffffffffffffff168273ffffffffffffffffffffffffffffffffffffffff1614156129c357600080fd5b6000808373ffffffffffffffffffffffffffffffffffffffff1673ffffffffffffffffffffffffffffffffffffffff1681526020019081526020016000206000018054600181600116156101000203166002900480601f016020809104026020016040519081016040528092919081815260200182805460018160011615610100020316600290048015612a985780601f10612a6d57610100808354040283529160200191612a98565b820191906000526020600020905b815481529060010190602001808311612a7b57829003601f168201915b50505050509050919050565b6000845111612ab257600080fd5b6000835111612ac057600080fd5b3373ffffffffffffffffffffffffffffffffffffffff168173ffffffffffffffffffffffffffffffffffffffff161415612b2f576040517f08c379a0000000000000000000000000000000000000000000000000000000008152600401612b26906149a7565b60405180910390fd5b600260008273ffffffffffffffffffffffffffffffffffffffff1673ffffffffffffffffffffffffffffffffffffffff16815260200190815260200160002060405180606001604052803373ffffffffffffffffffffffffffffffffffffffff168152602001868152602001858152509080600181540180825580915050906001820390600052602060002090600302016000909192909190915060008201518160000160006101000a81548173ffffffffffffffffffffffffffffffffffffffff021916908373ffffffffffffffffffffffffffffffffffffffff1602179055506020820151816001019080519060200190612c2d929190613ba5565b506040820151816002019080519060200190612c4a929190613c25565b505050503373ffffffffffffffffffffffffffffffffffffffff168173ffffffffffffffffffffffffffffffffffffffff167f303012c12f720b747dff3c4a0cec152ee2e833f7ae5dddfda967235543b0cf0e60405160405180910390a3612cb3848333613918565b50505050565b606080606060006005805490509050606081604051908082528060200260200182016040528015612cf95781602001602082028038833980820191505090505b509050606082604051908082528060200260200182016040528015612d3257816020015b6060815260200190600190039081612d1d5790505b509050606083604051908082528060200260200182016040528015612d6b57816020015b6060815260200190600190039081612d565790505b50905060008090505b84811015612fd757612d84613d37565b60058281548110612d9157fe5b90600052602060002090600302016040518060600160405290816000820160009054906101000a900473ffffffffffffffffffffffffffffffffffffffff1673ffffffffffffffffffffffffffffffffffffffff1673ffffffffffffffffffffffffffffffffffffffff168152602001600182018054600181600116156101000203166002900480601f016020809104026020016040519081016040528092919081815260200182805460018160011615610100020316600290048015612e995780601f10612e6e57610100808354040283529160200191612e99565b820191906000526020600020905b815481529060010190602001808311612e7c57829003601f168201915b50505050508152602001600282018054600181600116156101000203166002900480601f016020809104026020016040519081016040528092919081815260200182805460018160011615610100020316600290048015612f3b5780601f10612f1057610100808354040283529160200191612f3b565b820191906000526020600020905b815481529060010190602001808311612f1e57829003601f168201915b50505050508152505090508060000151858381518110612f5757fe5b602002602001019073ffffffffffffffffffffffffffffffffffffffff16908173ffffffffffffffffffffffffffffffffffffffff16815250508060200151848381518110612fa257fe5b60200260200101819052508060400151838381518110612fbe57fe5b6020026020010181905250508080600101915050612d74565b5082828296509650965050505050909192565b600081604051602001612ffd9190614715565b60405160208183030381529060405280519060200120836040516020016130249190614715565b6040516020818303038152906040528051906020012014905092915050565b60608060606000600260003373ffffffffffffffffffffffffffffffffffffffff1673ffffffffffffffffffffffffffffffffffffffff1681526020019081526020016000208054905090506060816040519080825280602002602001820160405280156130c05781602001602082028038833980820191505090505b5090506060826040519080825280602002602001820160405280156130f957816020015b60608152602001906001900390816130e45790505b50905060608360405190808252806020026020018201604052801561313257816020015b606081526020019060019003908161311d5790505b50905060008090505b848110156133db5761314b613d00565b600260003373ffffffffffffffffffffffffffffffffffffffff1673ffffffffffffffffffffffffffffffffffffffff168152602001908152602001600020828154811061319557fe5b90600052602060002090600302016040518060600160405290816000820160009054906101000a900473ffffffffffffffffffffffffffffffffffffffff1673ffffffffffffffffffffffffffffffffffffffff1673ffffffffffffffffffffffffffffffffffffffff168152602001600182018054600181600116156101000203166002900480601f01602080910402602001604051908101604052809291908181526020018280546001816001161561010002031660029004801561329d5780601f106132725761010080835404028352916020019161329d565b820191906000526020600020905b81548152906001019060200180831161328057829003601f168201915b50505050508152602001600282018054600181600116156101000203166002900480601f01602080910402602001604051908101604052809291908181526020018280546001816001161561010002031660029004801561333f5780601f106133145761010080835404028352916020019161333f565b820191906000526020600020905b81548152906001019060200180831161332257829003601f168201915b5050505050815250509050806000015185838151811061335b57fe5b602002602001019073ffffffffffffffffffffffffffffffffffffffff16908173ffffffffffffffffffffffffffffffffffffffff168152505080602001518483815181106133a657fe5b602002602001018190525080604001518383815181106133c257fe5b602002602001018190525050808060010191505061313b565b5082828296509650965050505050909192565b6060806060806000600460003373ffffffffffffffffffffffffffffffffffffffff1673ffffffffffffffffffffffffffffffffffffffff16815260200190815260200160002080549050905060608160405190808252806020026020018201604052801561346c5781602001602082028038833980820191505090505b5090506060826040519080825280602002602001820160405280156134a557816020015b60608152602001906001900390816134905790505b5090506060836040519080825280602002602001820160405280156134de57816020015b60608152602001906001900390816134c95790505b50905060608460405190808252806020026020018201604052801561351757816020015b60608152602001906001900390816135025790505b50905060008090505b858110156138d457613530613ca5565b600460003373ffffffffffffffffffffffffffffffffffffffff1673ffffffffffffffffffffffffffffffffffffffff168152602001908152602001600020828154811061357a57fe5b90600052602060002090600502016040518060a00160405290816000820160009054906101000a900473ffffffffffffffffffffffffffffffffffffffff1673ffffffffffffffffffffffffffffffffffffffff1673ffffffffffffffffffffffffffffffffffffffff1681526020016001820160009054906101000a900473ffffffffffffffffffffffffffffffffffffffff1673ffffffffffffffffffffffffffffffffffffffff1673ffffffffffffffffffffffffffffffffffffffff168152602001600282018054600181600116156101000203166002900480601f0160208091040260200160405190810160405280929190818152602001828054600181600116156101000203166002900480156136d85780601f106136ad576101008083540402835291602001916136d8565b820191906000526020600020905b8154815290600101906020018083116136bb57829003601f168201915b50505050508152602001600382018054600181600116156101000203166002900480601f01602080910402602001604051908101604052809291908181526020018280546001816001161561010002031660029004801561377a5780601f1061374f5761010080835404028352916020019161377a565b820191906000526020600020905b81548152906001019060200180831161375d57829003601f168201915b50505050508152602001600482018054600181600116156101000203166002900480601f01602080910402602001604051908101604052809291908181526020018280546001816001161561010002031660029004801561381c5780601f106137f15761010080835404028352916020019161381c565b820191906000526020600020905b8154815290600101906020018083116137ff57829003601f168201915b5050505050815250509050806020015186838151811061383857fe5b602002602001019073ffffffffffffffffffffffffffffffffffffffff16908173ffffffffffffffffffffffffffffffffffffffff1681525050806040015185838151811061388357fe5b6020026020010181905250806060015184838151811061389f57fe5b602002602001018190525080608001518383815181106138bb57fe5b6020026020010181905250508080600101915050613520565b50838383839850985098509850505050505090919293565b6060828260405160200161390192919061472c565b604051602081830303815290604052905092915050565b60008090505b600580549050811015613a03576139eb6005828154811061393b57fe5b90600052602060002090600302016001018054600181600116156101000203166002900480601f0160208091040260200160405190810160405280929190818152602001828054600181600116156101000203166002900480156139e05780601f106139b5576101008083540402835291602001916139e0565b820191906000526020600020905b8154815290600101906020018083116139c357829003601f168201915b505050505085612fea565b156139f65750613b20565b808060010191505061391e565b50600560405180606001604052808373ffffffffffffffffffffffffffffffffffffffff168152602001858152602001848152509080600181540180825580915050906001820390600052602060002090600302016000909192909190915060008201518160000160006101000a81548173ffffffffffffffffffffffffffffffffffffffff021916908373ffffffffffffffffffffffffffffffffffffffff1602179055506020820151816001019080519060200190613ac5929190613ba5565b506040820151816002019080519060200190613ae2929190613ba5565b505050507f20542dec84858b9f4322835bfcc83c7f5ee03c8471237b7f43ab5e0d848c512f8184604051613b17929190614750565b60405180910390a15b505050565b828054600181600116156101000203166002900490600052602060002090601f016020900481019282601f10613b6657805160ff1916838001178555613b94565b82800160010185558215613b94579182015b82811115613b93578251825591602001919060010190613b78565b5b509050613ba19190613d6e565b5090565b828054600181600116156101000203166002900490600052602060002090601f016020900481019282601f10613be657805160ff1916838001178555613c14565b82800160010185558215613c14579182015b82811115613c13578251825591602001919060010190613bf8565b5b509050613c219190613d6e565b5090565b828054600181600116156101000203166002900490600052602060002090601f016020900481019282601f10613c6657805160ff1916838001178555613c94565b82800160010185558215613c94579182015b82811115613c93578251825591602001919060010190613c78565b5b509050613ca19190613d6e565b5090565b6040518060a00160405280600073ffffffffffffffffffffffffffffffffffffffff168152602001600073ffffffffffffffffffffffffffffffffffffffff1681526020016060815260200160608152602001606081525090565b6040518060600160405280600073ffffffffffffffffffffffffffffffffffffffff16815260200160608152602001606081525090565b6040518060600160405280600073ffffffffffffffffffffffffffffffffffffffff16815260200160608152602001606081525090565b613d9091905b80821115613d8c576000816000905550600101613d74565b5090565b90565b600081359050613da281614c88565b92915050565b600082601f830112613db957600080fd5b8135613dcc613dc782614a6f565b614a42565b91508082526020830160208301858383011115613de857600080fd5b613df3838284614c35565b50505092915050565b600082601f830112613e0d57600080fd5b8135613e20613e1b82614a9b565b614a42565b91508082526020830160208301858383011115613e3c57600080fd5b613e47838284614c35565b50505092915050565b600060208284031215613e6257600080fd5b6000613e7084828501613d93565b91505092915050565b60008060008060808587031215613e8f57600080fd5b6000613e9d87828801613d93565b945050602085013567ffffffffffffffff811115613eba57600080fd5b613ec687828801613dfc565b935050604085013567ffffffffffffffff811115613ee357600080fd5b613eef87828801613da8565b925050606085013567ffffffffffffffff811115613f0c57600080fd5b613f1887828801613da8565b91505092959194509250565b60008060008060808587031215613f3a57600080fd5b6000613f4887828801613d93565b945050602085013567ffffffffffffffff811115613f6557600080fd5b613f7187828801613dfc565b935050604085013567ffffffffffffffff811115613f8e57600080fd5b613f9a87828801613dfc565b925050606085013567ffffffffffffffff811115613fb757600080fd5b613fc387828801613da8565b91505092959194509250565b600060208284031215613fe157600080fd5b600082013567ffffffffffffffff811115613ffb57600080fd5b61400784828501613dfc565b91505092915050565b6000806000806080858703121561402657600080fd5b600085013567ffffffffffffffff81111561404057600080fd5b61404c87828801613dfc565b945050602085013567ffffffffffffffff81111561406957600080fd5b61407587828801613da8565b935050604085013567ffffffffffffffff81111561409257600080fd5b61409e87828801613dfc565b92505060606140af87828801613d93565b91505092959194509250565b600080604083850312156140ce57600080fd5b600083013567ffffffffffffffff8111156140e857600080fd5b6140f485828601613dfc565b925050602083013567ffffffffffffffff81111561411157600080fd5b61411d85828601613dfc565b9150509250929050565b60008060006060848603121561413c57600080fd5b600084013567ffffffffffffffff81111561415657600080fd5b61416286828701613dfc565b935050602084013567ffffffffffffffff81111561417f57600080fd5b61418b86828701613dfc565b925050604084013567ffffffffffffffff8111156141a857600080fd5b6141b486828701613dfc565b9150509250925092565b60006141ca83836141fe565b60208301905092915050565b60006141e283836143ac565b905092915050565b60006141f6838361444f565b905092915050565b61420781614bed565b82525050565b61421681614bed565b82525050565b600061422782614af7565b6142318185614b6b565b935061423c83614ac7565b8060005b8381101561426d57815161425488826141be565b975061425f83614b44565b925050600181019050614240565b5085935050505092915050565b600061428582614b02565b61428f8185614b7c565b9350836020820285016142a185614ad7565b8060005b858110156142dd57848403895281516142be85826141d6565b94506142c983614b51565b925060208a019950506001810190506142a5565b50829750879550505050505092915050565b60006142fa82614b0d565b6143048185614b8d565b93508360208202850161431685614ae7565b8060005b85811015614352578484038952815161433385826141ea565b945061433e83614b5e565b925060208a0199505060018101905061431a565b50829750879550505050505092915050565b61436d81614bff565b82525050565b600061437e82614b23565b6143888185614baf565b9350614398818560208601614c44565b6143a181614c77565b840191505092915050565b60006143b782614b18565b6143c18185614b9e565b93506143d1818560208601614c44565b6143da81614c77565b840191505092915050565b60006143f082614b39565b6143fa8185614bd1565b935061440a818560208601614c44565b61441381614c77565b840191505092915050565b600061442982614b39565b6144338185614be2565b9350614443818560208601614c44565b80840191505092915050565b600061445a82614b2e565b6144648185614bc0565b9350614474818560208601614c44565b61447d81614c77565b840191505092915050565b6000614495602583614bd1565b91507f5573657220646f6573206e6f7420686176652073706563696669656420646f6360008301527f756d656e740000000000000000000000000000000000000000000000000000006020830152604082019050919050565b60006144fb601b83614bd1565b91507f506c656173652075736520616e6f7468657220757365726e616d6500000000006000830152602082019050919050565b600061453b602583614bd1565b91507f56657269666965722063616e6e6f74207570646174652072657175657374207360008301527f74617475730000000000000000000000000000000000000000000000000000006020830152604082019050919050565b60006145a1602683614bd1565b91507f596f752063616e6e6f7420697373756520646f63756d656e7420666f7220796f60008301527f757273656c6600000000000000000000000000000000000000000000000000006020830152604082019050919050565b6000614607602883614bd1565b91507f43616e6e6f74207265717565737420766572696669636174696f6e20666f722060008301527f796f757273656c660000000000000000000000000000000000000000000000006020830152604082019050919050565b600061466d601a83614bd1565b91507f596f752061726520616c726561647920726567697374657265640000000000006000830152602082019050919050565b60006146ad602883614bd1565b91507f596f75206861766520616c72656164792072657175657374656420746869732060008301527f646f63756d656e740000000000000000000000000000000000000000000000006020830152604082019050919050565b61470f81614c2b565b82525050565b6000614721828461441e565b915081905092915050565b6000614738828561441e565b9150614744828461441e565b91508190509392505050565b6000604082019050614765600083018561420d565b818103602083015261477781846143e5565b90509392505050565b6000606082019050614795600083018661420d565b81810360208301526147a781856143e5565b905081810360408301526147bb8184614373565b9050949350505050565b600060608201905081810360008301526147df818661421c565b905081810360208301526147f381856142ef565b90508181036040830152614807818461427a565b9050949350505050565b6000608082019050818103600083015261482b818761421c565b9050818103602083015261483f81866142ef565b90508181036040830152614853818561427a565b9050818103606083015261486781846142ef565b905095945050505050565b6000606082019050818103600083015261488c818661421c565b905081810360208301526148a081856142ef565b905081810360408301526148b481846142ef565b9050949350505050565b60006020820190506148d36000830184614364565b92915050565b600060208201905081810360008301526148f381846143e5565b905092915050565b6000606082019050818103600083015261491581866143e5565b9050818103602083015261492981856143e5565b9050818103604083015261493d81846143e5565b9050949350505050565b6000602082019050818103600083015261496081614488565b9050919050565b60006020820190508181036000830152614980816144ee565b9050919050565b600060208201905081810360008301526149a08161452e565b9050919050565b600060208201905081810360008301526149c081614594565b9050919050565b600060208201905081810360008301526149e0816145fa565b9050919050565b60006020820190508181036000830152614a0081614660565b9050919050565b60006020820190508181036000830152614a20816146a0565b9050919050565b6000602082019050614a3c6000830184614706565b92915050565b6000604051905081810181811067ffffffffffffffff82111715614a6557600080fd5b8060405250919050565b600067ffffffffffffffff821115614a8657600080fd5b601f19601f8301169050602081019050919050565b600067ffffffffffffffff821115614ab257600080fd5b601f19601f8301169050602081019050919050565b6000819050602082019050919050565b6000819050602082019050919050565b6000819050602082019050919050565b600081519050919050565b600081519050919050565b600081519050919050565b600081519050919050565b600081519050919050565b600081519050919050565b600081519050919050565b6000602082019050919050565b6000602082019050919050565b6000602082019050919050565b600082825260208201905092915050565b600082825260208201905092915050565b600082825260208201905092915050565b600082825260208201905092915050565b600082825260208201905092915050565b600082825260208201905092915050565b600082825260208201905092915050565b600081905092915050565b6000614bf882614c0b565b9050919050565b60008115159050919050565b600073ffffffffffffffffffffffffffffffffffffffff82169050919050565b6000819050919050565b82818337600083830152505050565b60005b83811015614c62578082015181840152602081019050614c47565b83811115614c71576000848401525b50505050565b6000601f19601f8301169050919050565b614c9181614bed565b8114614c9c57600080fd5b5056fea365627a7a723158200a968333f84260dfeb25a69542cf0e45d0b8156b72df5e62575f499413b9d3476c6578706572696d656e74616cf564736f6c63430005100040",
  "source": "// SPDX-License-Identifier: MIT\r\npragma solidity >=0.4.21 <0.7.0;\r\npragma experimental ABIEncoderV2;\r\n\r\ncontract IdentityManager {\r\n\r\n  struct User {\r\n    string encryptionPublicKey;\r\n    string entity;\r\n  }\r\n\r\n  struct Document {\r\n    address issuer;\r\n    string name;\r\n    bytes data;\r\n  }\r\n\r\n  struct Template {\r\n    address issuer;\r\n    string name;\r\n    string data;\r\n  }\r\n\r\n  struct Request {\r\n    address requestor;\r\n    address owner;\r\n    string docName;\r\n    bytes properties;\r\n    string status;\r\n  }\r\n\r\n  mapping(address => User) userDb;\r\n  mapping(string => address) usernameDb;\r\n  mapping(address => Document[]) identities;\r\n  mapping(address => Request[]) ownerRequests;\r\n  mapping(address => Request[]) verifierRequests;\r\n  Template[] templates;\r\n\r\n  event UserRegistered (\r\n    address indexed user\r\n  );\r\n\r\n  event DocumentIssued (\r\n    address indexed owner,\r\n    address indexed issuer\r\n  );\r\n\r\n  event TemplateCreated (\r\n    address issuer,\r\n    string name\r\n  );\r\n\r\n  event RequestGenerated (\r\n    address indexed verifier,\r\n    address indexed owner\r\n  );\r\n\r\n  event RequestStatusUpdated (\r\n    address indexed verifier,\r\n    address indexed owner,\r\n    string status\r\n  );\r\n\r\n  function login(string memory _entity, string memory _username) view public returns(string memory, string memory, string memory) {\r\n    require(bytes(_entity).length > 0);\r\n    require(bytes(_username).length > 0);\r\n\r\n    if (!compareStringsbyBytes(userDb[msg.sender].encryptionPublicKey, '') && compareStringsbyBytes(userDb[msg.sender].entity, _entity) && usernameDb[_username] == msg.sender) {\r\n      // Success\r\n      return ('success', 'Logged-in successfully', _username);\r\n    } else if (!compareStringsbyBytes(userDb[msg.sender].encryptionPublicKey, '') && compareStringsbyBytes(userDb[msg.sender].entity, _entity) && usernameDb[_username] != msg.sender) {\r\n      // Incorrect username\r\n      return ('warning', 'Incorrect username', '');\r\n    } else {\r\n      // Failure\r\n      return ('warning', 'User does not exist', '');\r\n    }\r\n  }\r\n\r\n  function register(string memory _encryptionPublicKey, string memory _entity, string memory _username) public {\r\n    require(bytes(_encryptionPublicKey).length > 0);\r\n    require(bytes(_entity).length > 0);\r\n    require(bytes(_username).length > 0);\r\n\r\n    if (compareStringsbyBytes(userDb[msg.sender].encryptionPublicKey, '') && compareStringsbyBytes(userDb[msg.sender].entity, '') && usernameDb[_username] == address(0)) {\r\n      // Success\r\n      userDb[msg.sender] = User(_encryptionPublicKey, _entity);\r\n      usernameDb[_username] = msg.sender;\r\n      emit UserRegistered(msg.sender);\r\n    } else if (compareStringsbyBytes(userDb[msg.sender].encryptionPublicKey, '') && compareStringsbyBytes(userDb[msg.sender].entity, '') && usernameDb[_username] != address(0)) {\r\n      // Incorrect username\r\n      revert('Please use another username');\r\n    } else if (compareStringsbyBytes(userDb[msg.sender].encryptionPublicKey, _encryptionPublicKey) && compareStringsbyBytes(userDb[msg.sender].entity, _entity) && usernameDb[_username] == msg.sender) {\r\n      // Failure\r\n      revert('You are already registered');\r\n    } else {\r\n      // Failure\r\n      revert(append('User already registered as ', userDb[msg.sender].entity));\r\n    }\r\n  }\r\n\r\n  function issueDocument(string memory _name, bytes memory _data, string memory _templateData, address _owner) public {\r\n    require(bytes(_name).length > 0);\r\n    require(bytes(_data).length > 0);\r\n    require(_owner != msg.sender, 'You cannot issue document for yourself');\r\n\r\n    identities[_owner].push(Document(msg.sender, _name, _data));\r\n    emit DocumentIssued(_owner, msg.sender);\r\n\r\n    createTemplate(_name, _templateData, msg.sender);\r\n  }\r\n\r\n  function createTemplate(string memory _name, string memory _data, address _issuer) internal {\r\n    for (uint256 index = 0; index < templates.length; index++) {\r\n      if (compareStringsbyBytes(templates[index].name, _name)) {\r\n        return;\r\n      }\r\n    }\r\n    templates.push(Template(_issuer, _name, _data));\r\n    emit TemplateCreated(_issuer, _name);\r\n  }\r\n\r\n  function getTemplates() view public returns(address[] memory, string[] memory, string[] memory) {\r\n    uint _templateCount = templates.length;\r\n    address[] memory _issuer = new address[](_templateCount);\r\n    string[] memory _name = new string[](_templateCount);\r\n    string[] memory _data = new string[](_templateCount);\r\n\r\n    for (uint256 index = 0; index < _templateCount; index++) {\r\n      Template memory _tempCopy = templates[index];\r\n      _issuer[index] = _tempCopy.issuer;\r\n      _name[index] = _tempCopy.name;\r\n      _data[index] = _tempCopy.data;\r\n    }\r\n\r\n    return (_issuer, _name, _data);\r\n  }\r\n\r\n  function getDocuments() view public returns(address[] memory, string[] memory, bytes[] memory) {\r\n    uint _documentCount = identities[msg.sender].length;\r\n    address[] memory _issuer = new address[](_documentCount);\r\n    string[] memory _name = new string[](_documentCount);\r\n    bytes[] memory _data = new bytes[](_documentCount);\r\n\r\n    for (uint256 index = 0; index < _documentCount; index++) {\r\n      Document memory _docCopy = identities[msg.sender][index];\r\n      _issuer[index] = _docCopy.issuer;\r\n      _name[index] = _docCopy.name;\r\n      _data[index] = _docCopy.data;\r\n    }\r\n\r\n    return (_issuer, _name, _data);\r\n  }\r\n\r\n  function getDocument(string memory _name) view public returns(address, string memory, bytes memory) {\r\n    for (uint256 index = 0; index < identities[msg.sender].length; index++) {\r\n      Document memory _docCopy = identities[msg.sender][index];\r\n      if (compareStringsbyBytes(_name, _docCopy.name)) {\r\n        return (_docCopy.issuer, _docCopy.name, _docCopy.data);\r\n      }\r\n    }\r\n    revert('User does not have specified document');\r\n  }\r\n\r\n  function getDocumentCount() view public returns(uint) {\r\n    return identities[msg.sender].length;\r\n  }\r\n\r\n  function requestVerification(address _owner, string memory _docName, bytes memory _propertiesOwner, bytes memory _propertiesVerifier) public {\r\n    require(msg.sender != _owner, 'Cannot request verification for yourself');\r\n    require(bytes(_docName).length > 0);\r\n    require(bytes(_propertiesOwner).length > 0);\r\n    require(bytes(_propertiesVerifier).length > 0);\r\n\r\n    for (uint256 index = 0; index < verifierRequests[msg.sender].length; index++) {\r\n      if (compareStringsbyBytes(verifierRequests[msg.sender][index].docName, _docName) && verifierRequests[msg.sender][index].owner == _owner) {\r\n        revert('You have already requested this document');\r\n      }\r\n    }\r\n\r\n    ownerRequests[_owner].push(Request(msg.sender, _owner, _docName, _propertiesOwner, 'Requested'));\r\n    verifierRequests[msg.sender].push(Request(msg.sender, _owner, _docName, _propertiesVerifier, 'Requested'));\r\n    emit RequestGenerated(msg.sender, _owner);\r\n  }\r\n\r\n  function updateRequestStatus(address _verifier, string memory _docName, string memory _newStatus, bytes memory _properties) public {\r\n    require(_verifier != msg.sender, 'Verifier cannot update request status');\r\n    require(bytes(_docName).length > 0);\r\n\r\n    for (uint256 index = 0; index < ownerRequests[msg.sender].length; index++) {\r\n      if (compareStringsbyBytes(ownerRequests[msg.sender][index].docName, _docName) && ownerRequests[msg.sender][index].requestor == _verifier) {\r\n        ownerRequests[msg.sender][index].status = _newStatus;\r\n        break;\r\n      }\r\n    }\r\n\r\n    for (uint256 index = 0; index < verifierRequests[_verifier].length; index++) {\r\n      if (compareStringsbyBytes(verifierRequests[_verifier][index].docName, _docName) && verifierRequests[_verifier][index].owner == msg.sender) {\r\n        verifierRequests[_verifier][index] = Request(_verifier, msg.sender, _docName, _properties, _newStatus);\r\n        break;\r\n      }\r\n    }\r\n\r\n    emit RequestStatusUpdated(_verifier, msg.sender, _newStatus);\r\n  }\r\n\r\n  function getOwnerRequests() view public returns(address[] memory, string[] memory, bytes[] memory, string[] memory) {\r\n    uint _reqCount = ownerRequests[msg.sender].length;\r\n    address[] memory _requestor = new address[](_reqCount);\r\n    string[] memory _docName = new string[](_reqCount);\r\n    bytes[] memory _properties = new bytes[](_reqCount);\r\n    string[] memory _status = new string[](_reqCount);\r\n\r\n    for (uint256 index = 0; index < _reqCount; index++) {\r\n      Request memory _reqCopy = ownerRequests[msg.sender][index];\r\n      _requestor[index] = _reqCopy.requestor;\r\n      _docName[index] = _reqCopy.docName;\r\n      _properties[index] = _reqCopy.properties;\r\n      _status[index] = _reqCopy.status;\r\n    }\r\n\r\n    return (_requestor, _docName, _properties, _status);\r\n  }\r\n\r\n  function getVerifierRequests() view public returns(address[] memory, string[] memory, bytes[] memory, string[] memory) {\r\n    uint _reqCount = verifierRequests[msg.sender].length;\r\n    address[] memory _owner = new address[](_reqCount);\r\n    string[] memory _docName = new string[](_reqCount);\r\n    bytes[] memory _properties = new bytes[](_reqCount);\r\n    string[] memory _status = new string[](_reqCount);\r\n\r\n    for (uint256 index = 0; index < _reqCount; index++) {\r\n      Request memory _reqCopy = verifierRequests[msg.sender][index];\r\n      _owner[index] = _reqCopy.owner;\r\n      _docName[index] = _reqCopy.docName;\r\n      _properties[index] = _reqCopy.properties;\r\n      _status[index] = _reqCopy.status;\r\n    }\r\n\r\n    return (_owner, _docName, _properties, _status);\r\n  }\r\n\r\n  function getEncryptionPublicKey(address _owner) view public returns(string memory) {\r\n    require(_owner != address(0));\r\n\r\n    return userDb[_owner].encryptionPublicKey;\r\n  }\r\n\r\n  function compareStringsbyBytes(string memory s1, string memory s2) public pure returns(bool) {\r\n    return keccak256(abi.encodePacked(s1)) == keccak256(abi.encodePacked(s2));\r\n  }\r\n\r\n  function append(string memory a, string memory b) internal pure returns (string memory) {\r\n    return string(abi.encodePacked(a, b));\r\n  }\r\n}",
  "sourcePath": "C:/Users/Chaitanya/Documents/Academics/Projects/UniversalIMS/IMS_Owner/contracts/IdentityManager.sol",
  "compiler": {
    "name": "solc",
    "version": "0.5.16+commit.9c3226ce.Emscripten.clang"
  },
  "schemaVersion": "3.3.4",
  "updatedAt": "2021-03-20T10:48:11.732Z",
  "networkType": "ethereum",
  "devdoc": {
    "methods": {}
  },
  "userdoc": {
    "methods": {}
  }
}