{
  "contractName": "IdentityManager",
  "abi": [
    {
      "anonymous": false,
      "inputs": [
        {
          "indexed": false,
          "internalType": "string",
          "name": "name",
          "type": "string"
        },
        {
          "indexed": false,
          "internalType": "string",
          "name": "data",
          "type": "string"
        },
        {
          "indexed": false,
          "internalType": "address",
          "name": "owner",
          "type": "address"
        },
        {
          "indexed": false,
          "internalType": "address",
          "name": "issuer",
          "type": "address"
        }
      ],
      "name": "DocumentIssued",
      "type": "event"
    },
    {
      "anonymous": false,
      "inputs": [
        {
          "indexed": false,
          "internalType": "address",
          "name": "verifier",
          "type": "address"
        },
        {
          "indexed": false,
          "internalType": "address",
          "name": "owner",
          "type": "address"
        },
        {
          "indexed": false,
          "internalType": "string",
          "name": "docName",
          "type": "string"
        },
        {
          "indexed": false,
          "internalType": "string",
          "name": "properties",
          "type": "string"
        },
        {
          "indexed": false,
          "internalType": "string",
          "name": "status",
          "type": "string"
        }
      ],
      "name": "RequestGenerated",
      "type": "event"
    },
    {
      "anonymous": false,
      "inputs": [
        {
          "indexed": false,
          "internalType": "address",
          "name": "verifier",
          "type": "address"
        },
        {
          "indexed": false,
          "internalType": "address",
          "name": "owner",
          "type": "address"
        },
        {
          "indexed": false,
          "internalType": "string",
          "name": "docName",
          "type": "string"
        },
        {
          "indexed": false,
          "internalType": "string",
          "name": "status",
          "type": "string"
        }
      ],
      "name": "RequestStatusUpdated",
      "type": "event"
    },
    {
      "anonymous": false,
      "inputs": [
        {
          "indexed": false,
          "internalType": "address",
          "name": "issuer",
          "type": "address"
        },
        {
          "indexed": false,
          "internalType": "string",
          "name": "name",
          "type": "string"
        },
        {
          "indexed": false,
          "internalType": "string",
          "name": "data",
          "type": "string"
        }
      ],
      "name": "TemplateCreated",
      "type": "event"
    },
    {
      "constant": false,
      "inputs": [
        {
          "internalType": "string",
          "name": "_name",
          "type": "string"
        },
        {
          "internalType": "string",
          "name": "_data",
          "type": "string"
        },
        {
          "internalType": "address",
          "name": "_owner",
          "type": "address"
        }
      ],
      "name": "issueDocument",
      "outputs": [],
      "payable": false,
      "stateMutability": "nonpayable",
      "type": "function"
    },
    {
      "constant": false,
      "inputs": [
        {
          "internalType": "string",
          "name": "_name",
          "type": "string"
        },
        {
          "internalType": "string",
          "name": "_data",
          "type": "string"
        }
      ],
      "name": "createTemplate",
      "outputs": [],
      "payable": false,
      "stateMutability": "nonpayable",
      "type": "function"
    },
    {
      "constant": true,
      "inputs": [],
      "name": "getTemplates",
      "outputs": [
        {
          "internalType": "address[]",
          "name": "",
          "type": "address[]"
        },
        {
          "internalType": "string[]",
          "name": "",
          "type": "string[]"
        },
        {
          "internalType": "string[]",
          "name": "",
          "type": "string[]"
        }
      ],
      "payable": false,
      "stateMutability": "view",
      "type": "function"
    },
    {
      "constant": true,
      "inputs": [],
      "name": "getDocuments",
      "outputs": [
        {
          "internalType": "address[]",
          "name": "",
          "type": "address[]"
        },
        {
          "internalType": "string[]",
          "name": "",
          "type": "string[]"
        },
        {
          "internalType": "string[]",
          "name": "",
          "type": "string[]"
        }
      ],
      "payable": false,
      "stateMutability": "view",
      "type": "function"
    },
    {
      "constant": true,
      "inputs": [
        {
          "internalType": "string",
          "name": "_name",
          "type": "string"
        }
      ],
      "name": "getDocument",
      "outputs": [
        {
          "internalType": "address",
          "name": "",
          "type": "address"
        },
        {
          "internalType": "string",
          "name": "",
          "type": "string"
        },
        {
          "internalType": "string",
          "name": "",
          "type": "string"
        }
      ],
      "payable": false,
      "stateMutability": "view",
      "type": "function"
    },
    {
      "constant": true,
      "inputs": [],
      "name": "getDocumentCount",
      "outputs": [
        {
          "internalType": "uint256",
          "name": "",
          "type": "uint256"
        }
      ],
      "payable": false,
      "stateMutability": "view",
      "type": "function"
    },
    {
      "constant": false,
      "inputs": [
        {
          "internalType": "address",
          "name": "_owner",
          "type": "address"
        },
        {
          "internalType": "string",
          "name": "_docName",
          "type": "string"
        },
        {
          "internalType": "string",
          "name": "_properties",
          "type": "string"
        }
      ],
      "name": "requestVerification",
      "outputs": [],
      "payable": false,
      "stateMutability": "nonpayable",
      "type": "function"
    },
    {
      "constant": false,
      "inputs": [
        {
          "internalType": "address",
          "name": "_verifier",
          "type": "address"
        },
        {
          "internalType": "string",
          "name": "_docName",
          "type": "string"
        },
        {
          "internalType": "string",
          "name": "_newStatus",
          "type": "string"
        },
        {
          "internalType": "string",
          "name": "_properties",
          "type": "string"
        }
      ],
      "name": "updateRequestStatus",
      "outputs": [],
      "payable": false,
      "stateMutability": "nonpayable",
      "type": "function"
    },
    {
      "constant": true,
      "inputs": [],
      "name": "getOwnerRequests",
      "outputs": [
        {
          "internalType": "address[]",
          "name": "",
          "type": "address[]"
        },
        {
          "internalType": "string[]",
          "name": "",
          "type": "string[]"
        },
        {
          "internalType": "string[]",
          "name": "",
          "type": "string[]"
        },
        {
          "internalType": "string[]",
          "name": "",
          "type": "string[]"
        }
      ],
      "payable": false,
      "stateMutability": "view",
      "type": "function"
    },
    {
      "constant": true,
      "inputs": [],
      "name": "getVerifierRequests",
      "outputs": [
        {
          "internalType": "address[]",
          "name": "",
          "type": "address[]"
        },
        {
          "internalType": "string[]",
          "name": "",
          "type": "string[]"
        },
        {
          "internalType": "string[]",
          "name": "",
          "type": "string[]"
        },
        {
          "internalType": "string[]",
          "name": "",
          "type": "string[]"
        }
      ],
      "payable": false,
      "stateMutability": "view",
      "type": "function"
    },
    {
      "constant": true,
      "inputs": [
        {
          "internalType": "string",
          "name": "s1",
          "type": "string"
        },
        {
          "internalType": "string",
          "name": "s2",
          "type": "string"
        }
      ],
      "name": "compareStringsbyBytes",
      "outputs": [
        {
          "internalType": "bool",
          "name": "",
          "type": "bool"
        }
      ],
      "payable": false,
      "stateMutability": "pure",
      "type": "function"
    }
  ],
  "bytecode": "0x608060405234801561001057600080fd5b506133e5806100206000396000f3fe608060405234801561001057600080fd5b50600436106100a95760003560e01c80637ccb6a64116100715780637ccb6a6414610141578063bcfce47114610173578063e64ae1191461018f578063e9a734ff146101af578063ef2d8700146101df578063f879a782146101ff576100a9565b80632d46b0ad146100ae5780633d1c2273146100cf5780633e092e45146100ed57806360160707146101095780636aeae83714610125575b600080fd5b6100b6610220565b6040516100c69493929190613022565b60405180910390f35b6100d761071e565b6040516100e49190613191565b60405180910390f35b61010760048036036101029190810190612821565b610767565b005b610123600480360361011e91908101906128a0565b610be8565b005b61013f600480360361013a919081019061298c565b6112d1565b005b61015b6004803603610156919081019061294b565b611513565b60405161016a93929190612f91565b60405180910390f35b61018d600480360361018891908101906129f8565b6117e5565b005b6101976119d0565b6040516101a693929190612fd6565b60405180910390f35b6101c960048036036101c4919081019061298c565b611d01565b6040516101d69190613083565b60405180910390f35b6101e7611d5a565b6040516101f693929190612fd6565b60405180910390f35b610207612103565b6040516102179493929190613022565b60405180910390f35b6060806060806000600160003373ffffffffffffffffffffffffffffffffffffffff1673ffffffffffffffffffffffffffffffffffffffff16815260200190815260200160002080549050905060608160405190808252806020026020018201604052801561029e5781602001602082028038833980820191505090505b5090506060826040519080825280602002602001820160405280156102d757816020015b60608152602001906001900390816102c25790505b50905060608360405190808252806020026020018201604052801561031057816020015b60608152602001906001900390816102fb5790505b50905060608460405190808252806020026020018201604052801561034957816020015b60608152602001906001900390816103345790505b50905060008090505b8581101561070657610362612601565b600160003373ffffffffffffffffffffffffffffffffffffffff1673ffffffffffffffffffffffffffffffffffffffff16815260200190815260200160002082815481106103ac57fe5b90600052602060002090600502016040518060a00160405290816000820160009054906101000a900473ffffffffffffffffffffffffffffffffffffffff1673ffffffffffffffffffffffffffffffffffffffff1673ffffffffffffffffffffffffffffffffffffffff1681526020016001820160009054906101000a900473ffffffffffffffffffffffffffffffffffffffff1673ffffffffffffffffffffffffffffffffffffffff1673ffffffffffffffffffffffffffffffffffffffff168152602001600282018054600181600116156101000203166002900480601f01602080910402602001604051908101604052809291908181526020018280546001816001161561010002031660029004801561050a5780601f106104df5761010080835404028352916020019161050a565b820191906000526020600020905b8154815290600101906020018083116104ed57829003601f168201915b50505050508152602001600382018054600181600116156101000203166002900480601f0160208091040260200160405190810160405280929190818152602001828054600181600116156101000203166002900480156105ac5780601f10610581576101008083540402835291602001916105ac565b820191906000526020600020905b81548152906001019060200180831161058f57829003601f168201915b50505050508152602001600482018054600181600116156101000203166002900480601f01602080910402602001604051908101604052809291908181526020018280546001816001161561010002031660029004801561064e5780601f106106235761010080835404028352916020019161064e565b820191906000526020600020905b81548152906001019060200180831161063157829003601f168201915b5050505050815250509050806000015186838151811061066a57fe5b602002602001019073ffffffffffffffffffffffffffffffffffffffff16908173ffffffffffffffffffffffffffffffffffffffff168152505080604001518583815181106106b557fe5b602002602001018190525080606001518483815181106106d157fe5b602002602001018190525080608001518383815181106106ed57fe5b6020026020010181905250508080600101915050610352565b50838383839850985098509850505050505090919293565b60008060003373ffffffffffffffffffffffffffffffffffffffff1673ffffffffffffffffffffffffffffffffffffffff16815260200190815260200160002080549050905090565b8273ffffffffffffffffffffffffffffffffffffffff163373ffffffffffffffffffffffffffffffffffffffff1614156107d6576040517f08c379a00000000000000000000000000000000000000000000000000000000081526004016107cd90613151565b60405180910390fd5b60008251116107e457600080fd5b60008151116107f257600080fd5b600160008473ffffffffffffffffffffffffffffffffffffffff1673ffffffffffffffffffffffffffffffffffffffff1681526020019081526020016000206040518060a001604052803373ffffffffffffffffffffffffffffffffffffffff1681526020018573ffffffffffffffffffffffffffffffffffffffff1681526020018481526020018381526020016040518060400160405280600981526020017f52657175657374656400000000000000000000000000000000000000000000008152508152509080600181540180825580915050906001820390600052602060002090600502016000909192909190915060008201518160000160006101000a81548173ffffffffffffffffffffffffffffffffffffffff021916908373ffffffffffffffffffffffffffffffffffffffff16021790555060208201518160010160006101000a81548173ffffffffffffffffffffffffffffffffffffffff021916908373ffffffffffffffffffffffffffffffffffffffff160217905550604082015181600201908051906020019061098e92919061265c565b5060608201518160030190805190602001906109ab92919061265c565b5060808201518160040190805190602001906109c892919061265c565b50505050600260003373ffffffffffffffffffffffffffffffffffffffff1673ffffffffffffffffffffffffffffffffffffffff1681526020019081526020016000206040518060a001604052803373ffffffffffffffffffffffffffffffffffffffff1681526020018573ffffffffffffffffffffffffffffffffffffffff1681526020018481526020018381526020016040518060400160405280600981526020017f52657175657374656400000000000000000000000000000000000000000000008152508152509080600181540180825580915050906001820390600052602060002090600502016000909192909190915060008201518160000160006101000a81548173ffffffffffffffffffffffffffffffffffffffff021916908373ffffffffffffffffffffffffffffffffffffffff16021790555060208201518160010160006101000a81548173ffffffffffffffffffffffffffffffffffffffff021916908373ffffffffffffffffffffffffffffffffffffffff1602179055506040820151816002019080519060200190610b6892919061265c565b506060820151816003019080519060200190610b8592919061265c565b506080820151816004019080519060200190610ba292919061265c565b505050507f61487ae7fac5961d9d437176b1ce54a4974bdfd833fb203ccece47b30808697133848484604051610bdb9493929190612e93565b60405180910390a1505050565b3373ffffffffffffffffffffffffffffffffffffffff168473ffffffffffffffffffffffffffffffffffffffff161415610c57576040517f08c379a0000000000000000000000000000000000000000000000000000000008152600401610c4e90613111565b60405180910390fd5b6000835111610c6557600080fd5b60008090505b600160003373ffffffffffffffffffffffffffffffffffffffff1673ffffffffffffffffffffffffffffffffffffffff16815260200190815260200160002080549050811015610ee757610db2600160003373ffffffffffffffffffffffffffffffffffffffff1673ffffffffffffffffffffffffffffffffffffffff1681526020019081526020016000208281548110610d0257fe5b90600052602060002090600502016002018054600181600116156101000203166002900480601f016020809104026020016040519081016040528092919081815260200182805460018160011615610100020316600290048015610da75780601f10610d7c57610100808354040283529160200191610da7565b820191906000526020600020905b815481529060010190602001808311610d8a57829003601f168201915b505050505085611d01565b8015610e6457508473ffffffffffffffffffffffffffffffffffffffff16600160003373ffffffffffffffffffffffffffffffffffffffff1673ffffffffffffffffffffffffffffffffffffffff1681526020019081526020016000208281548110610e1a57fe5b906000526020600020906005020160000160009054906101000a900473ffffffffffffffffffffffffffffffffffffffff1673ffffffffffffffffffffffffffffffffffffffff16145b15610eda5782600160003373ffffffffffffffffffffffffffffffffffffffff1673ffffffffffffffffffffffffffffffffffffffff1681526020019081526020016000208281548110610eb457fe5b90600052602060002090600502016004019080519060200190610ed89291906126dc565b505b8080600101915050610c6b565b5060008090505b600260008673ffffffffffffffffffffffffffffffffffffffff1673ffffffffffffffffffffffffffffffffffffffff1681526020019081526020016000208054905081101561128d57611035600260008773ffffffffffffffffffffffffffffffffffffffff1673ffffffffffffffffffffffffffffffffffffffff1681526020019081526020016000208281548110610f8557fe5b90600052602060002090600502016002018054600181600116156101000203166002900480601f01602080910402602001604051908101604052809291908181526020018280546001816001161561010002031660029004801561102a5780601f10610fff5761010080835404028352916020019161102a565b820191906000526020600020905b81548152906001019060200180831161100d57829003601f168201915b505050505085611d01565b80156110e757503373ffffffffffffffffffffffffffffffffffffffff16600260008773ffffffffffffffffffffffffffffffffffffffff1673ffffffffffffffffffffffffffffffffffffffff168152602001908152602001600020828154811061109d57fe5b906000526020600020906005020160010160009054906101000a900473ffffffffffffffffffffffffffffffffffffffff1673ffffffffffffffffffffffffffffffffffffffff16145b15611280576040518060a001604052808673ffffffffffffffffffffffffffffffffffffffff1681526020013373ffffffffffffffffffffffffffffffffffffffff16815260200185815260200183815260200184815250600260008773ffffffffffffffffffffffffffffffffffffffff1673ffffffffffffffffffffffffffffffffffffffff168152602001908152602001600020828154811061118957fe5b906000526020600020906005020160008201518160000160006101000a81548173ffffffffffffffffffffffffffffffffffffffff021916908373ffffffffffffffffffffffffffffffffffffffff16021790555060208201518160010160006101000a81548173ffffffffffffffffffffffffffffffffffffffff021916908373ffffffffffffffffffffffffffffffffffffffff160217905550604082015181600201908051906020019061124192919061265c565b50606082015181600301908051906020019061125e92919061265c565b50608082015181600401908051906020019061127b92919061265c565b509050505b8080600101915050610eee565b507f0b4e4df4afc4a667d4bd2de7b8ca16553bf5be65540a76af50ec67db7fe40e89843385856040516112c39493929190612f3e565b60405180910390a150505050565b60008090505b6003805490508110156113f1576113a4600382815481106112f457fe5b90600052602060002090600302016001018054600181600116156101000203166002900480601f0160208091040260200160405190810160405280929190818152602001828054600181600116156101000203166002900480156113995780601f1061136e57610100808354040283529160200191611399565b820191906000526020600020905b81548152906001019060200180831161137c57829003601f168201915b505050505084611d01565b156113e4576040517f08c379a00000000000000000000000000000000000000000000000000000000081526004016113db90613171565b60405180910390fd5b80806001019150506112d7565b50600360405180606001604052803373ffffffffffffffffffffffffffffffffffffffff168152602001848152602001838152509080600181540180825580915050906001820390600052602060002090600302016000909192909190915060008201518160000160006101000a81548173ffffffffffffffffffffffffffffffffffffffff021916908373ffffffffffffffffffffffffffffffffffffffff16021790555060208201518160010190805190602001906114b392919061265c565b5060408201518160020190805190602001906114d092919061265c565b505050507f117e6f249d6362fc177ab883601ab259c396baf77890be9f74de8837d64f768533838360405161150793929190612ef9565b60405180910390a15050565b600060608060008090506000803373ffffffffffffffffffffffffffffffffffffffff1673ffffffffffffffffffffffffffffffffffffffff168152602001908152602001600020805490508110156117dc5761156e61275c565b6000803373ffffffffffffffffffffffffffffffffffffffff1673ffffffffffffffffffffffffffffffffffffffff16815260200190815260200160002082815481106115b757fe5b90600052602060002090600302016040518060600160405290816000820160009054906101000a900473ffffffffffffffffffffffffffffffffffffffff1673ffffffffffffffffffffffffffffffffffffffff1673ffffffffffffffffffffffffffffffffffffffff168152602001600182018054600181600116156101000203166002900480601f0160208091040260200160405190810160405280929190818152602001828054600181600116156101000203166002900480156116bf5780601f10611694576101008083540402835291602001916116bf565b820191906000526020600020905b8154815290600101906020018083116116a257829003601f168201915b50505050508152602001600282018054600181600116156101000203166002900480601f0160208091040260200160405190810160405280929190818152602001828054600181600116156101000203166002900480156117615780601f1061173657610100808354040283529160200191611761565b820191906000526020600020905b81548152906001019060200180831161174457829003601f168201915b505050505081525050905061177a868260200151611d01565b156117a15780600001518160200151826040015181915080905094509450945050506117de565b6040517f08c379a00000000000000000000000000000000000000000000000000000000081526004016117d3906130f1565b60405180910390fd5b505b9193909250565b60008351116117f357600080fd5b600082511161180157600080fd5b3373ffffffffffffffffffffffffffffffffffffffff168173ffffffffffffffffffffffffffffffffffffffff161415611870576040517f08c379a000000000000000000000000000000000000000000000000000000000815260040161186790613131565b60405180910390fd5b6000808273ffffffffffffffffffffffffffffffffffffffff1673ffffffffffffffffffffffffffffffffffffffff16815260200190815260200160002060405180606001604052803373ffffffffffffffffffffffffffffffffffffffff168152602001858152602001848152509080600181540180825580915050906001820390600052602060002090600302016000909192909190915060008201518160000160006101000a81548173ffffffffffffffffffffffffffffffffffffffff021916908373ffffffffffffffffffffffffffffffffffffffff160217905550602082015181600101908051906020019061196d92919061265c565b50604082015181600201908051906020019061198a92919061265c565b505050507f95991b659d1dfa1262d929693d81c4c5b6855d5628c8737e9404f460d1a3678d838383336040516119c3949392919061309e565b60405180910390a1505050565b606080606060006003805490509050606081604051908082528060200260200182016040528015611a105781602001602082028038833980820191505090505b509050606082604051908082528060200260200182016040528015611a4957816020015b6060815260200190600190039081611a345790505b509050606083604051908082528060200260200182016040528015611a8257816020015b6060815260200190600190039081611a6d5790505b50905060008090505b84811015611cee57611a9b61275c565b60038281548110611aa857fe5b90600052602060002090600302016040518060600160405290816000820160009054906101000a900473ffffffffffffffffffffffffffffffffffffffff1673ffffffffffffffffffffffffffffffffffffffff1673ffffffffffffffffffffffffffffffffffffffff168152602001600182018054600181600116156101000203166002900480601f016020809104026020016040519081016040528092919081815260200182805460018160011615610100020316600290048015611bb05780601f10611b8557610100808354040283529160200191611bb0565b820191906000526020600020905b815481529060010190602001808311611b9357829003601f168201915b50505050508152602001600282018054600181600116156101000203166002900480601f016020809104026020016040519081016040528092919081815260200182805460018160011615610100020316600290048015611c525780601f10611c2757610100808354040283529160200191611c52565b820191906000526020600020905b815481529060010190602001808311611c3557829003601f168201915b50505050508152505090508060000151858381518110611c6e57fe5b602002602001019073ffffffffffffffffffffffffffffffffffffffff16908173ffffffffffffffffffffffffffffffffffffffff16815250508060200151848381518110611cb957fe5b60200260200101819052508060400151838381518110611cd557fe5b6020026020010181905250508080600101915050611a8b565b5082828296509650965050505050909192565b600081604051602001611d149190612e7c565b6040516020818303038152906040528051906020012083604051602001611d3b9190612e7c565b6040516020818303038152906040528051906020012014905092915050565b606080606060008060003373ffffffffffffffffffffffffffffffffffffffff1673ffffffffffffffffffffffffffffffffffffffff168152602001908152602001600020805490509050606081604051908082528060200260200182016040528015611dd65781602001602082028038833980820191505090505b509050606082604051908082528060200260200182016040528015611e0f57816020015b6060815260200190600190039081611dfa5790505b509050606083604051908082528060200260200182016040528015611e4857816020015b6060815260200190600190039081611e335790505b50905060008090505b848110156120f057611e6161275c565b6000803373ffffffffffffffffffffffffffffffffffffffff1673ffffffffffffffffffffffffffffffffffffffff1681526020019081526020016000208281548110611eaa57fe5b90600052602060002090600302016040518060600160405290816000820160009054906101000a900473ffffffffffffffffffffffffffffffffffffffff1673ffffffffffffffffffffffffffffffffffffffff1673ffffffffffffffffffffffffffffffffffffffff168152602001600182018054600181600116156101000203166002900480601f016020809104026020016040519081016040528092919081815260200182805460018160011615610100020316600290048015611fb25780601f10611f8757610100808354040283529160200191611fb2565b820191906000526020600020905b815481529060010190602001808311611f9557829003601f168201915b50505050508152602001600282018054600181600116156101000203166002900480601f0160208091040260200160405190810160405280929190818152602001828054600181600116156101000203166002900480156120545780601f1061202957610100808354040283529160200191612054565b820191906000526020600020905b81548152906001019060200180831161203757829003601f168201915b5050505050815250509050806000015185838151811061207057fe5b602002602001019073ffffffffffffffffffffffffffffffffffffffff16908173ffffffffffffffffffffffffffffffffffffffff168152505080602001518483815181106120bb57fe5b602002602001018190525080604001518383815181106120d757fe5b6020026020010181905250508080600101915050611e51565b5082828296509650965050505050909192565b6060806060806000600260003373ffffffffffffffffffffffffffffffffffffffff1673ffffffffffffffffffffffffffffffffffffffff1681526020019081526020016000208054905090506060816040519080825280602002602001820160405280156121815781602001602082028038833980820191505090505b5090506060826040519080825280602002602001820160405280156121ba57816020015b60608152602001906001900390816121a55790505b5090506060836040519080825280602002602001820160405280156121f357816020015b60608152602001906001900390816121de5790505b50905060608460405190808252806020026020018201604052801561222c57816020015b60608152602001906001900390816122175790505b50905060008090505b858110156125e957612245612601565b600260003373ffffffffffffffffffffffffffffffffffffffff1673ffffffffffffffffffffffffffffffffffffffff168152602001908152602001600020828154811061228f57fe5b90600052602060002090600502016040518060a00160405290816000820160009054906101000a900473ffffffffffffffffffffffffffffffffffffffff1673ffffffffffffffffffffffffffffffffffffffff1673ffffffffffffffffffffffffffffffffffffffff1681526020016001820160009054906101000a900473ffffffffffffffffffffffffffffffffffffffff1673ffffffffffffffffffffffffffffffffffffffff1673ffffffffffffffffffffffffffffffffffffffff168152602001600282018054600181600116156101000203166002900480601f0160208091040260200160405190810160405280929190818152602001828054600181600116156101000203166002900480156123ed5780601f106123c2576101008083540402835291602001916123ed565b820191906000526020600020905b8154815290600101906020018083116123d057829003601f168201915b50505050508152602001600382018054600181600116156101000203166002900480601f01602080910402602001604051908101604052809291908181526020018280546001816001161561010002031660029004801561248f5780601f106124645761010080835404028352916020019161248f565b820191906000526020600020905b81548152906001019060200180831161247257829003601f168201915b50505050508152602001600482018054600181600116156101000203166002900480601f0160208091040260200160405190810160405280929190818152602001828054600181600116156101000203166002900480156125315780601f1061250657610100808354040283529160200191612531565b820191906000526020600020905b81548152906001019060200180831161251457829003601f168201915b5050505050815250509050806020015186838151811061254d57fe5b602002602001019073ffffffffffffffffffffffffffffffffffffffff16908173ffffffffffffffffffffffffffffffffffffffff1681525050806040015185838151811061259857fe5b602002602001018190525080606001518483815181106125b457fe5b602002602001018190525080608001518383815181106125d057fe5b6020026020010181905250508080600101915050612235565b50838383839850985098509850505050505090919293565b6040518060a00160405280600073ffffffffffffffffffffffffffffffffffffffff168152602001600073ffffffffffffffffffffffffffffffffffffffff1681526020016060815260200160608152602001606081525090565b828054600181600116156101000203166002900490600052602060002090601f016020900481019282601f1061269d57805160ff19168380011785556126cb565b828001600101855582156126cb579182015b828111156126ca5782518255916020019190600101906126af565b5b5090506126d89190612793565b5090565b828054600181600116156101000203166002900490600052602060002090601f016020900481019282601f1061271d57805160ff191683800117855561274b565b8280016001018555821561274b579182015b8281111561274a57825182559160200191906001019061272f565b5b5090506127589190612793565b5090565b6040518060600160405280600073ffffffffffffffffffffffffffffffffffffffff16815260200160608152602001606081525090565b6127b591905b808211156127b1576000816000905550600101612799565b5090565b90565b6000813590506127c78161338b565b92915050565b600082601f8301126127de57600080fd5b81356127f16127ec826131d9565b6131ac565b9150808252602083016020830185838301111561280d57600080fd5b612818838284613338565b50505092915050565b60008060006060848603121561283657600080fd5b6000612844868287016127b8565b935050602084013567ffffffffffffffff81111561286157600080fd5b61286d868287016127cd565b925050604084013567ffffffffffffffff81111561288a57600080fd5b612896868287016127cd565b9150509250925092565b600080600080608085870312156128b657600080fd5b60006128c4878288016127b8565b945050602085013567ffffffffffffffff8111156128e157600080fd5b6128ed878288016127cd565b935050604085013567ffffffffffffffff81111561290a57600080fd5b612916878288016127cd565b925050606085013567ffffffffffffffff81111561293357600080fd5b61293f878288016127cd565b91505092959194509250565b60006020828403121561295d57600080fd5b600082013567ffffffffffffffff81111561297757600080fd5b612983848285016127cd565b91505092915050565b6000806040838503121561299f57600080fd5b600083013567ffffffffffffffff8111156129b957600080fd5b6129c5858286016127cd565b925050602083013567ffffffffffffffff8111156129e257600080fd5b6129ee858286016127cd565b9150509250929050565b600080600060608486031215612a0d57600080fd5b600084013567ffffffffffffffff811115612a2757600080fd5b612a33868287016127cd565b935050602084013567ffffffffffffffff811115612a5057600080fd5b612a5c868287016127cd565b9250506040612a6d868287016127b8565b9150509250925092565b6000612a838383612ab2565b60208301905092915050565b6000612a9b8383612c1c565b905092915050565b612aac81613302565b82525050565b612abb816132ba565b82525050565b612aca816132ba565b82525050565b6000612adb82613225565b612ae5818561326b565b9350612af083613205565b8060005b83811015612b21578151612b088882612a77565b9750612b1383613251565b925050600181019050612af4565b5085935050505092915050565b6000612b3982613230565b612b43818561327c565b935083602082028501612b5585613215565b8060005b85811015612b915784840389528151612b728582612a8f565b9450612b7d8361325e565b925060208a01995050600181019050612b59565b50829750879550505050505092915050565b612bac816132cc565b82525050565b6000612bbd82613246565b612bc7818561329e565b9350612bd7818560208601613347565b612be08161337a565b840191505092915050565b6000612bf682613246565b612c0081856132af565b9350612c10818560208601613347565b80840191505092915050565b6000612c278261323b565b612c31818561328d565b9350612c41818560208601613347565b612c4a8161337a565b840191505092915050565b6000612c6260098361329e565b91507f52657175657374656400000000000000000000000000000000000000000000006000830152602082019050919050565b6000612ca260258361329e565b91507f5573657220646f6573206e6f7420686176652073706563696669656420646f6360008301527f756d656e740000000000000000000000000000000000000000000000000000006020830152604082019050919050565b6000612d0860258361329e565b91507f56657269666965722063616e6e6f74207570646174652072657175657374207360008301527f74617475730000000000000000000000000000000000000000000000000000006020830152604082019050919050565b6000612d6e60268361329e565b91507f596f752063616e6e6f7420697373756520646f63756d656e7420666f7220796f60008301527f757273656c6600000000000000000000000000000000000000000000000000006020830152604082019050919050565b6000612dd460288361329e565b91507f43616e6e6f74207265717565737420766572696669636174696f6e20666f722060008301527f796f757273656c660000000000000000000000000000000000000000000000006020830152604082019050919050565b6000612e3a60178361329e565b91507f54656d706c61746520616c7265616479206578697374730000000000000000006000830152602082019050919050565b612e76816132f8565b82525050565b6000612e888284612beb565b915081905092915050565b600060a082019050612ea86000830187612aa3565b612eb56020830186612ac1565b8181036040830152612ec78185612bb2565b90508181036060830152612edb8184612bb2565b90508181036080830152612eee81612c55565b905095945050505050565b6000606082019050612f0e6000830186612aa3565b8181036020830152612f208185612bb2565b90508181036040830152612f348184612bb2565b9050949350505050565b6000608082019050612f536000830187612ac1565b612f606020830186612aa3565b8181036040830152612f728185612bb2565b90508181036060830152612f868184612bb2565b905095945050505050565b6000606082019050612fa66000830186612ac1565b8181036020830152612fb88185612bb2565b90508181036040830152612fcc8184612bb2565b9050949350505050565b60006060820190508181036000830152612ff08186612ad0565b905081810360208301526130048185612b2e565b905081810360408301526130188184612b2e565b9050949350505050565b6000608082019050818103600083015261303c8187612ad0565b905081810360208301526130508186612b2e565b905081810360408301526130648185612b2e565b905081810360608301526130788184612b2e565b905095945050505050565b60006020820190506130986000830184612ba3565b92915050565b600060808201905081810360008301526130b88187612bb2565b905081810360208301526130cc8186612bb2565b90506130db6040830185612ac1565b6130e86060830184612aa3565b95945050505050565b6000602082019050818103600083015261310a81612c95565b9050919050565b6000602082019050818103600083015261312a81612cfb565b9050919050565b6000602082019050818103600083015261314a81612d61565b9050919050565b6000602082019050818103600083015261316a81612dc7565b9050919050565b6000602082019050818103600083015261318a81612e2d565b9050919050565b60006020820190506131a66000830184612e6d565b92915050565b6000604051905081810181811067ffffffffffffffff821117156131cf57600080fd5b8060405250919050565b600067ffffffffffffffff8211156131f057600080fd5b601f19601f8301169050602081019050919050565b6000819050602082019050919050565b6000819050602082019050919050565b600081519050919050565b600081519050919050565b600081519050919050565b600081519050919050565b6000602082019050919050565b6000602082019050919050565b600082825260208201905092915050565b600082825260208201905092915050565b600082825260208201905092915050565b600082825260208201905092915050565b600081905092915050565b60006132c5826132d8565b9050919050565b60008115159050919050565b600073ffffffffffffffffffffffffffffffffffffffff82169050919050565b6000819050919050565b600061330d82613314565b9050919050565b600061331f82613326565b9050919050565b6000613331826132d8565b9050919050565b82818337600083830152505050565b60005b8381101561336557808201518184015260208101905061334a565b83811115613374576000848401525b50505050565b6000601f19601f8301169050919050565b613394816132ba565b811461339f57600080fd5b5056fea365627a7a72315820a31759ff7832b23de6e9b55b0f5e9beae0a14e440b33278dbb59f91f8bf5aace6c6578706572696d656e74616cf564736f6c63430005100040",
  "source": "// SPDX-License-Identifier: MIT\r\npragma solidity >=0.4.21 <0.7.0;\r\npragma experimental ABIEncoderV2;\r\n\r\ncontract IdentityManager {\r\n\r\n  struct Document {\r\n    address issuer;\r\n    string name;\r\n    string data;\r\n  }\r\n\r\n  struct Request {\r\n    address requestor;\r\n    address owner;\r\n    string docName;\r\n    string properties;\r\n    string status;\r\n  }\r\n\r\n  mapping(address => Document[]) identities;\r\n  mapping(address => Request[]) ownerRequests;\r\n  mapping(address => Request[]) verifierRequests;\r\n  Document[] templates;\r\n\r\n  event DocumentIssued (\r\n    string name,\r\n    string data,\r\n    address owner,\r\n    address issuer\r\n  );\r\n\r\n  event TemplateCreated (\r\n    address issuer,\r\n    string name,\r\n    string data\r\n  );\r\n\r\n  event RequestGenerated (\r\n    address verifier,\r\n    address owner,\r\n    string docName,\r\n    string properties,\r\n    string status\r\n  );\r\n\r\n  event RequestStatusUpdated (\r\n    address verifier,\r\n    address owner,\r\n    string docName,\r\n    string status\r\n  );\r\n\r\n  function issueDocument(string memory _name, string memory _data, address _owner) public {\r\n    require(bytes(_name).length > 0);\r\n    require(bytes(_data).length > 0);\r\n    require(_owner != msg.sender, 'You cannot issue document for yourself');\r\n\r\n    identities[_owner].push(Document(msg.sender, _name, _data));\r\n    emit DocumentIssued(_name, _data, _owner, msg.sender);\r\n  }\r\n\r\n  function createTemplate(string memory _name, string memory _data) public {\r\n    for (uint256 index = 0; index < templates.length; index++) {\r\n      if (compareStringsbyBytes(templates[index].name, _name)) {\r\n        revert('Template already exists');\r\n      }\r\n    }\r\n    templates.push(Document(msg.sender, _name, _data));\r\n    emit TemplateCreated(msg.sender, _name, _data);\r\n  }\r\n\r\n  function getTemplates() view public returns(address[] memory, string[] memory, string[] memory) {\r\n    uint _templateCount = templates.length;\r\n    address[] memory _issuer = new address[](_templateCount);\r\n    string[] memory _name = new string[](_templateCount);\r\n    string[] memory _data = new string[](_templateCount);\r\n\r\n    for (uint256 index = 0; index < _templateCount; index++) {\r\n      Document memory _tempCopy = templates[index];\r\n      _issuer[index] = _tempCopy.issuer;\r\n      _name[index] = _tempCopy.name;\r\n      _data[index] = _tempCopy.data;\r\n    }\r\n\r\n    return (_issuer, _name, _data);\r\n  }\r\n\r\n  function getDocuments() view public returns(address[] memory, string[] memory, string[] memory) {\r\n    uint _documentCount = identities[msg.sender].length;\r\n    address[] memory _issuer = new address[](_documentCount);\r\n    string[] memory _name = new string[](_documentCount);\r\n    string[] memory _data = new string[](_documentCount);\r\n\r\n    for (uint256 index = 0; index < _documentCount; index++) {\r\n      Document memory _docCopy = identities[msg.sender][index];\r\n      _issuer[index] = _docCopy.issuer;\r\n      _name[index] = _docCopy.name;\r\n      _data[index] = _docCopy.data;\r\n    }\r\n\r\n    return (_issuer, _name, _data);\r\n  }\r\n\r\n  function getDocument(string memory _name) view public returns(address, string memory, string memory) {\r\n    for (uint256 index = 0; index < identities[msg.sender].length; index++) {\r\n      Document memory _docCopy = identities[msg.sender][index];\r\n      if (compareStringsbyBytes(_name, _docCopy.name)) {\r\n        return (_docCopy.issuer, _docCopy.name, _docCopy.data);\r\n      } else {\r\n        revert('User does not have specified document');\r\n      }\r\n    }\r\n  }\r\n\r\n  function getDocumentCount() view public returns(uint) {\r\n    return identities[msg.sender].length;\r\n  }\r\n\r\n  function requestVerification(address _owner, string memory _docName, string memory _properties) public {\r\n    require(msg.sender != _owner, 'Cannot request verification for yourself');\r\n    require(bytes(_docName).length > 0);\r\n    require(bytes(_properties).length > 0);\r\n\r\n    ownerRequests[_owner].push(Request(msg.sender, _owner, _docName, _properties, 'Requested'));\r\n    verifierRequests[msg.sender].push(Request(msg.sender, _owner, _docName, _properties, 'Requested'));\r\n    emit RequestGenerated(msg.sender, _owner, _docName, _properties, 'Requested');\r\n  }\r\n\r\n  function updateRequestStatus(address _verifier, string memory _docName, string memory _newStatus, string memory _properties) public {\r\n    require(_verifier != msg.sender, 'Verifier cannot update request status');\r\n    require(bytes(_docName).length > 0);\r\n\r\n    for (uint256 index = 0; index < ownerRequests[msg.sender].length; index++) {\r\n      if (compareStringsbyBytes(ownerRequests[msg.sender][index].docName, _docName) && ownerRequests[msg.sender][index].requestor == _verifier) {\r\n        ownerRequests[msg.sender][index].status = _newStatus;\r\n      }\r\n    }\r\n\r\n    for (uint256 index = 0; index < verifierRequests[_verifier].length; index++) {\r\n      if (compareStringsbyBytes(verifierRequests[_verifier][index].docName, _docName) && verifierRequests[_verifier][index].owner == msg.sender) {\r\n        verifierRequests[_verifier][index] = Request(_verifier, msg.sender, _docName, _properties, _newStatus);\r\n      }\r\n    }\r\n\r\n    emit RequestStatusUpdated(_verifier, msg.sender, _docName, _newStatus);\r\n  }\r\n\r\n  function getOwnerRequests() view public returns(address[] memory, string[] memory, string[] memory, string[] memory) {\r\n    uint _reqCount = ownerRequests[msg.sender].length;\r\n    address[] memory _requestor = new address[](_reqCount);\r\n    string[] memory _docName = new string[](_reqCount);\r\n    string[] memory _properties = new string[](_reqCount);\r\n    string[] memory _status = new string[](_reqCount);\r\n\r\n    for (uint256 index = 0; index < _reqCount; index++) {\r\n      Request memory _reqCopy = ownerRequests[msg.sender][index];\r\n      _requestor[index] = _reqCopy.requestor;\r\n      _docName[index] = _reqCopy.docName;\r\n      _properties[index] = _reqCopy.properties;\r\n      _status[index] = _reqCopy.status;\r\n    }\r\n\r\n    return (_requestor, _docName, _properties, _status);\r\n  }\r\n\r\n  function getVerifierRequests() view public returns(address[] memory, string[] memory, string[] memory, string[] memory) {\r\n    uint _reqCount = verifierRequests[msg.sender].length;\r\n    address[] memory _owner = new address[](_reqCount);\r\n    string[] memory _docName = new string[](_reqCount);\r\n    string[] memory _properties = new string[](_reqCount);\r\n    string[] memory _status = new string[](_reqCount);\r\n\r\n    for (uint256 index = 0; index < _reqCount; index++) {\r\n      Request memory _reqCopy = verifierRequests[msg.sender][index];\r\n      _owner[index] = _reqCopy.owner;\r\n      _docName[index] = _reqCopy.docName;\r\n      _properties[index] = _reqCopy.properties;\r\n      _status[index] = _reqCopy.status;\r\n    }\r\n\r\n    return (_owner, _docName, _properties, _status);\r\n  }\r\n\r\n  function compareStringsbyBytes(string memory s1, string memory s2) public pure returns(bool) {\r\n    return keccak256(abi.encodePacked(s1)) == keccak256(abi.encodePacked(s2));\r\n  }\r\n}",
  "sourcePath": "C:/Users/Chaitanya/Documents/Academics/Projects/UniversalIMS/IMS_Owner/contracts/IdentityManager.sol",
  "compiler": {
    "name": "solc",
    "version": "0.5.16+commit.9c3226ce.Emscripten.clang"
  },
  "schemaVersion": "3.3.4",
  "updatedAt": "2021-03-12T12:34:31.333Z",
  "networkType": "ethereum",
  "devdoc": {
    "methods": {}
  },
  "userdoc": {
    "methods": {}
  }
}