{
  "contractName": "IdentityManager",
  "abi": [
    {
      "anonymous": false,
      "inputs": [
        {
          "indexed": false,
          "internalType": "string",
          "name": "name",
          "type": "string"
        },
        {
          "indexed": false,
          "internalType": "string",
          "name": "data",
          "type": "string"
        },
        {
          "indexed": false,
          "internalType": "address",
          "name": "owner",
          "type": "address"
        },
        {
          "indexed": false,
          "internalType": "address",
          "name": "issuer",
          "type": "address"
        }
      ],
      "name": "DocumentIssued",
      "type": "event"
    },
    {
      "anonymous": false,
      "inputs": [
        {
          "indexed": false,
          "internalType": "address",
          "name": "issuer",
          "type": "address"
        },
        {
          "indexed": false,
          "internalType": "string",
          "name": "name",
          "type": "string"
        },
        {
          "indexed": false,
          "internalType": "string",
          "name": "data",
          "type": "string"
        }
      ],
      "name": "DocumentRetrived",
      "type": "event"
    },
    {
      "anonymous": false,
      "inputs": [
        {
          "indexed": false,
          "internalType": "address",
          "name": "verifier",
          "type": "address"
        },
        {
          "indexed": false,
          "internalType": "address",
          "name": "owner",
          "type": "address"
        },
        {
          "indexed": false,
          "internalType": "string",
          "name": "docName",
          "type": "string"
        },
        {
          "indexed": false,
          "internalType": "string",
          "name": "properties",
          "type": "string"
        },
        {
          "indexed": false,
          "internalType": "string",
          "name": "status",
          "type": "string"
        }
      ],
      "name": "RequestGenerated",
      "type": "event"
    },
    {
      "anonymous": false,
      "inputs": [
        {
          "indexed": false,
          "internalType": "address",
          "name": "verifier",
          "type": "address"
        },
        {
          "indexed": false,
          "internalType": "address",
          "name": "owner",
          "type": "address"
        },
        {
          "indexed": false,
          "internalType": "string",
          "name": "docName",
          "type": "string"
        },
        {
          "indexed": false,
          "internalType": "string",
          "name": "status",
          "type": "string"
        }
      ],
      "name": "RequestStatusUpdated",
      "type": "event"
    },
    {
      "anonymous": false,
      "inputs": [
        {
          "indexed": false,
          "internalType": "address",
          "name": "issuer",
          "type": "address"
        },
        {
          "indexed": false,
          "internalType": "string",
          "name": "name",
          "type": "string"
        },
        {
          "indexed": false,
          "internalType": "string",
          "name": "data",
          "type": "string"
        }
      ],
      "name": "TemplateCreated",
      "type": "event"
    },
    {
      "constant": false,
      "inputs": [
        {
          "internalType": "string",
          "name": "_name",
          "type": "string"
        },
        {
          "internalType": "string",
          "name": "_data",
          "type": "string"
        },
        {
          "internalType": "address",
          "name": "_owner",
          "type": "address"
        }
      ],
      "name": "issueDocument",
      "outputs": [],
      "payable": false,
      "stateMutability": "nonpayable",
      "type": "function"
    },
    {
      "constant": false,
      "inputs": [
        {
          "internalType": "string",
          "name": "_name",
          "type": "string"
        },
        {
          "internalType": "string",
          "name": "_data",
          "type": "string"
        }
      ],
      "name": "createTemplate",
      "outputs": [],
      "payable": false,
      "stateMutability": "nonpayable",
      "type": "function"
    },
    {
      "constant": true,
      "inputs": [],
      "name": "getTemplates",
      "outputs": [
        {
          "internalType": "address[]",
          "name": "",
          "type": "address[]"
        },
        {
          "internalType": "string[]",
          "name": "",
          "type": "string[]"
        },
        {
          "internalType": "string[]",
          "name": "",
          "type": "string[]"
        }
      ],
      "payable": false,
      "stateMutability": "view",
      "type": "function"
    },
    {
      "constant": true,
      "inputs": [],
      "name": "getDocuments",
      "outputs": [
        {
          "internalType": "address[]",
          "name": "",
          "type": "address[]"
        },
        {
          "internalType": "string[]",
          "name": "",
          "type": "string[]"
        },
        {
          "internalType": "string[]",
          "name": "",
          "type": "string[]"
        }
      ],
      "payable": false,
      "stateMutability": "view",
      "type": "function"
    },
    {
      "constant": false,
      "inputs": [
        {
          "internalType": "string",
          "name": "_name",
          "type": "string"
        },
        {
          "internalType": "address",
          "name": "_owner",
          "type": "address"
        }
      ],
      "name": "getDocument",
      "outputs": [
        {
          "internalType": "address",
          "name": "",
          "type": "address"
        },
        {
          "internalType": "string",
          "name": "",
          "type": "string"
        },
        {
          "internalType": "string",
          "name": "",
          "type": "string"
        }
      ],
      "payable": false,
      "stateMutability": "nonpayable",
      "type": "function"
    },
    {
      "constant": true,
      "inputs": [],
      "name": "getDocumentCount",
      "outputs": [
        {
          "internalType": "uint256",
          "name": "",
          "type": "uint256"
        }
      ],
      "payable": false,
      "stateMutability": "view",
      "type": "function"
    },
    {
      "constant": false,
      "inputs": [
        {
          "internalType": "address",
          "name": "_owner",
          "type": "address"
        },
        {
          "internalType": "string",
          "name": "_docName",
          "type": "string"
        },
        {
          "internalType": "string",
          "name": "_properties",
          "type": "string"
        }
      ],
      "name": "requestVerification",
      "outputs": [],
      "payable": false,
      "stateMutability": "nonpayable",
      "type": "function"
    },
    {
      "constant": false,
      "inputs": [
        {
          "internalType": "address",
          "name": "_verifier",
          "type": "address"
        },
        {
          "internalType": "string",
          "name": "_docName",
          "type": "string"
        },
        {
          "internalType": "string",
          "name": "_newStatus",
          "type": "string"
        }
      ],
      "name": "updateRequestStatus",
      "outputs": [],
      "payable": false,
      "stateMutability": "nonpayable",
      "type": "function"
    },
    {
      "constant": true,
      "inputs": [],
      "name": "getOwnerRequests",
      "outputs": [
        {
          "internalType": "address[]",
          "name": "",
          "type": "address[]"
        },
        {
          "internalType": "string[]",
          "name": "",
          "type": "string[]"
        },
        {
          "internalType": "string[]",
          "name": "",
          "type": "string[]"
        },
        {
          "internalType": "string[]",
          "name": "",
          "type": "string[]"
        }
      ],
      "payable": false,
      "stateMutability": "view",
      "type": "function"
    },
    {
      "constant": true,
      "inputs": [],
      "name": "getVerifierRequests",
      "outputs": [
        {
          "internalType": "address[]",
          "name": "",
          "type": "address[]"
        },
        {
          "internalType": "string[]",
          "name": "",
          "type": "string[]"
        },
        {
          "internalType": "string[]",
          "name": "",
          "type": "string[]"
        },
        {
          "internalType": "string[]",
          "name": "",
          "type": "string[]"
        }
      ],
      "payable": false,
      "stateMutability": "view",
      "type": "function"
    },
    {
      "constant": true,
      "inputs": [
        {
          "internalType": "string",
          "name": "s1",
          "type": "string"
        },
        {
          "internalType": "string",
          "name": "s2",
          "type": "string"
        }
      ],
      "name": "compareStringsbyBytes",
      "outputs": [
        {
          "internalType": "bool",
          "name": "",
          "type": "bool"
        }
      ],
      "payable": false,
      "stateMutability": "pure",
      "type": "function"
    }
  ],
  "bytecode": "0x608060405234801561001057600080fd5b506132ee806100206000396000f3fe608060405234801561001057600080fd5b50600436106100a95760003560e01c8063bcfce47111610071578063bcfce47114610157578063c939227a14610173578063e64ae1191461018f578063e9a734ff146101af578063ef2d8700146101df578063f879a782146101ff576100a9565b80630caeaf65146100ae5780632d46b0ad146100e05780633d1c2273146101015780633e092e451461011f5780636aeae8371461013b575b600080fd5b6100c860048036036100c391908101906127c3565b610220565b6040516100d793929190612e55565b60405180910390f35b6100e8610539565b6040516100f89493929190612f2b565b60405180910390f35b610109610a37565b604051610116919061309a565b60405180910390f35b61013960048036036101349190810190612744565b610a80565b005b61015560048036036101509190810190612817565b610f01565b005b610171600480360361016c9190810190612883565b611143565b005b61018d60048036036101889190810190612744565b61132e565b005b6101976118f3565b6040516101a693929190612edf565b60405180910390f35b6101c960048036036101c49190810190612817565b611c24565b6040516101d69190612f8c565b60405180910390f35b6101e7611c7d565b6040516101f693929190612edf565b60405180910390f35b610207612026565b6040516102179493929190612f2b565b60405180910390f35b600060608060008090506000808673ffffffffffffffffffffffffffffffffffffffff1673ffffffffffffffffffffffffffffffffffffffff168152602001908152602001600020805490508110156105305761027b612524565b6000808773ffffffffffffffffffffffffffffffffffffffff1673ffffffffffffffffffffffffffffffffffffffff16815260200190815260200160002082815481106102c457fe5b90600052602060002090600302016040518060600160405290816000820160009054906101000a900473ffffffffffffffffffffffffffffffffffffffff1673ffffffffffffffffffffffffffffffffffffffff1673ffffffffffffffffffffffffffffffffffffffff168152602001600182018054600181600116156101000203166002900480601f0160208091040260200160405190810160405280929190818152602001828054600181600116156101000203166002900480156103cc5780601f106103a1576101008083540402835291602001916103cc565b820191906000526020600020905b8154815290600101906020018083116103af57829003601f168201915b50505050508152602001600282018054600181600116156101000203166002900480601f01602080910402602001604051908101604052809291908181526020018280546001816001161561010002031660029004801561046e5780601f106104435761010080835404028352916020019161046e565b820191906000526020600020905b81548152906001019060200180831161045157829003601f168201915b5050505050815250509050610487878260200151611c24565b156104f5577fe8888eabf0437c2b9d13bf7af5b1005b5deae854dd6d426c32d0937bb86def7b8160000151826020015183604001516040516104cb93929190612e9a565b60405180910390a18060000151816020015182604001518191508090509450945094505050610532565b6040517f08c379a000000000000000000000000000000000000000000000000000000000815260040161052790612ffa565b60405180910390fd5b505b9250925092565b6060806060806000600160003373ffffffffffffffffffffffffffffffffffffffff1673ffffffffffffffffffffffffffffffffffffffff1681526020019081526020016000208054905090506060816040519080825280602002602001820160405280156105b75781602001602082028038833980820191505090505b5090506060826040519080825280602002602001820160405280156105f057816020015b60608152602001906001900390816105db5790505b50905060608360405190808252806020026020018201604052801561062957816020015b60608152602001906001900390816106145790505b50905060608460405190808252806020026020018201604052801561066257816020015b606081526020019060019003908161064d5790505b50905060008090505b85811015610a1f5761067b61255b565b600160003373ffffffffffffffffffffffffffffffffffffffff1673ffffffffffffffffffffffffffffffffffffffff16815260200190815260200160002082815481106106c557fe5b90600052602060002090600502016040518060a00160405290816000820160009054906101000a900473ffffffffffffffffffffffffffffffffffffffff1673ffffffffffffffffffffffffffffffffffffffff1673ffffffffffffffffffffffffffffffffffffffff1681526020016001820160009054906101000a900473ffffffffffffffffffffffffffffffffffffffff1673ffffffffffffffffffffffffffffffffffffffff1673ffffffffffffffffffffffffffffffffffffffff168152602001600282018054600181600116156101000203166002900480601f0160208091040260200160405190810160405280929190818152602001828054600181600116156101000203166002900480156108235780601f106107f857610100808354040283529160200191610823565b820191906000526020600020905b81548152906001019060200180831161080657829003601f168201915b50505050508152602001600382018054600181600116156101000203166002900480601f0160208091040260200160405190810160405280929190818152602001828054600181600116156101000203166002900480156108c55780601f1061089a576101008083540402835291602001916108c5565b820191906000526020600020905b8154815290600101906020018083116108a857829003601f168201915b50505050508152602001600482018054600181600116156101000203166002900480601f0160208091040260200160405190810160405280929190818152602001828054600181600116156101000203166002900480156109675780601f1061093c57610100808354040283529160200191610967565b820191906000526020600020905b81548152906001019060200180831161094a57829003601f168201915b5050505050815250509050806000015186838151811061098357fe5b602002602001019073ffffffffffffffffffffffffffffffffffffffff16908173ffffffffffffffffffffffffffffffffffffffff168152505080604001518583815181106109ce57fe5b602002602001018190525080606001518483815181106109ea57fe5b60200260200101819052508060800151838381518110610a0657fe5b602002602001018190525050808060010191505061066b565b50838383839850985098509850505050505090919293565b60008060003373ffffffffffffffffffffffffffffffffffffffff1673ffffffffffffffffffffffffffffffffffffffff16815260200190815260200160002080549050905090565b8273ffffffffffffffffffffffffffffffffffffffff163373ffffffffffffffffffffffffffffffffffffffff161415610aef576040517f08c379a0000000000000000000000000000000000000000000000000000000008152600401610ae69061305a565b60405180910390fd5b6000825111610afd57600080fd5b6000815111610b0b57600080fd5b600160008473ffffffffffffffffffffffffffffffffffffffff1673ffffffffffffffffffffffffffffffffffffffff1681526020019081526020016000206040518060a001604052803373ffffffffffffffffffffffffffffffffffffffff1681526020018573ffffffffffffffffffffffffffffffffffffffff1681526020018481526020018381526020016040518060400160405280600981526020017f52657175657374656400000000000000000000000000000000000000000000008152508152509080600181540180825580915050906001820390600052602060002090600502016000909192909190915060008201518160000160006101000a81548173ffffffffffffffffffffffffffffffffffffffff021916908373ffffffffffffffffffffffffffffffffffffffff16021790555060208201518160010160006101000a81548173ffffffffffffffffffffffffffffffffffffffff021916908373ffffffffffffffffffffffffffffffffffffffff1602179055506040820151816002019080519060200190610ca79291906125b6565b506060820151816003019080519060200190610cc49291906125b6565b506080820151816004019080519060200190610ce19291906125b6565b50505050600260003373ffffffffffffffffffffffffffffffffffffffff1673ffffffffffffffffffffffffffffffffffffffff1681526020019081526020016000206040518060a001604052803373ffffffffffffffffffffffffffffffffffffffff1681526020018573ffffffffffffffffffffffffffffffffffffffff1681526020018481526020018381526020016040518060400160405280600981526020017f52657175657374656400000000000000000000000000000000000000000000008152508152509080600181540180825580915050906001820390600052602060002090600502016000909192909190915060008201518160000160006101000a81548173ffffffffffffffffffffffffffffffffffffffff021916908373ffffffffffffffffffffffffffffffffffffffff16021790555060208201518160010160006101000a81548173ffffffffffffffffffffffffffffffffffffffff021916908373ffffffffffffffffffffffffffffffffffffffff1602179055506040820151816002019080519060200190610e819291906125b6565b506060820151816003019080519060200190610e9e9291906125b6565b506080820151816004019080519060200190610ebb9291906125b6565b505050507f61487ae7fac5961d9d437176b1ce54a4974bdfd833fb203ccece47b30808697133848484604051610ef49493929190612d57565b60405180910390a1505050565b60008090505b60038054905081101561102157610fd460038281548110610f2457fe5b90600052602060002090600302016001018054600181600116156101000203166002900480601f016020809104026020016040519081016040528092919081815260200182805460018160011615610100020316600290048015610fc95780601f10610f9e57610100808354040283529160200191610fc9565b820191906000526020600020905b815481529060010190602001808311610fac57829003601f168201915b505050505084611c24565b15611014576040517f08c379a000000000000000000000000000000000000000000000000000000000815260040161100b9061307a565b60405180910390fd5b8080600101915050610f07565b50600360405180606001604052803373ffffffffffffffffffffffffffffffffffffffff168152602001848152602001838152509080600181540180825580915050906001820390600052602060002090600302016000909192909190915060008201518160000160006101000a81548173ffffffffffffffffffffffffffffffffffffffff021916908373ffffffffffffffffffffffffffffffffffffffff16021790555060208201518160010190805190602001906110e39291906125b6565b5060408201518160020190805190602001906111009291906125b6565b505050507f117e6f249d6362fc177ab883601ab259c396baf77890be9f74de8837d64f768533838360405161113793929190612dbd565b60405180910390a15050565b600083511161115157600080fd5b600082511161115f57600080fd5b3373ffffffffffffffffffffffffffffffffffffffff168173ffffffffffffffffffffffffffffffffffffffff1614156111ce576040517f08c379a00000000000000000000000000000000000000000000000000000000081526004016111c59061303a565b60405180910390fd5b6000808273ffffffffffffffffffffffffffffffffffffffff1673ffffffffffffffffffffffffffffffffffffffff16815260200190815260200160002060405180606001604052803373ffffffffffffffffffffffffffffffffffffffff168152602001858152602001848152509080600181540180825580915050906001820390600052602060002090600302016000909192909190915060008201518160000160006101000a81548173ffffffffffffffffffffffffffffffffffffffff021916908373ffffffffffffffffffffffffffffffffffffffff16021790555060208201518160010190805190602001906112cb9291906125b6565b5060408201518160020190805190602001906112e89291906125b6565b505050507f95991b659d1dfa1262d929693d81c4c5b6855d5628c8737e9404f460d1a3678d838383336040516113219493929190612fa7565b60405180910390a1505050565b3373ffffffffffffffffffffffffffffffffffffffff168373ffffffffffffffffffffffffffffffffffffffff16141561139d576040517f08c379a00000000000000000000000000000000000000000000000000000000081526004016113949061301a565b60405180910390fd5b60008251116113ab57600080fd5b60008090505b600160003373ffffffffffffffffffffffffffffffffffffffff1673ffffffffffffffffffffffffffffffffffffffff1681526020019081526020016000208054905081101561162d576114f8600160003373ffffffffffffffffffffffffffffffffffffffff1673ffffffffffffffffffffffffffffffffffffffff168152602001908152602001600020828154811061144857fe5b90600052602060002090600502016002018054600181600116156101000203166002900480601f0160208091040260200160405190810160405280929190818152602001828054600181600116156101000203166002900480156114ed5780601f106114c2576101008083540402835291602001916114ed565b820191906000526020600020905b8154815290600101906020018083116114d057829003601f168201915b505050505084611c24565b80156115aa57508373ffffffffffffffffffffffffffffffffffffffff16600160003373ffffffffffffffffffffffffffffffffffffffff1673ffffffffffffffffffffffffffffffffffffffff168152602001908152602001600020828154811061156057fe5b906000526020600020906005020160000160009054906101000a900473ffffffffffffffffffffffffffffffffffffffff1673ffffffffffffffffffffffffffffffffffffffff16145b156116205781600160003373ffffffffffffffffffffffffffffffffffffffff1673ffffffffffffffffffffffffffffffffffffffff16815260200190815260200160002082815481106115fa57fe5b9060005260206000209060050201600401908051906020019061161e929190612636565b505b80806001019150506113b1565b5060008090505b600260008573ffffffffffffffffffffffffffffffffffffffff1673ffffffffffffffffffffffffffffffffffffffff168152602001908152602001600020805490508110156118b05761177b600260008673ffffffffffffffffffffffffffffffffffffffff1673ffffffffffffffffffffffffffffffffffffffff16815260200190815260200160002082815481106116cb57fe5b90600052602060002090600502016002018054600181600116156101000203166002900480601f0160208091040260200160405190810160405280929190818152602001828054600181600116156101000203166002900480156117705780601f1061174557610100808354040283529160200191611770565b820191906000526020600020905b81548152906001019060200180831161175357829003601f168201915b505050505084611c24565b801561182d57503373ffffffffffffffffffffffffffffffffffffffff16600260008673ffffffffffffffffffffffffffffffffffffffff1673ffffffffffffffffffffffffffffffffffffffff16815260200190815260200160002082815481106117e357fe5b906000526020600020906005020160010160009054906101000a900473ffffffffffffffffffffffffffffffffffffffff1673ffffffffffffffffffffffffffffffffffffffff16145b156118a35781600260008673ffffffffffffffffffffffffffffffffffffffff1673ffffffffffffffffffffffffffffffffffffffff168152602001908152602001600020828154811061187d57fe5b906000526020600020906005020160040190805190602001906118a1929190612636565b505b8080600101915050611634565b507f0b4e4df4afc4a667d4bd2de7b8ca16553bf5be65540a76af50ec67db7fe40e89833384846040516118e69493929190612e02565b60405180910390a1505050565b6060806060600060038054905090506060816040519080825280602002602001820160405280156119335781602001602082028038833980820191505090505b50905060608260405190808252806020026020018201604052801561196c57816020015b60608152602001906001900390816119575790505b5090506060836040519080825280602002602001820160405280156119a557816020015b60608152602001906001900390816119905790505b50905060008090505b84811015611c11576119be612524565b600382815481106119cb57fe5b90600052602060002090600302016040518060600160405290816000820160009054906101000a900473ffffffffffffffffffffffffffffffffffffffff1673ffffffffffffffffffffffffffffffffffffffff1673ffffffffffffffffffffffffffffffffffffffff168152602001600182018054600181600116156101000203166002900480601f016020809104026020016040519081016040528092919081815260200182805460018160011615610100020316600290048015611ad35780601f10611aa857610100808354040283529160200191611ad3565b820191906000526020600020905b815481529060010190602001808311611ab657829003601f168201915b50505050508152602001600282018054600181600116156101000203166002900480601f016020809104026020016040519081016040528092919081815260200182805460018160011615610100020316600290048015611b755780601f10611b4a57610100808354040283529160200191611b75565b820191906000526020600020905b815481529060010190602001808311611b5857829003601f168201915b50505050508152505090508060000151858381518110611b9157fe5b602002602001019073ffffffffffffffffffffffffffffffffffffffff16908173ffffffffffffffffffffffffffffffffffffffff16815250508060200151848381518110611bdc57fe5b60200260200101819052508060400151838381518110611bf857fe5b60200260200101819052505080806001019150506119ae565b5082828296509650965050505050909192565b600081604051602001611c379190612d40565b6040516020818303038152906040528051906020012083604051602001611c5e9190612d40565b6040516020818303038152906040528051906020012014905092915050565b606080606060008060003373ffffffffffffffffffffffffffffffffffffffff1673ffffffffffffffffffffffffffffffffffffffff168152602001908152602001600020805490509050606081604051908082528060200260200182016040528015611cf95781602001602082028038833980820191505090505b509050606082604051908082528060200260200182016040528015611d3257816020015b6060815260200190600190039081611d1d5790505b509050606083604051908082528060200260200182016040528015611d6b57816020015b6060815260200190600190039081611d565790505b50905060008090505b8481101561201357611d84612524565b6000803373ffffffffffffffffffffffffffffffffffffffff1673ffffffffffffffffffffffffffffffffffffffff1681526020019081526020016000208281548110611dcd57fe5b90600052602060002090600302016040518060600160405290816000820160009054906101000a900473ffffffffffffffffffffffffffffffffffffffff1673ffffffffffffffffffffffffffffffffffffffff1673ffffffffffffffffffffffffffffffffffffffff168152602001600182018054600181600116156101000203166002900480601f016020809104026020016040519081016040528092919081815260200182805460018160011615610100020316600290048015611ed55780601f10611eaa57610100808354040283529160200191611ed5565b820191906000526020600020905b815481529060010190602001808311611eb857829003601f168201915b50505050508152602001600282018054600181600116156101000203166002900480601f016020809104026020016040519081016040528092919081815260200182805460018160011615610100020316600290048015611f775780601f10611f4c57610100808354040283529160200191611f77565b820191906000526020600020905b815481529060010190602001808311611f5a57829003601f168201915b50505050508152505090508060000151858381518110611f9357fe5b602002602001019073ffffffffffffffffffffffffffffffffffffffff16908173ffffffffffffffffffffffffffffffffffffffff16815250508060200151848381518110611fde57fe5b60200260200101819052508060400151838381518110611ffa57fe5b6020026020010181905250508080600101915050611d74565b5082828296509650965050505050909192565b6060806060806000600260003373ffffffffffffffffffffffffffffffffffffffff1673ffffffffffffffffffffffffffffffffffffffff1681526020019081526020016000208054905090506060816040519080825280602002602001820160405280156120a45781602001602082028038833980820191505090505b5090506060826040519080825280602002602001820160405280156120dd57816020015b60608152602001906001900390816120c85790505b50905060608360405190808252806020026020018201604052801561211657816020015b60608152602001906001900390816121015790505b50905060608460405190808252806020026020018201604052801561214f57816020015b606081526020019060019003908161213a5790505b50905060008090505b8581101561250c5761216861255b565b600260003373ffffffffffffffffffffffffffffffffffffffff1673ffffffffffffffffffffffffffffffffffffffff16815260200190815260200160002082815481106121b257fe5b90600052602060002090600502016040518060a00160405290816000820160009054906101000a900473ffffffffffffffffffffffffffffffffffffffff1673ffffffffffffffffffffffffffffffffffffffff1673ffffffffffffffffffffffffffffffffffffffff1681526020016001820160009054906101000a900473ffffffffffffffffffffffffffffffffffffffff1673ffffffffffffffffffffffffffffffffffffffff1673ffffffffffffffffffffffffffffffffffffffff168152602001600282018054600181600116156101000203166002900480601f0160208091040260200160405190810160405280929190818152602001828054600181600116156101000203166002900480156123105780601f106122e557610100808354040283529160200191612310565b820191906000526020600020905b8154815290600101906020018083116122f357829003601f168201915b50505050508152602001600382018054600181600116156101000203166002900480601f0160208091040260200160405190810160405280929190818152602001828054600181600116156101000203166002900480156123b25780601f10612387576101008083540402835291602001916123b2565b820191906000526020600020905b81548152906001019060200180831161239557829003601f168201915b50505050508152602001600482018054600181600116156101000203166002900480601f0160208091040260200160405190810160405280929190818152602001828054600181600116156101000203166002900480156124545780601f1061242957610100808354040283529160200191612454565b820191906000526020600020905b81548152906001019060200180831161243757829003601f168201915b5050505050815250509050806020015186838151811061247057fe5b602002602001019073ffffffffffffffffffffffffffffffffffffffff16908173ffffffffffffffffffffffffffffffffffffffff168152505080604001518583815181106124bb57fe5b602002602001018190525080606001518483815181106124d757fe5b602002602001018190525080608001518383815181106124f357fe5b6020026020010181905250508080600101915050612158565b50838383839850985098509850505050505090919293565b6040518060600160405280600073ffffffffffffffffffffffffffffffffffffffff16815260200160608152602001606081525090565b6040518060a00160405280600073ffffffffffffffffffffffffffffffffffffffff168152602001600073ffffffffffffffffffffffffffffffffffffffff1681526020016060815260200160608152602001606081525090565b828054600181600116156101000203166002900490600052602060002090601f016020900481019282601f106125f757805160ff1916838001178555612625565b82800160010185558215612625579182015b82811115612624578251825591602001919060010190612609565b5b50905061263291906126b6565b5090565b828054600181600116156101000203166002900490600052602060002090601f016020900481019282601f1061267757805160ff19168380011785556126a5565b828001600101855582156126a5579182015b828111156126a4578251825591602001919060010190612689565b5b5090506126b291906126b6565b5090565b6126d891905b808211156126d45760008160009055506001016126bc565b5090565b90565b6000813590506126ea81613294565b92915050565b600082601f83011261270157600080fd5b813561271461270f826130e2565b6130b5565b9150808252602083016020830185838301111561273057600080fd5b61273b838284613241565b50505092915050565b60008060006060848603121561275957600080fd5b6000612767868287016126db565b935050602084013567ffffffffffffffff81111561278457600080fd5b612790868287016126f0565b925050604084013567ffffffffffffffff8111156127ad57600080fd5b6127b9868287016126f0565b9150509250925092565b600080604083850312156127d657600080fd5b600083013567ffffffffffffffff8111156127f057600080fd5b6127fc858286016126f0565b925050602061280d858286016126db565b9150509250929050565b6000806040838503121561282a57600080fd5b600083013567ffffffffffffffff81111561284457600080fd5b612850858286016126f0565b925050602083013567ffffffffffffffff81111561286d57600080fd5b612879858286016126f0565b9150509250929050565b60008060006060848603121561289857600080fd5b600084013567ffffffffffffffff8111156128b257600080fd5b6128be868287016126f0565b935050602084013567ffffffffffffffff8111156128db57600080fd5b6128e7868287016126f0565b92505060406128f8868287016126db565b9150509250925092565b600061290e838361293d565b60208301905092915050565b60006129268383612aa7565b905092915050565b6129378161320b565b82525050565b612946816131c3565b82525050565b612955816131c3565b82525050565b60006129668261312e565b6129708185613174565b935061297b8361310e565b8060005b838110156129ac5781516129938882612902565b975061299e8361315a565b92505060018101905061297f565b5085935050505092915050565b60006129c482613139565b6129ce8185613185565b9350836020820285016129e08561311e565b8060005b85811015612a1c57848403895281516129fd858261291a565b9450612a0883613167565b925060208a019950506001810190506129e4565b50829750879550505050505092915050565b612a37816131d5565b82525050565b6000612a488261314f565b612a5281856131a7565b9350612a62818560208601613250565b612a6b81613283565b840191505092915050565b6000612a818261314f565b612a8b81856131b8565b9350612a9b818560208601613250565b80840191505092915050565b6000612ab282613144565b612abc8185613196565b9350612acc818560208601613250565b612ad581613283565b840191505092915050565b6000612aeb82613144565b612af581856131a7565b9350612b05818560208601613250565b612b0e81613283565b840191505092915050565b6000612b266009836131a7565b91507f52657175657374656400000000000000000000000000000000000000000000006000830152602082019050919050565b6000612b666025836131a7565b91507f5573657220646f6573206e6f7420686176652073706563696669656420646f6360008301527f756d656e740000000000000000000000000000000000000000000000000000006020830152604082019050919050565b6000612bcc6025836131a7565b91507f56657269666965722063616e6e6f74207570646174652072657175657374207360008301527f74617475730000000000000000000000000000000000000000000000000000006020830152604082019050919050565b6000612c326026836131a7565b91507f596f752063616e6e6f7420697373756520646f63756d656e7420666f7220796f60008301527f757273656c6600000000000000000000000000000000000000000000000000006020830152604082019050919050565b6000612c986028836131a7565b91507f43616e6e6f74207265717565737420766572696669636174696f6e20666f722060008301527f796f757273656c660000000000000000000000000000000000000000000000006020830152604082019050919050565b6000612cfe6017836131a7565b91507f54656d706c61746520616c7265616479206578697374730000000000000000006000830152602082019050919050565b612d3a81613201565b82525050565b6000612d4c8284612a76565b915081905092915050565b600060a082019050612d6c600083018761292e565b612d79602083018661294c565b8181036040830152612d8b8185612a3d565b90508181036060830152612d9f8184612a3d565b90508181036080830152612db281612b19565b905095945050505050565b6000606082019050612dd2600083018661292e565b8181036020830152612de48185612a3d565b90508181036040830152612df88184612a3d565b9050949350505050565b6000608082019050612e17600083018761294c565b612e24602083018661292e565b8181036040830152612e368185612a3d565b90508181036060830152612e4a8184612a3d565b905095945050505050565b6000606082019050612e6a600083018661294c565b8181036020830152612e7c8185612a3d565b90508181036040830152612e908184612a3d565b9050949350505050565b6000606082019050612eaf600083018661294c565b8181036020830152612ec18185612ae0565b90508181036040830152612ed58184612ae0565b9050949350505050565b60006060820190508181036000830152612ef9818661295b565b90508181036020830152612f0d81856129b9565b90508181036040830152612f2181846129b9565b9050949350505050565b60006080820190508181036000830152612f45818761295b565b90508181036020830152612f5981866129b9565b90508181036040830152612f6d81856129b9565b90508181036060830152612f8181846129b9565b905095945050505050565b6000602082019050612fa16000830184612a2e565b92915050565b60006080820190508181036000830152612fc18187612a3d565b90508181036020830152612fd58186612a3d565b9050612fe4604083018561294c565b612ff1606083018461292e565b95945050505050565b6000602082019050818103600083015261301381612b59565b9050919050565b6000602082019050818103600083015261303381612bbf565b9050919050565b6000602082019050818103600083015261305381612c25565b9050919050565b6000602082019050818103600083015261307381612c8b565b9050919050565b6000602082019050818103600083015261309381612cf1565b9050919050565b60006020820190506130af6000830184612d31565b92915050565b6000604051905081810181811067ffffffffffffffff821117156130d857600080fd5b8060405250919050565b600067ffffffffffffffff8211156130f957600080fd5b601f19601f8301169050602081019050919050565b6000819050602082019050919050565b6000819050602082019050919050565b600081519050919050565b600081519050919050565b600081519050919050565b600081519050919050565b6000602082019050919050565b6000602082019050919050565b600082825260208201905092915050565b600082825260208201905092915050565b600082825260208201905092915050565b600082825260208201905092915050565b600081905092915050565b60006131ce826131e1565b9050919050565b60008115159050919050565b600073ffffffffffffffffffffffffffffffffffffffff82169050919050565b6000819050919050565b60006132168261321d565b9050919050565b60006132288261322f565b9050919050565b600061323a826131e1565b9050919050565b82818337600083830152505050565b60005b8381101561326e578082015181840152602081019050613253565b8381111561327d576000848401525b50505050565b6000601f19601f8301169050919050565b61329d816131c3565b81146132a857600080fd5b5056fea365627a7a7231582035bf60792c13d3c358fa3bedd753f4dbb897cdc14c335549cfbee3f86dfee1776c6578706572696d656e74616cf564736f6c63430005100040",
  "source": "// SPDX-License-Identifier: MIT\r\npragma solidity >=0.4.21 <0.7.0;\r\npragma experimental ABIEncoderV2;\r\n\r\ncontract IdentityManager {\r\n\r\n  struct Document {\r\n    address issuer;\r\n    string name;\r\n    string data;\r\n  }\r\n\r\n  struct Request {\r\n    address requestor;\r\n    address owner;\r\n    string docName;\r\n    string properties;\r\n    string status;\r\n  }\r\n\r\n  mapping(address => Document[]) identities;\r\n  mapping(address => Request[]) ownerRequests;\r\n  mapping(address => Request[]) verifierRequests;\r\n  Document[] templates;\r\n\r\n  event DocumentIssued (\r\n    string name,\r\n    string data,\r\n    address owner,\r\n    address issuer\r\n  );\r\n\r\n  event DocumentRetrived (\r\n    address issuer,\r\n    string name,\r\n    string data\r\n  );\r\n\r\n  event TemplateCreated (\r\n    address issuer,\r\n    string name,\r\n    string data\r\n  );\r\n\r\n  event RequestGenerated (\r\n    address verifier,\r\n    address owner,\r\n    string docName,\r\n    string properties,\r\n    string status\r\n  );\r\n\r\n  event RequestStatusUpdated (\r\n    address verifier,\r\n    address owner,\r\n    string docName,\r\n    string status\r\n  );\r\n\r\n  function issueDocument(string memory _name, string memory _data, address _owner) public {\r\n    require(bytes(_name).length > 0);\r\n    require(bytes(_data).length > 0);\r\n    require(_owner != msg.sender, 'You cannot issue document for yourself');\r\n\r\n    identities[_owner].push(Document(msg.sender, _name, _data));\r\n    emit DocumentIssued(_name, _data, _owner, msg.sender);\r\n  }\r\n\r\n  function createTemplate(string memory _name, string memory _data) public {\r\n    for (uint256 index = 0; index < templates.length; index++) {\r\n      if (compareStringsbyBytes(templates[index].name, _name)) {\r\n        revert('Template already exists');\r\n      }\r\n    }\r\n    templates.push(Document(msg.sender, _name, _data));\r\n    emit TemplateCreated(msg.sender, _name, _data);\r\n  }\r\n\r\n  function getTemplates() view public returns(address[] memory, string[] memory, string[] memory) {\r\n    uint _templateCount = templates.length;\r\n    address[] memory _issuer = new address[](_templateCount);\r\n    string[] memory _name = new string[](_templateCount);\r\n    string[] memory _data = new string[](_templateCount);\r\n\r\n    for (uint256 index = 0; index < _templateCount; index++) {\r\n      Document memory _tempCopy = templates[index];\r\n      _issuer[index] = _tempCopy.issuer;\r\n      _name[index] = _tempCopy.name;\r\n      _data[index] = _tempCopy.data;\r\n    }\r\n\r\n    return (_issuer, _name, _data);\r\n  }\r\n\r\n  function getDocuments() view public returns(address[] memory, string[] memory, string[] memory) {\r\n    uint _documentCount = identities[msg.sender].length;\r\n    address[] memory _issuer = new address[](_documentCount);\r\n    string[] memory _name = new string[](_documentCount);\r\n    string[] memory _data = new string[](_documentCount);\r\n\r\n    for (uint256 index = 0; index < _documentCount; index++) {\r\n      Document memory _docCopy = identities[msg.sender][index];\r\n      _issuer[index] = _docCopy.issuer;\r\n      _name[index] = _docCopy.name;\r\n      _data[index] = _docCopy.data;\r\n    }\r\n\r\n    return (_issuer, _name, _data);\r\n  }\r\n\r\n  function getDocument(string memory _name, address _owner) public returns(address, string memory, string memory) {\r\n    for (uint256 index = 0; index < identities[_owner].length; index++) {\r\n      Document memory _docCopy = identities[_owner][index];\r\n      if (compareStringsbyBytes(_name, _docCopy.name)) {\r\n        emit DocumentRetrived(_docCopy.issuer, _docCopy.name, _docCopy.data);\r\n        return (_docCopy.issuer, _docCopy.name, _docCopy.data);\r\n      } else {\r\n        revert('User does not have specified document');\r\n      }\r\n    }\r\n  }\r\n\r\n  function getDocumentCount() view public returns(uint) {\r\n    return identities[msg.sender].length;\r\n  }\r\n\r\n  function requestVerification(address _owner, string memory _docName, string memory _properties) public {\r\n    require(msg.sender != _owner, 'Cannot request verification for yourself');\r\n    require(bytes(_docName).length > 0);\r\n    require(bytes(_properties).length > 0);\r\n\r\n    ownerRequests[_owner].push(Request(msg.sender, _owner, _docName, _properties, 'Requested'));\r\n    verifierRequests[msg.sender].push(Request(msg.sender, _owner, _docName, _properties, 'Requested'));\r\n    emit RequestGenerated(msg.sender, _owner, _docName, _properties, 'Requested');\r\n  }\r\n\r\n  function updateRequestStatus(address _verifier, string memory _docName, string memory _newStatus) public {\r\n    require(_verifier != msg.sender, 'Verifier cannot update request status');\r\n    require(bytes(_docName).length > 0);\r\n\r\n    for (uint256 index = 0; index < ownerRequests[msg.sender].length; index++) {\r\n      if (compareStringsbyBytes(ownerRequests[msg.sender][index].docName, _docName) && ownerRequests[msg.sender][index].requestor == _verifier) {\r\n        ownerRequests[msg.sender][index].status = _newStatus;\r\n      }\r\n    }\r\n\r\n    for (uint256 index = 0; index < verifierRequests[_verifier].length; index++) {\r\n      if (compareStringsbyBytes(verifierRequests[_verifier][index].docName, _docName) && verifierRequests[_verifier][index].owner == msg.sender) {\r\n        verifierRequests[_verifier][index].status = _newStatus;\r\n      }\r\n    }\r\n\r\n    emit RequestStatusUpdated(_verifier, msg.sender, _docName, _newStatus);\r\n  }\r\n\r\n  function getOwnerRequests() view public returns(address[] memory, string[] memory, string[] memory, string[] memory) {\r\n    uint _reqCount = ownerRequests[msg.sender].length;\r\n    address[] memory _requestor = new address[](_reqCount);\r\n    string[] memory _docName = new string[](_reqCount);\r\n    string[] memory _properties = new string[](_reqCount);\r\n    string[] memory _status = new string[](_reqCount);\r\n\r\n    for (uint256 index = 0; index < _reqCount; index++) {\r\n      Request memory _reqCopy = ownerRequests[msg.sender][index];\r\n      _requestor[index] = _reqCopy.requestor;\r\n      _docName[index] = _reqCopy.docName;\r\n      _properties[index] = _reqCopy.properties;\r\n      _status[index] = _reqCopy.status;\r\n    }\r\n\r\n    return (_requestor, _docName, _properties, _status);\r\n  }\r\n\r\n  function getVerifierRequests() view public returns(address[] memory, string[] memory, string[] memory, string[] memory) {\r\n    uint _reqCount = verifierRequests[msg.sender].length;\r\n    address[] memory _owner = new address[](_reqCount);\r\n    string[] memory _docName = new string[](_reqCount);\r\n    string[] memory _properties = new string[](_reqCount);\r\n    string[] memory _status = new string[](_reqCount);\r\n\r\n    for (uint256 index = 0; index < _reqCount; index++) {\r\n      Request memory _reqCopy = verifierRequests[msg.sender][index];\r\n      _owner[index] = _reqCopy.owner;\r\n      _docName[index] = _reqCopy.docName;\r\n      _properties[index] = _reqCopy.properties;\r\n      _status[index] = _reqCopy.status;\r\n    }\r\n\r\n    return (_owner, _docName, _properties, _status);\r\n  }\r\n\r\n  function compareStringsbyBytes(string memory s1, string memory s2) public pure returns(bool) {\r\n    return keccak256(abi.encodePacked(s1)) == keccak256(abi.encodePacked(s2));\r\n  }\r\n}",
  "sourcePath": "C:/Users/Chaitanya/Documents/Academics/Projects/UniversalIMS/contracts/IdentityManager.sol",
  "compiler": {
    "name": "solc",
    "version": "0.5.16+commit.9c3226ce.Emscripten.clang"
  },
  "schemaVersion": "3.3.4",
  "updatedAt": "2021-03-09T06:56:37.760Z",
  "networkType": "ethereum",
  "devdoc": {
    "methods": {}
  },
  "userdoc": {
    "methods": {}
  }
}