{
  "contractName": "IdentityManager",
  "abi": [
    {
      "anonymous": false,
      "inputs": [
        {
          "indexed": false,
          "internalType": "address",
          "name": "owner",
          "type": "address"
        },
        {
          "indexed": false,
          "internalType": "address",
          "name": "issuer",
          "type": "address"
        }
      ],
      "name": "DocumentIssued",
      "type": "event"
    },
    {
      "anonymous": false,
      "inputs": [
        {
          "indexed": false,
          "internalType": "address",
          "name": "verifier",
          "type": "address"
        },
        {
          "indexed": false,
          "internalType": "address",
          "name": "owner",
          "type": "address"
        }
      ],
      "name": "RequestGenerated",
      "type": "event"
    },
    {
      "anonymous": false,
      "inputs": [
        {
          "indexed": false,
          "internalType": "address",
          "name": "verifier",
          "type": "address"
        },
        {
          "indexed": false,
          "internalType": "address",
          "name": "owner",
          "type": "address"
        }
      ],
      "name": "RequestStatusUpdated",
      "type": "event"
    },
    {
      "anonymous": false,
      "inputs": [
        {
          "indexed": false,
          "internalType": "address",
          "name": "issuer",
          "type": "address"
        },
        {
          "indexed": false,
          "internalType": "string",
          "name": "name",
          "type": "string"
        }
      ],
      "name": "TemplateCreated",
      "type": "event"
    },
    {
      "anonymous": false,
      "inputs": [
        {
          "indexed": false,
          "internalType": "string",
          "name": "status",
          "type": "string"
        },
        {
          "indexed": false,
          "internalType": "string",
          "name": "message",
          "type": "string"
        },
        {
          "indexed": false,
          "internalType": "address",
          "name": "user",
          "type": "address"
        }
      ],
      "name": "UserAuthenticated",
      "type": "event"
    },
    {
      "constant": false,
      "inputs": [
        {
          "internalType": "string",
          "name": "_entity",
          "type": "string"
        },
        {
          "internalType": "string",
          "name": "_username",
          "type": "string"
        }
      ],
      "name": "login",
      "outputs": [
        {
          "internalType": "bool",
          "name": "",
          "type": "bool"
        }
      ],
      "payable": false,
      "stateMutability": "nonpayable",
      "type": "function"
    },
    {
      "constant": false,
      "inputs": [
        {
          "internalType": "string",
          "name": "_encryptionPublicKey",
          "type": "string"
        },
        {
          "internalType": "string",
          "name": "_entity",
          "type": "string"
        },
        {
          "internalType": "string",
          "name": "_username",
          "type": "string"
        }
      ],
      "name": "register",
      "outputs": [],
      "payable": false,
      "stateMutability": "nonpayable",
      "type": "function"
    },
    {
      "constant": false,
      "inputs": [
        {
          "internalType": "string",
          "name": "_name",
          "type": "string"
        },
        {
          "internalType": "bytes",
          "name": "_data",
          "type": "bytes"
        },
        {
          "internalType": "string",
          "name": "_templateData",
          "type": "string"
        },
        {
          "internalType": "address",
          "name": "_owner",
          "type": "address"
        }
      ],
      "name": "issueDocument",
      "outputs": [],
      "payable": false,
      "stateMutability": "nonpayable",
      "type": "function"
    },
    {
      "constant": true,
      "inputs": [],
      "name": "getTemplates",
      "outputs": [
        {
          "internalType": "address[]",
          "name": "",
          "type": "address[]"
        },
        {
          "internalType": "string[]",
          "name": "",
          "type": "string[]"
        },
        {
          "internalType": "string[]",
          "name": "",
          "type": "string[]"
        }
      ],
      "payable": false,
      "stateMutability": "view",
      "type": "function"
    },
    {
      "constant": true,
      "inputs": [],
      "name": "getDocuments",
      "outputs": [
        {
          "internalType": "address[]",
          "name": "",
          "type": "address[]"
        },
        {
          "internalType": "string[]",
          "name": "",
          "type": "string[]"
        },
        {
          "internalType": "bytes[]",
          "name": "",
          "type": "bytes[]"
        }
      ],
      "payable": false,
      "stateMutability": "view",
      "type": "function"
    },
    {
      "constant": true,
      "inputs": [
        {
          "internalType": "string",
          "name": "_name",
          "type": "string"
        }
      ],
      "name": "getDocument",
      "outputs": [
        {
          "internalType": "address",
          "name": "",
          "type": "address"
        },
        {
          "internalType": "string",
          "name": "",
          "type": "string"
        },
        {
          "internalType": "bytes",
          "name": "",
          "type": "bytes"
        }
      ],
      "payable": false,
      "stateMutability": "view",
      "type": "function"
    },
    {
      "constant": true,
      "inputs": [],
      "name": "getDocumentCount",
      "outputs": [
        {
          "internalType": "uint256",
          "name": "",
          "type": "uint256"
        }
      ],
      "payable": false,
      "stateMutability": "view",
      "type": "function"
    },
    {
      "constant": false,
      "inputs": [
        {
          "internalType": "address",
          "name": "_owner",
          "type": "address"
        },
        {
          "internalType": "string",
          "name": "_docName",
          "type": "string"
        },
        {
          "internalType": "bytes",
          "name": "_propertiesOwner",
          "type": "bytes"
        },
        {
          "internalType": "bytes",
          "name": "_propertiesVerifier",
          "type": "bytes"
        }
      ],
      "name": "requestVerification",
      "outputs": [],
      "payable": false,
      "stateMutability": "nonpayable",
      "type": "function"
    },
    {
      "constant": false,
      "inputs": [
        {
          "internalType": "address",
          "name": "_verifier",
          "type": "address"
        },
        {
          "internalType": "string",
          "name": "_docName",
          "type": "string"
        },
        {
          "internalType": "string",
          "name": "_newStatus",
          "type": "string"
        },
        {
          "internalType": "bytes",
          "name": "_properties",
          "type": "bytes"
        }
      ],
      "name": "updateRequestStatus",
      "outputs": [],
      "payable": false,
      "stateMutability": "nonpayable",
      "type": "function"
    },
    {
      "constant": true,
      "inputs": [],
      "name": "getOwnerRequests",
      "outputs": [
        {
          "internalType": "address[]",
          "name": "",
          "type": "address[]"
        },
        {
          "internalType": "string[]",
          "name": "",
          "type": "string[]"
        },
        {
          "internalType": "bytes[]",
          "name": "",
          "type": "bytes[]"
        },
        {
          "internalType": "string[]",
          "name": "",
          "type": "string[]"
        }
      ],
      "payable": false,
      "stateMutability": "view",
      "type": "function"
    },
    {
      "constant": true,
      "inputs": [],
      "name": "getVerifierRequests",
      "outputs": [
        {
          "internalType": "address[]",
          "name": "",
          "type": "address[]"
        },
        {
          "internalType": "string[]",
          "name": "",
          "type": "string[]"
        },
        {
          "internalType": "bytes[]",
          "name": "",
          "type": "bytes[]"
        },
        {
          "internalType": "string[]",
          "name": "",
          "type": "string[]"
        }
      ],
      "payable": false,
      "stateMutability": "view",
      "type": "function"
    },
    {
      "constant": true,
      "inputs": [
        {
          "internalType": "address",
          "name": "_owner",
          "type": "address"
        }
      ],
      "name": "getEncryptionPublicKey",
      "outputs": [
        {
          "internalType": "string",
          "name": "",
          "type": "string"
        }
      ],
      "payable": false,
      "stateMutability": "view",
      "type": "function"
    },
    {
      "constant": true,
      "inputs": [
        {
          "internalType": "string",
          "name": "s1",
          "type": "string"
        },
        {
          "internalType": "string",
          "name": "s2",
          "type": "string"
        }
      ],
      "name": "compareStringsbyBytes",
      "outputs": [
        {
          "internalType": "bool",
          "name": "",
          "type": "bool"
        }
      ],
      "payable": false,
      "stateMutability": "pure",
      "type": "function"
    }
  ],
  "bytecode": "0x608060405234801561001057600080fd5b50614ef0806100206000396000f3fe608060405234801561001057600080fd5b50600436106100cf5760003560e01c80637ccb6a641161008c578063e64ae11911610066578063e64ae11914610215578063e9a734ff14610235578063ef2d870014610265578063f879a78214610285576100cf565b80637ccb6a64146101975780637d9f7b19146101c95780639251c551146101f9576100cf565b8063283dd002146100d45780632d46b0ad146100f05780633d1c2273146101115780634cd08d031461012f57806358467dbc1461014b5780636d750cfd1461017b575b600080fd5b6100ee60048036036100e99190810190613dde565b6102a6565b005b6100f8610993565b60405161010894939291906148ac565b60405180910390f35b610119610e91565b6040516101269190614bff565b60405180910390f35b61014960048036036101449190810190613fe1565b610edb565b005b61016560048036036101609190810190613f75565b611917565b6040516101729190614959565b60405180910390f35b61019560048036036101909190810190613d33565b611ea7565b005b6101b160048036036101ac9190810190613e89565b612580565b6040516101c09392919061481b565b60405180910390f35b6101e360048036036101de9190810190613d0a565b612862565b6040516101f09190614974565b60405180910390f35b610213600480360361020e9190810190613eca565b61297f565b005b61021d612b73565b60405161022c9392919061490d565b60405180910390f35b61024f600480360361024a9190810190613f75565b612ea4565b60405161025c9190614959565b60405180910390f35b61026d612efd565b60405161027c93929190614860565b60405180910390f35b61028d6132a8565b60405161029d94939291906148ac565b60405180910390f35b3373ffffffffffffffffffffffffffffffffffffffff168473ffffffffffffffffffffffffffffffffffffffff161415610315576040517f08c379a000000000000000000000000000000000000000000000000000000000815260040161030c90614b7f565b60405180910390fd5b600083511161032357600080fd5b60008090505b600360003373ffffffffffffffffffffffffffffffffffffffff1673ffffffffffffffffffffffffffffffffffffffff168152602001908152602001600020805490508110156105a957610470600360003373ffffffffffffffffffffffffffffffffffffffff1673ffffffffffffffffffffffffffffffffffffffff16815260200190815260200160002082815481106103c057fe5b90600052602060002090600502016002018054600181600116156101000203166002900480601f0160208091040260200160405190810160405280929190818152602001828054600181600116156101000203166002900480156104655780601f1061043a57610100808354040283529160200191610465565b820191906000526020600020905b81548152906001019060200180831161044857829003601f168201915b505050505085612ea4565b801561052257508473ffffffffffffffffffffffffffffffffffffffff16600360003373ffffffffffffffffffffffffffffffffffffffff1673ffffffffffffffffffffffffffffffffffffffff16815260200190815260200160002082815481106104d857fe5b906000526020600020906005020160000160009054906101000a900473ffffffffffffffffffffffffffffffffffffffff1673ffffffffffffffffffffffffffffffffffffffff16145b1561059c5782600360003373ffffffffffffffffffffffffffffffffffffffff1673ffffffffffffffffffffffffffffffffffffffff168152602001908152602001600020828154811061057257fe5b906000526020600020906005020160040190805190602001906105969291906139df565b506105a9565b8080600101915050610329565b5060008090505b600460008673ffffffffffffffffffffffffffffffffffffffff1673ffffffffffffffffffffffffffffffffffffffff16815260200190815260200160002080549050811015610953576106f7600460008773ffffffffffffffffffffffffffffffffffffffff1673ffffffffffffffffffffffffffffffffffffffff168152602001908152602001600020828154811061064757fe5b90600052602060002090600502016002018054600181600116156101000203166002900480601f0160208091040260200160405190810160405280929190818152602001828054600181600116156101000203166002900480156106ec5780601f106106c1576101008083540402835291602001916106ec565b820191906000526020600020905b8154815290600101906020018083116106cf57829003601f168201915b505050505085612ea4565b80156107a957503373ffffffffffffffffffffffffffffffffffffffff16600460008773ffffffffffffffffffffffffffffffffffffffff1673ffffffffffffffffffffffffffffffffffffffff168152602001908152602001600020828154811061075f57fe5b906000526020600020906005020160010160009054906101000a900473ffffffffffffffffffffffffffffffffffffffff1673ffffffffffffffffffffffffffffffffffffffff16145b15610946576040518060a001604052808673ffffffffffffffffffffffffffffffffffffffff1681526020013373ffffffffffffffffffffffffffffffffffffffff16815260200185815260200183815260200184815250600460008773ffffffffffffffffffffffffffffffffffffffff1673ffffffffffffffffffffffffffffffffffffffff168152602001908152602001600020828154811061084b57fe5b906000526020600020906005020160008201518160000160006101000a81548173ffffffffffffffffffffffffffffffffffffffff021916908373ffffffffffffffffffffffffffffffffffffffff16021790555060208201518160010160006101000a81548173ffffffffffffffffffffffffffffffffffffffff021916908373ffffffffffffffffffffffffffffffffffffffff1602179055506040820151816002019080519060200190610903929190613a5f565b506060820151816003019080519060200190610920929190613adf565b50608082015181600401908051906020019061093d929190613a5f565b50905050610953565b80806001019150506105b0565b507f0f87084e9e023e28afc41d54287d43630b1231e5725088828624ad2ba6667eb984336040516109859291906147c2565b60405180910390a150505050565b6060806060806000600360003373ffffffffffffffffffffffffffffffffffffffff1673ffffffffffffffffffffffffffffffffffffffff168152602001908152602001600020805490509050606081604051908082528060200260200182016040528015610a115781602001602082028038833980820191505090505b509050606082604051908082528060200260200182016040528015610a4a57816020015b6060815260200190600190039081610a355790505b509050606083604051908082528060200260200182016040528015610a8357816020015b6060815260200190600190039081610a6e5790505b509050606084604051908082528060200260200182016040528015610abc57816020015b6060815260200190600190039081610aa75790505b50905060008090505b85811015610e7957610ad5613b5f565b600360003373ffffffffffffffffffffffffffffffffffffffff1673ffffffffffffffffffffffffffffffffffffffff1681526020019081526020016000208281548110610b1f57fe5b90600052602060002090600502016040518060a00160405290816000820160009054906101000a900473ffffffffffffffffffffffffffffffffffffffff1673ffffffffffffffffffffffffffffffffffffffff1673ffffffffffffffffffffffffffffffffffffffff1681526020016001820160009054906101000a900473ffffffffffffffffffffffffffffffffffffffff1673ffffffffffffffffffffffffffffffffffffffff1673ffffffffffffffffffffffffffffffffffffffff168152602001600282018054600181600116156101000203166002900480601f016020809104026020016040519081016040528092919081815260200182805460018160011615610100020316600290048015610c7d5780601f10610c5257610100808354040283529160200191610c7d565b820191906000526020600020905b815481529060010190602001808311610c6057829003601f168201915b50505050508152602001600382018054600181600116156101000203166002900480601f016020809104026020016040519081016040528092919081815260200182805460018160011615610100020316600290048015610d1f5780601f10610cf457610100808354040283529160200191610d1f565b820191906000526020600020905b815481529060010190602001808311610d0257829003601f168201915b50505050508152602001600482018054600181600116156101000203166002900480601f016020809104026020016040519081016040528092919081815260200182805460018160011615610100020316600290048015610dc15780601f10610d9657610100808354040283529160200191610dc1565b820191906000526020600020905b815481529060010190602001808311610da457829003601f168201915b50505050508152505090508060000151868381518110610ddd57fe5b602002602001019073ffffffffffffffffffffffffffffffffffffffff16908173ffffffffffffffffffffffffffffffffffffffff16815250508060400151858381518110610e2857fe5b60200260200101819052508060600151848381518110610e4457fe5b60200260200101819052508060800151838381518110610e6057fe5b6020026020010181905250508080600101915050610ac5565b50838383839850985098509850505050505090919293565b6000600260003373ffffffffffffffffffffffffffffffffffffffff1673ffffffffffffffffffffffffffffffffffffffff16815260200190815260200160002080549050905090565b6000835111610ee957600080fd5b6000825111610ef757600080fd5b6000815111610f0557600080fd5b610ff76000803373ffffffffffffffffffffffffffffffffffffffff1673ffffffffffffffffffffffffffffffffffffffff1681526020019081526020016000206000018054600181600116156101000203166002900480601f016020809104026020016040519081016040528092919081815260200182805460018160011615610100020316600290048015610fdd5780601f10610fb257610100808354040283529160200191610fdd565b820191906000526020600020905b815481529060010190602001808311610fc057829003601f168201915b505050505060405180602001604052806000815250612ea4565b80156110f157506110f06000803373ffffffffffffffffffffffffffffffffffffffff1673ffffffffffffffffffffffffffffffffffffffff1681526020019081526020016000206001018054600181600116156101000203166002900480601f0160208091040260200160405190810160405280929190818152602001828054600181600116156101000203166002900480156110d65780601f106110ab576101008083540402835291602001916110d6565b820191906000526020600020905b8154815290600101906020018083116110b957829003601f168201915b505050505060405180602001604052806000815250612ea4565b5b80156111675750600073ffffffffffffffffffffffffffffffffffffffff16600182604051611120919061475e565b908152602001604051809103902060009054906101000a900473ffffffffffffffffffffffffffffffffffffffff1673ffffffffffffffffffffffffffffffffffffffff16145b15611295576040518060400160405280848152602001838152506000803373ffffffffffffffffffffffffffffffffffffffff1673ffffffffffffffffffffffffffffffffffffffff16815260200190815260200160002060008201518160000190805190602001906111db929190613a5f565b5060208201518160010190805190602001906111f8929190613a5f565b509050503360018260405161120d919061475e565b908152602001604051809103902060006101000a81548173ffffffffffffffffffffffffffffffffffffffff021916908373ffffffffffffffffffffffffffffffffffffffff1602179055507feaf2470f48be1347a62e987fb10a00cbe8bd129122f18277b7064c2012cf10e2336040516112889190614b1e565b60405180910390a1611912565b6113876000803373ffffffffffffffffffffffffffffffffffffffff1673ffffffffffffffffffffffffffffffffffffffff1681526020019081526020016000206000018054600181600116156101000203166002900480601f01602080910402602001604051908101604052809291908181526020018280546001816001161561010002031660029004801561136d5780601f106113425761010080835404028352916020019161136d565b820191906000526020600020905b81548152906001019060200180831161135057829003601f168201915b505050505060405180602001604052806000815250612ea4565b801561148157506114806000803373ffffffffffffffffffffffffffffffffffffffff1673ffffffffffffffffffffffffffffffffffffffff1681526020019081526020016000206001018054600181600116156101000203166002900480601f0160208091040260200160405190810160405280929190818152602001828054600181600116156101000203166002900480156114665780601f1061143b57610100808354040283529160200191611466565b820191906000526020600020905b81548152906001019060200180831161144957829003601f168201915b505050505060405180602001604052806000815250612ea4565b5b80156114f85750600073ffffffffffffffffffffffffffffffffffffffff166001826040516114b0919061475e565b908152602001604051809103902060009054906101000a900473ffffffffffffffffffffffffffffffffffffffff1673ffffffffffffffffffffffffffffffffffffffff1614155b15611539577feaf2470f48be1347a62e987fb10a00cbe8bd129122f18277b7064c2012cf10e23360405161152c91906149d9565b60405180910390a1600080fd5b61161c6000803373ffffffffffffffffffffffffffffffffffffffff1673ffffffffffffffffffffffffffffffffffffffff1681526020019081526020016000206000018054600181600116156101000203166002900480601f0160208091040260200160405190810160405280929190818152602001828054600181600116156101000203166002900480156116115780601f106115e657610100808354040283529160200191611611565b820191906000526020600020905b8154815290600101906020018083116115f457829003601f168201915b505050505084612ea4565b801561170757506117066000803373ffffffffffffffffffffffffffffffffffffffff1673ffffffffffffffffffffffffffffffffffffffff1681526020019081526020016000206001018054600181600116156101000203166002900480601f0160208091040260200160405190810160405280929190818152602001828054600181600116156101000203166002900480156116fb5780601f106116d0576101008083540402835291602001916116fb565b820191906000526020600020905b8154815290600101906020018083116116de57829003601f168201915b505050505083612ea4565b5b801561177c57503373ffffffffffffffffffffffffffffffffffffffff16600182604051611735919061475e565b908152602001604051809103902060009054906101000a900473ffffffffffffffffffffffffffffffffffffffff1673ffffffffffffffffffffffffffffffffffffffff16145b156117bd577feaf2470f48be1347a62e987fb10a00cbe8bd129122f18277b7064c2012cf10e2336040516117b09190614a1a565b60405180910390a1600080fd5b7feaf2470f48be1347a62e987fb10a00cbe8bd129122f18277b7064c2012cf10e26118f66040518060400160405280601b81526020017f5573657220616c726561647920726567697374657265642061732000000000008152506000803373ffffffffffffffffffffffffffffffffffffffff1673ffffffffffffffffffffffffffffffffffffffff1681526020019081526020016000206001018054600181600116156101000203166002900480601f0160208091040260200160405190810160405280929190818152602001828054600181600116156101000203166002900480156118ec5780601f106118c1576101008083540402835291602001916118ec565b820191906000526020600020905b8154815290600101906020018083116118cf57829003601f168201915b50505050506137a6565b33604051611905929190614996565b60405180910390a1600080fd5b505050565b60008083511161192657600080fd5b600082511161193457600080fd5b611a266000803373ffffffffffffffffffffffffffffffffffffffff1673ffffffffffffffffffffffffffffffffffffffff1681526020019081526020016000206000018054600181600116156101000203166002900480601f016020809104026020016040519081016040528092919081815260200182805460018160011615610100020316600290048015611a0c5780601f106119e157610100808354040283529160200191611a0c565b820191906000526020600020905b8154815290600101906020018083116119ef57829003601f168201915b505050505060405180602001604052806000815250612ea4565b158015611b125750611b116000803373ffffffffffffffffffffffffffffffffffffffff1673ffffffffffffffffffffffffffffffffffffffff1681526020019081526020016000206001018054600181600116156101000203166002900480601f016020809104026020016040519081016040528092919081815260200182805460018160011615610100020316600290048015611b065780601f10611adb57610100808354040283529160200191611b06565b820191906000526020600020905b815481529060010190602001808311611ae957829003601f168201915b505050505084612ea4565b5b8015611b8757503373ffffffffffffffffffffffffffffffffffffffff16600183604051611b40919061475e565b908152602001604051809103902060009054906101000a900473ffffffffffffffffffffffffffffffffffffffff1673ffffffffffffffffffffffffffffffffffffffff16145b15611bcc577feaf2470f48be1347a62e987fb10a00cbe8bd129122f18277b7064c2012cf10e233604051611bbb9190614add565b60405180910390a160019050611ea1565b611cbe6000803373ffffffffffffffffffffffffffffffffffffffff1673ffffffffffffffffffffffffffffffffffffffff1681526020019081526020016000206000018054600181600116156101000203166002900480601f016020809104026020016040519081016040528092919081815260200182805460018160011615610100020316600290048015611ca45780601f10611c7957610100808354040283529160200191611ca4565b820191906000526020600020905b815481529060010190602001808311611c8757829003601f168201915b505050505060405180602001604052806000815250612ea4565b158015611daa5750611da96000803373ffffffffffffffffffffffffffffffffffffffff1673ffffffffffffffffffffffffffffffffffffffff1681526020019081526020016000206001018054600181600116156101000203166002900480601f016020809104026020016040519081016040528092919081815260200182805460018160011615610100020316600290048015611d9e5780601f10611d7357610100808354040283529160200191611d9e565b820191906000526020600020905b815481529060010190602001808311611d8157829003601f168201915b505050505084612ea4565b5b8015611e2057503373ffffffffffffffffffffffffffffffffffffffff16600183604051611dd8919061475e565b908152602001604051809103902060009054906101000a900473ffffffffffffffffffffffffffffffffffffffff1673ffffffffffffffffffffffffffffffffffffffff1614155b15611e65577feaf2470f48be1347a62e987fb10a00cbe8bd129122f18277b7064c2012cf10e233604051611e549190614a5b565b60405180910390a160009050611ea1565b7feaf2470f48be1347a62e987fb10a00cbe8bd129122f18277b7064c2012cf10e233604051611e949190614a9c565b60405180910390a1600090505b92915050565b8373ffffffffffffffffffffffffffffffffffffffff163373ffffffffffffffffffffffffffffffffffffffff161415611f16576040517f08c379a0000000000000000000000000000000000000000000000000000000008152600401611f0d90614bbf565b60405180910390fd5b6000835111611f2457600080fd5b6000825111611f3257600080fd5b6000815111611f4057600080fd5b60008090505b600460003373ffffffffffffffffffffffffffffffffffffffff1673ffffffffffffffffffffffffffffffffffffffff1681526020019081526020016000208054905081101561218c5761208d600460003373ffffffffffffffffffffffffffffffffffffffff1673ffffffffffffffffffffffffffffffffffffffff1681526020019081526020016000208281548110611fdd57fe5b90600052602060002090600502016002018054600181600116156101000203166002900480601f0160208091040260200160405190810160405280929190818152602001828054600181600116156101000203166002900480156120825780601f1061205757610100808354040283529160200191612082565b820191906000526020600020905b81548152906001019060200180831161206557829003601f168201915b505050505085612ea4565b801561213f57508473ffffffffffffffffffffffffffffffffffffffff16600460003373ffffffffffffffffffffffffffffffffffffffff1673ffffffffffffffffffffffffffffffffffffffff16815260200190815260200160002082815481106120f557fe5b906000526020600020906005020160010160009054906101000a900473ffffffffffffffffffffffffffffffffffffffff1673ffffffffffffffffffffffffffffffffffffffff16145b1561217f576040517f08c379a000000000000000000000000000000000000000000000000000000000815260040161217690614bdf565b60405180910390fd5b8080600101915050611f46565b50600360008573ffffffffffffffffffffffffffffffffffffffff1673ffffffffffffffffffffffffffffffffffffffff1681526020019081526020016000206040518060a001604052803373ffffffffffffffffffffffffffffffffffffffff1681526020018673ffffffffffffffffffffffffffffffffffffffff1681526020018581526020018481526020016040518060400160405280600981526020017f52657175657374656400000000000000000000000000000000000000000000008152508152509080600181540180825580915050906001820390600052602060002090600502016000909192909190915060008201518160000160006101000a81548173ffffffffffffffffffffffffffffffffffffffff021916908373ffffffffffffffffffffffffffffffffffffffff16021790555060208201518160010160006101000a81548173ffffffffffffffffffffffffffffffffffffffff021916908373ffffffffffffffffffffffffffffffffffffffff1602179055506040820151816002019080519060200190612329929190613a5f565b506060820151816003019080519060200190612346929190613adf565b506080820151816004019080519060200190612363929190613a5f565b50505050600460003373ffffffffffffffffffffffffffffffffffffffff1673ffffffffffffffffffffffffffffffffffffffff1681526020019081526020016000206040518060a001604052803373ffffffffffffffffffffffffffffffffffffffff1681526020018673ffffffffffffffffffffffffffffffffffffffff1681526020018581526020018381526020016040518060400160405280600981526020017f52657175657374656400000000000000000000000000000000000000000000008152508152509080600181540180825580915050906001820390600052602060002090600502016000909192909190915060008201518160000160006101000a81548173ffffffffffffffffffffffffffffffffffffffff021916908373ffffffffffffffffffffffffffffffffffffffff16021790555060208201518160010160006101000a81548173ffffffffffffffffffffffffffffffffffffffff021916908373ffffffffffffffffffffffffffffffffffffffff1602179055506040820151816002019080519060200190612503929190613a5f565b506060820151816003019080519060200190612520929190613adf565b50608082015181600401908051906020019061253d929190613a5f565b505050507f2286e284ed277a7f4da5a88f0e47927f93a4c2407975b4fbd236f444c46e130a3385604051612572929190614799565b60405180910390a150505050565b600060608060008090505b600260003373ffffffffffffffffffffffffffffffffffffffff1673ffffffffffffffffffffffffffffffffffffffff1681526020019081526020016000208054905081101561281f576125dd613bba565b600260003373ffffffffffffffffffffffffffffffffffffffff1673ffffffffffffffffffffffffffffffffffffffff168152602001908152602001600020828154811061262757fe5b90600052602060002090600302016040518060600160405290816000820160009054906101000a900473ffffffffffffffffffffffffffffffffffffffff1673ffffffffffffffffffffffffffffffffffffffff1673ffffffffffffffffffffffffffffffffffffffff168152602001600182018054600181600116156101000203166002900480601f01602080910402602001604051908101604052809291908181526020018280546001816001161561010002031660029004801561272f5780601f106127045761010080835404028352916020019161272f565b820191906000526020600020905b81548152906001019060200180831161271257829003601f168201915b50505050508152602001600282018054600181600116156101000203166002900480601f0160208091040260200160405190810160405280929190818152602001828054600181600116156101000203166002900480156127d15780601f106127a6576101008083540402835291602001916127d1565b820191906000526020600020905b8154815290600101906020018083116127b457829003601f168201915b50505050508152505090506127ea868260200151612ea4565b1561281157806000015181602001518260400151819150809050945094509450505061285b565b50808060010191505061258b565b506040517f08c379a000000000000000000000000000000000000000000000000000000000815260040161285290614b5f565b60405180910390fd5b9193909250565b6060600073ffffffffffffffffffffffffffffffffffffffff168273ffffffffffffffffffffffffffffffffffffffff16141561289e57600080fd5b6000808373ffffffffffffffffffffffffffffffffffffffff1673ffffffffffffffffffffffffffffffffffffffff1681526020019081526020016000206000018054600181600116156101000203166002900480601f0160208091040260200160405190810160405280929190818152602001828054600181600116156101000203166002900480156129735780601f1061294857610100808354040283529160200191612973565b820191906000526020600020905b81548152906001019060200180831161295657829003601f168201915b50505050509050919050565b600084511161298d57600080fd5b600083511161299b57600080fd5b3373ffffffffffffffffffffffffffffffffffffffff168173ffffffffffffffffffffffffffffffffffffffff161415612a0a576040517f08c379a0000000000000000000000000000000000000000000000000000000008152600401612a0190614b9f565b60405180910390fd5b600260008273ffffffffffffffffffffffffffffffffffffffff1673ffffffffffffffffffffffffffffffffffffffff16815260200190815260200160002060405180606001604052803373ffffffffffffffffffffffffffffffffffffffff168152602001868152602001858152509080600181540180825580915050906001820390600052602060002090600302016000909192909190915060008201518160000160006101000a81548173ffffffffffffffffffffffffffffffffffffffff021916908373ffffffffffffffffffffffffffffffffffffffff1602179055506020820151816001019080519060200190612b08929190613a5f565b506040820151816002019080519060200190612b25929190613adf565b505050507f303012c12f720b747dff3c4a0cec152ee2e833f7ae5dddfda967235543b0cf0e8133604051612b5a9291906147c2565b60405180910390a1612b6d8483336137d2565b50505050565b606080606060006005805490509050606081604051908082528060200260200182016040528015612bb35781602001602082028038833980820191505090505b509050606082604051908082528060200260200182016040528015612bec57816020015b6060815260200190600190039081612bd75790505b509050606083604051908082528060200260200182016040528015612c2557816020015b6060815260200190600190039081612c105790505b50905060008090505b84811015612e9157612c3e613bf1565b60058281548110612c4b57fe5b90600052602060002090600302016040518060600160405290816000820160009054906101000a900473ffffffffffffffffffffffffffffffffffffffff1673ffffffffffffffffffffffffffffffffffffffff1673ffffffffffffffffffffffffffffffffffffffff168152602001600182018054600181600116156101000203166002900480601f016020809104026020016040519081016040528092919081815260200182805460018160011615610100020316600290048015612d535780601f10612d2857610100808354040283529160200191612d53565b820191906000526020600020905b815481529060010190602001808311612d3657829003601f168201915b50505050508152602001600282018054600181600116156101000203166002900480601f016020809104026020016040519081016040528092919081815260200182805460018160011615610100020316600290048015612df55780601f10612dca57610100808354040283529160200191612df5565b820191906000526020600020905b815481529060010190602001808311612dd857829003601f168201915b50505050508152505090508060000151858381518110612e1157fe5b602002602001019073ffffffffffffffffffffffffffffffffffffffff16908173ffffffffffffffffffffffffffffffffffffffff16815250508060200151848381518110612e5c57fe5b60200260200101819052508060400151838381518110612e7857fe5b6020026020010181905250508080600101915050612c2e565b5082828296509650965050505050909192565b600081604051602001612eb7919061475e565b6040516020818303038152906040528051906020012083604051602001612ede919061475e565b6040516020818303038152906040528051906020012014905092915050565b60608060606000600260003373ffffffffffffffffffffffffffffffffffffffff1673ffffffffffffffffffffffffffffffffffffffff168152602001908152602001600020805490509050606081604051908082528060200260200182016040528015612f7a5781602001602082028038833980820191505090505b509050606082604051908082528060200260200182016040528015612fb357816020015b6060815260200190600190039081612f9e5790505b509050606083604051908082528060200260200182016040528015612fec57816020015b6060815260200190600190039081612fd75790505b50905060008090505b8481101561329557613005613bba565b600260003373ffffffffffffffffffffffffffffffffffffffff1673ffffffffffffffffffffffffffffffffffffffff168152602001908152602001600020828154811061304f57fe5b90600052602060002090600302016040518060600160405290816000820160009054906101000a900473ffffffffffffffffffffffffffffffffffffffff1673ffffffffffffffffffffffffffffffffffffffff1673ffffffffffffffffffffffffffffffffffffffff168152602001600182018054600181600116156101000203166002900480601f0160208091040260200160405190810160405280929190818152602001828054600181600116156101000203166002900480156131575780601f1061312c57610100808354040283529160200191613157565b820191906000526020600020905b81548152906001019060200180831161313a57829003601f168201915b50505050508152602001600282018054600181600116156101000203166002900480601f0160208091040260200160405190810160405280929190818152602001828054600181600116156101000203166002900480156131f95780601f106131ce576101008083540402835291602001916131f9565b820191906000526020600020905b8154815290600101906020018083116131dc57829003601f168201915b5050505050815250509050806000015185838151811061321557fe5b602002602001019073ffffffffffffffffffffffffffffffffffffffff16908173ffffffffffffffffffffffffffffffffffffffff1681525050806020015184838151811061326057fe5b6020026020010181905250806040015183838151811061327c57fe5b6020026020010181905250508080600101915050612ff5565b5082828296509650965050505050909192565b6060806060806000600460003373ffffffffffffffffffffffffffffffffffffffff1673ffffffffffffffffffffffffffffffffffffffff1681526020019081526020016000208054905090506060816040519080825280602002602001820160405280156133265781602001602082028038833980820191505090505b50905060608260405190808252806020026020018201604052801561335f57816020015b606081526020019060019003908161334a5790505b50905060608360405190808252806020026020018201604052801561339857816020015b60608152602001906001900390816133835790505b5090506060846040519080825280602002602001820160405280156133d157816020015b60608152602001906001900390816133bc5790505b50905060008090505b8581101561378e576133ea613b5f565b600460003373ffffffffffffffffffffffffffffffffffffffff1673ffffffffffffffffffffffffffffffffffffffff168152602001908152602001600020828154811061343457fe5b90600052602060002090600502016040518060a00160405290816000820160009054906101000a900473ffffffffffffffffffffffffffffffffffffffff1673ffffffffffffffffffffffffffffffffffffffff1673ffffffffffffffffffffffffffffffffffffffff1681526020016001820160009054906101000a900473ffffffffffffffffffffffffffffffffffffffff1673ffffffffffffffffffffffffffffffffffffffff1673ffffffffffffffffffffffffffffffffffffffff168152602001600282018054600181600116156101000203166002900480601f0160208091040260200160405190810160405280929190818152602001828054600181600116156101000203166002900480156135925780601f1061356757610100808354040283529160200191613592565b820191906000526020600020905b81548152906001019060200180831161357557829003601f168201915b50505050508152602001600382018054600181600116156101000203166002900480601f0160208091040260200160405190810160405280929190818152602001828054600181600116156101000203166002900480156136345780601f1061360957610100808354040283529160200191613634565b820191906000526020600020905b81548152906001019060200180831161361757829003601f168201915b50505050508152602001600482018054600181600116156101000203166002900480601f0160208091040260200160405190810160405280929190818152602001828054600181600116156101000203166002900480156136d65780601f106136ab576101008083540402835291602001916136d6565b820191906000526020600020905b8154815290600101906020018083116136b957829003601f168201915b505050505081525050905080602001518683815181106136f257fe5b602002602001019073ffffffffffffffffffffffffffffffffffffffff16908173ffffffffffffffffffffffffffffffffffffffff1681525050806040015185838151811061373d57fe5b6020026020010181905250806060015184838151811061375957fe5b6020026020010181905250806080015183838151811061377557fe5b60200260200101819052505080806001019150506133da565b50838383839850985098509850505050505090919293565b606082826040516020016137bb929190614775565b604051602081830303815290604052905092915050565b60008090505b6005805490508110156138bd576138a5600582815481106137f557fe5b90600052602060002090600302016001018054600181600116156101000203166002900480601f01602080910402602001604051908101604052809291908181526020018280546001816001161561010002031660029004801561389a5780601f1061386f5761010080835404028352916020019161389a565b820191906000526020600020905b81548152906001019060200180831161387d57829003601f168201915b505050505085612ea4565b156138b057506139da565b80806001019150506137d8565b50600560405180606001604052808373ffffffffffffffffffffffffffffffffffffffff168152602001858152602001848152509080600181540180825580915050906001820390600052602060002090600302016000909192909190915060008201518160000160006101000a81548173ffffffffffffffffffffffffffffffffffffffff021916908373ffffffffffffffffffffffffffffffffffffffff160217905550602082015181600101908051906020019061397f929190613a5f565b50604082015181600201908051906020019061399c929190613a5f565b505050507f20542dec84858b9f4322835bfcc83c7f5ee03c8471237b7f43ab5e0d848c512f81846040516139d19291906147eb565b60405180910390a15b505050565b828054600181600116156101000203166002900490600052602060002090601f016020900481019282601f10613a2057805160ff1916838001178555613a4e565b82800160010185558215613a4e579182015b82811115613a4d578251825591602001919060010190613a32565b5b509050613a5b9190613c28565b5090565b828054600181600116156101000203166002900490600052602060002090601f016020900481019282601f10613aa057805160ff1916838001178555613ace565b82800160010185558215613ace579182015b82811115613acd578251825591602001919060010190613ab2565b5b509050613adb9190613c28565b5090565b828054600181600116156101000203166002900490600052602060002090601f016020900481019282601f10613b2057805160ff1916838001178555613b4e565b82800160010185558215613b4e579182015b82811115613b4d578251825591602001919060010190613b32565b5b509050613b5b9190613c28565b5090565b6040518060a00160405280600073ffffffffffffffffffffffffffffffffffffffff168152602001600073ffffffffffffffffffffffffffffffffffffffff1681526020016060815260200160608152602001606081525090565b6040518060600160405280600073ffffffffffffffffffffffffffffffffffffffff16815260200160608152602001606081525090565b6040518060600160405280600073ffffffffffffffffffffffffffffffffffffffff16815260200160608152602001606081525090565b613c4a91905b80821115613c46576000816000905550600101613c2e565b5090565b90565b600081359050613c5c81614e96565b92915050565b600082601f830112613c7357600080fd5b8135613c86613c8182614c47565b614c1a565b91508082526020830160208301858383011115613ca257600080fd5b613cad838284614e43565b50505092915050565b600082601f830112613cc757600080fd5b8135613cda613cd582614c73565b614c1a565b91508082526020830160208301858383011115613cf657600080fd5b613d01838284614e43565b50505092915050565b600060208284031215613d1c57600080fd5b6000613d2a84828501613c4d565b91505092915050565b60008060008060808587031215613d4957600080fd5b6000613d5787828801613c4d565b945050602085013567ffffffffffffffff811115613d7457600080fd5b613d8087828801613cb6565b935050604085013567ffffffffffffffff811115613d9d57600080fd5b613da987828801613c62565b925050606085013567ffffffffffffffff811115613dc657600080fd5b613dd287828801613c62565b91505092959194509250565b60008060008060808587031215613df457600080fd5b6000613e0287828801613c4d565b945050602085013567ffffffffffffffff811115613e1f57600080fd5b613e2b87828801613cb6565b935050604085013567ffffffffffffffff811115613e4857600080fd5b613e5487828801613cb6565b925050606085013567ffffffffffffffff811115613e7157600080fd5b613e7d87828801613c62565b91505092959194509250565b600060208284031215613e9b57600080fd5b600082013567ffffffffffffffff811115613eb557600080fd5b613ec184828501613cb6565b91505092915050565b60008060008060808587031215613ee057600080fd5b600085013567ffffffffffffffff811115613efa57600080fd5b613f0687828801613cb6565b945050602085013567ffffffffffffffff811115613f2357600080fd5b613f2f87828801613c62565b935050604085013567ffffffffffffffff811115613f4c57600080fd5b613f5887828801613cb6565b9250506060613f6987828801613c4d565b91505092959194509250565b60008060408385031215613f8857600080fd5b600083013567ffffffffffffffff811115613fa257600080fd5b613fae85828601613cb6565b925050602083013567ffffffffffffffff811115613fcb57600080fd5b613fd785828601613cb6565b9150509250929050565b600080600060608486031215613ff657600080fd5b600084013567ffffffffffffffff81111561401057600080fd5b61401c86828701613cb6565b935050602084013567ffffffffffffffff81111561403957600080fd5b61404586828701613cb6565b925050604084013567ffffffffffffffff81111561406257600080fd5b61406e86828701613cb6565b9150509250925092565b600061408483836140c7565b60208301905092915050565b600061409c8383614275565b905092915050565b60006140b08383614318565b905092915050565b6140c181614e0d565b82525050565b6140d081614dc5565b82525050565b6140df81614dc5565b82525050565b60006140f082614ccf565b6140fa8185614d43565b935061410583614c9f565b8060005b8381101561413657815161411d8882614078565b975061412883614d1c565b925050600181019050614109565b5085935050505092915050565b600061414e82614cda565b6141588185614d54565b93508360208202850161416a85614caf565b8060005b858110156141a657848403895281516141878582614090565b945061419283614d29565b925060208a0199505060018101905061416e565b50829750879550505050505092915050565b60006141c382614ce5565b6141cd8185614d65565b9350836020820285016141df85614cbf565b8060005b8581101561421b57848403895281516141fc85826140a4565b945061420783614d36565b925060208a019950506001810190506141e3565b50829750879550505050505092915050565b61423681614dd7565b82525050565b600061424782614cfb565b6142518185614d87565b9350614261818560208601614e52565b61426a81614e85565b840191505092915050565b600061428082614cf0565b61428a8185614d76565b935061429a818560208601614e52565b6142a381614e85565b840191505092915050565b60006142b982614d11565b6142c38185614da9565b93506142d3818560208601614e52565b6142dc81614e85565b840191505092915050565b60006142f282614d11565b6142fc8185614dba565b935061430c818560208601614e52565b80840191505092915050565b600061432382614d06565b61432d8185614d98565b935061433d818560208601614e52565b61434681614e85565b840191505092915050565b600061435e600783614da9565b91507f4661696c757265000000000000000000000000000000000000000000000000006000830152602082019050919050565b600061439e600783614da9565b91507f53756363657373000000000000000000000000000000000000000000000000006000830152602082019050919050565b60006143de602583614da9565b91507f5573657220646f6573206e6f7420686176652073706563696669656420646f6360008301527f756d656e740000000000000000000000000000000000000000000000000000006020830152604082019050919050565b6000614444601083614da9565b91507f4c6f67696e207375636365737366756c000000000000000000000000000000006000830152602082019050919050565b6000614484601b83614da9565b91507f506c656173652075736520616e6f7468657220757365726e616d6500000000006000830152602082019050919050565b60006144c4602583614da9565b91507f56657269666965722063616e6e6f74207570646174652072657175657374207360008301527f74617475730000000000000000000000000000000000000000000000000000006020830152604082019050919050565b600061452a601783614da9565b91507f5573657220616c726561647920726567697374657265640000000000000000006000830152602082019050919050565b600061456a602683614da9565b91507f596f752063616e6e6f7420697373756520646f63756d656e7420666f7220796f60008301527f757273656c6600000000000000000000000000000000000000000000000000006020830152604082019050919050565b60006145d0602883614da9565b91507f43616e6e6f74207265717565737420766572696669636174696f6e20666f722060008301527f796f757273656c660000000000000000000000000000000000000000000000006020830152604082019050919050565b6000614636601283614da9565b91507f496e636f727265637420757365726e616d6500000000000000000000000000006000830152602082019050919050565b6000614676601383614da9565b91507f5573657220646f6573206e6f74206578697374000000000000000000000000006000830152602082019050919050565b60006146b6601783614da9565b91507f526567697374726174696f6e207375636365737366756c0000000000000000006000830152602082019050919050565b60006146f6602883614da9565b91507f596f75206861766520616c72656164792072657175657374656420746869732060008301527f646f63756d656e740000000000000000000000000000000000000000000000006020830152604082019050919050565b61475881614e03565b82525050565b600061476a82846142e7565b915081905092915050565b600061478182856142e7565b915061478d82846142e7565b91508190509392505050565b60006040820190506147ae60008301856140b8565b6147bb60208301846140d6565b9392505050565b60006040820190506147d760008301856140d6565b6147e460208301846140b8565b9392505050565b600060408201905061480060008301856140d6565b818103602083015261481281846142ae565b90509392505050565b600060608201905061483060008301866140d6565b818103602083015261484281856142ae565b90508181036040830152614856818461423c565b9050949350505050565b6000606082019050818103600083015261487a81866140e5565b9050818103602083015261488e81856141b8565b905081810360408301526148a28184614143565b9050949350505050565b600060808201905081810360008301526148c681876140e5565b905081810360208301526148da81866141b8565b905081810360408301526148ee8185614143565b9050818103606083015261490281846141b8565b905095945050505050565b6000606082019050818103600083015261492781866140e5565b9050818103602083015261493b81856141b8565b9050818103604083015261494f81846141b8565b9050949350505050565b600060208201905061496e600083018461422d565b92915050565b6000602082019050818103600083015261498e81846142ae565b905092915050565b600060608201905081810360008301526149af81614351565b905081810360208301526149c381856142ae565b90506149d260408301846140b8565b9392505050565b600060608201905081810360008301526149f281614351565b90508181036020830152614a0581614477565b9050614a1460408301846140b8565b92915050565b60006060820190508181036000830152614a3381614351565b90508181036020830152614a468161451d565b9050614a5560408301846140b8565b92915050565b60006060820190508181036000830152614a7481614351565b90508181036020830152614a8781614629565b9050614a9660408301846140b8565b92915050565b60006060820190508181036000830152614ab581614351565b90508181036020830152614ac881614669565b9050614ad760408301846140b8565b92915050565b60006060820190508181036000830152614af681614391565b90508181036020830152614b0981614437565b9050614b1860408301846140b8565b92915050565b60006060820190508181036000830152614b3781614391565b90508181036020830152614b4a816146a9565b9050614b5960408301846140b8565b92915050565b60006020820190508181036000830152614b78816143d1565b9050919050565b60006020820190508181036000830152614b98816144b7565b9050919050565b60006020820190508181036000830152614bb88161455d565b9050919050565b60006020820190508181036000830152614bd8816145c3565b9050919050565b60006020820190508181036000830152614bf8816146e9565b9050919050565b6000602082019050614c14600083018461474f565b92915050565b6000604051905081810181811067ffffffffffffffff82111715614c3d57600080fd5b8060405250919050565b600067ffffffffffffffff821115614c5e57600080fd5b601f19601f8301169050602081019050919050565b600067ffffffffffffffff821115614c8a57600080fd5b601f19601f8301169050602081019050919050565b6000819050602082019050919050565b6000819050602082019050919050565b6000819050602082019050919050565b600081519050919050565b600081519050919050565b600081519050919050565b600081519050919050565b600081519050919050565b600081519050919050565b600081519050919050565b6000602082019050919050565b6000602082019050919050565b6000602082019050919050565b600082825260208201905092915050565b600082825260208201905092915050565b600082825260208201905092915050565b600082825260208201905092915050565b600082825260208201905092915050565b600082825260208201905092915050565b600082825260208201905092915050565b600081905092915050565b6000614dd082614de3565b9050919050565b60008115159050919050565b600073ffffffffffffffffffffffffffffffffffffffff82169050919050565b6000819050919050565b6000614e1882614e1f565b9050919050565b6000614e2a82614e31565b9050919050565b6000614e3c82614de3565b9050919050565b82818337600083830152505050565b60005b83811015614e70578082015181840152602081019050614e55565b83811115614e7f576000848401525b50505050565b6000601f19601f8301169050919050565b614e9f81614dc5565b8114614eaa57600080fd5b5056fea365627a7a72315820404e37fd7bc3427393065b771d2a305183ba6b7d797a0914505434f38b4e10c66c6578706572696d656e74616cf564736f6c63430005100040",
  "source": "// SPDX-License-Identifier: MIT\r\npragma solidity >=0.4.21 <0.7.0;\r\npragma experimental ABIEncoderV2;\r\n\r\ncontract IdentityManager {\r\n\r\n  struct User {\r\n    string encryptionPublicKey;\r\n    string entity;\r\n  }\r\n\r\n  struct Document {\r\n    address issuer;\r\n    string name;\r\n    bytes data;\r\n  }\r\n\r\n  struct Template {\r\n    address issuer;\r\n    string name;\r\n    string data;\r\n  }\r\n\r\n  struct Request {\r\n    address requestor;\r\n    address owner;\r\n    string docName;\r\n    bytes properties;\r\n    string status;\r\n  }\r\n\r\n  mapping(address => User) userDb;\r\n  mapping(string => address) usernameDb;\r\n  mapping(address => Document[]) identities;\r\n  mapping(address => Request[]) ownerRequests;\r\n  mapping(address => Request[]) verifierRequests;\r\n  Template[] templates;\r\n\r\n  event UserAuthenticated (\r\n    string status,\r\n    string message,\r\n    address user\r\n  );\r\n\r\n  event DocumentIssued (\r\n    address owner,\r\n    address issuer\r\n  );\r\n\r\n  event TemplateCreated (\r\n    address issuer,\r\n    string name\r\n  );\r\n\r\n  event RequestGenerated (\r\n    address verifier,\r\n    address owner\r\n  );\r\n\r\n  event RequestStatusUpdated (\r\n    address verifier,\r\n    address owner\r\n  );\r\n\r\n  function login(string memory _entity, string memory _username) public returns(bool) {\r\n    require(bytes(_entity).length > 0);\r\n    require(bytes(_username).length > 0);\r\n\r\n    if (!compareStringsbyBytes(userDb[msg.sender].encryptionPublicKey, '') && compareStringsbyBytes(userDb[msg.sender].entity, _entity) && usernameDb[_username] == msg.sender) {\r\n      // Success\r\n      emit UserAuthenticated('Success', 'Login successful', msg.sender);\r\n      return true;\r\n    } else if (!compareStringsbyBytes(userDb[msg.sender].encryptionPublicKey, '') && compareStringsbyBytes(userDb[msg.sender].entity, _entity) && usernameDb[_username] != msg.sender) {\r\n      // Incorrect username\r\n      emit UserAuthenticated('Failure', 'Incorrect username', msg.sender);\r\n      return false;\r\n    } else {\r\n      // Failure\r\n      emit UserAuthenticated('Failure', 'User does not exist', msg.sender);\r\n      return false;\r\n    }\r\n  }\r\n\r\n  function register(string memory _encryptionPublicKey, string memory _entity, string memory _username) public {\r\n    require(bytes(_encryptionPublicKey).length > 0);\r\n    require(bytes(_entity).length > 0);\r\n    require(bytes(_username).length > 0);\r\n\r\n    if (compareStringsbyBytes(userDb[msg.sender].encryptionPublicKey, '') && compareStringsbyBytes(userDb[msg.sender].entity, '') && usernameDb[_username] == address(0)) {\r\n      // Success\r\n      userDb[msg.sender] = User(_encryptionPublicKey, _entity);\r\n      usernameDb[_username] = msg.sender;\r\n      emit UserAuthenticated('Success', 'Registration successful', msg.sender);\r\n    } else if (compareStringsbyBytes(userDb[msg.sender].encryptionPublicKey, '') && compareStringsbyBytes(userDb[msg.sender].entity, '') && usernameDb[_username] != address(0)) {\r\n      // Incorrect username\r\n      emit UserAuthenticated('Failure', 'Please use another username', msg.sender);\r\n      revert();\r\n    } else if (compareStringsbyBytes(userDb[msg.sender].encryptionPublicKey, _encryptionPublicKey) && compareStringsbyBytes(userDb[msg.sender].entity, _entity) && usernameDb[_username] == msg.sender) {\r\n      // Failure\r\n      emit UserAuthenticated('Failure', 'User already registered', msg.sender);\r\n      revert();\r\n    } else {\r\n      // Failure\r\n      emit UserAuthenticated('Failure', append('User already registered as ', userDb[msg.sender].entity), msg.sender);\r\n      revert();\r\n    }\r\n  }\r\n\r\n  function issueDocument(string memory _name, bytes memory _data, string memory _templateData, address _owner) public {\r\n    require(bytes(_name).length > 0);\r\n    require(bytes(_data).length > 0);\r\n    require(_owner != msg.sender, 'You cannot issue document for yourself');\r\n\r\n    identities[_owner].push(Document(msg.sender, _name, _data));\r\n    emit DocumentIssued(_owner, msg.sender);\r\n\r\n    createTemplate(_name, _templateData, msg.sender);\r\n  }\r\n\r\n  function createTemplate(string memory _name, string memory _data, address _issuer) internal {\r\n    for (uint256 index = 0; index < templates.length; index++) {\r\n      if (compareStringsbyBytes(templates[index].name, _name)) {\r\n        return;\r\n      }\r\n    }\r\n    templates.push(Template(_issuer, _name, _data));\r\n    emit TemplateCreated(_issuer, _name);\r\n  }\r\n\r\n  function getTemplates() view public returns(address[] memory, string[] memory, string[] memory) {\r\n    uint _templateCount = templates.length;\r\n    address[] memory _issuer = new address[](_templateCount);\r\n    string[] memory _name = new string[](_templateCount);\r\n    string[] memory _data = new string[](_templateCount);\r\n\r\n    for (uint256 index = 0; index < _templateCount; index++) {\r\n      Template memory _tempCopy = templates[index];\r\n      _issuer[index] = _tempCopy.issuer;\r\n      _name[index] = _tempCopy.name;\r\n      _data[index] = _tempCopy.data;\r\n    }\r\n\r\n    return (_issuer, _name, _data);\r\n  }\r\n\r\n  function getDocuments() view public returns(address[] memory, string[] memory, bytes[] memory) {\r\n    uint _documentCount = identities[msg.sender].length;\r\n    address[] memory _issuer = new address[](_documentCount);\r\n    string[] memory _name = new string[](_documentCount);\r\n    bytes[] memory _data = new bytes[](_documentCount);\r\n\r\n    for (uint256 index = 0; index < _documentCount; index++) {\r\n      Document memory _docCopy = identities[msg.sender][index];\r\n      _issuer[index] = _docCopy.issuer;\r\n      _name[index] = _docCopy.name;\r\n      _data[index] = _docCopy.data;\r\n    }\r\n\r\n    return (_issuer, _name, _data);\r\n  }\r\n\r\n  function getDocument(string memory _name) view public returns(address, string memory, bytes memory) {\r\n    for (uint256 index = 0; index < identities[msg.sender].length; index++) {\r\n      Document memory _docCopy = identities[msg.sender][index];\r\n      if (compareStringsbyBytes(_name, _docCopy.name)) {\r\n        return (_docCopy.issuer, _docCopy.name, _docCopy.data);\r\n      }\r\n    }\r\n    revert('User does not have specified document');\r\n  }\r\n\r\n  function getDocumentCount() view public returns(uint) {\r\n    return identities[msg.sender].length;\r\n  }\r\n\r\n  function requestVerification(address _owner, string memory _docName, bytes memory _propertiesOwner, bytes memory _propertiesVerifier) public {\r\n    require(msg.sender != _owner, 'Cannot request verification for yourself');\r\n    require(bytes(_docName).length > 0);\r\n    require(bytes(_propertiesOwner).length > 0);\r\n    require(bytes(_propertiesVerifier).length > 0);\r\n\r\n    for (uint256 index = 0; index < verifierRequests[msg.sender].length; index++) {\r\n      if (compareStringsbyBytes(verifierRequests[msg.sender][index].docName, _docName) && verifierRequests[msg.sender][index].owner == _owner) {\r\n        revert('You have already requested this document');\r\n      }\r\n    }\r\n\r\n    ownerRequests[_owner].push(Request(msg.sender, _owner, _docName, _propertiesOwner, 'Requested'));\r\n    verifierRequests[msg.sender].push(Request(msg.sender, _owner, _docName, _propertiesVerifier, 'Requested'));\r\n    emit RequestGenerated(msg.sender, _owner);\r\n  }\r\n\r\n  function updateRequestStatus(address _verifier, string memory _docName, string memory _newStatus, bytes memory _properties) public {\r\n    require(_verifier != msg.sender, 'Verifier cannot update request status');\r\n    require(bytes(_docName).length > 0);\r\n\r\n    for (uint256 index = 0; index < ownerRequests[msg.sender].length; index++) {\r\n      if (compareStringsbyBytes(ownerRequests[msg.sender][index].docName, _docName) && ownerRequests[msg.sender][index].requestor == _verifier) {\r\n        ownerRequests[msg.sender][index].status = _newStatus;\r\n        break;\r\n      }\r\n    }\r\n\r\n    for (uint256 index = 0; index < verifierRequests[_verifier].length; index++) {\r\n      if (compareStringsbyBytes(verifierRequests[_verifier][index].docName, _docName) && verifierRequests[_verifier][index].owner == msg.sender) {\r\n        verifierRequests[_verifier][index] = Request(_verifier, msg.sender, _docName, _properties, _newStatus);\r\n        break;\r\n      }\r\n    }\r\n\r\n    emit RequestStatusUpdated(_verifier, msg.sender);\r\n  }\r\n\r\n  function getOwnerRequests() view public returns(address[] memory, string[] memory, bytes[] memory, string[] memory) {\r\n    uint _reqCount = ownerRequests[msg.sender].length;\r\n    address[] memory _requestor = new address[](_reqCount);\r\n    string[] memory _docName = new string[](_reqCount);\r\n    bytes[] memory _properties = new bytes[](_reqCount);\r\n    string[] memory _status = new string[](_reqCount);\r\n\r\n    for (uint256 index = 0; index < _reqCount; index++) {\r\n      Request memory _reqCopy = ownerRequests[msg.sender][index];\r\n      _requestor[index] = _reqCopy.requestor;\r\n      _docName[index] = _reqCopy.docName;\r\n      _properties[index] = _reqCopy.properties;\r\n      _status[index] = _reqCopy.status;\r\n    }\r\n\r\n    return (_requestor, _docName, _properties, _status);\r\n  }\r\n\r\n  function getVerifierRequests() view public returns(address[] memory, string[] memory, bytes[] memory, string[] memory) {\r\n    uint _reqCount = verifierRequests[msg.sender].length;\r\n    address[] memory _owner = new address[](_reqCount);\r\n    string[] memory _docName = new string[](_reqCount);\r\n    bytes[] memory _properties = new bytes[](_reqCount);\r\n    string[] memory _status = new string[](_reqCount);\r\n\r\n    for (uint256 index = 0; index < _reqCount; index++) {\r\n      Request memory _reqCopy = verifierRequests[msg.sender][index];\r\n      _owner[index] = _reqCopy.owner;\r\n      _docName[index] = _reqCopy.docName;\r\n      _properties[index] = _reqCopy.properties;\r\n      _status[index] = _reqCopy.status;\r\n    }\r\n\r\n    return (_owner, _docName, _properties, _status);\r\n  }\r\n\r\n  function getEncryptionPublicKey(address _owner) view public returns(string memory) {\r\n    require(_owner != address(0));\r\n\r\n    return userDb[_owner].encryptionPublicKey;\r\n  }\r\n\r\n  function compareStringsbyBytes(string memory s1, string memory s2) public pure returns(bool) {\r\n    return keccak256(abi.encodePacked(s1)) == keccak256(abi.encodePacked(s2));\r\n  }\r\n\r\n  function append(string memory a, string memory b) internal pure returns (string memory) {\r\n    return string(abi.encodePacked(a, b));\r\n  }\r\n}",
  "sourcePath": "C:/Users/Chaitanya/Documents/Academics/Projects/UniversalIMS/IMS_Owner/contracts/IdentityManager.sol",
  "compiler": {
    "name": "solc",
    "version": "0.5.16+commit.9c3226ce.Emscripten.clang"
  },
  "schemaVersion": "3.3.4",
  "updatedAt": "2021-03-16T12:12:32.678Z",
  "networkType": "ethereum",
  "devdoc": {
    "methods": {}
  },
  "userdoc": {
    "methods": {}
  }
}