{
  "contractName": "IdentityManager",
  "abi": [
    {
      "anonymous": false,
      "inputs": [
        {
          "indexed": false,
          "internalType": "string",
          "name": "name",
          "type": "string"
        },
        {
          "indexed": false,
          "internalType": "string",
          "name": "data",
          "type": "string"
        },
        {
          "indexed": false,
          "internalType": "address",
          "name": "owner",
          "type": "address"
        },
        {
          "indexed": false,
          "internalType": "address",
          "name": "issuer",
          "type": "address"
        }
      ],
      "name": "DocumentIssued",
      "type": "event"
    },
    {
      "anonymous": false,
      "inputs": [
        {
          "indexed": false,
          "internalType": "address",
          "name": "issuer",
          "type": "address"
        },
        {
          "indexed": false,
          "internalType": "string",
          "name": "name",
          "type": "string"
        },
        {
          "indexed": false,
          "internalType": "string",
          "name": "data",
          "type": "string"
        }
      ],
      "name": "DocumentRetrived",
      "type": "event"
    },
    {
      "anonymous": false,
      "inputs": [
        {
          "indexed": false,
          "internalType": "address",
          "name": "verifier",
          "type": "address"
        },
        {
          "indexed": false,
          "internalType": "address",
          "name": "owner",
          "type": "address"
        },
        {
          "indexed": false,
          "internalType": "string",
          "name": "docName",
          "type": "string"
        },
        {
          "indexed": false,
          "internalType": "string",
          "name": "properties",
          "type": "string"
        },
        {
          "indexed": false,
          "internalType": "string",
          "name": "status",
          "type": "string"
        }
      ],
      "name": "RequestGenerated",
      "type": "event"
    },
    {
      "anonymous": false,
      "inputs": [
        {
          "indexed": false,
          "internalType": "address",
          "name": "verifier",
          "type": "address"
        },
        {
          "indexed": false,
          "internalType": "address",
          "name": "owner",
          "type": "address"
        },
        {
          "indexed": false,
          "internalType": "string",
          "name": "docName",
          "type": "string"
        },
        {
          "indexed": false,
          "internalType": "string",
          "name": "status",
          "type": "string"
        }
      ],
      "name": "RequestStatusUpdated",
      "type": "event"
    },
    {
      "anonymous": false,
      "inputs": [
        {
          "indexed": false,
          "internalType": "address",
          "name": "issuer",
          "type": "address"
        },
        {
          "indexed": false,
          "internalType": "string",
          "name": "name",
          "type": "string"
        },
        {
          "indexed": false,
          "internalType": "string",
          "name": "data",
          "type": "string"
        }
      ],
      "name": "TemplateCreated",
      "type": "event"
    },
    {
      "constant": false,
      "inputs": [
        {
          "internalType": "string",
          "name": "_name",
          "type": "string"
        },
        {
          "internalType": "string",
          "name": "_data",
          "type": "string"
        },
        {
          "internalType": "address",
          "name": "_owner",
          "type": "address"
        }
      ],
      "name": "issueDocument",
      "outputs": [],
      "payable": false,
      "stateMutability": "nonpayable",
      "type": "function"
    },
    {
      "constant": false,
      "inputs": [
        {
          "internalType": "string",
          "name": "_name",
          "type": "string"
        },
        {
          "internalType": "string",
          "name": "_data",
          "type": "string"
        }
      ],
      "name": "createTemplate",
      "outputs": [],
      "payable": false,
      "stateMutability": "nonpayable",
      "type": "function"
    },
    {
      "constant": true,
      "inputs": [],
      "name": "getTemplates",
      "outputs": [
        {
          "internalType": "address[]",
          "name": "",
          "type": "address[]"
        },
        {
          "internalType": "string[]",
          "name": "",
          "type": "string[]"
        },
        {
          "internalType": "string[]",
          "name": "",
          "type": "string[]"
        }
      ],
      "payable": false,
      "stateMutability": "view",
      "type": "function"
    },
    {
      "constant": true,
      "inputs": [],
      "name": "getDocuments",
      "outputs": [
        {
          "internalType": "address[]",
          "name": "",
          "type": "address[]"
        },
        {
          "internalType": "string[]",
          "name": "",
          "type": "string[]"
        },
        {
          "internalType": "string[]",
          "name": "",
          "type": "string[]"
        }
      ],
      "payable": false,
      "stateMutability": "view",
      "type": "function"
    },
    {
      "constant": false,
      "inputs": [
        {
          "internalType": "string",
          "name": "_name",
          "type": "string"
        },
        {
          "internalType": "address",
          "name": "_owner",
          "type": "address"
        }
      ],
      "name": "getDocument",
      "outputs": [
        {
          "internalType": "address",
          "name": "",
          "type": "address"
        },
        {
          "internalType": "string",
          "name": "",
          "type": "string"
        },
        {
          "internalType": "string",
          "name": "",
          "type": "string"
        }
      ],
      "payable": false,
      "stateMutability": "nonpayable",
      "type": "function"
    },
    {
      "constant": true,
      "inputs": [],
      "name": "getDocumentCount",
      "outputs": [
        {
          "internalType": "uint256",
          "name": "",
          "type": "uint256"
        }
      ],
      "payable": false,
      "stateMutability": "view",
      "type": "function"
    },
    {
      "constant": false,
      "inputs": [
        {
          "internalType": "address",
          "name": "_owner",
          "type": "address"
        },
        {
          "internalType": "string",
          "name": "_docName",
          "type": "string"
        },
        {
          "internalType": "string",
          "name": "_properties",
          "type": "string"
        }
      ],
      "name": "requestVerification",
      "outputs": [],
      "payable": false,
      "stateMutability": "nonpayable",
      "type": "function"
    },
    {
      "constant": false,
      "inputs": [
        {
          "internalType": "address",
          "name": "_verifier",
          "type": "address"
        },
        {
          "internalType": "string",
          "name": "_docName",
          "type": "string"
        },
        {
          "internalType": "string",
          "name": "_newStatus",
          "type": "string"
        }
      ],
      "name": "updateRequestStatus",
      "outputs": [],
      "payable": false,
      "stateMutability": "nonpayable",
      "type": "function"
    },
    {
      "constant": true,
      "inputs": [],
      "name": "getOwnerRequests",
      "outputs": [
        {
          "internalType": "address[]",
          "name": "",
          "type": "address[]"
        },
        {
          "internalType": "address[]",
          "name": "",
          "type": "address[]"
        },
        {
          "internalType": "string[]",
          "name": "",
          "type": "string[]"
        },
        {
          "internalType": "string[]",
          "name": "",
          "type": "string[]"
        },
        {
          "internalType": "string[]",
          "name": "",
          "type": "string[]"
        }
      ],
      "payable": false,
      "stateMutability": "view",
      "type": "function"
    },
    {
      "constant": true,
      "inputs": [],
      "name": "getVerifierRequests",
      "outputs": [
        {
          "internalType": "address[]",
          "name": "",
          "type": "address[]"
        },
        {
          "internalType": "address[]",
          "name": "",
          "type": "address[]"
        },
        {
          "internalType": "string[]",
          "name": "",
          "type": "string[]"
        },
        {
          "internalType": "string[]",
          "name": "",
          "type": "string[]"
        },
        {
          "internalType": "string[]",
          "name": "",
          "type": "string[]"
        }
      ],
      "payable": false,
      "stateMutability": "view",
      "type": "function"
    },
    {
      "constant": true,
      "inputs": [
        {
          "internalType": "string",
          "name": "s1",
          "type": "string"
        },
        {
          "internalType": "string",
          "name": "s2",
          "type": "string"
        }
      ],
      "name": "compareStringsbyBytes",
      "outputs": [
        {
          "internalType": "bool",
          "name": "",
          "type": "bool"
        }
      ],
      "payable": false,
      "stateMutability": "pure",
      "type": "function"
    }
  ],
  "bytecode": "0x608060405234801561001057600080fd5b506132ad806100206000396000f3fe608060405234801561001057600080fd5b50600436106100a95760003560e01c8063bcfce47111610071578063bcfce47114610158578063c939227a14610174578063e64ae11914610190578063e9a734ff146101b0578063ef2d8700146101e0578063f879a78214610200576100a9565b80630caeaf65146100ae5780632d46b0ad146100e05780633d1c2273146101025780633e092e45146101205780636aeae8371461013c575b600080fd5b6100c860048036036100c3919081019061276d565b610222565b6040516100d793929190612dff565b60405180910390f35b6100e861053b565b6040516100f9959493929190612e89565b60405180910390f35b61010a610abf565b6040516101179190613059565b60405180910390f35b61013a600480360361013591908101906126ee565b610b08565b005b610156600480360361015191908101906127c1565b610f89565b005b610172600480360361016d919081019061282d565b6111cb565b005b61018e600480360361018991908101906126ee565b6113b6565b005b610198611817565b6040516101a793929190612eff565b60405180910390f35b6101ca60048036036101c591908101906127c1565b611b48565b6040516101d79190612f4b565b60405180910390f35b6101e8611ba1565b6040516101f793929190612eff565b60405180910390f35b610208611f4a565b604051610219959493929190612e89565b60405180910390f35b600060608060008090506000808673ffffffffffffffffffffffffffffffffffffffff1673ffffffffffffffffffffffffffffffffffffffff168152602001908152602001600020805490508110156105325761027d6124ce565b6000808773ffffffffffffffffffffffffffffffffffffffff1673ffffffffffffffffffffffffffffffffffffffff16815260200190815260200160002082815481106102c657fe5b90600052602060002090600302016040518060600160405290816000820160009054906101000a900473ffffffffffffffffffffffffffffffffffffffff1673ffffffffffffffffffffffffffffffffffffffff1673ffffffffffffffffffffffffffffffffffffffff168152602001600182018054600181600116156101000203166002900480601f0160208091040260200160405190810160405280929190818152602001828054600181600116156101000203166002900480156103ce5780601f106103a3576101008083540402835291602001916103ce565b820191906000526020600020905b8154815290600101906020018083116103b157829003601f168201915b50505050508152602001600282018054600181600116156101000203166002900480601f0160208091040260200160405190810160405280929190818152602001828054600181600116156101000203166002900480156104705780601f1061044557610100808354040283529160200191610470565b820191906000526020600020905b81548152906001019060200180831161045357829003601f168201915b5050505050815250509050610489878260200151611b48565b156104f7577fe8888eabf0437c2b9d13bf7af5b1005b5deae854dd6d426c32d0937bb86def7b8160000151826020015183604001516040516104cd93929190612e44565b60405180910390a18060000151816020015182604001518191508090509450945094505050610534565b6040517f08c379a000000000000000000000000000000000000000000000000000000000815260040161052990612fb9565b60405180910390fd5b505b9250925092565b60608060608060606000600160003373ffffffffffffffffffffffffffffffffffffffff1673ffffffffffffffffffffffffffffffffffffffff1681526020019081526020016000208054905090506060816040519080825280602002602001820160405280156105bb5781602001602082028038833980820191505090505b5090506060826040519080825280602002602001820160405280156105ef5781602001602082028038833980820191505090505b50905060608360405190808252806020026020018201604052801561062857816020015b60608152602001906001900390816106135790505b50905060608460405190808252806020026020018201604052801561066157816020015b606081526020019060019003908161064c5790505b50905060608560405190808252806020026020018201604052801561069a57816020015b60608152602001906001900390816106855790505b50905060008090505b86811015610aa2576106b3612505565b600160003373ffffffffffffffffffffffffffffffffffffffff1673ffffffffffffffffffffffffffffffffffffffff16815260200190815260200160002082815481106106fd57fe5b90600052602060002090600502016040518060a00160405290816000820160009054906101000a900473ffffffffffffffffffffffffffffffffffffffff1673ffffffffffffffffffffffffffffffffffffffff1673ffffffffffffffffffffffffffffffffffffffff1681526020016001820160009054906101000a900473ffffffffffffffffffffffffffffffffffffffff1673ffffffffffffffffffffffffffffffffffffffff1673ffffffffffffffffffffffffffffffffffffffff168152602001600282018054600181600116156101000203166002900480601f01602080910402602001604051908101604052809291908181526020018280546001816001161561010002031660029004801561085b5780601f106108305761010080835404028352916020019161085b565b820191906000526020600020905b81548152906001019060200180831161083e57829003601f168201915b50505050508152602001600382018054600181600116156101000203166002900480601f0160208091040260200160405190810160405280929190818152602001828054600181600116156101000203166002900480156108fd5780601f106108d2576101008083540402835291602001916108fd565b820191906000526020600020905b8154815290600101906020018083116108e057829003601f168201915b50505050508152602001600482018054600181600116156101000203166002900480601f01602080910402602001604051908101604052809291908181526020018280546001816001161561010002031660029004801561099f5780601f106109745761010080835404028352916020019161099f565b820191906000526020600020905b81548152906001019060200180831161098257829003601f168201915b505050505081525050905080600001518783815181106109bb57fe5b602002602001019073ffffffffffffffffffffffffffffffffffffffff16908173ffffffffffffffffffffffffffffffffffffffff16815250508060200151868381518110610a0657fe5b602002602001019073ffffffffffffffffffffffffffffffffffffffff16908173ffffffffffffffffffffffffffffffffffffffff16815250508060400151858381518110610a5157fe5b60200260200101819052508060600151848381518110610a6d57fe5b60200260200101819052508060800151838381518110610a8957fe5b60200260200101819052505080806001019150506106a3565b5084848484849a509a509a509a509a505050505050509091929394565b60008060003373ffffffffffffffffffffffffffffffffffffffff1673ffffffffffffffffffffffffffffffffffffffff16815260200190815260200160002080549050905090565b8273ffffffffffffffffffffffffffffffffffffffff163373ffffffffffffffffffffffffffffffffffffffff161415610b77576040517f08c379a0000000000000000000000000000000000000000000000000000000008152600401610b6e90613019565b60405180910390fd5b6000825111610b8557600080fd5b6000815111610b9357600080fd5b600160008473ffffffffffffffffffffffffffffffffffffffff1673ffffffffffffffffffffffffffffffffffffffff1681526020019081526020016000206040518060a001604052803373ffffffffffffffffffffffffffffffffffffffff1681526020018573ffffffffffffffffffffffffffffffffffffffff1681526020018481526020018381526020016040518060400160405280600981526020017f52657175657374656400000000000000000000000000000000000000000000008152508152509080600181540180825580915050906001820390600052602060002090600502016000909192909190915060008201518160000160006101000a81548173ffffffffffffffffffffffffffffffffffffffff021916908373ffffffffffffffffffffffffffffffffffffffff16021790555060208201518160010160006101000a81548173ffffffffffffffffffffffffffffffffffffffff021916908373ffffffffffffffffffffffffffffffffffffffff1602179055506040820151816002019080519060200190610d2f929190612560565b506060820151816003019080519060200190610d4c929190612560565b506080820151816004019080519060200190610d69929190612560565b50505050600260003373ffffffffffffffffffffffffffffffffffffffff1673ffffffffffffffffffffffffffffffffffffffff1681526020019081526020016000206040518060a001604052803373ffffffffffffffffffffffffffffffffffffffff1681526020018573ffffffffffffffffffffffffffffffffffffffff1681526020018481526020018381526020016040518060400160405280600981526020017f52657175657374656400000000000000000000000000000000000000000000008152508152509080600181540180825580915050906001820390600052602060002090600502016000909192909190915060008201518160000160006101000a81548173ffffffffffffffffffffffffffffffffffffffff021916908373ffffffffffffffffffffffffffffffffffffffff16021790555060208201518160010160006101000a81548173ffffffffffffffffffffffffffffffffffffffff021916908373ffffffffffffffffffffffffffffffffffffffff1602179055506040820151816002019080519060200190610f09929190612560565b506060820151816003019080519060200190610f26929190612560565b506080820151816004019080519060200190610f43929190612560565b505050507f61487ae7fac5961d9d437176b1ce54a4974bdfd833fb203ccece47b30808697133848484604051610f7c9493929190612d01565b60405180910390a1505050565b60008090505b6003805490508110156110a95761105c60038281548110610fac57fe5b90600052602060002090600302016001018054600181600116156101000203166002900480601f0160208091040260200160405190810160405280929190818152602001828054600181600116156101000203166002900480156110515780601f1061102657610100808354040283529160200191611051565b820191906000526020600020905b81548152906001019060200180831161103457829003601f168201915b505050505084611b48565b1561109c576040517f08c379a000000000000000000000000000000000000000000000000000000000815260040161109390613039565b60405180910390fd5b8080600101915050610f8f565b50600360405180606001604052803373ffffffffffffffffffffffffffffffffffffffff168152602001848152602001838152509080600181540180825580915050906001820390600052602060002090600302016000909192909190915060008201518160000160006101000a81548173ffffffffffffffffffffffffffffffffffffffff021916908373ffffffffffffffffffffffffffffffffffffffff160217905550602082015181600101908051906020019061116b929190612560565b506040820151816002019080519060200190611188929190612560565b505050507f117e6f249d6362fc177ab883601ab259c396baf77890be9f74de8837d64f76853383836040516111bf93929190612d67565b60405180910390a15050565b60008351116111d957600080fd5b60008251116111e757600080fd5b3373ffffffffffffffffffffffffffffffffffffffff168173ffffffffffffffffffffffffffffffffffffffff161415611256576040517f08c379a000000000000000000000000000000000000000000000000000000000815260040161124d90612ff9565b60405180910390fd5b6000808273ffffffffffffffffffffffffffffffffffffffff1673ffffffffffffffffffffffffffffffffffffffff16815260200190815260200160002060405180606001604052803373ffffffffffffffffffffffffffffffffffffffff168152602001858152602001848152509080600181540180825580915050906001820390600052602060002090600302016000909192909190915060008201518160000160006101000a81548173ffffffffffffffffffffffffffffffffffffffff021916908373ffffffffffffffffffffffffffffffffffffffff1602179055506020820151816001019080519060200190611353929190612560565b506040820151816002019080519060200190611370929190612560565b505050507f95991b659d1dfa1262d929693d81c4c5b6855d5628c8737e9404f460d1a3678d838383336040516113a99493929190612f66565b60405180910390a1505050565b3373ffffffffffffffffffffffffffffffffffffffff168373ffffffffffffffffffffffffffffffffffffffff161415611425576040517f08c379a000000000000000000000000000000000000000000000000000000000815260040161141c90612fd9565b60405180910390fd5b600082511161143357600080fd5b60008090505b600160003373ffffffffffffffffffffffffffffffffffffffff1673ffffffffffffffffffffffffffffffffffffffff1681526020019081526020016000208054905081101561160357611580600160003373ffffffffffffffffffffffffffffffffffffffff1673ffffffffffffffffffffffffffffffffffffffff16815260200190815260200160002082815481106114d057fe5b90600052602060002090600502016002018054600181600116156101000203166002900480601f0160208091040260200160405190810160405280929190818152602001828054600181600116156101000203166002900480156115755780601f1061154a57610100808354040283529160200191611575565b820191906000526020600020905b81548152906001019060200180831161155857829003601f168201915b505050505084611b48565b156115f65781600160003373ffffffffffffffffffffffffffffffffffffffff1673ffffffffffffffffffffffffffffffffffffffff16815260200190815260200160002082815481106115d057fe5b906000526020600020906005020160040190805190602001906115f49291906125e0565b505b8080600101915050611439565b5060008090505b600260008573ffffffffffffffffffffffffffffffffffffffff1673ffffffffffffffffffffffffffffffffffffffff168152602001908152602001600020805490508110156117d457611751600260008673ffffffffffffffffffffffffffffffffffffffff1673ffffffffffffffffffffffffffffffffffffffff16815260200190815260200160002082815481106116a157fe5b90600052602060002090600502016002018054600181600116156101000203166002900480601f0160208091040260200160405190810160405280929190818152602001828054600181600116156101000203166002900480156117465780601f1061171b57610100808354040283529160200191611746565b820191906000526020600020905b81548152906001019060200180831161172957829003601f168201915b505050505084611b48565b156117c75781600260008673ffffffffffffffffffffffffffffffffffffffff1673ffffffffffffffffffffffffffffffffffffffff16815260200190815260200160002082815481106117a157fe5b906000526020600020906005020160040190805190602001906117c59291906125e0565b505b808060010191505061160a565b507f0b4e4df4afc4a667d4bd2de7b8ca16553bf5be65540a76af50ec67db7fe40e898333848460405161180a9493929190612dac565b60405180910390a1505050565b6060806060600060038054905090506060816040519080825280602002602001820160405280156118575781602001602082028038833980820191505090505b50905060608260405190808252806020026020018201604052801561189057816020015b606081526020019060019003908161187b5790505b5090506060836040519080825280602002602001820160405280156118c957816020015b60608152602001906001900390816118b45790505b50905060008090505b84811015611b35576118e26124ce565b600382815481106118ef57fe5b90600052602060002090600302016040518060600160405290816000820160009054906101000a900473ffffffffffffffffffffffffffffffffffffffff1673ffffffffffffffffffffffffffffffffffffffff1673ffffffffffffffffffffffffffffffffffffffff168152602001600182018054600181600116156101000203166002900480601f0160208091040260200160405190810160405280929190818152602001828054600181600116156101000203166002900480156119f75780601f106119cc576101008083540402835291602001916119f7565b820191906000526020600020905b8154815290600101906020018083116119da57829003601f168201915b50505050508152602001600282018054600181600116156101000203166002900480601f016020809104026020016040519081016040528092919081815260200182805460018160011615610100020316600290048015611a995780601f10611a6e57610100808354040283529160200191611a99565b820191906000526020600020905b815481529060010190602001808311611a7c57829003601f168201915b50505050508152505090508060000151858381518110611ab557fe5b602002602001019073ffffffffffffffffffffffffffffffffffffffff16908173ffffffffffffffffffffffffffffffffffffffff16815250508060200151848381518110611b0057fe5b60200260200101819052508060400151838381518110611b1c57fe5b60200260200101819052505080806001019150506118d2565b5082828296509650965050505050909192565b600081604051602001611b5b9190612cea565b6040516020818303038152906040528051906020012083604051602001611b829190612cea565b6040516020818303038152906040528051906020012014905092915050565b606080606060008060003373ffffffffffffffffffffffffffffffffffffffff1673ffffffffffffffffffffffffffffffffffffffff168152602001908152602001600020805490509050606081604051908082528060200260200182016040528015611c1d5781602001602082028038833980820191505090505b509050606082604051908082528060200260200182016040528015611c5657816020015b6060815260200190600190039081611c415790505b509050606083604051908082528060200260200182016040528015611c8f57816020015b6060815260200190600190039081611c7a5790505b50905060008090505b84811015611f3757611ca86124ce565b6000803373ffffffffffffffffffffffffffffffffffffffff1673ffffffffffffffffffffffffffffffffffffffff1681526020019081526020016000208281548110611cf157fe5b90600052602060002090600302016040518060600160405290816000820160009054906101000a900473ffffffffffffffffffffffffffffffffffffffff1673ffffffffffffffffffffffffffffffffffffffff1673ffffffffffffffffffffffffffffffffffffffff168152602001600182018054600181600116156101000203166002900480601f016020809104026020016040519081016040528092919081815260200182805460018160011615610100020316600290048015611df95780601f10611dce57610100808354040283529160200191611df9565b820191906000526020600020905b815481529060010190602001808311611ddc57829003601f168201915b50505050508152602001600282018054600181600116156101000203166002900480601f016020809104026020016040519081016040528092919081815260200182805460018160011615610100020316600290048015611e9b5780601f10611e7057610100808354040283529160200191611e9b565b820191906000526020600020905b815481529060010190602001808311611e7e57829003601f168201915b50505050508152505090508060000151858381518110611eb757fe5b602002602001019073ffffffffffffffffffffffffffffffffffffffff16908173ffffffffffffffffffffffffffffffffffffffff16815250508060200151848381518110611f0257fe5b60200260200101819052508060400151838381518110611f1e57fe5b6020026020010181905250508080600101915050611c98565b5082828296509650965050505050909192565b60608060608060606000600260003373ffffffffffffffffffffffffffffffffffffffff1673ffffffffffffffffffffffffffffffffffffffff168152602001908152602001600020805490509050606081604051908082528060200260200182016040528015611fca5781602001602082028038833980820191505090505b509050606082604051908082528060200260200182016040528015611ffe5781602001602082028038833980820191505090505b50905060608360405190808252806020026020018201604052801561203757816020015b60608152602001906001900390816120225790505b50905060608460405190808252806020026020018201604052801561207057816020015b606081526020019060019003908161205b5790505b5090506060856040519080825280602002602001820160405280156120a957816020015b60608152602001906001900390816120945790505b50905060008090505b868110156124b1576120c2612505565b600260003373ffffffffffffffffffffffffffffffffffffffff1673ffffffffffffffffffffffffffffffffffffffff168152602001908152602001600020828154811061210c57fe5b90600052602060002090600502016040518060a00160405290816000820160009054906101000a900473ffffffffffffffffffffffffffffffffffffffff1673ffffffffffffffffffffffffffffffffffffffff1673ffffffffffffffffffffffffffffffffffffffff1681526020016001820160009054906101000a900473ffffffffffffffffffffffffffffffffffffffff1673ffffffffffffffffffffffffffffffffffffffff1673ffffffffffffffffffffffffffffffffffffffff168152602001600282018054600181600116156101000203166002900480601f01602080910402602001604051908101604052809291908181526020018280546001816001161561010002031660029004801561226a5780601f1061223f5761010080835404028352916020019161226a565b820191906000526020600020905b81548152906001019060200180831161224d57829003601f168201915b50505050508152602001600382018054600181600116156101000203166002900480601f01602080910402602001604051908101604052809291908181526020018280546001816001161561010002031660029004801561230c5780601f106122e15761010080835404028352916020019161230c565b820191906000526020600020905b8154815290600101906020018083116122ef57829003601f168201915b50505050508152602001600482018054600181600116156101000203166002900480601f0160208091040260200160405190810160405280929190818152602001828054600181600116156101000203166002900480156123ae5780601f10612383576101008083540402835291602001916123ae565b820191906000526020600020905b81548152906001019060200180831161239157829003601f168201915b505050505081525050905080600001518783815181106123ca57fe5b602002602001019073ffffffffffffffffffffffffffffffffffffffff16908173ffffffffffffffffffffffffffffffffffffffff1681525050806020015186838151811061241557fe5b602002602001019073ffffffffffffffffffffffffffffffffffffffff16908173ffffffffffffffffffffffffffffffffffffffff1681525050806040015185838151811061246057fe5b6020026020010181905250806060015184838151811061247c57fe5b6020026020010181905250806080015183838151811061249857fe5b60200260200101819052505080806001019150506120b2565b5084848484849a509a509a509a509a505050505050509091929394565b6040518060600160405280600073ffffffffffffffffffffffffffffffffffffffff16815260200160608152602001606081525090565b6040518060a00160405280600073ffffffffffffffffffffffffffffffffffffffff168152602001600073ffffffffffffffffffffffffffffffffffffffff1681526020016060815260200160608152602001606081525090565b828054600181600116156101000203166002900490600052602060002090601f016020900481019282601f106125a157805160ff19168380011785556125cf565b828001600101855582156125cf579182015b828111156125ce5782518255916020019190600101906125b3565b5b5090506125dc9190612660565b5090565b828054600181600116156101000203166002900490600052602060002090601f016020900481019282601f1061262157805160ff191683800117855561264f565b8280016001018555821561264f579182015b8281111561264e578251825591602001919060010190612633565b5b50905061265c9190612660565b5090565b61268291905b8082111561267e576000816000905550600101612666565b5090565b90565b60008135905061269481613253565b92915050565b600082601f8301126126ab57600080fd5b81356126be6126b9826130a1565b613074565b915080825260208301602083018583830111156126da57600080fd5b6126e5838284613200565b50505092915050565b60008060006060848603121561270357600080fd5b600061271186828701612685565b935050602084013567ffffffffffffffff81111561272e57600080fd5b61273a8682870161269a565b925050604084013567ffffffffffffffff81111561275757600080fd5b6127638682870161269a565b9150509250925092565b6000806040838503121561278057600080fd5b600083013567ffffffffffffffff81111561279a57600080fd5b6127a68582860161269a565b92505060206127b785828601612685565b9150509250929050565b600080604083850312156127d457600080fd5b600083013567ffffffffffffffff8111156127ee57600080fd5b6127fa8582860161269a565b925050602083013567ffffffffffffffff81111561281757600080fd5b6128238582860161269a565b9150509250929050565b60008060006060848603121561284257600080fd5b600084013567ffffffffffffffff81111561285c57600080fd5b6128688682870161269a565b935050602084013567ffffffffffffffff81111561288557600080fd5b6128918682870161269a565b92505060406128a286828701612685565b9150509250925092565b60006128b883836128e7565b60208301905092915050565b60006128d08383612a51565b905092915050565b6128e1816131ca565b82525050565b6128f081613182565b82525050565b6128ff81613182565b82525050565b6000612910826130ed565b61291a8185613133565b9350612925836130cd565b8060005b8381101561295657815161293d88826128ac565b975061294883613119565b925050600181019050612929565b5085935050505092915050565b600061296e826130f8565b6129788185613144565b93508360208202850161298a856130dd565b8060005b858110156129c657848403895281516129a785826128c4565b94506129b283613126565b925060208a0199505060018101905061298e565b50829750879550505050505092915050565b6129e181613194565b82525050565b60006129f28261310e565b6129fc8185613166565b9350612a0c81856020860161320f565b612a1581613242565b840191505092915050565b6000612a2b8261310e565b612a358185613177565b9350612a4581856020860161320f565b80840191505092915050565b6000612a5c82613103565b612a668185613155565b9350612a7681856020860161320f565b612a7f81613242565b840191505092915050565b6000612a9582613103565b612a9f8185613166565b9350612aaf81856020860161320f565b612ab881613242565b840191505092915050565b6000612ad0600983613166565b91507f52657175657374656400000000000000000000000000000000000000000000006000830152602082019050919050565b6000612b10602583613166565b91507f5573657220646f6573206e6f7420686176652073706563696669656420646f6360008301527f756d656e740000000000000000000000000000000000000000000000000000006020830152604082019050919050565b6000612b76602583613166565b91507f56657269666965722063616e6e6f74207570646174652072657175657374207360008301527f74617475730000000000000000000000000000000000000000000000000000006020830152604082019050919050565b6000612bdc602683613166565b91507f596f752063616e6e6f7420697373756520646f63756d656e7420666f7220796f60008301527f757273656c6600000000000000000000000000000000000000000000000000006020830152604082019050919050565b6000612c42602883613166565b91507f43616e6e6f74207265717565737420766572696669636174696f6e20666f722060008301527f796f757273656c660000000000000000000000000000000000000000000000006020830152604082019050919050565b6000612ca8601783613166565b91507f54656d706c61746520616c7265616479206578697374730000000000000000006000830152602082019050919050565b612ce4816131c0565b82525050565b6000612cf68284612a20565b915081905092915050565b600060a082019050612d1660008301876128d8565b612d2360208301866128f6565b8181036040830152612d3581856129e7565b90508181036060830152612d4981846129e7565b90508181036080830152612d5c81612ac3565b905095945050505050565b6000606082019050612d7c60008301866128d8565b8181036020830152612d8e81856129e7565b90508181036040830152612da281846129e7565b9050949350505050565b6000608082019050612dc160008301876128f6565b612dce60208301866128d8565b8181036040830152612de081856129e7565b90508181036060830152612df481846129e7565b905095945050505050565b6000606082019050612e1460008301866128f6565b8181036020830152612e2681856129e7565b90508181036040830152612e3a81846129e7565b9050949350505050565b6000606082019050612e5960008301866128f6565b8181036020830152612e6b8185612a8a565b90508181036040830152612e7f8184612a8a565b9050949350505050565b600060a0820190508181036000830152612ea38188612905565b90508181036020830152612eb78187612905565b90508181036040830152612ecb8186612963565b90508181036060830152612edf8185612963565b90508181036080830152612ef38184612963565b90509695505050505050565b60006060820190508181036000830152612f198186612905565b90508181036020830152612f2d8185612963565b90508181036040830152612f418184612963565b9050949350505050565b6000602082019050612f6060008301846129d8565b92915050565b60006080820190508181036000830152612f8081876129e7565b90508181036020830152612f9481866129e7565b9050612fa360408301856128f6565b612fb060608301846128d8565b95945050505050565b60006020820190508181036000830152612fd281612b03565b9050919050565b60006020820190508181036000830152612ff281612b69565b9050919050565b6000602082019050818103600083015261301281612bcf565b9050919050565b6000602082019050818103600083015261303281612c35565b9050919050565b6000602082019050818103600083015261305281612c9b565b9050919050565b600060208201905061306e6000830184612cdb565b92915050565b6000604051905081810181811067ffffffffffffffff8211171561309757600080fd5b8060405250919050565b600067ffffffffffffffff8211156130b857600080fd5b601f19601f8301169050602081019050919050565b6000819050602082019050919050565b6000819050602082019050919050565b600081519050919050565b600081519050919050565b600081519050919050565b600081519050919050565b6000602082019050919050565b6000602082019050919050565b600082825260208201905092915050565b600082825260208201905092915050565b600082825260208201905092915050565b600082825260208201905092915050565b600081905092915050565b600061318d826131a0565b9050919050565b60008115159050919050565b600073ffffffffffffffffffffffffffffffffffffffff82169050919050565b6000819050919050565b60006131d5826131dc565b9050919050565b60006131e7826131ee565b9050919050565b60006131f9826131a0565b9050919050565b82818337600083830152505050565b60005b8381101561322d578082015181840152602081019050613212565b8381111561323c576000848401525b50505050565b6000601f19601f8301169050919050565b61325c81613182565b811461326757600080fd5b5056fea365627a7a72315820956a0a23a5e6db83e96dfea978792c1388bd0aace6b2ed2754de4af711303f456c6578706572696d656e74616cf564736f6c63430005100040",
  "source": "// SPDX-License-Identifier: MIT\r\npragma solidity >=0.4.21 <0.7.0;\r\npragma experimental ABIEncoderV2;\r\n\r\ncontract IdentityManager {\r\n\r\n  struct Document {\r\n    address issuer;\r\n    string name;\r\n    string data;\r\n  }\r\n\r\n  struct Request {\r\n    address requestor;\r\n    address owner;\r\n    string docName;\r\n    string properties;\r\n    string status;\r\n  }\r\n\r\n  mapping(address => Document[]) identities;\r\n  mapping(address => Request[]) ownerRequests;\r\n  mapping(address => Request[]) verifierRequests;\r\n  Document[] templates;\r\n\r\n  event DocumentIssued (\r\n    string name,\r\n    string data,\r\n    address owner,\r\n    address issuer\r\n  );\r\n\r\n  event DocumentRetrived (\r\n    address issuer,\r\n    string name,\r\n    string data\r\n  );\r\n\r\n  event TemplateCreated (\r\n    address issuer,\r\n    string name,\r\n    string data\r\n  );\r\n\r\n  event RequestGenerated (\r\n    address verifier,\r\n    address owner,\r\n    string docName,\r\n    string properties,\r\n    string status\r\n  );\r\n\r\n  event RequestStatusUpdated (\r\n    address verifier,\r\n    address owner,\r\n    string docName,\r\n    string status\r\n  );\r\n\r\n  function issueDocument(string memory _name, string memory _data, address _owner) public {\r\n    require(bytes(_name).length > 0);\r\n    require(bytes(_data).length > 0);\r\n    require(_owner != msg.sender, 'You cannot issue document for yourself');\r\n\r\n    identities[_owner].push(Document(msg.sender, _name, _data));\r\n    emit DocumentIssued(_name, _data, _owner, msg.sender);\r\n  }\r\n\r\n  function createTemplate(string memory _name, string memory _data) public {\r\n    for (uint256 index = 0; index < templates.length; index++) {\r\n      if (compareStringsbyBytes(templates[index].name, _name)) {\r\n        revert('Template already exists');\r\n      }\r\n    }\r\n    templates.push(Document(msg.sender, _name, _data));\r\n    emit TemplateCreated(msg.sender, _name, _data);\r\n  }\r\n\r\n  function getTemplates() view public returns(address[] memory, string[] memory, string[] memory) {\r\n    uint _templateCount = templates.length;\r\n    address[] memory _issuer = new address[](_templateCount);\r\n    string[] memory _name = new string[](_templateCount);\r\n    string[] memory _data = new string[](_templateCount);\r\n\r\n    for (uint256 index = 0; index < _templateCount; index++) {\r\n      Document memory _tempCopy = templates[index];\r\n      _issuer[index] = _tempCopy.issuer;\r\n      _name[index] = _tempCopy.name;\r\n      _data[index] = _tempCopy.data;\r\n    }\r\n\r\n    return (_issuer, _name, _data);\r\n  }\r\n\r\n  function getDocuments() view public returns(address[] memory, string[] memory, string[] memory) {\r\n    uint _documentCount = identities[msg.sender].length;\r\n    address[] memory _issuer = new address[](_documentCount);\r\n    string[] memory _name = new string[](_documentCount);\r\n    string[] memory _data = new string[](_documentCount);\r\n\r\n    for (uint256 index = 0; index < _documentCount; index++) {\r\n      Document memory _docCopy = identities[msg.sender][index];\r\n      _issuer[index] = _docCopy.issuer;\r\n      _name[index] = _docCopy.name;\r\n      _data[index] = _docCopy.data;\r\n    }\r\n\r\n    return (_issuer, _name, _data);\r\n  }\r\n\r\n  function getDocument(string memory _name, address _owner) public returns(address, string memory, string memory) {\r\n    for (uint256 index = 0; index < identities[_owner].length; index++) {\r\n      Document memory _docCopy = identities[_owner][index];\r\n      if (compareStringsbyBytes(_name, _docCopy.name)) {\r\n        emit DocumentRetrived(_docCopy.issuer, _docCopy.name, _docCopy.data);\r\n        return (_docCopy.issuer, _docCopy.name, _docCopy.data);\r\n      } else {\r\n        revert('User does not have specified document');\r\n      }\r\n    }\r\n  }\r\n\r\n  function getDocumentCount() view public returns(uint) {\r\n    return identities[msg.sender].length;\r\n  }\r\n\r\n  function requestVerification(address _owner, string memory _docName, string memory _properties) public {\r\n    require(msg.sender != _owner, 'Cannot request verification for yourself');\r\n    require(bytes(_docName).length > 0);\r\n    require(bytes(_properties).length > 0);\r\n\r\n    ownerRequests[_owner].push(Request(msg.sender, _owner, _docName, _properties, 'Requested'));\r\n    verifierRequests[msg.sender].push(Request(msg.sender, _owner, _docName, _properties, 'Requested'));\r\n    emit RequestGenerated(msg.sender, _owner, _docName, _properties, 'Requested');\r\n  }\r\n\r\n  function updateRequestStatus(address _verifier, string memory _docName, string memory _newStatus) public {\r\n    require(_verifier != msg.sender, 'Verifier cannot update request status');\r\n    require(bytes(_docName).length > 0);\r\n\r\n    for (uint256 index = 0; index < ownerRequests[msg.sender].length; index++) {\r\n      if (compareStringsbyBytes(ownerRequests[msg.sender][index].docName, _docName)) {\r\n        ownerRequests[msg.sender][index].status = _newStatus;\r\n      }\r\n    }\r\n\r\n    for (uint256 index = 0; index < verifierRequests[_verifier].length; index++) {\r\n      if (compareStringsbyBytes(verifierRequests[_verifier][index].docName, _docName)) {\r\n        verifierRequests[_verifier][index].status = _newStatus;\r\n      }\r\n    }\r\n\r\n    emit RequestStatusUpdated(_verifier, msg.sender, _docName, _newStatus);\r\n  }\r\n\r\n  function getOwnerRequests() view public returns(address[] memory, address[] memory, string[] memory, string[] memory, string[] memory) {\r\n    uint _reqCount = ownerRequests[msg.sender].length;\r\n    address[] memory _requestor = new address[](_reqCount);\r\n    address[] memory _owner = new address[](_reqCount);\r\n    string[] memory _docName = new string[](_reqCount);\r\n    string[] memory _properties = new string[](_reqCount);\r\n    string[] memory _status = new string[](_reqCount);\r\n\r\n    for (uint256 index = 0; index < _reqCount; index++) {\r\n      Request memory _reqCopy = ownerRequests[msg.sender][index];\r\n      _requestor[index] = _reqCopy.requestor;\r\n      _owner[index] = _reqCopy.owner;\r\n      _docName[index] = _reqCopy.docName;\r\n      _properties[index] = _reqCopy.properties;\r\n      _status[index] = _reqCopy.status;\r\n    }\r\n\r\n    return (_requestor, _owner, _docName, _properties, _status);\r\n  }\r\n\r\n  function getVerifierRequests() view public returns(address[] memory, address[] memory, string[] memory, string[] memory, string[] memory) {\r\n    uint _reqCount = verifierRequests[msg.sender].length;\r\n    address[] memory _requestor = new address[](_reqCount);\r\n    address[] memory _owner = new address[](_reqCount);\r\n    string[] memory _docName = new string[](_reqCount);\r\n    string[] memory _properties = new string[](_reqCount);\r\n    string[] memory _status = new string[](_reqCount);\r\n\r\n    for (uint256 index = 0; index < _reqCount; index++) {\r\n      Request memory _reqCopy = verifierRequests[msg.sender][index];\r\n      _requestor[index] = _reqCopy.requestor;\r\n      _owner[index] = _reqCopy.owner;\r\n      _docName[index] = _reqCopy.docName;\r\n      _properties[index] = _reqCopy.properties;\r\n      _status[index] = _reqCopy.status;\r\n    }\r\n\r\n    return (_requestor, _owner, _docName, _properties, _status);\r\n  }\r\n\r\n  function compareStringsbyBytes(string memory s1, string memory s2) public pure returns(bool) {\r\n    return keccak256(abi.encodePacked(s1)) == keccak256(abi.encodePacked(s2));\r\n  }\r\n}",
  "sourcePath": "C:/Users/Chaitanya/Documents/Academics/Projects/UniversalIMS/contracts/IdentityManager.sol",
  "compiler": {
    "name": "solc",
    "version": "0.5.16+commit.9c3226ce.Emscripten.clang"
  },
  "schemaVersion": "3.3.4",
  "updatedAt": "2021-03-02T14:33:35.977Z",
  "networkType": "ethereum",
  "devdoc": {
    "methods": {}
  },
  "userdoc": {
    "methods": {}
  }
}