{
  "contractName": "IdentityManager",
  "abi": [
    {
      "anonymous": false,
      "inputs": [
        {
          "indexed": true,
          "internalType": "address",
          "name": "owner",
          "type": "address"
        },
        {
          "indexed": true,
          "internalType": "address",
          "name": "issuer",
          "type": "address"
        }
      ],
      "name": "DocumentIssued",
      "type": "event"
    },
    {
      "anonymous": false,
      "inputs": [
        {
          "indexed": true,
          "internalType": "address",
          "name": "verifier",
          "type": "address"
        },
        {
          "indexed": true,
          "internalType": "address",
          "name": "owner",
          "type": "address"
        }
      ],
      "name": "RequestGenerated",
      "type": "event"
    },
    {
      "anonymous": false,
      "inputs": [
        {
          "indexed": true,
          "internalType": "address",
          "name": "verifier",
          "type": "address"
        },
        {
          "indexed": true,
          "internalType": "address",
          "name": "owner",
          "type": "address"
        },
        {
          "indexed": false,
          "internalType": "string",
          "name": "status",
          "type": "string"
        }
      ],
      "name": "RequestStatusUpdated",
      "type": "event"
    },
    {
      "anonymous": false,
      "inputs": [
        {
          "indexed": false,
          "internalType": "address",
          "name": "issuer",
          "type": "address"
        },
        {
          "indexed": false,
          "internalType": "string",
          "name": "name",
          "type": "string"
        }
      ],
      "name": "TemplateCreated",
      "type": "event"
    },
    {
      "anonymous": false,
      "inputs": [
        {
          "indexed": true,
          "internalType": "address",
          "name": "user",
          "type": "address"
        }
      ],
      "name": "UserRegistered",
      "type": "event"
    },
    {
      "constant": true,
      "inputs": [
        {
          "internalType": "string",
          "name": "_entity",
          "type": "string"
        },
        {
          "internalType": "string",
          "name": "_username",
          "type": "string"
        }
      ],
      "name": "login",
      "outputs": [
        {
          "internalType": "string",
          "name": "",
          "type": "string"
        },
        {
          "internalType": "string",
          "name": "",
          "type": "string"
        },
        {
          "internalType": "string",
          "name": "",
          "type": "string"
        }
      ],
      "payable": false,
      "stateMutability": "view",
      "type": "function"
    },
    {
      "constant": false,
      "inputs": [
        {
          "internalType": "string",
          "name": "_encryptionPublicKey",
          "type": "string"
        },
        {
          "internalType": "string",
          "name": "_entity",
          "type": "string"
        },
        {
          "internalType": "string",
          "name": "_username",
          "type": "string"
        }
      ],
      "name": "register",
      "outputs": [],
      "payable": false,
      "stateMutability": "nonpayable",
      "type": "function"
    },
    {
      "constant": false,
      "inputs": [
        {
          "internalType": "string",
          "name": "_name",
          "type": "string"
        },
        {
          "internalType": "uint256",
          "name": "_dateOfIssue",
          "type": "uint256"
        },
        {
          "internalType": "bytes",
          "name": "_data",
          "type": "bytes"
        },
        {
          "internalType": "string",
          "name": "_templateData",
          "type": "string"
        },
        {
          "internalType": "address",
          "name": "_owner",
          "type": "address"
        }
      ],
      "name": "issueDocument",
      "outputs": [],
      "payable": false,
      "stateMutability": "nonpayable",
      "type": "function"
    },
    {
      "constant": true,
      "inputs": [],
      "name": "getTemplates",
      "outputs": [
        {
          "internalType": "address[]",
          "name": "",
          "type": "address[]"
        },
        {
          "internalType": "string[]",
          "name": "",
          "type": "string[]"
        },
        {
          "internalType": "string[]",
          "name": "",
          "type": "string[]"
        }
      ],
      "payable": false,
      "stateMutability": "view",
      "type": "function"
    },
    {
      "constant": true,
      "inputs": [],
      "name": "getDocuments",
      "outputs": [
        {
          "internalType": "address[]",
          "name": "",
          "type": "address[]"
        },
        {
          "internalType": "string[]",
          "name": "",
          "type": "string[]"
        },
        {
          "internalType": "uint256[]",
          "name": "",
          "type": "uint256[]"
        },
        {
          "internalType": "string[]",
          "name": "",
          "type": "string[]"
        },
        {
          "internalType": "bytes[]",
          "name": "",
          "type": "bytes[]"
        }
      ],
      "payable": false,
      "stateMutability": "view",
      "type": "function"
    },
    {
      "constant": true,
      "inputs": [
        {
          "internalType": "string",
          "name": "_name",
          "type": "string"
        }
      ],
      "name": "getDocument",
      "outputs": [
        {
          "internalType": "address",
          "name": "",
          "type": "address"
        },
        {
          "internalType": "string",
          "name": "",
          "type": "string"
        },
        {
          "internalType": "bytes",
          "name": "",
          "type": "bytes"
        }
      ],
      "payable": false,
      "stateMutability": "view",
      "type": "function"
    },
    {
      "constant": true,
      "inputs": [],
      "name": "getDocumentCount",
      "outputs": [
        {
          "internalType": "uint256",
          "name": "",
          "type": "uint256"
        }
      ],
      "payable": false,
      "stateMutability": "view",
      "type": "function"
    },
    {
      "constant": false,
      "inputs": [
        {
          "internalType": "address",
          "name": "_owner",
          "type": "address"
        },
        {
          "internalType": "string",
          "name": "_docName",
          "type": "string"
        },
        {
          "internalType": "bytes",
          "name": "_propertiesOwner",
          "type": "bytes"
        },
        {
          "internalType": "bytes",
          "name": "_propertiesVerifier",
          "type": "bytes"
        }
      ],
      "name": "requestVerification",
      "outputs": [],
      "payable": false,
      "stateMutability": "nonpayable",
      "type": "function"
    },
    {
      "constant": false,
      "inputs": [
        {
          "internalType": "address",
          "name": "_verifier",
          "type": "address"
        },
        {
          "internalType": "string",
          "name": "_docName",
          "type": "string"
        },
        {
          "internalType": "string",
          "name": "_newStatus",
          "type": "string"
        },
        {
          "internalType": "bytes",
          "name": "_properties",
          "type": "bytes"
        }
      ],
      "name": "updateRequestStatus",
      "outputs": [],
      "payable": false,
      "stateMutability": "nonpayable",
      "type": "function"
    },
    {
      "constant": true,
      "inputs": [],
      "name": "getOwnerRequests",
      "outputs": [
        {
          "internalType": "address[]",
          "name": "",
          "type": "address[]"
        },
        {
          "internalType": "string[]",
          "name": "",
          "type": "string[]"
        },
        {
          "internalType": "string[]",
          "name": "",
          "type": "string[]"
        },
        {
          "internalType": "bytes[]",
          "name": "",
          "type": "bytes[]"
        },
        {
          "internalType": "string[]",
          "name": "",
          "type": "string[]"
        }
      ],
      "payable": false,
      "stateMutability": "view",
      "type": "function"
    },
    {
      "constant": true,
      "inputs": [],
      "name": "getVerifierRequests",
      "outputs": [
        {
          "internalType": "address[]",
          "name": "",
          "type": "address[]"
        },
        {
          "internalType": "string[]",
          "name": "",
          "type": "string[]"
        },
        {
          "internalType": "string[]",
          "name": "",
          "type": "string[]"
        },
        {
          "internalType": "bytes[]",
          "name": "",
          "type": "bytes[]"
        },
        {
          "internalType": "string[]",
          "name": "",
          "type": "string[]"
        }
      ],
      "payable": false,
      "stateMutability": "view",
      "type": "function"
    },
    {
      "constant": true,
      "inputs": [
        {
          "internalType": "address",
          "name": "_owner",
          "type": "address"
        }
      ],
      "name": "getEncryptionPublicKey",
      "outputs": [
        {
          "internalType": "string",
          "name": "",
          "type": "string"
        }
      ],
      "payable": false,
      "stateMutability": "view",
      "type": "function"
    },
    {
      "constant": true,
      "inputs": [
        {
          "internalType": "string",
          "name": "s1",
          "type": "string"
        },
        {
          "internalType": "string",
          "name": "s2",
          "type": "string"
        }
      ],
      "name": "compareStringsbyBytes",
      "outputs": [
        {
          "internalType": "bool",
          "name": "",
          "type": "bool"
        }
      ],
      "payable": false,
      "stateMutability": "pure",
      "type": "function"
    }
  ],
  "bytecode": "0x608060405234801561001057600080fd5b50615268806100206000396000f3fe608060405234801561001057600080fd5b50600436106100cf5760003560e01c80637ccb6a641161008c578063e64ae11911610066578063e64ae11914610218578063e9a734ff14610238578063ef2d870014610268578063f879a7821461028a576100cf565b80637ccb6a641461019a5780637d9f7b19146101cc578063c84066a6146101fc576100cf565b8063283dd002146100d45780632d46b0ad146100f05780633d1c2273146101125780634cd08d031461013057806358467dbc1461014c5780636d750cfd1461017e575b600080fd5b6100ee60048036036100e99190810190614382565b6102ac565b005b6100f86109c5565b604051610109959493929190614d08565b60405180910390f35b61011a610ff8565b6040516101279190614f5d565b60405180910390f35b61014a600480360361014591908101906144da565b611042565b005b6101666004803603610161919081019061446e565b611aaa565b60405161017593929190614e31565b60405180910390f35b610198600480360361019391908101906142d7565b612107565b005b6101b460048036036101af919081019061442d565b612801565b6040516101c393929190614c77565b60405180910390f35b6101e660048036036101e191908101906142ae565b612aed565b6040516101f39190614e0f565b60405180910390f35b61021660048036036102119190810190614571565b612c0a565b005b610220612e30565b60405161022f93929190614cbc565b60405180910390f35b610252600480360361024d919081019061446e565b613161565b60405161025f9190614df4565b60405180910390f35b6102706131ba565b604051610281959493929190614d7e565b60405180910390f35b6102926136fb565b6040516102a3959493929190614d08565b60405180910390f35b3373ffffffffffffffffffffffffffffffffffffffff168473ffffffffffffffffffffffffffffffffffffffff16141561031b576040517f08c379a000000000000000000000000000000000000000000000000000000000815260040161031290614ebd565b60405180910390fd5b600083511161032957600080fd5b60008090505b600360003373ffffffffffffffffffffffffffffffffffffffff1673ffffffffffffffffffffffffffffffffffffffff168152602001908152602001600020805490508110156105af57610476600360003373ffffffffffffffffffffffffffffffffffffffff1673ffffffffffffffffffffffffffffffffffffffff16815260200190815260200160002082815481106103c657fe5b90600052602060002090600502016002018054600181600116156101000203166002900480601f01602080910402602001604051908101604052809291908181526020018280546001816001161561010002031660029004801561046b5780601f106104405761010080835404028352916020019161046b565b820191906000526020600020905b81548152906001019060200180831161044e57829003601f168201915b505050505085613161565b801561052857508473ffffffffffffffffffffffffffffffffffffffff16600360003373ffffffffffffffffffffffffffffffffffffffff1673ffffffffffffffffffffffffffffffffffffffff16815260200190815260200160002082815481106104de57fe5b906000526020600020906005020160000160009054906101000a900473ffffffffffffffffffffffffffffffffffffffff1673ffffffffffffffffffffffffffffffffffffffff16145b156105a25782600360003373ffffffffffffffffffffffffffffffffffffffff1673ffffffffffffffffffffffffffffffffffffffff168152602001908152602001600020828154811061057857fe5b9060005260206000209060050201600401908051906020019061059c929190613f67565b506105af565b808060010191505061032f565b5060008090505b600460008673ffffffffffffffffffffffffffffffffffffffff1673ffffffffffffffffffffffffffffffffffffffff16815260200190815260200160002080549050811015610959576106fd600460008773ffffffffffffffffffffffffffffffffffffffff1673ffffffffffffffffffffffffffffffffffffffff168152602001908152602001600020828154811061064d57fe5b90600052602060002090600502016002018054600181600116156101000203166002900480601f0160208091040260200160405190810160405280929190818152602001828054600181600116156101000203166002900480156106f25780601f106106c7576101008083540402835291602001916106f2565b820191906000526020600020905b8154815290600101906020018083116106d557829003601f168201915b505050505085613161565b80156107af57503373ffffffffffffffffffffffffffffffffffffffff16600460008773ffffffffffffffffffffffffffffffffffffffff1673ffffffffffffffffffffffffffffffffffffffff168152602001908152602001600020828154811061076557fe5b906000526020600020906005020160010160009054906101000a900473ffffffffffffffffffffffffffffffffffffffff1673ffffffffffffffffffffffffffffffffffffffff16145b1561094c576040518060a001604052808673ffffffffffffffffffffffffffffffffffffffff1681526020013373ffffffffffffffffffffffffffffffffffffffff16815260200185815260200183815260200184815250600460008773ffffffffffffffffffffffffffffffffffffffff1673ffffffffffffffffffffffffffffffffffffffff168152602001908152602001600020828154811061085157fe5b906000526020600020906005020160008201518160000160006101000a81548173ffffffffffffffffffffffffffffffffffffffff021916908373ffffffffffffffffffffffffffffffffffffffff16021790555060208201518160010160006101000a81548173ffffffffffffffffffffffffffffffffffffffff021916908373ffffffffffffffffffffffffffffffffffffffff1602179055506040820151816002019080519060200190610909929190613fe7565b506060820151816003019080519060200190610926929190614067565b506080820151816004019080519060200190610943929190613fe7565b50905050610959565b80806001019150506105b6565b503373ffffffffffffffffffffffffffffffffffffffff168473ffffffffffffffffffffffffffffffffffffffff167f6c3162a93b6f25c30d8a8a04aa2b14f0c53bdc3a3d647e2ca02a701e95dbd78e846040516109b79190614e0f565b60405180910390a350505050565b60608060608060606000600360003373ffffffffffffffffffffffffffffffffffffffff1673ffffffffffffffffffffffffffffffffffffffff168152602001908152602001600020805490509050606081604051908082528060200260200182016040528015610a455781602001602082028038833980820191505090505b509050606082604051908082528060200260200182016040528015610a7e57816020015b6060815260200190600190039081610a695790505b509050606083604051908082528060200260200182016040528015610ab757816020015b6060815260200190600190039081610aa25790505b509050606084604051908082528060200260200182016040528015610af057816020015b6060815260200190600190039081610adb5790505b509050606085604051908082528060200260200182016040528015610b2957816020015b6060815260200190600190039081610b145790505b50905060008090505b86811015610fdb57610b426140e7565b600360003373ffffffffffffffffffffffffffffffffffffffff1673ffffffffffffffffffffffffffffffffffffffff1681526020019081526020016000208281548110610b8c57fe5b90600052602060002090600502016040518060a00160405290816000820160009054906101000a900473ffffffffffffffffffffffffffffffffffffffff1673ffffffffffffffffffffffffffffffffffffffff1673ffffffffffffffffffffffffffffffffffffffff1681526020016001820160009054906101000a900473ffffffffffffffffffffffffffffffffffffffff1673ffffffffffffffffffffffffffffffffffffffff1673ffffffffffffffffffffffffffffffffffffffff168152602001600282018054600181600116156101000203166002900480601f016020809104026020016040519081016040528092919081815260200182805460018160011615610100020316600290048015610cea5780601f10610cbf57610100808354040283529160200191610cea565b820191906000526020600020905b815481529060010190602001808311610ccd57829003601f168201915b50505050508152602001600382018054600181600116156101000203166002900480601f016020809104026020016040519081016040528092919081815260200182805460018160011615610100020316600290048015610d8c5780601f10610d6157610100808354040283529160200191610d8c565b820191906000526020600020905b815481529060010190602001808311610d6f57829003601f168201915b50505050508152602001600482018054600181600116156101000203166002900480601f016020809104026020016040519081016040528092919081815260200182805460018160011615610100020316600290048015610e2e5780601f10610e0357610100808354040283529160200191610e2e565b820191906000526020600020905b815481529060010190602001808311610e1157829003601f168201915b50505050508152505090508060000151878381518110610e4a57fe5b602002602001019073ffffffffffffffffffffffffffffffffffffffff16908173ffffffffffffffffffffffffffffffffffffffff1681525050600080826000015173ffffffffffffffffffffffffffffffffffffffff1673ffffffffffffffffffffffffffffffffffffffff1681526020019081526020016000206002018054600181600116156101000203166002900480601f016020809104026020016040519081016040528092919081815260200182805460018160011615610100020316600290048015610f5d5780601f10610f3257610100808354040283529160200191610f5d565b820191906000526020600020905b815481529060010190602001808311610f4057829003601f168201915b5050505050868381518110610f6e57fe5b60200260200101819052508060400151858381518110610f8a57fe5b60200260200101819052508060600151848381518110610fa657fe5b60200260200101819052508060800151838381518110610fc257fe5b6020026020010181905250508080600101915050610b32565b5084848484849a509a509a509a509a505050505050509091929394565b6000600260003373ffffffffffffffffffffffffffffffffffffffff1673ffffffffffffffffffffffffffffffffffffffff16815260200190815260200160002080549050905090565b600083511161105057600080fd5b600082511161105e57600080fd5b600081511161106c57600080fd5b61115e6000803373ffffffffffffffffffffffffffffffffffffffff1673ffffffffffffffffffffffffffffffffffffffff1681526020019081526020016000206000018054600181600116156101000203166002900480601f0160208091040260200160405190810160405280929190818152602001828054600181600116156101000203166002900480156111445780601f1061111957610100808354040283529160200191611144565b820191906000526020600020905b81548152906001019060200180831161112757829003601f168201915b505050505060405180602001604052806000815250613161565b801561125857506112576000803373ffffffffffffffffffffffffffffffffffffffff1673ffffffffffffffffffffffffffffffffffffffff1681526020019081526020016000206001018054600181600116156101000203166002900480601f01602080910402602001604051908101604052809291908181526020018280546001816001161561010002031660029004801561123d5780601f106112125761010080835404028352916020019161123d565b820191906000526020600020905b81548152906001019060200180831161122057829003601f168201915b505050505060405180602001604052806000815250613161565b5b80156112ce5750600073ffffffffffffffffffffffffffffffffffffffff166001826040516112879190614c0c565b908152602001604051809103902060009054906101000a900473ffffffffffffffffffffffffffffffffffffffff1673ffffffffffffffffffffffffffffffffffffffff16145b1561142b576040518060600160405280848152602001838152602001828152506000803373ffffffffffffffffffffffffffffffffffffffff1673ffffffffffffffffffffffffffffffffffffffff1681526020019081526020016000206000820151816000019080519060200190611348929190613fe7565b506020820151816001019080519060200190611365929190613fe7565b506040820151816002019080519060200190611382929190613fe7565b50905050336001826040516113979190614c0c565b908152602001604051809103902060006101000a81548173ffffffffffffffffffffffffffffffffffffffff021916908373ffffffffffffffffffffffffffffffffffffffff1602179055503373ffffffffffffffffffffffffffffffffffffffff167f54db7a5cb4735e1aac1f53db512d3390390bb6637bd30ad4bf9fc98667d9b9b960405160405180910390a2611aa5565b61151d6000803373ffffffffffffffffffffffffffffffffffffffff1673ffffffffffffffffffffffffffffffffffffffff1681526020019081526020016000206000018054600181600116156101000203166002900480601f0160208091040260200160405190810160405280929190818152602001828054600181600116156101000203166002900480156115035780601f106114d857610100808354040283529160200191611503565b820191906000526020600020905b8154815290600101906020018083116114e657829003601f168201915b505050505060405180602001604052806000815250613161565b801561161757506116166000803373ffffffffffffffffffffffffffffffffffffffff1673ffffffffffffffffffffffffffffffffffffffff1681526020019081526020016000206001018054600181600116156101000203166002900480601f0160208091040260200160405190810160405280929190818152602001828054600181600116156101000203166002900480156115fc5780601f106115d1576101008083540402835291602001916115fc565b820191906000526020600020905b8154815290600101906020018083116115df57829003601f168201915b505050505060405180602001604052806000815250613161565b5b801561168e5750600073ffffffffffffffffffffffffffffffffffffffff166001826040516116469190614c0c565b908152602001604051809103902060009054906101000a900473ffffffffffffffffffffffffffffffffffffffff1673ffffffffffffffffffffffffffffffffffffffff1614155b156116ce576040517f08c379a00000000000000000000000000000000000000000000000000000000081526004016116c590614e9d565b60405180910390fd5b6117b16000803373ffffffffffffffffffffffffffffffffffffffff1673ffffffffffffffffffffffffffffffffffffffff1681526020019081526020016000206000018054600181600116156101000203166002900480601f0160208091040260200160405190810160405280929190818152602001828054600181600116156101000203166002900480156117a65780601f1061177b576101008083540402835291602001916117a6565b820191906000526020600020905b81548152906001019060200180831161178957829003601f168201915b505050505084613161565b801561189c575061189b6000803373ffffffffffffffffffffffffffffffffffffffff1673ffffffffffffffffffffffffffffffffffffffff1681526020019081526020016000206001018054600181600116156101000203166002900480601f0160208091040260200160405190810160405280929190818152602001828054600181600116156101000203166002900480156118905780601f1061186557610100808354040283529160200191611890565b820191906000526020600020905b81548152906001019060200180831161187357829003601f168201915b505050505083613161565b5b801561191157503373ffffffffffffffffffffffffffffffffffffffff166001826040516118ca9190614c0c565b908152602001604051809103902060009054906101000a900473ffffffffffffffffffffffffffffffffffffffff1673ffffffffffffffffffffffffffffffffffffffff16145b15611951576040517f08c379a000000000000000000000000000000000000000000000000000000000815260040161194890614f1d565b60405180910390fd5b611a696040518060400160405280601b81526020017f5573657220616c726561647920726567697374657265642061732000000000008152506000803373ffffffffffffffffffffffffffffffffffffffff1673ffffffffffffffffffffffffffffffffffffffff1681526020019081526020016000206001018054600181600116156101000203166002900480601f016020809104026020016040519081016040528092919081815260200182805460018160011615610100020316600290048015611a5f5780601f10611a3457610100808354040283529160200191611a5f565b820191906000526020600020905b815481529060010190602001808311611a4257829003601f168201915b5050505050613d2e565b6040517f08c379a0000000000000000000000000000000000000000000000000000000008152600401611a9c9190614e0f565b60405180910390fd5b505050565b60608060606000855111611abd57600080fd5b6000845111611acb57600080fd5b611bbd6000803373ffffffffffffffffffffffffffffffffffffffff1673ffffffffffffffffffffffffffffffffffffffff1681526020019081526020016000206000018054600181600116156101000203166002900480601f016020809104026020016040519081016040528092919081815260200182805460018160011615610100020316600290048015611ba35780601f10611b7857610100808354040283529160200191611ba3565b820191906000526020600020905b815481529060010190602001808311611b8657829003601f168201915b505050505060405180602001604052806000815250613161565b158015611ca95750611ca86000803373ffffffffffffffffffffffffffffffffffffffff1673ffffffffffffffffffffffffffffffffffffffff1681526020019081526020016000206001018054600181600116156101000203166002900480601f016020809104026020016040519081016040528092919081815260200182805460018160011615610100020316600290048015611c9d5780601f10611c7257610100808354040283529160200191611c9d565b820191906000526020600020905b815481529060010190602001808311611c8057829003601f168201915b505050505086613161565b5b8015611d1e57503373ffffffffffffffffffffffffffffffffffffffff16600185604051611cd79190614c0c565b908152602001604051809103902060009054906101000a900473ffffffffffffffffffffffffffffffffffffffff1673ffffffffffffffffffffffffffffffffffffffff16145b15611d9d57836040518060400160405280600781526020017f7375636365737300000000000000000000000000000000000000000000000000815250906040518060400160405280601681526020017f4c6f676765642d696e207375636365737366756c6c790000000000000000000081525090925092509250612100565b611e8f6000803373ffffffffffffffffffffffffffffffffffffffff1673ffffffffffffffffffffffffffffffffffffffff1681526020019081526020016000206000018054600181600116156101000203166002900480601f016020809104026020016040519081016040528092919081815260200182805460018160011615610100020316600290048015611e755780601f10611e4a57610100808354040283529160200191611e75565b820191906000526020600020905b815481529060010190602001808311611e5857829003601f168201915b505050505060405180602001604052806000815250613161565b158015611f7b5750611f7a6000803373ffffffffffffffffffffffffffffffffffffffff1673ffffffffffffffffffffffffffffffffffffffff1681526020019081526020016000206001018054600181600116156101000203166002900480601f016020809104026020016040519081016040528092919081815260200182805460018160011615610100020316600290048015611f6f5780601f10611f4457610100808354040283529160200191611f6f565b820191906000526020600020905b815481529060010190602001808311611f5257829003601f168201915b505050505086613161565b5b8015611ff157503373ffffffffffffffffffffffffffffffffffffffff16600185604051611fa99190614c0c565b908152602001604051809103902060009054906101000a900473ffffffffffffffffffffffffffffffffffffffff1673ffffffffffffffffffffffffffffffffffffffff1614155b1561207d576040518060400160405280600781526020017f7761726e696e67000000000000000000000000000000000000000000000000008152506040518060400160405280601281526020017f496e636f727265637420757365726e616d65000000000000000000000000000081525060405180602001604052806000815250925092509250612100565b6040518060400160405280600781526020017f7761726e696e67000000000000000000000000000000000000000000000000008152506040518060400160405280601381526020017f5573657220646f6573206e6f7420657869737400000000000000000000000000815250604051806020016040528060008152509250925092505b9250925092565b8373ffffffffffffffffffffffffffffffffffffffff163373ffffffffffffffffffffffffffffffffffffffff161415612176576040517f08c379a000000000000000000000000000000000000000000000000000000000815260040161216d90614efd565b60405180910390fd5b600083511161218457600080fd5b600082511161219257600080fd5b60008151116121a057600080fd5b60008090505b600460003373ffffffffffffffffffffffffffffffffffffffff1673ffffffffffffffffffffffffffffffffffffffff168152602001908152602001600020805490508110156123ec576122ed600460003373ffffffffffffffffffffffffffffffffffffffff1673ffffffffffffffffffffffffffffffffffffffff168152602001908152602001600020828154811061223d57fe5b90600052602060002090600502016002018054600181600116156101000203166002900480601f0160208091040260200160405190810160405280929190818152602001828054600181600116156101000203166002900480156122e25780601f106122b7576101008083540402835291602001916122e2565b820191906000526020600020905b8154815290600101906020018083116122c557829003601f168201915b505050505085613161565b801561239f57508473ffffffffffffffffffffffffffffffffffffffff16600460003373ffffffffffffffffffffffffffffffffffffffff1673ffffffffffffffffffffffffffffffffffffffff168152602001908152602001600020828154811061235557fe5b906000526020600020906005020160010160009054906101000a900473ffffffffffffffffffffffffffffffffffffffff1673ffffffffffffffffffffffffffffffffffffffff16145b156123df576040517f08c379a00000000000000000000000000000000000000000000000000000000081526004016123d690614f3d565b60405180910390fd5b80806001019150506121a6565b50600360008573ffffffffffffffffffffffffffffffffffffffff1673ffffffffffffffffffffffffffffffffffffffff1681526020019081526020016000206040518060a001604052803373ffffffffffffffffffffffffffffffffffffffff1681526020018673ffffffffffffffffffffffffffffffffffffffff1681526020018581526020018481526020016040518060400160405280600981526020017f52657175657374656400000000000000000000000000000000000000000000008152508152509080600181540180825580915050906001820390600052602060002090600502016000909192909190915060008201518160000160006101000a81548173ffffffffffffffffffffffffffffffffffffffff021916908373ffffffffffffffffffffffffffffffffffffffff16021790555060208201518160010160006101000a81548173ffffffffffffffffffffffffffffffffffffffff021916908373ffffffffffffffffffffffffffffffffffffffff1602179055506040820151816002019080519060200190612589929190613fe7565b5060608201518160030190805190602001906125a6929190614067565b5060808201518160040190805190602001906125c3929190613fe7565b50505050600460003373ffffffffffffffffffffffffffffffffffffffff1673ffffffffffffffffffffffffffffffffffffffff1681526020019081526020016000206040518060a001604052803373ffffffffffffffffffffffffffffffffffffffff1681526020018673ffffffffffffffffffffffffffffffffffffffff1681526020018581526020018381526020016040518060400160405280600981526020017f52657175657374656400000000000000000000000000000000000000000000008152508152509080600181540180825580915050906001820390600052602060002090600502016000909192909190915060008201518160000160006101000a81548173ffffffffffffffffffffffffffffffffffffffff021916908373ffffffffffffffffffffffffffffffffffffffff16021790555060208201518160010160006101000a81548173ffffffffffffffffffffffffffffffffffffffff021916908373ffffffffffffffffffffffffffffffffffffffff1602179055506040820151816002019080519060200190612763929190613fe7565b506060820151816003019080519060200190612780929190614067565b50608082015181600401908051906020019061279d929190613fe7565b505050508373ffffffffffffffffffffffffffffffffffffffff163373ffffffffffffffffffffffffffffffffffffffff167f2286e284ed277a7f4da5a88f0e47927f93a4c2407975b4fbd236f444c46e130a60405160405180910390a350505050565b600060608060008090505b600260003373ffffffffffffffffffffffffffffffffffffffff1673ffffffffffffffffffffffffffffffffffffffff16815260200190815260200160002080549050811015612aaa5761285e614142565b600260003373ffffffffffffffffffffffffffffffffffffffff1673ffffffffffffffffffffffffffffffffffffffff16815260200190815260200160002082815481106128a857fe5b90600052602060002090600402016040518060800160405290816000820160009054906101000a900473ffffffffffffffffffffffffffffffffffffffff1673ffffffffffffffffffffffffffffffffffffffff1673ffffffffffffffffffffffffffffffffffffffff16815260200160018201548152602001600282018054600181600116156101000203166002900480601f0160208091040260200160405190810160405280929190818152602001828054600181600116156101000203166002900480156129ba5780601f1061298f576101008083540402835291602001916129ba565b820191906000526020600020905b81548152906001019060200180831161299d57829003601f168201915b50505050508152602001600382018054600181600116156101000203166002900480601f016020809104026020016040519081016040528092919081815260200182805460018160011615610100020316600290048015612a5c5780601f10612a3157610100808354040283529160200191612a5c565b820191906000526020600020905b815481529060010190602001808311612a3f57829003601f168201915b5050505050815250509050612a75868260400151613161565b15612a9c578060000151816040015182606001518191508090509450945094505050612ae6565b50808060010191505061280c565b506040517f08c379a0000000000000000000000000000000000000000000000000000000008152600401612add90614e7d565b60405180910390fd5b9193909250565b6060600073ffffffffffffffffffffffffffffffffffffffff168273ffffffffffffffffffffffffffffffffffffffff161415612b2957600080fd5b6000808373ffffffffffffffffffffffffffffffffffffffff1673ffffffffffffffffffffffffffffffffffffffff1681526020019081526020016000206000018054600181600116156101000203166002900480601f016020809104026020016040519081016040528092919081815260200182805460018160011615610100020316600290048015612bfe5780601f10612bd357610100808354040283529160200191612bfe565b820191906000526020600020905b815481529060010190602001808311612be157829003601f168201915b50505050509050919050565b6000855111612c1857600080fd5b6000835111612c2657600080fd5b3373ffffffffffffffffffffffffffffffffffffffff168173ffffffffffffffffffffffffffffffffffffffff161415612c95576040517f08c379a0000000000000000000000000000000000000000000000000000000008152600401612c8c90614edd565b60405180910390fd5b600260008273ffffffffffffffffffffffffffffffffffffffff1673ffffffffffffffffffffffffffffffffffffffff16815260200190815260200160002060405180608001604052803373ffffffffffffffffffffffffffffffffffffffff168152602001868152602001878152602001858152509080600181540180825580915050906001820390600052602060002090600402016000909192909190915060008201518160000160006101000a81548173ffffffffffffffffffffffffffffffffffffffff021916908373ffffffffffffffffffffffffffffffffffffffff160217905550602082015181600101556040820151816002019080519060200190612da3929190613fe7565b506060820151816003019080519060200190612dc0929190614067565b505050503373ffffffffffffffffffffffffffffffffffffffff168173ffffffffffffffffffffffffffffffffffffffff167f303012c12f720b747dff3c4a0cec152ee2e833f7ae5dddfda967235543b0cf0e60405160405180910390a3612e29858333613d5a565b5050505050565b606080606060006005805490509050606081604051908082528060200260200182016040528015612e705781602001602082028038833980820191505090505b509050606082604051908082528060200260200182016040528015612ea957816020015b6060815260200190600190039081612e945790505b509050606083604051908082528060200260200182016040528015612ee257816020015b6060815260200190600190039081612ecd5790505b50905060008090505b8481101561314e57612efb614180565b60058281548110612f0857fe5b90600052602060002090600302016040518060600160405290816000820160009054906101000a900473ffffffffffffffffffffffffffffffffffffffff1673ffffffffffffffffffffffffffffffffffffffff1673ffffffffffffffffffffffffffffffffffffffff168152602001600182018054600181600116156101000203166002900480601f0160208091040260200160405190810160405280929190818152602001828054600181600116156101000203166002900480156130105780601f10612fe557610100808354040283529160200191613010565b820191906000526020600020905b815481529060010190602001808311612ff357829003601f168201915b50505050508152602001600282018054600181600116156101000203166002900480601f0160208091040260200160405190810160405280929190818152602001828054600181600116156101000203166002900480156130b25780601f10613087576101008083540402835291602001916130b2565b820191906000526020600020905b81548152906001019060200180831161309557829003601f168201915b505050505081525050905080600001518583815181106130ce57fe5b602002602001019073ffffffffffffffffffffffffffffffffffffffff16908173ffffffffffffffffffffffffffffffffffffffff1681525050806020015184838151811061311957fe5b6020026020010181905250806040015183838151811061313557fe5b6020026020010181905250508080600101915050612eeb565b5082828296509650965050505050909192565b6000816040516020016131749190614c0c565b604051602081830303815290604052805190602001208360405160200161319b9190614c0c565b6040516020818303038152906040528051906020012014905092915050565b60608060608060606000600260003373ffffffffffffffffffffffffffffffffffffffff1673ffffffffffffffffffffffffffffffffffffffff16815260200190815260200160002080549050905060608160405190808252806020026020018201604052801561323a5781602001602082028038833980820191505090505b50905060608260405190808252806020026020018201604052801561327357816020015b606081526020019060019003908161325e5790505b5090506060836040519080825280602002602001820160405280156132a75781602001602082028038833980820191505090505b5090506060846040519080825280602002602001820160405280156132e057816020015b60608152602001906001900390816132cb5790505b50905060608560405190808252806020026020018201604052801561331957816020015b60608152602001906001900390816133045790505b50905060008090505b868110156136de57613332614142565b600260003373ffffffffffffffffffffffffffffffffffffffff1673ffffffffffffffffffffffffffffffffffffffff168152602001908152602001600020828154811061337c57fe5b90600052602060002090600402016040518060800160405290816000820160009054906101000a900473ffffffffffffffffffffffffffffffffffffffff1673ffffffffffffffffffffffffffffffffffffffff1673ffffffffffffffffffffffffffffffffffffffff16815260200160018201548152602001600282018054600181600116156101000203166002900480601f01602080910402602001604051908101604052809291908181526020018280546001816001161561010002031660029004801561348e5780601f106134635761010080835404028352916020019161348e565b820191906000526020600020905b81548152906001019060200180831161347157829003601f168201915b50505050508152602001600382018054600181600116156101000203166002900480601f0160208091040260200160405190810160405280929190818152602001828054600181600116156101000203166002900480156135305780601f1061350557610100808354040283529160200191613530565b820191906000526020600020905b81548152906001019060200180831161351357829003601f168201915b5050505050815250509050806000015187838151811061354c57fe5b602002602001019073ffffffffffffffffffffffffffffffffffffffff16908173ffffffffffffffffffffffffffffffffffffffff1681525050600080826000015173ffffffffffffffffffffffffffffffffffffffff1673ffffffffffffffffffffffffffffffffffffffff1681526020019081526020016000206002018054600181600116156101000203166002900480601f01602080910402602001604051908101604052809291908181526020018280546001816001161561010002031660029004801561365f5780601f106136345761010080835404028352916020019161365f565b820191906000526020600020905b81548152906001019060200180831161364257829003601f168201915b505050505086838151811061367057fe5b6020026020010181905250806020015185838151811061368c57fe5b60200260200101818152505080604001518483815181106136a957fe5b602002602001018190525080606001518383815181106136c557fe5b6020026020010181905250508080600101915050613322565b5084848484849a509a509a509a509a505050505050509091929394565b60608060608060606000600460003373ffffffffffffffffffffffffffffffffffffffff1673ffffffffffffffffffffffffffffffffffffffff16815260200190815260200160002080549050905060608160405190808252806020026020018201604052801561377b5781602001602082028038833980820191505090505b5090506060826040519080825280602002602001820160405280156137b457816020015b606081526020019060019003908161379f5790505b5090506060836040519080825280602002602001820160405280156137ed57816020015b60608152602001906001900390816137d85790505b50905060608460405190808252806020026020018201604052801561382657816020015b60608152602001906001900390816138115790505b50905060608560405190808252806020026020018201604052801561385f57816020015b606081526020019060019003908161384a5790505b50905060008090505b86811015613d11576138786140e7565b600460003373ffffffffffffffffffffffffffffffffffffffff1673ffffffffffffffffffffffffffffffffffffffff16815260200190815260200160002082815481106138c257fe5b90600052602060002090600502016040518060a00160405290816000820160009054906101000a900473ffffffffffffffffffffffffffffffffffffffff1673ffffffffffffffffffffffffffffffffffffffff1673ffffffffffffffffffffffffffffffffffffffff1681526020016001820160009054906101000a900473ffffffffffffffffffffffffffffffffffffffff1673ffffffffffffffffffffffffffffffffffffffff1673ffffffffffffffffffffffffffffffffffffffff168152602001600282018054600181600116156101000203166002900480601f016020809104026020016040519081016040528092919081815260200182805460018160011615610100020316600290048015613a205780601f106139f557610100808354040283529160200191613a20565b820191906000526020600020905b815481529060010190602001808311613a0357829003601f168201915b50505050508152602001600382018054600181600116156101000203166002900480601f016020809104026020016040519081016040528092919081815260200182805460018160011615610100020316600290048015613ac25780601f10613a9757610100808354040283529160200191613ac2565b820191906000526020600020905b815481529060010190602001808311613aa557829003601f168201915b50505050508152602001600482018054600181600116156101000203166002900480601f016020809104026020016040519081016040528092919081815260200182805460018160011615610100020316600290048015613b645780601f10613b3957610100808354040283529160200191613b64565b820191906000526020600020905b815481529060010190602001808311613b4757829003601f168201915b50505050508152505090508060200151878381518110613b8057fe5b602002602001019073ffffffffffffffffffffffffffffffffffffffff16908173ffffffffffffffffffffffffffffffffffffffff1681525050600080826020015173ffffffffffffffffffffffffffffffffffffffff1673ffffffffffffffffffffffffffffffffffffffff1681526020019081526020016000206002018054600181600116156101000203166002900480601f016020809104026020016040519081016040528092919081815260200182805460018160011615610100020316600290048015613c935780601f10613c6857610100808354040283529160200191613c93565b820191906000526020600020905b815481529060010190602001808311613c7657829003601f168201915b5050505050868381518110613ca457fe5b60200260200101819052508060400151858381518110613cc057fe5b60200260200101819052508060600151848381518110613cdc57fe5b60200260200101819052508060800151838381518110613cf857fe5b6020026020010181905250508080600101915050613868565b5084848484849a509a509a509a509a505050505050509091929394565b60608282604051602001613d43929190614c23565b604051602081830303815290604052905092915050565b60008090505b600580549050811015613e4557613e2d60058281548110613d7d57fe5b90600052602060002090600302016001018054600181600116156101000203166002900480601f016020809104026020016040519081016040528092919081815260200182805460018160011615610100020316600290048015613e225780601f10613df757610100808354040283529160200191613e22565b820191906000526020600020905b815481529060010190602001808311613e0557829003601f168201915b505050505085613161565b15613e385750613f62565b8080600101915050613d60565b50600560405180606001604052808373ffffffffffffffffffffffffffffffffffffffff168152602001858152602001848152509080600181540180825580915050906001820390600052602060002090600302016000909192909190915060008201518160000160006101000a81548173ffffffffffffffffffffffffffffffffffffffff021916908373ffffffffffffffffffffffffffffffffffffffff1602179055506020820151816001019080519060200190613f07929190613fe7565b506040820151816002019080519060200190613f24929190613fe7565b505050507f20542dec84858b9f4322835bfcc83c7f5ee03c8471237b7f43ab5e0d848c512f8184604051613f59929190614c47565b60405180910390a15b505050565b828054600181600116156101000203166002900490600052602060002090601f016020900481019282601f10613fa857805160ff1916838001178555613fd6565b82800160010185558215613fd6579182015b82811115613fd5578251825591602001919060010190613fba565b5b509050613fe391906141b7565b5090565b828054600181600116156101000203166002900490600052602060002090601f016020900481019282601f1061402857805160ff1916838001178555614056565b82800160010185558215614056579182015b8281111561405557825182559160200191906001019061403a565b5b50905061406391906141b7565b5090565b828054600181600116156101000203166002900490600052602060002090601f016020900481019282601f106140a857805160ff19168380011785556140d6565b828001600101855582156140d6579182015b828111156140d55782518255916020019190600101906140ba565b5b5090506140e391906141b7565b5090565b6040518060a00160405280600073ffffffffffffffffffffffffffffffffffffffff168152602001600073ffffffffffffffffffffffffffffffffffffffff1681526020016060815260200160608152602001606081525090565b6040518060800160405280600073ffffffffffffffffffffffffffffffffffffffff1681526020016000815260200160608152602001606081525090565b6040518060600160405280600073ffffffffffffffffffffffffffffffffffffffff16815260200160608152602001606081525090565b6141d991905b808211156141d55760008160009055506001016141bd565b5090565b90565b6000813590506141eb816151f7565b92915050565b600082601f83011261420257600080fd5b813561421561421082614fa5565b614f78565b9150808252602083016020830185838301111561423157600080fd5b61423c8382846151a4565b50505092915050565b600082601f83011261425657600080fd5b813561426961426482614fd1565b614f78565b9150808252602083016020830185838301111561428557600080fd5b6142908382846151a4565b50505092915050565b6000813590506142a88161520e565b92915050565b6000602082840312156142c057600080fd5b60006142ce848285016141dc565b91505092915050565b600080600080608085870312156142ed57600080fd5b60006142fb878288016141dc565b945050602085013567ffffffffffffffff81111561431857600080fd5b61432487828801614245565b935050604085013567ffffffffffffffff81111561434157600080fd5b61434d878288016141f1565b925050606085013567ffffffffffffffff81111561436a57600080fd5b614376878288016141f1565b91505092959194509250565b6000806000806080858703121561439857600080fd5b60006143a6878288016141dc565b945050602085013567ffffffffffffffff8111156143c357600080fd5b6143cf87828801614245565b935050604085013567ffffffffffffffff8111156143ec57600080fd5b6143f887828801614245565b925050606085013567ffffffffffffffff81111561441557600080fd5b614421878288016141f1565b91505092959194509250565b60006020828403121561443f57600080fd5b600082013567ffffffffffffffff81111561445957600080fd5b61446584828501614245565b91505092915050565b6000806040838503121561448157600080fd5b600083013567ffffffffffffffff81111561449b57600080fd5b6144a785828601614245565b925050602083013567ffffffffffffffff8111156144c457600080fd5b6144d085828601614245565b9150509250929050565b6000806000606084860312156144ef57600080fd5b600084013567ffffffffffffffff81111561450957600080fd5b61451586828701614245565b935050602084013567ffffffffffffffff81111561453257600080fd5b61453e86828701614245565b925050604084013567ffffffffffffffff81111561455b57600080fd5b61456786828701614245565b9150509250925092565b600080600080600060a0868803121561458957600080fd5b600086013567ffffffffffffffff8111156145a357600080fd5b6145af88828901614245565b95505060206145c088828901614299565b945050604086013567ffffffffffffffff8111156145dd57600080fd5b6145e9888289016141f1565b935050606086013567ffffffffffffffff81111561460657600080fd5b61461288828901614245565b9250506080614623888289016141dc565b9150509295509295909350565b600061463c8383614688565b60208301905092915050565b60006146548383614894565b905092915050565b60006146688383614937565b905092915050565b600061467c8383614bee565b60208301905092915050565b6146918161515c565b82525050565b6146a08161515c565b82525050565b60006146b18261503d565b6146bb81856150c9565b93506146c683614ffd565b8060005b838110156146f75781516146de8882614630565b97506146e983615095565b9250506001810190506146ca565b5085935050505092915050565b600061470f82615048565b61471981856150da565b93508360208202850161472b8561500d565b8060005b8581101561476757848403895281516147488582614648565b9450614753836150a2565b925060208a0199505060018101905061472f565b50829750879550505050505092915050565b600061478482615053565b61478e81856150eb565b9350836020820285016147a08561501d565b8060005b858110156147dc57848403895281516147bd858261465c565b94506147c8836150af565b925060208a019950506001810190506147a4565b50829750879550505050505092915050565b60006147f98261505e565b61480381856150fc565b935061480e8361502d565b8060005b8381101561483f5781516148268882614670565b9750614831836150bc565b925050600181019050614812565b5085935050505092915050565b6148558161516e565b82525050565b600061486682615074565b614870818561511e565b93506148808185602086016151b3565b614889816151e6565b840191505092915050565b600061489f82615069565b6148a9818561510d565b93506148b98185602086016151b3565b6148c2816151e6565b840191505092915050565b60006148d88261508a565b6148e28185615140565b93506148f28185602086016151b3565b6148fb816151e6565b840191505092915050565b60006149118261508a565b61491b8185615151565b935061492b8185602086016151b3565b80840191505092915050565b60006149428261507f565b61494c818561512f565b935061495c8185602086016151b3565b614965816151e6565b840191505092915050565b600061497d602583615140565b91507f5573657220646f6573206e6f7420686176652073706563696669656420646f6360008301527f756d656e740000000000000000000000000000000000000000000000000000006020830152604082019050919050565b60006149e3601b83615140565b91507f506c656173652075736520616e6f7468657220757365726e616d6500000000006000830152602082019050919050565b6000614a23602583615140565b91507f56657269666965722063616e6e6f74207570646174652072657175657374207360008301527f74617475730000000000000000000000000000000000000000000000000000006020830152604082019050919050565b6000614a89602683615140565b91507f596f752063616e6e6f7420697373756520646f63756d656e7420666f7220796f60008301527f757273656c6600000000000000000000000000000000000000000000000000006020830152604082019050919050565b6000614aef602883615140565b91507f43616e6e6f74207265717565737420766572696669636174696f6e20666f722060008301527f796f757273656c660000000000000000000000000000000000000000000000006020830152604082019050919050565b6000614b55601a83615140565b91507f596f752061726520616c726561647920726567697374657265640000000000006000830152602082019050919050565b6000614b95602883615140565b91507f596f75206861766520616c72656164792072657175657374656420746869732060008301527f646f63756d656e740000000000000000000000000000000000000000000000006020830152604082019050919050565b614bf78161519a565b82525050565b614c068161519a565b82525050565b6000614c188284614906565b915081905092915050565b6000614c2f8285614906565b9150614c3b8284614906565b91508190509392505050565b6000604082019050614c5c6000830185614697565b8181036020830152614c6e81846148cd565b90509392505050565b6000606082019050614c8c6000830186614697565b8181036020830152614c9e81856148cd565b90508181036040830152614cb2818461485b565b9050949350505050565b60006060820190508181036000830152614cd681866146a6565b90508181036020830152614cea8185614779565b90508181036040830152614cfe8184614779565b9050949350505050565b600060a0820190508181036000830152614d2281886146a6565b90508181036020830152614d368187614779565b90508181036040830152614d4a8186614779565b90508181036060830152614d5e8185614704565b90508181036080830152614d728184614779565b90509695505050505050565b600060a0820190508181036000830152614d9881886146a6565b90508181036020830152614dac8187614779565b90508181036040830152614dc081866147ee565b90508181036060830152614dd48185614779565b90508181036080830152614de88184614704565b90509695505050505050565b6000602082019050614e09600083018461484c565b92915050565b60006020820190508181036000830152614e2981846148cd565b905092915050565b60006060820190508181036000830152614e4b81866148cd565b90508181036020830152614e5f81856148cd565b90508181036040830152614e7381846148cd565b9050949350505050565b60006020820190508181036000830152614e9681614970565b9050919050565b60006020820190508181036000830152614eb6816149d6565b9050919050565b60006020820190508181036000830152614ed681614a16565b9050919050565b60006020820190508181036000830152614ef681614a7c565b9050919050565b60006020820190508181036000830152614f1681614ae2565b9050919050565b60006020820190508181036000830152614f3681614b48565b9050919050565b60006020820190508181036000830152614f5681614b88565b9050919050565b6000602082019050614f726000830184614bfd565b92915050565b6000604051905081810181811067ffffffffffffffff82111715614f9b57600080fd5b8060405250919050565b600067ffffffffffffffff821115614fbc57600080fd5b601f19601f8301169050602081019050919050565b600067ffffffffffffffff821115614fe857600080fd5b601f19601f8301169050602081019050919050565b6000819050602082019050919050565b6000819050602082019050919050565b6000819050602082019050919050565b6000819050602082019050919050565b600081519050919050565b600081519050919050565b600081519050919050565b600081519050919050565b600081519050919050565b600081519050919050565b600081519050919050565b600081519050919050565b6000602082019050919050565b6000602082019050919050565b6000602082019050919050565b6000602082019050919050565b600082825260208201905092915050565b600082825260208201905092915050565b600082825260208201905092915050565b600082825260208201905092915050565b600082825260208201905092915050565b600082825260208201905092915050565b600082825260208201905092915050565b600082825260208201905092915050565b600081905092915050565b60006151678261517a565b9050919050565b60008115159050919050565b600073ffffffffffffffffffffffffffffffffffffffff82169050919050565b6000819050919050565b82818337600083830152505050565b60005b838110156151d15780820151818401526020810190506151b6565b838111156151e0576000848401525b50505050565b6000601f19601f8301169050919050565b6152008161515c565b811461520b57600080fd5b50565b6152178161519a565b811461522257600080fd5b5056fea365627a7a72315820c89ea3ef96d8e821de57851e50711b1c5e5cad78bd2d1cbdf83e9a4034d14d526c6578706572696d656e74616cf564736f6c63430005100040",
  "source": "// SPDX-License-Identifier: MIT\r\npragma solidity >=0.4.21 <0.7.0;\r\npragma experimental ABIEncoderV2;\r\n\r\ncontract IdentityManager {\r\n\r\n  struct User {\r\n    string encryptionPublicKey;\r\n    string entity;\r\n    string username;\r\n  }\r\n\r\n  struct Document {\r\n    address issuer;\r\n    uint dateOfIssue;\r\n    string name;\r\n    bytes data;\r\n  }\r\n\r\n  struct Template {\r\n    address issuer;\r\n    string name;\r\n    string data;\r\n  }\r\n\r\n  struct Request {\r\n    address requestor;\r\n    address owner;\r\n    string docName;\r\n    bytes properties;\r\n    string status;\r\n  }\r\n\r\n  mapping(address => User) userDb;\r\n  mapping(string => address) usernameDb;\r\n  mapping(address => Document[]) identities;\r\n  mapping(address => Request[]) ownerRequests;\r\n  mapping(address => Request[]) verifierRequests;\r\n  Template[] templates;\r\n\r\n  event UserRegistered (\r\n    address indexed user\r\n  );\r\n\r\n  event DocumentIssued (\r\n    address indexed owner,\r\n    address indexed issuer\r\n  );\r\n\r\n  event TemplateCreated (\r\n    address issuer,\r\n    string name\r\n  );\r\n\r\n  event RequestGenerated (\r\n    address indexed verifier,\r\n    address indexed owner\r\n  );\r\n\r\n  event RequestStatusUpdated (\r\n    address indexed verifier,\r\n    address indexed owner,\r\n    string status\r\n  );\r\n\r\n  function login(string memory _entity, string memory _username) view public returns(string memory, string memory, string memory) {\r\n    require(bytes(_entity).length > 0);\r\n    require(bytes(_username).length > 0);\r\n\r\n    if (!compareStringsbyBytes(userDb[msg.sender].encryptionPublicKey, '') && compareStringsbyBytes(userDb[msg.sender].entity, _entity) && usernameDb[_username] == msg.sender) {\r\n      // Success\r\n      return ('success', 'Logged-in successfully', _username);\r\n    } else if (!compareStringsbyBytes(userDb[msg.sender].encryptionPublicKey, '') && compareStringsbyBytes(userDb[msg.sender].entity, _entity) && usernameDb[_username] != msg.sender) {\r\n      // Incorrect username\r\n      return ('warning', 'Incorrect username', '');\r\n    } else {\r\n      // Failure\r\n      return ('warning', 'User does not exist', '');\r\n    }\r\n  }\r\n\r\n  function register(string memory _encryptionPublicKey, string memory _entity, string memory _username) public {\r\n    require(bytes(_encryptionPublicKey).length > 0);\r\n    require(bytes(_entity).length > 0);\r\n    require(bytes(_username).length > 0);\r\n\r\n    if (compareStringsbyBytes(userDb[msg.sender].encryptionPublicKey, '') && compareStringsbyBytes(userDb[msg.sender].entity, '') && usernameDb[_username] == address(0)) {\r\n      // Success\r\n      userDb[msg.sender] = User(_encryptionPublicKey, _entity, _username);\r\n      usernameDb[_username] = msg.sender;\r\n      emit UserRegistered(msg.sender);\r\n    } else if (compareStringsbyBytes(userDb[msg.sender].encryptionPublicKey, '') && compareStringsbyBytes(userDb[msg.sender].entity, '') && usernameDb[_username] != address(0)) {\r\n      // Incorrect username\r\n      revert('Please use another username');\r\n    } else if (compareStringsbyBytes(userDb[msg.sender].encryptionPublicKey, _encryptionPublicKey) && compareStringsbyBytes(userDb[msg.sender].entity, _entity) && usernameDb[_username] == msg.sender) {\r\n      // Failure\r\n      revert('You are already registered');\r\n    } else {\r\n      // Failure\r\n      revert(append('User already registered as ', userDb[msg.sender].entity));\r\n    }\r\n  }\r\n\r\n  function issueDocument(string memory _name, uint _dateOfIssue, bytes memory _data, string memory _templateData, address _owner) public {\r\n    require(bytes(_name).length > 0);\r\n    require(bytes(_data).length > 0);\r\n    require(_owner != msg.sender, 'You cannot issue document for yourself');\r\n\r\n    identities[_owner].push(Document(msg.sender, _dateOfIssue, _name, _data));\r\n    emit DocumentIssued(_owner, msg.sender);\r\n\r\n    createTemplate(_name, _templateData, msg.sender);\r\n  }\r\n\r\n  function createTemplate(string memory _name, string memory _data, address _issuer) internal {\r\n    for (uint256 index = 0; index < templates.length; index++) {\r\n      if (compareStringsbyBytes(templates[index].name, _name)) {\r\n        return;\r\n      }\r\n    }\r\n    templates.push(Template(_issuer, _name, _data));\r\n    emit TemplateCreated(_issuer, _name);\r\n  }\r\n\r\n  function getTemplates() view public returns(address[] memory, string[] memory, string[] memory) {\r\n    uint _templateCount = templates.length;\r\n    address[] memory _issuer = new address[](_templateCount);\r\n    string[] memory _name = new string[](_templateCount);\r\n    string[] memory _data = new string[](_templateCount);\r\n\r\n    for (uint256 index = 0; index < _templateCount; index++) {\r\n      Template memory _tempCopy = templates[index];\r\n      _issuer[index] = _tempCopy.issuer;\r\n      _name[index] = _tempCopy.name;\r\n      _data[index] = _tempCopy.data;\r\n    }\r\n\r\n    return (_issuer, _name, _data);\r\n  }\r\n\r\n  function getDocuments() view public returns(address[] memory, string[] memory, uint[] memory, string[] memory, bytes[] memory) {\r\n    uint _documentCount = identities[msg.sender].length;\r\n    address[] memory _issuer = new address[](_documentCount);\r\n    string[] memory _issuerUsername = new string[](_documentCount);\r\n    uint[] memory _dateOfIssue = new uint[](_documentCount);\r\n    string[] memory _name = new string[](_documentCount);\r\n    bytes[] memory _data = new bytes[](_documentCount);\r\n\r\n    for (uint256 index = 0; index < _documentCount; index++) {\r\n      Document memory _docCopy = identities[msg.sender][index];\r\n      _issuer[index] = _docCopy.issuer;\r\n      _issuerUsername[index] = userDb[_docCopy.issuer].username;\r\n      _dateOfIssue[index] = _docCopy.dateOfIssue;\r\n      _name[index] = _docCopy.name;\r\n      _data[index] = _docCopy.data;\r\n    }\r\n\r\n    return (_issuer, _issuerUsername, _dateOfIssue, _name, _data);\r\n  }\r\n\r\n  function getDocument(string memory _name) view public returns(address, string memory, bytes memory) {\r\n    for (uint256 index = 0; index < identities[msg.sender].length; index++) {\r\n      Document memory _docCopy = identities[msg.sender][index];\r\n      if (compareStringsbyBytes(_name, _docCopy.name)) {\r\n        return (_docCopy.issuer, _docCopy.name, _docCopy.data);\r\n      }\r\n    }\r\n    revert('User does not have specified document');\r\n  }\r\n\r\n  function getDocumentCount() view public returns(uint) {\r\n    return identities[msg.sender].length;\r\n  }\r\n\r\n  function requestVerification(address _owner, string memory _docName, bytes memory _propertiesOwner, bytes memory _propertiesVerifier) public {\r\n    require(msg.sender != _owner, 'Cannot request verification for yourself');\r\n    require(bytes(_docName).length > 0);\r\n    require(bytes(_propertiesOwner).length > 0);\r\n    require(bytes(_propertiesVerifier).length > 0);\r\n\r\n    for (uint256 index = 0; index < verifierRequests[msg.sender].length; index++) {\r\n      if (compareStringsbyBytes(verifierRequests[msg.sender][index].docName, _docName) && verifierRequests[msg.sender][index].owner == _owner) {\r\n        revert('You have already requested this document');\r\n      }\r\n    }\r\n\r\n    ownerRequests[_owner].push(Request(msg.sender, _owner, _docName, _propertiesOwner, 'Requested'));\r\n    verifierRequests[msg.sender].push(Request(msg.sender, _owner, _docName, _propertiesVerifier, 'Requested'));\r\n    emit RequestGenerated(msg.sender, _owner);\r\n  }\r\n\r\n  function updateRequestStatus(address _verifier, string memory _docName, string memory _newStatus, bytes memory _properties) public {\r\n    require(_verifier != msg.sender, 'Verifier cannot update request status');\r\n    require(bytes(_docName).length > 0);\r\n\r\n    for (uint256 index = 0; index < ownerRequests[msg.sender].length; index++) {\r\n      if (compareStringsbyBytes(ownerRequests[msg.sender][index].docName, _docName) && ownerRequests[msg.sender][index].requestor == _verifier) {\r\n        ownerRequests[msg.sender][index].status = _newStatus;\r\n        break;\r\n      }\r\n    }\r\n\r\n    for (uint256 index = 0; index < verifierRequests[_verifier].length; index++) {\r\n      if (compareStringsbyBytes(verifierRequests[_verifier][index].docName, _docName) && verifierRequests[_verifier][index].owner == msg.sender) {\r\n        verifierRequests[_verifier][index] = Request(_verifier, msg.sender, _docName, _properties, _newStatus);\r\n        break;\r\n      }\r\n    }\r\n\r\n    emit RequestStatusUpdated(_verifier, msg.sender, _newStatus);\r\n  }\r\n\r\n  function getOwnerRequests() view public returns(address[] memory, string[] memory, string[] memory, bytes[] memory, string[] memory) {\r\n    uint _reqCount = ownerRequests[msg.sender].length;\r\n    address[] memory _requestor = new address[](_reqCount);\r\n    string[] memory _reqUsername = new string[](_reqCount);\r\n    string[] memory _docName = new string[](_reqCount);\r\n    bytes[] memory _properties = new bytes[](_reqCount);\r\n    string[] memory _status = new string[](_reqCount);\r\n\r\n    for (uint256 index = 0; index < _reqCount; index++) {\r\n      Request memory _reqCopy = ownerRequests[msg.sender][index];\r\n      _requestor[index] = _reqCopy.requestor;\r\n      _reqUsername[index] = userDb[_reqCopy.requestor].username;\r\n      _docName[index] = _reqCopy.docName;\r\n      _properties[index] = _reqCopy.properties;\r\n      _status[index] = _reqCopy.status;\r\n    }\r\n\r\n    return (_requestor, _reqUsername, _docName, _properties, _status);\r\n  }\r\n\r\n  function getVerifierRequests() view public returns(address[] memory, string[] memory, string[] memory, bytes[] memory, string[] memory) {\r\n    uint _reqCount = verifierRequests[msg.sender].length;\r\n    address[] memory _owner = new address[](_reqCount);\r\n    string[] memory _ownerUsername = new string[](_reqCount);\r\n    string[] memory _docName = new string[](_reqCount);\r\n    bytes[] memory _properties = new bytes[](_reqCount);\r\n    string[] memory _status = new string[](_reqCount);\r\n\r\n    for (uint256 index = 0; index < _reqCount; index++) {\r\n      Request memory _reqCopy = verifierRequests[msg.sender][index];\r\n      _owner[index] = _reqCopy.owner;\r\n      _ownerUsername[index] = userDb[_reqCopy.owner].username;\r\n      _docName[index] = _reqCopy.docName;\r\n      _properties[index] = _reqCopy.properties;\r\n      _status[index] = _reqCopy.status;\r\n    }\r\n\r\n    return (_owner, _ownerUsername, _docName, _properties, _status);\r\n  }\r\n\r\n  function getEncryptionPublicKey(address _owner) view public returns(string memory) {\r\n    require(_owner != address(0));\r\n\r\n    return userDb[_owner].encryptionPublicKey;\r\n  }\r\n\r\n  function compareStringsbyBytes(string memory s1, string memory s2) public pure returns(bool) {\r\n    return keccak256(abi.encodePacked(s1)) == keccak256(abi.encodePacked(s2));\r\n  }\r\n\r\n  function append(string memory a, string memory b) internal pure returns (string memory) {\r\n    return string(abi.encodePacked(a, b));\r\n  }\r\n}",
  "sourcePath": "C:/Users/Chaitanya/Documents/Academics/Projects/UniversalIMS/IMS_Contract/contracts/IdentityManager.sol",
  "compiler": {
    "name": "solc",
    "version": "0.5.16+commit.9c3226ce.Emscripten.clang"
  },
  "schemaVersion": "3.3.4",
  "updatedAt": "2021-05-09T12:59:17.946Z",
  "networkType": "ethereum",
  "devdoc": {
    "methods": {}
  },
  "userdoc": {
    "methods": {}
  }
}